:020000040800F2
:1000000000C00020F94B0008AD2F0008AF2F0008FA
:10001000B12F0008B32F0008B52F00080000000022
:10002000000000000000000000000000B72F0008E2
:10003000B92F000800000000BB2F0008BD2F0008EA
:10004000414C0008414C0008414C0008414C00085C
:10005000414C0008414C0008414C0008414C00084C
:10006000414C0008414C0008414C0008414C00083C
:10007000414C0008414C0008414C0008414C00082C
:10008000414C0008414C0008C52F0008414C0008B5
:10009000414C0008414C0008414C0008414C00080C
:1000A000D52F0008E52F0008F52F000805300008BF
:1000B0001530000825300008414C0008414C00086C
:1000C000414C0008414C0008414C0008414C0008DC
:1000D000414C0008414C0008F53600087D37000807
:1000E000414C0008414C0008414C0008414C0008BC
:1000F000414C0008414C0008414C0008414C0008AC
:10010000414C0008414C0008414C0008414C00089B
:1001100049380008E938000835300008414C00082B
:10012000414C0008414C0008414C0008414C00087B
:1001300000000000000000000000000000000000BF
:1001400000000000000000000000000000000000AF
:10015000000000000000000000000000000000009F
:10016000000000000000000000000000000000008F
:10017000000000000000000000000000000000007F
:10018000000000000000000000000000000000006F
:10019000000000000000000000000000000000005F
:1001A000000000000000000000000000000000004F
:1001B000000000000000000000000000000000003F
:1001C000000000000000000000000000000000002F
:1001D000000000000000000000000000000000001F
:0401E0005FF8E0F1F3
:1001E80010B5054C237833B9044B13B10448AFF369
:1001F80000800123237010BD04A00020000000002F
:10020800985D000808B5034B1BB103490348AFF3D9
:10021800008008BD0000000008A00020985D0008CC
:100228004FF0FF0C1CEAD0521EBF1CEAD15392EAD1
:100238000C0F93EA0C0F6FD01A4480EA010C4002AD
:1002480018BF5FEA41211ED04FF0006343EA501007
:1002580043EA5111A0FB01310CF00040B1F5000F49
:100268003EBF490041EAD3715B0040EA010062F1F8
:100278007F02FD2A1DD8B3F1004F40EBC25008BFE2
:1002880020F00100704790F0000F0CF0004C08BF00
:1002980049024CEA502040EA51207F3AC2BFD2F1CD
:1002A800FF0340EAC250704740F400004FF00003DB
:1002B800013A5DDC12F1190FDCBF00F00040704715
:1002C800C2F10002410021FA02F1C2F1200200FA53
:1002D80002FC5FEA310040F1000053EA4C0308BF1A
:1002E80020EADC70704792F0000F00F0004C02BF6B
:1002F800400010F4000F013AF9D040EA0C0093F0E6
:10030800000F01F0004C02BF490011F4000F013B3F
:10031800F9D041EA0C018FE70CEAD15392EA0C0FAD
:1003280018BF93EA0C0F0AD030F0004C18BF31F018
:10033800004CD8D180EA010000F00040704790F0EE
:10034800000F17BF90F0004F084691F0000F91F092
:10035800004F14D092EA0C0F01D142020FD193EA58
:100368000C0F03D14B0218BF084608D180EA0100E0
:1003780000F0004040F0FE4040F40000704740F0BC
:10038800FE4040F44000704781F0004102E000BFA9
:1003980083F0004330B54FEA41044FEA430594EA3D
:1003A800050F08BF90EA020F1FBF54EA000C55EA78
:1003B800020C7FEA645C7FEA655C00F0E2804FEA49
:1003C8005454D4EB5555B8BF6D420CDD2C4480EA2B
:1003D800020281EA030382EA000083EA010180EA5B
:1003E800020281EA0303362D88BF30BD11F0004FA9
:1003F8004FEA01314FF4801C4CEA113102D04042DF
:1004080061EB410113F0004F4FEA03334CEA133319
:1004180002D0524263EB430394EA050F00F0A78031
:10042800A4F10104D5F1200E0DDB02FA0EFC22FA2C
:1004380005F2801841F1000103FA0EF2801843FA20
:1004480005F359410EE0A5F120050EF1200E012A11
:1004580003FA0EFC28BF4CF0020C43FA05F3C0184F
:1004680051EBE37101F0004507D54FF0000EDCF1C8
:10047800000C7EEB00006EEB0101B1F5801F1BD371
:10048800B1F5001F0CD349085FEA30004FEA3C0C75
:1004980004F101044FEA445212F5800F80F09A806B
:1004A800BCF1004F08BF5FEA500C50F1000041EB6F
:1004B800045141EA050130BD5FEA4C0C404141EB73
:1004C8000101013C28BFB1F5801FE9D291F0000F6E
:1004D80004BF01460020B1FA81F308BF2033A3F11D
:1004E8000B03B3F120020CDA0C3208DD02F1140C14
:1004F800C2F10C0201FA0CF021FA02F10CE002F14F
:100508001402D8BFC2F1200C01FA02F120FA0CFC47
:10051800DCBF41EA0C019040E41AA2BF01EB045190
:10052800294330BD6FEA04041F3C1CDA0C340EDC8E
:1005380004F11404C4F1200220FA04F001FA02F3D1
:1005480040EA030021FA04F345EA030130BDC4F18F
:100558000C04C4F1200220FA02F001FA04F340EA84
:100568000300294630BD21FA04F0294630BD94F035
:10057800000F83F4801306BF81F480110134013D1C
:100588004EE77FEA645C18BF7FEA655C29D094EA8D
:10059800050F08BF90EA020F05D054EA000C04BF0B
:1005A8001946104630BD91EA030F1EBF00210020F6
:1005B80030BD5FEA545C05D14000494128BF41F095
:1005C800004130BD14F580043CBF01F5801130BDF9
:1005D80001F0004545F0FE4141F470014FF0000084
:1005E80030BD7FEA645C1ABF194610467FEA655C35
:1005F8001CBF0B46024650EA013406BF52EA0335D7
:1006080091EA030F41F4002130BD00BF90F0000FC4
:1006180004BF0021704730B54FF4806404F1320400
:100628004FF000054FF0000150E700BF90F0000FB9
:1006380004BF0021704730B54FF4806404F13204E0
:1006480010F0004548BF40424FF000013EE700BFB0
:1006580042004FEAE2014FEA31014FEA02701FBF40
:1006680012F07F4393F07F4F81F06051704732F072
:100678007F4208BF704793F07F4F04BF41F40021C9
:10068800704730B54FF4607401F0004521F0004127
:100698001CE700BF50EA010208BF704730B54FF0B1
:1006A80000050AE050EA010208BF704730B511F0B2
:1006B800004502D5404261EB41014FF4806404F1EA
:1006C80032045FEA915C3FF4D8AE4FF003025FEA70
:1006D800DC0C18BF03325FEADC0C18BF033202EBF4
:1006E800DC02C2F1200300FA03FC20FA02F001FA4E
:1006F80003FE40EA0E0021FA02F11444BDE600BFF1
:100708004FEA410212F5001215D211D56FF4787331
:10071800B3EB625212D94FEAC12343F0004343EAD4
:10072800505311F0004F23FA02F018BF40427047AF
:100738004FF00000704750EA013005D111F0004039
:1007480008BF6FF0004070474FF00000704700BFCF
:100758004FEA4102B2F1E04324BFB3F5001CDCF1DB
:10076800FE5C0DD901F0004C4FEAC0024CEA507013
:10077800B2F1004F40EB830008BF20F00100704742
:1007880011F0804F21D113F13872BCBF01F0004045
:10079800704741F480114FEA5252C2F11802C2F177
:1007A800200C10FA0CF320FA02F018BF40F00100F8
:1007B8004FEAC1234FEAD32303FA0CFC40EA0C00AA
:1007C80023FA02F34FEA4303CCE77FEA625307D1E7
:1007D80050EA01331EBF4FF0FE4040F4400070471E
:1007E80001F0004040F0FE4040F40000704700BFB8
:1007F80080F0004002E000BF81F0004142001FBFCE
:100808005FEA410392EA030F7FEA226C7FEA236CD6
:100818006AD04FEA1262D2EB1363C1BFD2184140CB
:1008280048404140B8BF5B42192B88BF704710F061
:10083800004F40F4000020F07F4018BF404211F004
:10084800004F41F4000121F07F4118BF494292EA6C
:10085800030F3FD0A2F1010241FA03FC10EB0C0098
:10086800C3F1200301FA03F100F0004302D5494225
:1008780060EB4000B0F5000F13D3B0F1807F06D3D2
:1008880040084FEA310102F10102FE2A51D2B1F1CA
:10089800004F40EBC25008BF20F0010040EA0300BF
:1008A8007047490040EB0000013A28BFB0F5000F3F
:1008B800EDD2B0FA80FCACF1080CB2EB0C0200FAF5
:1008C8000CF0AABF00EBC25052421843BCBFD04044
:1008D8001843704792F0000F81F4000106BF80F4BE
:1008E80000000132013BB5E74FEA41037FEA226C81
:1008F80018BF7FEA236C21D092EA030F04D092F04C
:10090800000F08BF0846704790EA010F1CBF00207F
:10091800704712F07F4F04D1400028BF40F00040DC
:10092800704712F100723CBF00F50000704700F0FC
:10093800004343F0FE4040F4000070477FEA226223
:1009480016BF08467FEA23630146420206BF5FEAF4
:10095800412390EA010F40F4800070474FF00003F4
:1009680004E000BF10F0004348BF40425FEA000CBB
:1009780008BF704743F0964301464FF000001CE063
:1009880050EA010208BF70474FF000030AE000BFB9
:1009980050EA010208BF704711F0004302D54042F7
:1009A80061EB41015FEA010C02BF84460146002069
:1009B80043F0B64308BFA3F18053A3F50003BCFA84
:1009C8008CF2083AA3EBC25310DB01FA02FC634431
:1009D80000FA02FCC2F12002BCF1004F20FA02F238
:1009E80043EB020008BF20F00100704702F120022B
:1009F80001FA02FCC2F1200250EA4C0021FA02F28C
:100A080043EB020008BF20EADC7070474FF0FF3C60
:100A180006E000BF4FF0010C02E000BF4FF0010CF0
:100A28004DF804CD4FEA40024FEA41037FEA226CB9
:100A380018BF7FEA236C11D001B052EA530C18BFDB
:100A480090EA010F58BFB2EB030088BFC81738BF40
:100A58006FEAE17018BF40F0010070477FEA226C2E
:100A680002D15FEA402C05D17FEA236CE4D15FEA2A
:100A7800412CE1D05DF8040B704700BF844608465E
:100A88006146FFE70FB5FFF7C9FF002848BF10F11F
:100A9800000F0FBD4DF808EDFFF7F4FF0CBF012064
:100AA80000205DF808FB00BF4DF808EDFFF7EAFFEE
:100AB80034BF012000205DF808FB00BF4DF808EDA9
:100AC800FFF7E0FF94BF012000205DF808FB00BF9E
:100AD8004DF808EDFFF7D2FF94BF012000205DF824
:100AE80008FB00BF4DF808EDFFF7C8FF34BF012031
:100AF80000205DF808FB00BF4FEA4002B2F1FE4F4C
:100B08000FD34FF09E03B3EB12620DD94FEA0023C7
:100B180043F0004310F0004F23FA02F018BF4042A0
:100B280070474FF00000704712F1610F01D1420287
:100B380005D110F0004008BF6FF0004070474FF03B
:100B48000000704770B54FF0FF0C4CF4E06C1CEAE5
:100B580011541DBF1CEA135594EA0C0F95EA0C0FAB
:100B680000F0DEF82C4481EA030621EA4C5123EA1E
:100B78004C5350EA013518BF52EA033541F480114D
:100B880043F4801338D0A0FB02CE4FF00005E1FB00
:100B980002E506F00042E0FB03E54FF00006E1FB4A
:100BA80003569CF0000F18BF4EF0010EA4F1FF048D
:100BB800B6F5007F64F5407404D25FEA4E0E6D41CD
:100BC80046EB060642EAC62141EA55514FEAC520DE
:100BD80040EA5E504FEACE2EB4F1FD0C88BFBCF55A
:100BE800E06F1ED8BEF1004F08BF5FEA500E50F10B
:100BF800000041EB045170BD06F0004646EA0101D1
:100C080040EA020081EA0301B4EB5C04C2BFD4EB02
:100C18000C0541EA045170BD41F480114FF0000EFB
:100C2800013C00F3AB8014F1360FDEBF002001F069
:100C3800004170BDC4F10004203C35DA0C341BDCE3
:100C480004F11404C4F1200500FA05F320FA04F0B5
:100C580001FA05F240EA020001F0004221F00041E9
:100C680010EBD37021FA04F642EB06015EEA430E5C
:100C780008BF20EAD37070BDC4F10C04C4F120058C
:100C880000FA04F320FA05F001FA04F240EA02003F
:100C980001F0004110EBD37041F100015EEA430E10
:100CA80008BF20EAD37070BDC4F1200500FA05F230
:100CB8004EEA020E20FA04F301FA05F243EA0203AF
:100CC80021FA04F001F0004121FA04F220EA0200BE
:100CD80000EBD3705EEA430E08BF20EAD37070BD04
:100CE80094F0000F0FD101F00046400041EB0101E4
:100CF80011F4801F08BF013CF7D041EA060195F0C6
:100D0800000F18BF704703F00046520043EB03037F
:100D180013F4801F08BF013DF7D043EA060370476C
:100D280094EA0C0F0CEA135518BF95EA0C0F0CD077
:100D380050EA410618BF52EA4306D1D181EA0301BD
:100D480001F000414FF0000070BD50EA410606BFB7
:100D58001046194652EA430619D094EA0C0F02D1FC
:100D680050EA013613D195EA0C0F05D152EA033641
:100D78001CBF104619460AD181EA030101F000415F
:100D880041F0FE4141F470014FF0000070BD41F0A8
:100D9800FE4141F4780170BD70B54FF0FF0C4CF482
:100DA800E06C1CEA11541DBF1CEA135594EA0C0FA1
:100DB80095EA0C0F00F0A7F8A4EB050481EA030EEE
:100DC80052EA03354FEA013100F088804FEA0333D5
:100DD8004FF0805545EA131343EA12634FEA0222A3
:100DE80045EA111545EA10654FEA00260EF0004164
:100DF8009D4208BF964244F1FD0404F5407402D2B6
:100E08005B084FEA3202B61A65EB03055B084FEA46
:100E180032024FF480104FF4002CB6EB020E75EB43
:100E2800030E22BFB61A754640EA0C005B084FEA6B
:100E38003202B6EB020E75EB030E22BFB61A7546E8
:100E480040EA5C005B084FEA3202B6EB020E75EB33
:100E5800030E22BFB61A754640EA9C005B084FEAAB
:100E68003202B6EB020E75EB030E22BFB61A7546B8
:100E780040EADC0055EA060E18D04FEA051545EAA7
:100E880016754FEA06164FEAC30343EA52734FEA50
:100E9800C2025FEA1C1CC0D111F4801F0BD141EAC9
:100EA80000014FF000004FF0004CB6E711F4801F2E
:100EB80004BF01430020B4F1FD0C88BFBCF5E06F0E
:100EC8003FF6AFAEB5EB030C04BFB6EB020C5FEA1E
:100ED800500C50F1000041EB045170BD0EF0004E73
:100EE8004EEA113114EB5C04C2BFD4EB0C0541EAA5
:100EF800045170BD41F480114FF0000E013C90E6A2
:100F080045EA060E8DE60CEA135594EA0C0F08BF65
:100F180095EA0C0F3FF43BAF94EA0C0F0AD150EA64
:100F280001347FF434AF95EA0C0F7FF425AF1046F7
:100F380019462CE795EA0C0F06D152EA03353FF41F
:100F4800FDAE1046194622E750EA410618BF52EA9C
:100F580043067FF4C5AE50EA41047FF40DAF52EA70
:100F680043057FF4EBAE12E710B504460E4B187834
:100F78004FF47A73B3FBF0F30C4A1068B0FBF3F04C
:100F880000F07AFA68B90F2C01D901200AE0002292
:100F980021464FF0FF3000F029FA054B1C60002075
:100FA80000E0012010BD00BF000000200800002064
:100FB8000400002008B5074A136843F010031360C3
:100FC800032000F001FA0020FFF7CEFF01F0C8FF70
:100FD800002008BD00200240034A1168034B1B781B
:100FE8000B441360704700BF20A0002000000020C1
:100FF800014B1868704700BF20A000207047704759
:1010080010B5044603685A6812F0200F18D01A6801
:1010180012F0020F14D0826A12F0100F03D1826A04
:1010280042F4007282629A6802F46022B2F5602F7C
:1010380038D02046FFF7E2FF23686FF012021A60EB
:1010480023685A6812F0800F22D01A6812F0040F31
:101058001ED0A26A12F0100F03D1A26A42F4005205
:10106800A2629A6802F4E042B2F5E04F31D05A68C1
:1010780012F4806F05D19A6802F46022B2F5602FED
:1010880024D0204600F09EF923686FF00C021A6005
:1010980023685A6812F0400F03D01B6813F0010F41
:1010A80028D110BD227B002AC3D15A6822F0200221
:1010B8005A60A36A23F48073A362A36A13F4805F5F
:1010C800B7D1A36A43F00103A362B2E7227B002AE7
:1010D800D7D15A6822F080025A60A36A23F4805359
:1010E800A362A36A13F4807FCBD1A36A43F0010300
:1010F800A362C6E7A36A43F48033A3622046FFF7DE
:101108007EFF23686FF001021A60CAE730B482B02C
:101118000022019290F82420012A00F091800346D1
:10112800012280F824204A68062A2DD80468606BBA
:1011380002EB8202053A4FF01F0C0CFA02FC20EA7F
:101148000C000D6805FA02F2024362630A68092A74
:101158003AD91C68E06802EB42021E3A4FF0070CCD
:101168000CFA02FC20EA0C008D6805FA02F2024330
:10117800E2600A68103A012A36D90020002283F872
:10118800242002B030BC70470C2A0ED80568286BA2
:1011980002EB8202233A1F24944020EA04000C68E0
:1011A80004FA02F202432A63D0E70568E86A02EB10
:1011B8008202413A1F24944020EA04000C6804FA91
:1011C80002F20243EA62C1E71C68206902EB4202AC
:1011D8004FF0070C0CFA02FC20EA0C008D6805FAA7
:1011E80002F202432261C4E71A681648824205D017
:1011F8009A6A42F020029A620120BFE7906810F4D0
:10120800000F1BD1906840F4000090600A68102A13
:1012180001D00020B2E70C4A12680C49A1FB021267
:10122800920C02EB82025200019202E0019A013A0A
:101238000192019A002AF9D100209FE700209DE73A
:1012480002209EE7002401400800002083DE1B43A3
:1012580038B503689A6812F0010F01D1002038BD33
:1012680004469A6822F001029A60FFF7C1FE05461B
:1012780023689B6813F0010F0ED0FFF7B9FE431BDC
:10128800022BF5D9A36A43F01003A362E36A43F083
:101298000103E3620120E2E70020E0E7002800F014
:1012A800888070B50446836A002B52D02046FFF729
:1012B800CFFFA36A13F0100375D1002873D1A26A77
:1012C80022F4885222F0020242F00202A26262680C
:1012D800266839498E4242D0E1690A43217B42EAB5
:1012E8004102A568B5F5807F02D0012D3ED01D468C
:1012F80094F814C0BCF1010F3BD0716821F4694126
:10130800294371602568AE682C4931401143A960B2
:10131800A168B1F5807F01D0012902D12369013B81
:101328001B052568E96A21F470010B43EB62236809
:101338009968234B0B409A422CD0A36A23F01203DE
:1013480043F01003A362E36A43F00103E362012060
:101358002EE0C36280F8243001F0AEFCA6E7E16914
:10136800B1F5402FB9D14FF40021B6E74FF480759D
:10137800BEE731B9A169013945EA413141F4006557
:10138800BBE7A16A41F02001A162E16A41F00101D5
:10139800E162B2E70023E362A36A23F0030343F0A8
:1013A8000103A36204E0A36A43F01003A3620120CF
:1013B80070BD0120704700BF003C0140FDF7E1FF10
:1013C800FE0E1FFF70470000074AD36823F4E0634E
:1013D8001B041B0C000200F4E060034343F0BF63EE
:1013E80043F40033D360704700ED00E000B5194BBB
:1013F800DB68C3F30223C3F1070CBCF1040F28BF59
:101408004FF0040C03F1040EBEF1060F18D9033B8C
:101418004FF0FF3E0EFA0CFC21EA0C0199400EFA3F
:1014280003F322EA0303194300280BDB0901C9B2BD
:1014380000F1604000F5614080F800135DF804FB9E
:101448000023E5E700F00F000901C9B2024B195467
:10145800F4E700BF00ED00E014ED00E0002807DB32
:1014680000F01F02400901239340024A42F820304D
:10147800704700BF00E100E00138B0F1807F0BD277
:101488004FF0E0235861054AF02182F8231000202C
:10149800986107221A6170470120704700ED00E04B
:1014A80070B582B00024A446B0E0874DAA4210D09F
:1014B80007D9864DAA420CD005F58035AA4208D036
:1014C80013E0A5F58015AA4203D005F57025AA42B8
:1014D80007D18A68002A62D0012A5BD043610824B8
:1014E80003E0A5F58015AA42F3D0BEF1FF0F58D846
:1014F8000646BEF1FF0F56D84FEA8C0233680F2517
:10150800954023EA050304FA02F2134333604B685B
:1015180013F0805F78D06E4B9A6942F001029A61AD
:101528009B6903F001030193019B4FEA9C02951C00
:10153800684B53F825600CF003039D000F23AB4064
:1015480026EA0306644B984233D003F58063984239
:1015580000F0988003F58063984200F0958003F5C9
:101568008063984200F0928003F58063984200F00F
:101578008F8003F58063984219D006231AE0CC685F
:10158800B3E7CC680434B0E7CC680834ADE7CC687E
:101598000C34AAE703610824A7E70024A5E704247C
:1015A800A3E7061DA5E7ACF108029200A6E705230C
:1015B80000E00023AB4033430232464D45F8223069
:1015C8004B6813F4803F65D0444A136843EA0E031E
:1015D80013604B6813F4003F62D0404A536843EAF3
:1015E8000E0353604B6813F4801F5FD03B4A936827
:1015F80043EA0E0393604B6813F4001F5CD0374A2C
:10160800D36843EA0E03D3600CF1010C0A6832FA7E
:101618000CF357D0012303FA0CF302EA030E33EA62
:101628000202F1D14A68122A3FF63FAF122A3FF66A
:101638005CAF01A555F822F0DB14000887150008F7
:1016480091150008A3150008F3140008F314000806
:10165800F3140008F3140008F3140008F314000846
:10166800F3140008F3140008F3140008F314000836
:10167800F3140008F3140008F31400088B1500088D
:1016880097150008012395E7022393E7032391E7C1
:1016980004238FE7114A136823EA0E03136098E7BF
:1016A8000E4A536823EA0E0353609BE70B4A93687C
:1016B80023EA0E0393609EE7084AD36823EA0E03E1
:1016C800D360A1E702B070BD000022100000311005
:1016D80000100240000001400008014000040140E1
:1016E8008368194201D001207047002070470AB171
:1016F80001617047090401617047000082B0084B1E
:101708001B68084AA2FB03235B0A00FB03F301934F
:1017180000BF019B5A1E0192002BF9D102B07047FD
:1017280008000020D34D6210002800F0F18170B548
:1017380082B00446036813F0010F2CD0994B5B6804
:1017480003F00C03042B1DD0964B5B6803F00C03CD
:10175800082B12D06368B3F5803F41D0002B55D1D8
:1017680003F1804303F504331A6822F480321A60C7
:101778001A6822F480221A6037E08A4B5B6813F4F7
:10178800803FE7D0874B1B6813F4003F03D06368A2
:10179800002B00F0BF81236813F0020F75D0814B36
:1017A8005B6813F00C0F5FD07E4B5B6803F00C0393
:1017B800082B54D02369002B00F08A807A4B012231
:1017C8001A60FFF715FC0546764B1B6813F0020FED
:1017D80075D1FFF70DFC401B0228F5D903209EE1C7
:1017E800704A136843F480331360636843B3FFF7A8
:1017F800FFFB05466B4B1B6813F4003FCBD1FFF78B
:10180800F7FB401B6428F5D9032088E1B3F5A02F26
:1018180009D0644B1A6822F480321A601A6822F4DC
:1018280080221A60E1E703F18043A3F53C331A688C
:1018380042F480221A601A6842F480321A60D4E7AF
:10184800FFF7D6FB0546574B1B6813F4003FA2D0A1
:10185800FFF7CEFB401B6428F5D903205FE1514B0D
:101868005B6813F4803FA5D14E4B1B6813F0020F41
:1018780003D02369012B40F04F814A4A136823F0B3
:10188800F803616943EAC1031360236813F0080F82
:1018980033D0A369002B5CD0434B0122C3F88024CA
:1018A800FFF7A6FB05463F4B5B6A13F0020F21D1F9
:1018B800FFF79EFB401B0228F5D903202FE1394A88
:1018C800136823F0F803616943EAC1031360DCE796
:1018D800354B00221A60FFF78BFB0546314B1B681E
:1018E80013F0020FD1D0FFF783FB401B0228F5D974
:1018F800032014E10120FFF701FF236813F0040F10
:1019080000F09680274BDB6913F0805F34D1254BBC
:10191800DA6942F08052DA61DB6903F0805301939F
:10192800019B0125214B1B6813F4807F26D0E368B7
:10193800012B3DD0002B53D103F1804303F5043331
:101948001A6A22F001021A621A6A22F004021A6262
:1019580033E0154B0022C3F88024FFF749FB054606
:10196800104B5B6A13F0020FC7D0FFF741FB401B17
:101978000228F5D90320D2E00025D3E70B4A1368E3
:1019880043F480731360FFF733FB0646074B1B686D
:1019980013F4807FCBD1FFF72BFB801B6428F5D98C
:1019A8000320BCE0001002400000424200700040EA
:1019B8005F4A136A43F001031362E36833B3FFF726
:1019C80017FB06465A4B1B6A13F0020F2FD1FFF77D
:1019D8000FFB801B41F288339842F3D903209EE025
:1019E800052B09D0524B1A6A22F001021A621A6AB0
:1019F80022F004021A62E0E74D4B1A6A42F0040230
:101A08001A621A6A42F001021A62D6E7FFF7F0FA80
:101A18000646474B1B6A13F0020F08D0FFF7E8FA97
:101A2800801B41F288339842F3D9032077E0E5B967
:101A3800E369002B72D03E4A526802F00C02082A71
:101A480056D0022B17D03B4B00221A66FFF7D0FA6C
:101A58000446374B1B6813F0007F47D0FFF7C8FADE
:101A6800001B0228F5D9032059E0314AD36923F035
:101A78008053D361DCE72F4B00221A66FFF7B8FAD0
:101A880005462B4B1B6813F0007F06D0FFF7B0FA12
:101A9800401B0228F5D9032041E0236AB3F5803FB3
:101AA8001AD023494B6823F47413226A606A0243EC
:101AB80013434B601F4B01221A66FFF799FA04463D
:101AC8001B4B1B6813F0007F0ED1FFF791FA001B28
:101AD8000228F5D9032022E0154A536823F400337D
:101AE800A1680B435360DCE7002018E0002016E0F3
:101AF800012B16D00E4B5B6803F48031226A9142A9
:101B080011D103F47013626A93420ED1002006E0EB
:101B180001207047012002E0012000E0002002B00F
:101B280070BD0120FBE70120F9E70120F7E700BFBE
:101B3800001002400000424286B0164B0FCB0DF158
:101B4800180C0CE90F0040F20123ADF80430124BD9
:101B58005B6803F00C02082A02D0104806B07047F0
:101B6800C3F38342624412F8100C13F4803F0CD084
:101B7800094B5B68C3F34043634413F8143C074ABA
:101B880002FB00F0B0FBF3F0E8E7054B03FB00F0C5
:101B9800E4E700BFB05D00080010024000127A00C0
:101BA80000093D00002800F0A08070B50D460446ED
:101BB800524B1B6803F007038B420BD24F4A136842
:101BC80023F007030B431360136803F007038B42EA
:101BD80040F08D80236813F0020F17D013F0040F24
:101BE80004D0474A536843F4E0635360236813F012
:101BF800080F04D0424A536843F460535360404A84
:101C0800536823F0F003A1680B435360236813F073
:101C1800010F31D06368012B20D0022B25D0384A20
:101C2800126812F0020F64D035494A6822F00302A4
:101C380013434B60FFF7DCF90646314B5B6803F052
:101C48000C036268B3EB820F16D0FFF7D1F9801B43
:101C580041F288339842F0D9032045E0284A1268B7
:101C680012F4003FE0D101203EE0254A126812F04C
:101C7800007FD9D1012037E0204B1B6803F0070310
:101C8800AB420AD91D4A136823F007032B4313609C
:101C9800136803F00703AB422DD1236813F0040F38
:101CA80006D0174A536823F4E063E1680B43536096
:101CB800236813F0080F07D0114A536823F46053C0
:101CC800216943EAC1035360FFF736FF0C4B5B6899
:101CD800C3F303130B4AD35CD8400B4B18600B4B70
:101CE8001868FFF741F9002070BD012070470120F6
:101CF800FAE70120F8E70120F6E700BF00200240DC
:101D080000100240C45D0008080000200400002004
:101D1800014B1868704700BF0800002008B5FFF79E
:101D2800F7FF044B5B68C3F30223034AD35CD84034
:101D380008BD00BF00100240D45D000808B5FFF7D9
:101D4800E7FF044B5B68C3F3C223034AD35CD84064
:101D580008BD00BF00100240D45D000870B582B015
:101D68000446036813F0010F36D03F4BDB6913F0CC
:101D7800805F49D13C4BDA6942F08052DA61DB6915
:101D880003F080530193019B0125384B1B6813F422
:101D9800807F3BD0344B1B6A13F4407313D06268C6
:101DA80002F440729A420ED02F4A136A23F440700C
:101DB8002F490126C1F840640026C1F8406410622A
:101DC80013F0010F36D1284A136A23F4407361686F
:101DD8000B431362002D3ED1236813F0020F06D087
:101DE800214A536823F44043A1680B435360236896
:101DF80013F0100F34D01C4A536823F48003616930
:101E08000B43536000202CE00025BEE7174A1368F7
:101E180043F480731360FFF7EBF80646134B1B6817
:101E280013F4807FB6D1FFF7E3F8801B6428F5D957
:101E3800032016E0FFF7DCF806460B4B1B6A13F08D
:101E4800020FC0D1FFF7D4F8801B41F288339842C3
:101E5800F3D9032005E0D36923F08053D361BBE7AE
:101E6800002002B070BD00BF0010024000700040AA
:101E78000000424230B4036A23F001030362036A9C
:101E88004268846924F073040D682C4323F0020C23
:101E98008B6843EA0C03104DA84203D005F5006592
:101EA800A84205D123F00803CD682B4323F004038F
:101EB800094DA84203D005F50065A84205D122F4D2
:101EC80040724D692A438D692A43426084614A6899
:101ED8004263036230BC7047002C014030B4036A8F
:101EE80023F480730362036A4268C46924F0730CA4
:101EF8000C6844EA0C0523F400738C6843EA042355
:101F0800114CA04203D004F50064A04206D123F48A
:101F18000063CC6843EA042323F480630A4CA0429C
:101F280003D004F50064A04207D122F440524C6962
:101F380042EA04128C6942EA04124260C5614A68A6
:101F4800C263036230BC7047002C014030B4036A9E
:101F580023F480530362036A4468C26922F4E642A8
:101F68000D6842EA052223F400538D6843EA0533DD
:101F7800094DA84203D005F50065A84204D124F410
:101F880080444D6944EA85144460C2614A68026429
:101F9800036230BC704700BF002C014010B4036AD4
:101FA800046A24F001040462846924F0F00C4CEA09
:101FB800021223F00A030B438261036210BC7047CC
:101FC80010B4046A24F0100404628469036A24F4D7
:101FD800704C4CEA023223F0A00343EA01138261F9
:101FE800036210BC7047836823F070030B4343F00F
:101FF800070383607047000090F83D30DBB2012B87
:102008002AD1022380F83D300368154A934218D03C
:1020180002F50062934214D0B3F1804F11D0A2F5BB
:10202800983293420DD002F58062934209D002F5AE
:102038008062934205D01A6842F001021A600020BB
:1020480070479A6802F00702062A07D01A6842F019
:1020580001021A6000207047012070470020704775
:10206800002C014090F83D30DBB2012B2FD1022328
:1020780080F83D300268D36843F00103D3600368F9
:10208800154A934218D002F50062934214D0B3F176
:10209800804F11D0A2F5983293420DD002F580629C
:1020A800934209D002F58062934205D01A6842F043
:1020B80001021A60002070479A6802F00702062A97
:1020C80007D01A6842F001021A6000207047012008
:1020D80070470020704700BF002C014070477047D0
:1020E80070477047704710B5044603681A6912F0C4
:1020F800020F11D0DA6812F0020F0DD06FF0020251
:102108001A610123037703689B6913F0030F70D0EA
:10211800FFF7E6FF0023237723681A6912F0040FFC
:1021280012D0DA6812F0040F0ED06FF004021A61B0
:102138000223237723689B6913F4407F5FD02046EE
:10214800FFF7CEFF0023237723681A6912F0080FE0
:1021580012D0DA6812F0080F0ED06FF008021A6178
:10216800042323772368DB6913F0030F4ED020463E
:10217800FFF7B6FF0023237723681A6912F0100FC0
:1021880012D0DA6812F0100F0ED06FF010021A6138
:10219800082323772368DB6913F4407F3DD020466A
:1021A800FFF79EFF0023237723681A6912F0010FB7
:1021B80003D0DA6812F0010F36D123681A6912F0D9
:1021C800800F03D0DA6812F0800F34D123681A69BF
:1021D80012F0400F03D0DA6812F0400F32D12368B2
:1021E8001A6912F0200F03D0DA6812F0200F30D1EC
:1021F80010BDFFF774FF2046FFF773FF8AE72046FC
:10220800FFF76DFF2046FFF76CFF9BE72046FFF7BF
:1022180066FF2046FFF765FFACE72046FFF75FFF44
:102228002046FFF75EFFBDE76FF001021A61204606
:1022380002F040FCC1E76FF080021A61204600F00E
:102248007FFBC3E76FF040021A612046FFF74AFFA1
:10225800C5E76FF020021A61204600F070FBC7E75F
:102268000368244A904212D002F5006290420ED0D0
:10227800B0F1804F0BD0A2F59832904207D002F50A
:102288008062904203D002F58062904203D123F02D
:1022980070034A681343174A904212D002F500624D
:1022A80090420ED0B0F1804F0BD0A2F598329042F8
:1022B80007D002F58062904203D002F58062904216
:1022C80003D123F44073CA68134323F080034A6997
:1022D800134303608B68C3620B688362054B9842A3
:1022E80003D003F50063984201D10B69036301230E
:1022F80043617047002C014040B310B5044690F884
:102308003D30F3B1022384F83D30214651F8040BE7
:10231800FFF7A6FF012384F8463084F83E3084F89E
:102328003F3084F8403084F8413084F8423084F8F3
:10233800433084F8443084F8453084F83D30002038
:1023480010BD80F83C3000F025FFDBE70120704726
:1023580040B310B5044690F83D30F3B1022384F839
:102368003D30214651F8040BFFF77AFF012384F82A
:10237800463084F83E3084F83F3084F8403084F8A2
:10238800413084F8423084F8433084F8443084F88B
:10239800453084F83D30002010BD80F83C30FFF710
:1023A8009DFEDBE701207047002857D070B50D4629
:1023B800044690F83D30002B4BD0022384F83D3082
:1023C8002268936823F4804323F00703936021462F
:1023D80051F8040BFFF744FF21688A688B690E6A7D
:1023E8002868104323F4407C2CF0030CAA68AB69DE
:1023F80042EA032343EA0C0323F47C4323F0FC035F
:10240800EA69D5F80CC04CEA022C4CEA030C2A6A9B
:1024180013032A6943EA021343EA0C0326F022064F
:102428006A686D6942EA05123243886021688B61E7
:1024380023681A62012384F8463084F83E3084F811
:102448003F3084F8423084F8433084F83D3000202F
:1024580070BD80F83C3000F0EDFEAEE7012070471B
:1024680030B4036A23F010030362036A4468826984
:1024780022F4E6420D6842EA052223F020038D6823
:1024880043EA0513114DA84203D005F50065A8429B
:1024980006D123F08003CD6843EA051323F04003F7
:1024A8000A4DA84203D005F50065A84207D124F4D7
:1024B80040644D6944EA85048D6944EA85044460B2
:1024C80082614A688263036230BC7047002C014015
:1024D80038B590F83C30012B60D004460D460123F6
:1024E80080F83C300C2A1AD8DFE802F007191919CD
:1024F8001D1919193119191944000068FFF7BAFC98
:102508002268936943F0080393612268936923F072
:10251800040393612268936929690B43936100203E
:1025280084F83C0038BD0068FFF79AFF2268936979
:1025380043F4006393612268936923F48063936191
:1025480022689369296943EA01239361E7E70068F0
:10255800FFF7C4FC2268D36943F00803D3612268FB
:10256800D36923F00403D3612268D36929690B4333
:10257800D361D4E70068FFF7E9FC2268D36943F424
:102588000063D3612268D36923F48063D36122682E
:10259800D369296943EA0123D361C0E70220C1E76F
:1025A80010B4846824F47F4C42EA03220A4342EAC6
:1025B8000C02826010BC704790F83C30012B66D04A
:1025C80010B50446012380F83C30022380F83D30E2
:1025D8000268936823F47F4323F0770393600B68C2
:1025E800602B40D022D8402B47D00BD9502B0ED18E
:1025F800CA6849680068FFF7D1FC50212068FFF7D6
:10260800F2FC04E0202B0CD008D9302B09D0012390
:1026180084F83D30002084F83C0010BD0BB1102B2D
:10262800F5D119462068FFF7DEFCF0E7702B0ED0D5
:10263800B3F5005FEBD1CB684A6889680068FFF79B
:10264800AFFF2268936843F480439360DFE7CB6869
:102658004A6889680068FFF7A3FF2268936843F017
:1026680077039360D3E7CA6849680068FFF7A8FC56
:1026780060212068FFF7B7FCC9E7CA6849680068A5
:10268800FFF78CFC40212068FFF7ADFCBFE7022074
:10269800704701F01F01012303FA01FC036A23EAD2
:1026A8000C030362036A02FA01F10B4303627047E9
:1026B80010B50446084600293AD194F83E30DBB2FA
:1026C800013B18BF0123002B66D1002849D1022302
:1026D80084F83E30012201462068FFF7DAFF2368BC
:1026E8002F4A934203D002F50062934203D15A6CF9
:1026F80042F400425A642368294A934241D002F5C1
:10270800006293423DD0B3F1804F3AD0A2F598329F
:10271800934236D002F58062934232D002F580624D
:1027280093422ED01A6842F001021A60002032E06B
:10273800042908D008290DD094F84130DBB2013BB8
:1027480018BF0123BFE794F83F30DBB2013B18BF45
:102758000123B8E794F84030DBB2013B18BF0123EE
:10276800B1E7042805D0082807D0022384F84130AF
:10277800B0E7022384F83F30ACE7022384F8403006
:10278800A8E79A6802F00702062A07D01A6842F0FA
:1027980001021A60002010BD0120FCE70020FAE7C2
:1027A800002C014038B5044690F83E00C0B294F8B9
:1027B8003F3094F84220D2B294F843C00D46B1B9E4
:1027C800012849D1012A48D1022384F83E3084F8EF
:1027D80042307DB3042D39D0012200212068FFF753
:1027E80058FF012204212068FFF753FF27E0DBB2DE
:1027F8005FFA8CFC042912D0012833D1012B2CD18B
:10280800012A31D1BCF1010F30D1022384F83E30C6
:1028180084F83F3084F8423084F84330D9E7012BFC
:102828001CD1BCF1010F1BD1022384F83F3084F87E
:102838004330CEE7012200212068FFF72AFF2268F3
:10284800136843F001031360002006E0012204210D
:102858002068FFF71EFFF2E7012038BD0120FCE7E2
:102868001846FAE70120F8E71846F6E71046F4E7B5
:1028780090F83C30012B34D010B4012380F83C3060
:10288800022380F83D3003685A689C6822F0700C77
:102898000A6842EA0C025A600368134A934212D04B
:1028A80002F5006293420ED0B3F1804F0BD0A2F52F
:1028B8009832934207D002F58062934203D002F522
:1028C8008062934204D124F080044A6814439C60D7
:1028D800012380F83D30002380F83C30184610BCB6
:1028E80070470220704700BF002C014090F83C3030
:1028F800012B22D0012380F83C30CB6823F44073AD
:102908008A68134323F480634A68134323F40063FB
:102918000A68134323F480530A69134323F40053CA
:102928004A69134323F48043CA6913430268536412
:10293800002380F83C3018467047022070477047E3
:102948007047000010B504460268136923F4405329
:10295800C1680B43136183680269134342691A43D0
:102968000168CB6823F4B05323F00C031343CB6006
:102978000268536923F4407381690B435361026809
:10298800134B9A4220D0FFF7C9F9024602EB8202A4
:1029980002EB820263689B00B2FBF3F20D48A0FBD6
:1029A80002314909642303FB11231B013233A0FBC5
:1029B80003235B0903F0F00202EB011203F00F039B
:1029C800216813448B6010BDFFF7B8F90246DDE7B4
:1029D800003801401F85EB512DE9F84305460F46A5
:1029E80016469946DDF820802C68246837EA0403E7
:1029F8000CBF4FF0010C4FF0000CB4451FD1B8F1DB
:102A0800FF3FF1D0B8F1000F05D0FEF7F1FAA0EBC7
:102A180009004045E8D92A68D36823F4D073D36005
:102A28002A68536923F001035361202385F839305C
:102A380085F83A30002385F83830032000E000207C
:102A4800BDE8F88358B310B5044690F839300BB395
:102A5800242384F839302268D36823F40053D360E0
:102A68002046FFF76FFF2268136923F49043136130
:102A78002268536923F02A0353612268D36843F418
:102A88000053D3600020E063202384F8393084F8B1
:102A98003A3010BD80F8383000F01CFDD8E701202E
:102AA80070472DE9F04182B01E4690F83930DBB20C
:102AB800202B54D104460D469046002953D0002AB5
:102AC80053D090F83830012B51D0012380F838309A
:102AD8000023C363212380F83930FEF789FA0746BB
:102AE800A4F82480A4F82680A368B3F5805F05D0F5
:102AF8004FF00008002384F8383012E0236913B13E
:102B08004FF00008F6E7A8460025F3E738F8023B3F
:102B18002268C3F308035360E28C92B2013A92B27E
:102B2800E284E38C9BB273B100963B46002280217D
:102B38002046FFF751FFE0B9002DE7D015F8012B2B
:102B480023685A60E8E700963B4600224021204669
:102B5800FFF742FF78B9202384F8393000E00220DB
:102B680002B0BDE8F0810120FAE70120F8E7022071
:102B7800F6E70320F4E70320F2E72DE9F04182B0FD
:102B88001E4690F83A30DBB2202B5BD104460D4646
:102B9800904600295AD0002A5AD090F83830012B94
:102BA80058D0012380F838300023C363222380F8EB
:102BB8003A30FEF71DFA0746A4F82C80A4F82E80B8
:102BC800A368B3F5805F05D04FF00008002384F8B0
:102BD800383017E0236913B14FF00008F6E7A8462C
:102BE8000025F3E723685B68C3F3080328F8023B72
:102BF80003E023685B682B700135E28D92B2013ADD
:102C080092B2E285E38D9BB2BBB100963B460022AF
:102C180020212046FFF7E0FEF0B9002DE2D0A3689E
:102C2800B3F5805FE5D013B92369002BE1D02368A1
:102C38005B6803F07F032B70DEE7202384F83A30CB
:102C4800002000E0022002B0BDE8F0810120FAE790
:102C58000120F8E70220F6E70320F4E700B585B085
:102C680000230193029303931148124A0260836080
:102C7800037303754FF46022C2614360012303614B
:102C8800FEF70CFB68B90423019301230293002388
:102C9800039301A90648FEF739FA28B905B05DF88B
:102CA80004FB00F05BF9EEE700F058F9F6E700BF27
:102CB80024A000200024014000B587B0002302931F
:102CC8000393049305930268154B9A4202D007B008
:102CD8005DF804FB03F56C439A6942F400729A614B
:102CE8009A6902F400720092009A9A6942F004020A
:102CF8009A619B6903F004030193019B10230293DB
:102D08000323039302A90748FEF7CAFB00221146D2
:102D18001220FEF76BFB1220FEF7A0FBD7E700BFDF
:102D280000240140000801402DE9F04389B0002447
:102D38000494059406940794354B9A6942F010025E
:102D48009A619A6902F010020092009A9A6942F018
:102D580020029A619A6902F020020192019A9A6906
:102D680042F004029A619A6902F004020292029AFD
:102D78009A6942F008029A619B6903F00803039379
:102D8800039BDFF8909022464FF2C4314846FEF785
:102D9800AEFCDFF8848022464FF484614046FEF79B
:102DA800A6FC1E4D2246FB212846FEF7A0FC012268
:102DB8004FF418414046FEF79AFC4FF2C43304938F
:102DC8000127059706940226079604A94846FEF7A8
:102DD80067FB49F62043049305970694079604A9D0
:102DE8004046FEF75DFBFB23049305970694079680
:102DF80004A92846FEF754FB4FF470430493059446
:102E0800069404A92846FEF74BFB09B0BDE8F083F9
:102E1800001002400010014000080140000C014071
:102E280030B597B0282200210CA801F031FF00240A
:102E38000794089409940A940B94019402940394B7
:102E480004940594069401220C924FF480330D9358
:102E580010920225139514934FF4E01315930CA8C0
:102E6800FEF762FC0F230793089509944FF48063DB
:102E78000A930B94294607A8FEF794FE01954FF490
:102E88000043039301A8FEF769FF17B030BD0000A7
:102E980008B500F0D5FB1B4801F0A8FD012211463A
:102EA800104600F0DBFF00F003FC01F025FE0120D6
:102EB80001F050FA022001F04DFA01F059FD00210D
:102EC800084600F0FBFF002001F08CFE002001F016
:102ED8005BF94FF6FF71012001F0A6FB4FF6FF7179
:102EE800022001F0A1FB4FF4FA7000F0C3FB0022AE
:102EF8001146012000F0B2FF4FF47A7000F0BAFBDF
:102F080008BD00BF78A1002008B5032001F00AFC25
:102F180008BD000008B5FEF74DF8FFF781FFFFF781
:102F280003FF00F00BFA00F0A9F800F0D9F800F060
:102F380009F900F09BFA00F0B3FAFFF78FFE00F0F2
:102F48007BFAFFF7A5FFFFF7DFFF034801F04EFD0F
:102F580000F0B8FDFCE700BF78A100207047000032
:102F680082B00E4B9A6942F001029A619A6902F0A6
:102F780001020092009ADA6942F08052DA61DB6954
:102F880003F080530193019B054A536823F0E063E3
:102F980043F00073536002B0704700BF0010024056
:102FA800000001407047FEE7FEE7FEE7FEE77047D6
:102FB8007047704708B5FEF70FF808BD08B5024816
:102FC800FEF71EF808BD00BF24A0002008B502487F
:102FD800FFF789F808BD00BF58A0002008B50248CF
:102FE800FFF781F808BD00BF58A0002008B50248C7
:102FF800FFF779F808BD00BF58A0002008B50248BF
:10300800FFF771F808BD00BF58A0002008B50248B6
:10301800FFF769F808BD00BFA0A0002008B5024866
:10302800FFF761F808BD00BFE8A0002008B5024816
:10303800FFF759F808BD00BF30A1002008B50346C6
:103048000B4A126842B10A4A106803446A4693421E
:1030580006D8074A136008BD054A06491160F2E719
:1030680001F0ECFD0C2303604FF0FF30F3E700BFE5
:1030780054A00020F8A600207047000000B58DB0CD
:103088002422002103A801F003FE002301930293E8
:1030980012484FF080420260436083604FF6FF722F
:1030A800C26003618361032303930123059309939A
:1030B80003A9FFF779F950B900230193029301A9F5
:1030C8000648FFF7D5FB28B90DB05DF804FBFFF7FC
:1030D80045FFF1E7FFF742FFF6E700BFA0A0002099
:1030E80000B58DB02422002103A801F0D1FD0023F2
:1030F800019302931148124A0260436083604FF6BD
:10310800FF72C26003618361032303930123059364
:10311800099303A9FFF748F950B9002301930293D3
:1031280001A90648FFF7A4FB28B90DB05DF804FB18
:10313800FFF714FFF1E7FFF711FFF6E7E8A000201B
:103148000004004000B583B00023009301930F48AA
:103158000F4A026009224260836041F61F42C26042
:103168008361FFF7C9F850B90023009301936946BA
:103178000648FFF77DFB28B903B05DF804FBFFF7AD
:10318800EDFEF1E7FFF7EAFEF6E700BF30A1002009
:103198000010004000B583B00368234A934205D06D
:1031A800224A93422DD003B05DF804FB204B9A6964
:1031B80042F400629A619B6903F400630093009BE8
:1031C800002211461820FEF711F91820FEF746F9DB
:1031D800002211461920FEF709F91920FEF73EF9D9
:1031E800002211461A20FEF701F91A20FEF736F9D7
:1031F800002211461B20FEF7F9F81B20FEF72EF9D6
:10320800D1E70B4BDA6942F01002DA61DB6903F0AF
:1032180010030193019B002211463620FEF7E6F8C1
:103228003620FEF71BF9BEE7002C014000100040D5
:103238000010024000B589B000230493059306935B
:1032480007930368B3F1804F05D0254A934225D0F0
:1032580009B05DF804FB03F50433DA6942F00102B2
:10326800DA61DA6902F001020092009A9A6942F082
:1032780004029A619B6903F004030193019B0323F1
:10328800049304A91748FEF70BF9002211461C20E5
:10329800FEF7ACF81C20FEF7E1F8D9E7124BDA6923
:1032A80042F00202DA61DA6902F002020292029A3C
:1032B8009A6942F004029A619B6903F0040303933C
:1032C800039BC023049304A90648FEF7E9F80022EB
:1032D80011461D20FEF78AF81D20FEF7BFF8B7E754
:1032E80000040040000801400010024000B587B00B
:1032F8000023029303930493059302680D4B9A42AB
:1033080002D007B05DF804FB03F564439A6942F004
:1033180004029A619B6903F004030193019B4FF433
:103328004073029302230393059302A90248FEF710
:10333800B7F8E6E7002C01400008014010B596B048
:1033480000241294139414941594109411940994CD
:103358000A940B940C940D940E940F9420222146F9
:1033680001A801F095FC3248324B03600123436009
:10337800846041F61F43C360046144618461FEF7C1
:10338800BBFF00283ED14FF48053129312A928485E
:10339800FFF712F9002838D12548FEF7D9FF002891
:1033A80036D100231093119310A92148FFF760FA32
:1033B800002830D16023099300220A920B920C92C4
:1033C8000D920E920F9209A91948FFF781F828BBB0
:1033D800042209A91648FFF77BF810BB00230193C4
:1033E80002930393049305934FF4005206920893B3
:1033F80001A90F48FFF77AFAB0B90D48FFF776FF31
:1034080016B010BDFFF7AAFDBDE7FFF7A7FDC3E79C
:10341800FFF7A4FDC5E7FFF7A1FDCBE7FFF79EFD8A
:10342800D6E7FFF79BFDD9E7FFF798FDE5E700BF73
:1034380058A00020002C014008B50A480A4B036038
:103448004FF4E133436000238360C36003610C22BF
:1034580042618361C361FFF7F5FA00B908BDFFF760
:103468007DFDFBE7F8A10020004C004008B50A48A4
:103478000A4B03604FF4E133436000238360C36069
:1034880003610C2242618361C361FFF7DBFA00B973
:1034980008BDFFF763FDFBE778A10020004400406A
:1034A80008B50A480A4B03604FF4E1334360002330
:1034B8008360C36003610C2242618361C361FFF7CB
:1034C800C1FA00B908BDFFF749FDFBE7B8A1002024
:1034D8000048004030B58BB000230693079308934B
:1034E800099303684F4A934207D04F4A934236D014
:1034F8004E4A934263D00BB030BD4D4BDA6942F46B
:103508000022DA61DA6902F400220092009A9A69CC
:1035180042F010029A619B6903F010030193019B2A
:103528004FF4806306930223079303230993414DC5
:1035380006A92846FDF7B4FF4FF40063069300245C
:103548000794089406A92846FDF7AAFF22462146B3
:103558003420FDF74BFF3420FDF780FFCBE7344BD9
:10356800DA6942F40032DA61DA6902F4003202926E
:10357800029A9A6942F004029A619B6903F0040373
:103588000393039B042306930223079303230993BE
:10359800294D06A92846FDF783FF08230693002432
:1035A8000794089406A92846FDF77AFF2246214683
:1035B8002620FDF71BFF2620FDF750FF9BE71C4B3D
:1035C800DA6942F48022DA61DA6902F4802204922C
:1035D800049A9A6942F008029A619B6903F0080309
:1035E8000593059B4FF480630693022307930323F7
:1035F8000993124D06A92846FDF752FF4FF40063C0
:10360800069300240794089406A92846FDF748FF66
:10361800224621462720FDF7E9FE2720FDF71EFF59
:1036280069E700BF004C00400044004000480040EB
:10363800001002400010014000080140000C014049
:10364800074B1B68074AA2FB0312D20C06490A70F3
:10365800064AA2FB03239B09054A1360704700BF73
:103668000800002083DE1B433CA20020D34D6210DB
:1036780038A2002010B44FF0E0235C690B4A1268AE
:1036880002FB00FC9B69002104E0E01A024411449B
:10369800614509D21A464FF0E0239B699A42FAD055
:1036A800F3D9D21A1144F3E710BC704738A20020AE
:1036B8000B4B1B68DA6842F40052DA60094A116859
:1036C800CA6842F02002CA60074A1168CA6842F014
:1036D8002002CA60DA6842F02002DA60704700BF50
:1036E800F8A1002078A10020B8A100201C4B1B687D
:1036F80013F0200F32D010B5194B5C68E4B2194BA7
:103708001B6883B9184B1B685BB1432C0CD0174A54
:103718001368591C1160164AD454144B1B68C72BE4
:1037280009D0532C0FD010BD0E4B01221A600E4B3E
:1037380000221A60F1E700210B4B1960C7220C48E0
:1037480001F0A6FAEDE7084B1B68002BEBD1064BFE
:1037580001221A60054B00221A60E4E7704700BF97
:103768000044004028A300204CA2002024A30020ED
:103778005CA200202B4B1B6813F0200F51D010B512
:10378800284B5C68E4B2284B1B6883B9274B1B683D
:103798005BB1432C0CD0264A1368591C1160254A8A
:1037A800D454234B1B68C72B27D0532C2ED010BDC5
:1037B8001D4B01221A6000231F4A13601F4A136021
:1037C8001C4B1B78012B05D0022B11D0174B002264
:1037D8001A60E6E7174A93781B0217490B60D078FE
:1037E80003440B605278022AF0D15B420B60EDE78C
:1037F800104B5A78114B1A60E8E7C72200210D4890
:1038080001F046FA094B00221A60CEE7074B1B6805
:10381800002BCCD1054B01221A60054B00221A60FF
:10382800C5E7704700480040F8A3002050A20020D8
:10383800F4A300202CA3002048A2002040A20020CE
:10384800224B1B6813F0200F3ED010B51F4B5C684D
:10385800E4B21F4B1B6883B91E4B1B685BB1432C3A
:103868001DD01D4A1368591C11601C4AD4541A4BA8
:103878001B68C72B15D0532C1BD010BD1749CA5C29
:10388800303ACA540133DBB2134A12689342F5DB6B
:103898000F4B01221A600F4B00221A60E7E7002342
:1038A800F2E700210B4B1960C7220C4801F0F0F930
:1038B800E1E7084B1B68002BDFD1064B01221A6099
:1038C800054B00221A60D8E7704700BF004C004043
:1038D800C8A4002054A20020C4A40020FCA30020F7
:1038E8001C4B1B6813F0200F32D010B5194B5C68C5
:1038F800E4B2194B1B6883B9184B1B685BB1432CA6
:103908000CD0174A1368591C1160164AD454144B2A
:103918001B68C72B09D0532C0FD010BD0E4B0122AA
:103928001A600E4B00221A60F1E700210B4B196058
:10393800C7220C4801F0ACF9EDE7084B1B68002BD7
:10394800EBD1064B01221A60054B00221A60E4E70E
:10395800704700BF0050004098A5002058A20020E2
:1039680094A50020CCA4002070B586B04E4B1B68EF
:10397800ADF814301B0C8DF8163000244B4B1C602E
:103988000AE0FF23032205A94948FFF78AF86420C3
:10399800FFF770FE0134E4B2022CF2D9434B1B68E6
:1039A800002BFBD04FF6FF71012000F03DFE4FF6D3
:1039B800FF71022000F038FE3C4B1B68013B032BD3
:1039C80067D8DFE803F0021E364E00250395402431
:1039D80002940194374E00962D2320222946012077
:1039E80000F03EFE03950294019400962D232022B8
:1039F8000121022000F034FE2C4B00221A6006B090
:103A080070BD002503954024029401942A4E009627
:103A18002D2320222946012000F022FE039502943E
:103A2800019400962D2320220121022000F018FE87
:103A3800E2E7002503954024029401941F4E009666
:103A48002D2320222946012000F00AFE0395029426
:103A5800019400962D2320220121022000F000FE6F
:103A6800CAE700250395402402940194144E009659
:103A78002D2320222946012000F0F2FD039502940F
:103A8800019400962D2320220121022000F0E8FD58
:103A9800B2E74FF6FF71012000F0C6FD4FF6FF7147
:103AA800022000F0C1FDA7E7DC5D000840A200206D
:103AB800B8A10020EC610008EC5D0008EC65000886
:103AC800EC690008B44B1B6813B1B34B00221A60B1
:103AD800B24B1B6813B1B14B00221A60B04B1B6884
:103AE800002B00F0AC8170B586B0AE4B1C78002C72
:103AF80040F084805B781BB9AB4A1268012A23D155
:103B0800012B48D0022B56D0032B7CD10022012157
:103B1800104600F0A3F900F02FFB4FF6FF710120CB
:103B280000F082FD4FF6FF71022000F07DFD0122BA
:103B38001146104600F092F99C4B1B68ADF8143002
:103B48001B0C8DF8163053E00124974B1C600021A4
:103B5800322000F0B3F9204601F044F840F2DC507E
:103B6800FFF788FD0021084600F0A8F94FF4FA7025
:103B7800FFF780FD00216FF0310000F09FF940F25F
:103B88000E60FFF777FD0021084600F097F9002046
:103B980001F028F837E03221002000F08FF94FF4C7
:103BA8007A60FFF767FD0021084600F087F9642076
:103BB800FFF760FD27E000216FF0310000F07EF98B
:103BC8004FF4FA50FFF756FD0021084600F076F949
:103BD800012000F0A7FD4FF47A70FFF74BFD12E0CB
:103BE800FF23032205A97248FEF75BFF0134E4B204
:103BF800022CF5D96420FFF73DFD04E0012C0DD01F
:103C0800052C00F08680664B00221A60694B1B6801
:103C180013B1684B00221A6006B070BD022000F094
:103C280081FD604B5B78012B0CD0022B3DD0032B20
:103C3800E9D15E4B1B68ADF810301B0C8DF81230C3
:103C4800002450E00021084600F038F9574B1B6863
:103C5800ADF810301B0C8DF81230002407E0FF235C
:103C6800032204A95248FEF71CFF0134E4B2022CD7
:103C7800F5D9514B1B68ADF814301B0C8DF8163074
:103C8800002407E0FF23032205A94948FEF709FF9E
:103C98000134E4B2022CF5D900220121104600F0CB
:103CA800DDF86420FFF7E6FCADE7404B1B68ADF894
:103CB80014301B0C8DF81630002407E0FF23032274
:103CC80005A93B48FEF7EDFE0134E4B2022CF5D914
:103CD800FFF74AFE97E7FF23032204A93448FEF7BB
:103CE800E0FE0134E4B2022CF5D9344B1B68ADF880
:103CF80014301B0C8DF81630002407E0FF23032234
:103D080005A92B48FEF7CDFE0134E4B2022CF5D903
:103D180079E7244B5C784FF6FF71012000F084FCB2
:103D28004FF6FF71022000F07FFC631E032B7BD847
:103D3800DFE803F0021A4A62002503954024029442
:103D480001941F4E00962D2320222946012000F0C1
:103D580087FC03950294019400962D2320220121CB
:103D6800022000F07DFC4EE70025039540240294D4
:103D78000194144E00962D2320222946012000F09C
:103D88006FFC03950294019400962D2320220121B3
:103D9800022000F065FC36E728A30020F8A30020E5
:103DA800C8A40020FCA3002044A20020E05D000875
:103DB800B8A1002098A50020E45D0008E85D00088F
:103DC800EC610008EC5D000800250395402402948E
:103DD80001941F4E00962D2320222946012000F031
:103DE8003FFC03950294019400962D232022012183
:103DF800022000F035FC06E70025039540240294D4
:103E08000194144E00962D2320222946012000F00B
:103E180027FC03950294019400962D23202201216A
:103E2800022000F01DFCEEE64FF6FF71012000F0C5
:103E3800FBFB4FF6FF71022000F0F6FBE3E6064BB2
:103E48001B681BB1044B00221A607047704700BF03
:103E5800EC650008EC69000898A5002038B50D4607
:103E68001446A0B100224FF400411348FDF73FFC6F
:103E7800A5B100224FF400610F48FDF738FCA4B14A
:103E880000224FF480510C48FDF731FC38BD012267
:103E98004FF400410848FDF72AFCE9E701224FF4F6
:103EA80000610548FDF723FCE9E701224FF4805142
:103EB8000148FDF71CFCE9E700080140014B1860C8
:103EC80059607047A0A5002010B5012810D0E0B9AE
:103ED800012926D0B1F1FF3F17D10022042118484B
:103EE800FDF705FC012208211648FDF700FC0CE04F
:103EF80001290BD0134C012211462046FDF7F7FB90
:103F0800002202212046FDF7F2FB10BD0D4C0022D5
:103F18002046FDF7ECFB012202212046FDF7E7FBD6
:103F2800F3E70122042100F1804000F58830FDF715
:103F3800DEFB002208210348FDF7D9FBE5E700BFB7
:103F480000100140000C014010B50C4601280BD0B0
:103F5800A8B900291ADD0121FFF7B6FF002CB8BF68
:103F680064420D4B9C630AE0002909DD01210846E3
:103F7800FFF7AAFF002CB8BF6442074B5C6310BD73
:103F88004FF0FF310120FFF79FFFF3E74FF0FF31BC
:103F98000020FFF799FFE1E7002C014030B9094BF9
:103FA800586A404200B200225A627047012801D084
:103FB800002070474FF08043586A00B200225A62CE
:103FC800704700BF000400402DE9F04F85B0DFF8CE
:103FD80088B1DBF80000FCF729FB5BA3D3E90023D9
:103FE800FCF7B0FDFCF78CFBCBF8000000F0AEFD51
:103FF80082465A4C2068FCF719FB06460F46606853
:10400800FCF714FB52A3D3E90023FCF79BFD804681
:10401800894602460B4630463946FCF7B9F904464C
:104028000D46DBF80000FCF701FB00224C4BFCF7C7
:1040380089FDCDE9000102460B4620462946FCF7DA
:10404800A7F9CDE902015046FCF702FB04460D46EC
:1040580002460B46DDE90201FCF79CF9FCF778FB08
:104068008346DFF800A1CAF8080042464B463046AE
:104078003946FCF78FF902460B46DDE90001FCF7EB
:1040880089F922462B46FCF783F9FCF761FB0446C5
:10409800CAF8140034495846FCF7C2F8CAF80800B0
:1040A80031492046FCF7BCF8CAF814000020FFF795
:1040B80075FF84B2644224B20120FFF76FFF83B218
:1040C8005B421BB2294AB2F90000221A002AB8BF83
:1040D8005242B2F5C87F02DC244A14802046244AA2
:1040E800B2F900401A1B002AB8BF5242B2F5C87F85
:1040F80002DC1F4A13801C461A4FBD68FCF732FCCD
:1041080001461C4E2A46304600F07CFBFCF7F4FCC6
:1041180005B27F692046FCF725FC01463A4606F1C0
:10412800480000F06FFBFCF7E7FC04B229460020CA
:10413800FFF70AFF21460120FFF706FF064B002282
:104148001A6005B0BDE8F08FB81E85EB51B8AE3FD8
:10415800333333333333D33F48A20020A0A50020A4
:104168000000E03FACA50020666686C0C4A500201C
:10417800C6A50020C8A50020024B00225A601A607C
:10418800704700BFA0A50020014B1870704700BF02
:104198009CA5002038B50C46012802D002282DD055
:1041A80038BD002220212D48FDF7A1FA00250EE098
:1041B800002240212A48FDF79AFA01224FF4807123
:1041C8002748FDF794FA6400E4B20135EDB2072DF3
:1041D8000ED800224FF480712148FDF788FA14F0B8
:1041E800800FE5D0012240211D48FDF780FAE4E761
:1041F800012220211948FDF77AFAD1E700224FF46D
:1042080000511748FDF773FA00250EE001228021BE
:104218001348FDF76CFA01224FF400711048FDF7BE
:1042280066FA6400E4B20135EDB2072D0ED800221B
:104238004FF400710A48FDF75AFA14F0800FE5D1DF
:10424800002280210648FDF752FAE4E701224FF4E4
:1042580000510348FDF74BFAA2E700BF000C0140EC
:104268000010014038B504460D4601280AD0012245
:104278004FF480410648FDF73AFA29462046FFF7F1
:1042880089FF38BD012240210248FDF730FAF4E7E2
:1042980000100140000C014038B504460D460128C5
:1042A80002D0022806D038BD012240210948FDF776
:1042B8001EFA05E001224FF480410748FDF717FA7E
:1042C800C5F307212046FFF765FFE9B22046FFF74F
:1042D80061FFE8E7000C01400010014038B50446D2
:1042E8000D4601280AD000224FF480410648FDF708
:1042F800FEF929462046FFF74DFF38BD0022402130
:104308000248FDF7F4F9F4E700100140000C014001
:10431800F8B504460F4615461E462A21FFF7DEFF6C
:10432800B91C2046FFF7B8FFB11C2046FFF7B4FFC1
:104338002B212046FFF7D2FF691C2046FFF7ACFF70
:10434800069901312046FFF7A7FF2C212046FFF7E9
:10435800C5FFF8BD38B50446012800F02F810228B2
:1043680000F0438111212046FFF7B8FF7820FFF7BE
:1043780081F9B1212046FFF7B1FF05212046FFF75B
:1043880071FF3C212046FFF76DFF3C212046FFF7D7
:1043980069FFB2212046FFF7A1FF05212046FFF75C
:1043A80061FF3C212046FFF75DFF3C212046FFF7D7
:1043B80059FFB3212046FFF791FF05212046FFF75B
:1043C80051FF3C212046FFF74DFF3C212046FFF7D7
:1043D80049FF05212046FFF745FF3C212046FFF70E
:1043E80041FF3C212046FFF73DFFB4212046FFF75F
:1043F80075FF03212046FFF735FFC0212046FFF750
:104408006DFF28212046FFF72DFF08212046FFF7E2
:1044180029FF04212046FFF725FFC1212046FFF789
:104428005DFFC0212046FFF71DFFC2212046FFF790
:1044380055FF0D212046FFF715FF00212046FFF705
:1044480011FFC3212046FFF749FF8D212046FFF7C2
:1044580009FF2A212046FFF705FFC4212046FFF760
:104468003DFF8D212046FFF7FDFEEE212046FFF798
:10447800F9FEC5212046FFF731FF1A212046FFF734
:10448800F1FE36212046FFF729FF00212046FFF7DD
:10449800E9FEE0212046FFF721FF04212046FFF72F
:1044A800E1FE22212046FFF7DDFE07212046FFF727
:1044B800D9FE0A212046FFF7D5FE2E212046FFF718
:1044C800D1FE30212046FFF7CDFE25212046FFF7FB
:1044D800C9FE2A212046FFF7C5FE28212046FFF7FE
:1044E800C1FE26212046FFF7BDFE2E212046FFF7FC
:1044F800B9FE3A212046FFF7B5FE00212046FFF716
:10450800B1FE01212046FFF7ADFE03212046FFF74B
:10451800A9FE13212046FFF7A5FEE1212046FFF75B
:10452800DDFE04212046FFF79DFE16212046FFF7F9
:1045380099FE06212046FFF795FE0D212046FFF73C
:1045480091FE2D212046FFF78DFE26212046FFF7FC
:1045580089FE23212046FFF785FE27212046FFF705
:1045680081FE27212046FFF77DFE25212046FFF703
:1045780079FE2D212046FFF775FE3B212046FFF7E7
:1045880071FE00212046FFF76DFE01212046FFF74E
:1045980069FE04212046FFF765FE13212046FFF738
:1045A80061FE3A212046FFF799FE05212046FFF7D4
:1045B80059FE29212046FFF791FE38BD184D0022EB
:1045C80080212846FDF793F81420FFF753F80122BD
:1045D80080212846FDF78BF81420FFF74BF80122BD
:1045E80010212846FDF783F8BCE60E4D00224FF453
:1045F80000412846FDF77BF81420FFF73BF801221D
:104608004FF400412846FDF772F81420FFF732F8FE
:1046180001224FF480512846FDF769F8A2E600BF51
:10462800000C014000100140F0B583B006460D466D
:104638009F2300937F2300221146FFF769FE00277E
:1046480007E029463046FFF727FE01349F2CF8D9AA
:1046580001377F2F01D80024F8E703B0F0BD000030
:104668002DE9F04383B0DDF828800B9CDDF830900D
:104678000D9FB8F1000F2ED006460D4611461A467A
:104688000B1902EB090001380090013B3046FFF797
:104698003FFE09FB04F44FEAD40909FB05854FF0F6
:1046A800000814E00D4B19683046FFF7F5FD01349A
:1046B800072C09D82B78234113F0010FF2D0394683
:1046C8003046FFF7E9FDF2E7013508F10108C84572
:1046D80001D20024ECE703B0BDE8F0830C00002011
:1046E800F0B583B006461D46089F099CCB191019E2
:1046F80001380090013B0120FFF70AFE04FB07F791
:1047080000240BE062000132A95C3046FFF7AAFDE5
:1047180015F814103046FFF7A5FD0134BC42F1D35B
:1047280003B0F0BD30B583B004464FF6FF710120E9
:10473800FFF77AFF4FF6FF710220FFF775FF012C94
:1047480005D0022C16D0032C27D003B030BD4F253E
:104758000195402400941B4B202211460120FFF7AD
:10476800BFFF01950094184B202211460220FFF745
:10477800B7FFEAE74F25019540240094114B20220A
:1047880011460120FFF7ACFF019500940E4B202243
:1047980011460220FFF7A4FFD7E74A2301934024DC
:1047A80000940A4B202211460120FFF799FF472366
:1047B80001930094064B202211460220FFF790FF38
:1047C800C3E700BF1000002098270020204F0020DA
:1047D800A8720020A8B1A2B10170116841605168A7
:1047E80081609268C260002242628262C262036192
:1047F800009B43610023036343638363C3630364D0
:1048080043647047002800F0A0802DE9F84304466F
:10481800076C4764C66B06641046FBF7EDFF054658
:10482800E0632378002B46D16168FBF7F9FC8046EA
:104838006062A1682846FBF7F3FCA16AFBF7DEFF7C
:104848000746A062636BA363236B63633146284604
:10485800FBF7D2FF2063E168FBF7E2FC0546E06264
:10486800666931463846FCF73DF988B1A662A16A07
:104878004046FBF7C3FF01462846FBF7BFFF054646
:10488800206226693146FCF72DF958B1266214E0FA
:1048980006F1004631463846FCF706F90028E6D00E
:1048A800A662E4E706F1004631462846FCF7FCF824
:1048B80018B1266201E0012B02D0206ABDE8F88316
:1048C800D4F804803146FBF797FF01464046FBF7D2
:1048D800A7FC80466062A1682846FBF7A1FC8146D8
:1048E800A062636BA363236B636331463046FBF7B7
:1048F80085FF01462846FBF77FFF01463846FBF750
:104908007DFF2063E168FBF78BFC0546E0624946C2
:104918004046FBF773FF01462846FBF76FFF216A05
:10492800FBF76CFF0546206226693146FCF7DAF88A
:1049380008B12662C1E706F1004631462846FCF771
:10494800B3F80028B9D02662B7E70020704768B1ED
:104958000022C263026442640263426382630022EB
:10496800C2628262426202628261C2617047000072
:104978002DE9F04182B0154C2046FFF7E8FF04F11D
:1049880048063046FFF7E3FF114D2846FFF7DFFFE3
:10499800104F4FF00008CDF800803B460E4A012129
:1049A8002046FFF717FFCDF800803B460B4A012150
:1049B8003046FFF70FFF0A4B00930A4B0A4A0021C3
:1049C8002846FFF707FF02B0BDE8F081C8A5002020
:1049D80058A6002000C0DA45F86D0008EC6D000804
:1049E8000000204100002042046E000808B5054B75
:1049F8001860054B1868002302221946806800F0E9
:104A080099F908BDA0A60020C097002010B501386C
:104A180001280AD814464FF0FF3392B207480068BD
:104A2800FEF73FF840B9204610BD00F007F909230A
:104A380003604FF0FF30F7E70520F5E7A0A6002058
:104A4800022801D80020704708B500F0F7F80923BC
:104A580003604FF0FF3008BD08B500F0EFF80923F8
:104A680003604FF0FF3008BD08B548B94FF0FF3379
:104A7800012208480068FEF780F840B9012008BD07
:104A880000F0DCF8092303604FF0FF30F7E705205A
:104A9800F5E700BFA0A6002008B5022804D84FF407
:104AA80000534B60002008BD00F0C8F809230360DC
:104AB800F8E7000008B50D4B834200D008BD0C4B49
:104AC8001A6801321A601B68322B08D0084B1A6822
:104AD800084B9A42F2DD064B00221A60EEE7FFF718
:104AE80073FA034B00221A60F0E700BF30A10020E0
:104AF800A4A60020F8FFFF7F70B5104C2046FDF7F4
:104B08007BFA0F4E3046FDF777FA0E4D2846FDF733
:104B180073FA0D48FDF7A6FA00212046FDF7C8FDF7
:104B280004212046FDF7C4FD3C213046FDF73AFE3E
:104B38003C212846FDF736FE70BD00BF58A0002076
:104B4800A0A00020E8A0002030A10020224B1B7864
:104B58000BB90020704710B54FF480511F48FCF77F
:104B6800BFFD01281BD000244FF480411B48FCF7EF
:104B7800B7FD01281AD04FF400411848FCF7B0FDE2
:104B880001281AD04FF400511448FCF7A9FD012858
:104B98001AD04FF07F512046FBF742FB10BD002191
:104BA8000F4B1868FBF72AFE0446DDE70C4B5968E3
:104BB8002046FBF723FE0446DDE7094B99682046AB
:104BC800FBF71CFE0446DDE7054BD9682046FBF7DA
:104BD80015FE0446DDE700BFA8A60020000C014032
:104BE800B0970020014B1870704700BFA8A600209E
:104BF800002103E00B4B5B58435004310A480B4B30
:104C080042189A42F6D30A4A02E0002342F8043BCB
:104C1800084B9A42F9D3FEF72FFA00F015F8FEF781
:104C280079F97047206E00080000002004A00020D9
:104C380004A00020F4A60020FEE70000014B18683D
:104C4800704700BFC097002070B50D4E0D4D761B04
:104C5800B61006D0002455F8043B01349847A64204
:104C6800F9D1094E094D01F093F8761BB61006D01C
:104C7800002455F8043B01349847A642F9D170BD89
:104C8800146E0008146E00081C6E0008146E0008EC
:104C9800830730B548D0541E002A3FD00346CAB215
:104CA80001E0013C3AD303F8012B9D07F9D1032C0D
:104CB8002DD9CDB245EA05250F2C45EA054536D94B
:104CC800A4F1100222F00F0C03F1200EE6444FEA83
:104CD800121C03F1100242E9045542E90255103250
:104CE8007245F8D10CF1010214F00C0F03EB02121B
:104CF80004F00F0C13D0ACF1040323F003030433C6
:104D0800134442F8045B9342FBD10CF003042CB12A
:104D1800CAB21C4403F8012B9C42FBD130BD644647
:104D28001346002CF4D1F9E703461446BFE71A46A8
:104D3800A446E0E72DE9F043694C0E46D4F800801C
:104D4800174604461D4683B0B8F1000F03D0D8F8C3
:104D58003830002B77D0022F05D0012F00F2AC801D
:104D6800002DC0F2A980636EDA0752D5214640466D
:104D780000F05AF9216B41B104F14003994202D085
:104D8800404600F07DFA002323630023B4F90CC0E9
:104D9800A3611CF0800F636064D12CF44A6C2CF082
:104DA800030C022FA4F80CC06AD001AB2146404680
:104DB8006A4600F091FBA3891843A081002D2FD0EB
:104DC800002E2ED0D8F83830002B38D0009BC4E9FC
:104DD8000465AB42B4F90C3026601CBF43F4006391
:104DE800A381012F04BF43F00103A3819AB213F0FA
:104DF80008032CD0D1075DD500216D42A561656EF1
:104E0800A16015F0010527D00025284603B0BDE8AC
:104E1800F083A3899B05A9D4A06D00F059FBA5E7F1
:104E2800009D284600F088FB0646002847D0A38945
:104E380043F08003A381D8F83830002BC6D1404610
:104E480000F026F9C2E7404600F022F983E7A360A4
:104E5800656E15F00105D7D1930524D5284603B012
:104E6800BDE8F0834046216900F00AFAB4F90CC0A5
:104E7800022F2CF44A6C2CF0030CA4F80CC094D12B
:104E880000250021012204F1430323602361636E9E
:104E98004CF0020CD807A4F80CC0A1606261DDD404
:104EA8001CF4007FDAD1A06D00F014FB284603B093
:104EB800BDE8F083A560CBE74FF0FF35CEE7DDF81E
:104EC8000090A94504D0484600F036FB064620B9B4
:104ED8004FF0FF35B4F90CC0D3E74D46A7E700BF44
:104EE800C0970020024B13B1024800F005B8704784
:104EF80000000000BD510008002301461A4618466C
:104F080000F048BEB1F90C20F8B50C461107074669
:104F180043D4636842F40062002BA2815BDDA56A7A
:104F2800002D56D000233E683B6093B212F48052A5
:104F380055D101233846E169A847421C65D0A389A9
:104F4800A56A5B0705D56368C01A236B0BB1E36BD1
:104F5800C01A0246E16900233846A847411C40D1DF
:104F68003B68002B3DD01D2B01D0162B54D10022BD
:104F7800A38923F40063A3812369C4E90032216B68
:104F88003E6031B304F14003994202D0384600F044
:104F980077F9002318462363F8BD2669CEB193B28A
:104FA8009A0718BF0023256808BF63692660AD1BF0
:104FB800A3600CE02B463246D4F824C03846E16999
:104FC800E047B0F1000CA5EB0C05664416DD002D9A
:104FD800F0DC0020F8BDE36B002BA0DCF9E7206DC6
:104FE800AFE70022B4F90C30626023F40063226951
:104FF800A381DB042260C2D52065C0E7A3894FF0F6
:10500800FF3043F04003A381F8BD3B68002B96D0E6
:105018001D2B06D0162B04D0A38943F04003A3818F
:10502800F8BD00203E60F8BD38B505460C4608B10D
:10503800836BA3B1B4F90C00B8B1636EDB0701D47C
:10504800810515D528462146FFF75CFF636E0546A6
:10505800DA0702D4A3899B050ED5284638BD00F08F
:1050680017F8B4F90C000028E7D10546284638BDE2
:10507800A06D00F02DFAE5E7A06D00F02BFA2846A8
:1050880038BD00BF014900F0FBB900BF4D5C000806
:105098002DE9F0478246394800F01AFADAF8384024
:1050A800002C66D1042303223549DAF80450CAF8E3
:1050B8003C10DFF8D090DFF8D080344F344E0AF53A
:1050C8003B71CAE9B921CAF8E0422146EB600822DF
:1050D800C5E90044C5E904446C66AC60AC6105F1FF
:1050E8005C00FFF7D5FDC5E90759C5E90987EE62F8
:1050F80005F1580000F0E8F9DAF80850254B214688
:10510800EB600822C5E90044C5E904446C66AC605C
:10511800AC6105F15C00FFF7BBFDC5E90759C5E9BE
:105128000987EE6205F1580000F0CEF9DAF80C5064
:10513800194B2146EB600822C5E90044C5E904443F
:105148006C66AC60AC6105F15C00FFF7A1FD05F190
:105158005800C5E90759C5E90A76C5F8248000F062
:10516800B3F901230548CAF83830BDE8F04700F024
:10517800B1B90248BDE8F04700F0ACB9B8A60020C4
:105188008D500008E55A0008095B0008495B0008D3
:10519800695B00080900010012000200014800F0E4
:1051A80097B900BFB4A60020014800F093B900BF2A
:1051B800B4A6002038B5084B084D5B1B9C1007D0DF
:1051C800043B1D44013C55F804399847002CF9D19B
:1051D800BDE8384000F0E2BD206E00081C6E0008F3
:1051E800F8B50C46234F064600F05AFCBB685D68CC
:1051F800C4F57E6325F003050F332B4423F47F6346
:1052080023F00F03A3F58054B4F5805F07DB00217A
:10521800304600F051FCBB682B44984204D030461D
:1052280000F044FC0020F8BD3046614200F044FC28
:1052380001300DD0104ABB682D1B45F001055D609B
:10524800136830461B1B136000F030FC0120F8BDCA
:105258000021304600F030FCBA68831A0F2BDEDDDF
:1052680043F001035360054B03491B68C01A0860EB
:10527800D5E700BFF49B0020BCA60020FC9F0020BF
:1052880000295ED0F8B50C46064600F009FC54F833
:10529800042C784FA4F1080522F001016818D7F80A
:1052A80008C04368844523F0030300F08780D207D1
:1052B800436034D454F8082C07F10804AD1A11449B
:1052C800AA68A24268D000EB030CDCF804E0D5F829
:1052D8000CC01EF0010FC2F80CC0CCF8082000F07A
:1052E800918041F001036B600160B1F5007F31D21C
:1052F8004A09CB08012191407A680133114379604A
:1053080007EBC30257F83310083AC5E9021247F809
:105318003350CD603046BDE8F84000F0C7BBC21836
:105328005268D2070ED4194407F108048368A342CF
:1053380070D0C268DA60936041F001036B60695015
:10534800D3E7704741F00103B1F5007F44F8043C0E
:105358000160CDD3B1F5206F4FEA512347D28B09B5
:1053680003F1390003F13802C300F818FB58083874
:10537800984258D05A6822F003028A4202D99B68A0
:105388009842F7D1D868C5E9023085603046DD60BB
:10539800BDE8F84000F08ABBC2185268D20763D44F
:1053A8000B44D0E90212CA60916043F001026A60BE
:1053B8003046EB50BDE8F84000F078BB0B44D1070D
:1053C80007D454F8082CAD1A1344D5E90212CA6060
:1053D800916043F001026A60274ABD6012689A42F0
:1053E80098D8264B30461968FFF7FAFE92E7142B37
:1053F8000AD9542B1FD80B0B03F16F0003F16E026F
:10540800C300B2E7194491E703F15C0003F15B02C2
:10541800C300AAE741F00103C7E90455C5E90244FE
:105428006B60695076E70121921001FA02F27968FF
:105438000A437A60A7E7B3F5AA7F06D8CB0B03F136
:10544800780003F17702C3008FE740F25452934289
:1054580006D88B0C03F17D0003F17C02C30084E7BE
:105468004FF47E737E2280E741F001036B60016098
:1054780050E700BFF49B002000A00020ECA600200D
:105488002DE9F8434FF000090746884600F53876BD
:10549800D6E90154013D10D4A389013D012B08D957
:1054A800B4F90E30013304D021463846C04749EAE2
:1054B80000096B1C04F16804EED13668002EE7D1B0
:1054C8004846BDE8F88300BF704700BF704700BF7B
:1054D800704700BF704700BF70B50C46B1F90E1099
:1054E800154600291E4696B014DB6A4600F010FCEB
:1054F80000280FDB019A4FF4806302F47042A2F592
:105508000052B2FA82F24FF40060520932602B6006
:1055180016B070BD0023B4F90C10336011F0800090
:1055280004D0402218462A6016B070BD4FF480633C
:105538002B6016B070BD00BF024B0146186800F022
:1055480003B800BFC09700202DE9F04F01F10B050B
:10555800162D064683B025D8102900F2B88000F031
:105568009FFA102518224FF0020CB54F3A445368A1
:10557800A2F108018B4200F0B7805A68D96822F07E
:1055880003021A449C683046E1608C60516803F15C
:10559800080441F00101516000F088FA204603B088
:1055A800BDE8F08F35F0070500F19180A94200F2BF
:1055B8008E8000F075FAB5F5FC7FC0F094816B0A17
:1055C80000F08C80042B00F26A81AB0903F1390CDE
:1055D80003F138044FEACC00994F3844436808383F
:1055E800984206D10CE0002980F22681DB689842B7
:1055F80006D05A6822F00302511B0F29F3DDA44696
:105608003C69DFF840E274457AD0626822F0030210
:10561800531B0F2B00F37681002BC7E904EE80F2B1
:105628006781B2F5007F80F019810121D308520902
:105638000B4491407A6857F833000A4307EBC301DB
:105648000839A060E1607A6047F83340C4600121FE
:105658004FEAAC039940914259D8114206D12CF037
:10566800030C490011420CF1040CFAD007EBCC09E9
:1056780048466446D0F80C80404508D11CE1002B10
:1056880080F22181D8F80C80404500F01581D8F8C7
:10569800042022F00302531B0F2BF0DD08EB050159
:1056A80045F00105C8F804503046D8E90264F460B2
:1056B800A66043F00104C7E904114C60C1E902EE99
:1056C80048F8023000F0F2F908F1080402E00C236F
:1056D80000243360204603B0BDE8F08F4FF400701B
:1056E8004FF0400C3F2477E7D3689A4208BF0CF18B
:1056F800020C7FF442AF3C69DFF848E1744584D17D
:1057080001217A684FEAAC0399409142A5D9BC6857
:10571800636823F003094D4503D8A9EB05030F2B54
:105728007ADCDFF824B1494BDBF800201B68013232
:105738002B4404EB090A00F02F8103F580530F3343
:1057480023F47F6828F00F084146304600F0B4F98A
:10575800411C024600F0EF80824500F2EA803C4B93
:10576800196841440846196000F04981DBF80010C7
:10577800019301311BBFA2EB0A0A5044CBF8002069
:10578800186012F0070B00F01181CBF108010A44F0
:10579800CBF5805190440831A1EB0801C1F30B0A05
:1057A80051463046009200F087F9421CDDE900239B
:1057B80000F04B81801A00EB0A08196848F00100D4
:1057C8005144BC42BA601960506000F02481B9F1BC
:1057D8000F0F40F222814FF0050E6068A9F10C0C02
:1057E8002CF0070C00F0010040EA0C006060BCF1EE
:1057F8000F0F04EB0C00C0E901EE00F22E811446F5
:105808005068144B1A688A4238BF1960124B1A68DC
:105818008A4238BF196090E0621943F0010345F0ED
:10582800010565603046BA600834536000F03EF9FF
:10583800204603B0BDE8F08FD9681A44A2E600BF3D
:10584800F49B0020FC9B0020FC9F0020ECA600207D
:10585800BCA60020E4A60020E8A60020B2F5206F30
:105868004FEA52235FD3142B00F2B18003F15C019D
:10587800C9005B33781879580838884200F08F805F
:105888004B6823F00303934202D989688842F7D111
:10589800C8687A68C4E902108460CC60D7E6142B23
:1058A80059D9542B00F29B802B0B03F16F0C03F199
:1058B8006E044FEACC008FE60134A30700F108001C
:1058C8007FF4D8AE53E0444642445368D8F80C10ED
:1058D80043F00103536054F8083F3046D9608B60A9
:1058E80000F0E4F8F6E64FEAD50C05F108023CE6CC
:1058F80022445368304643F00103536000F0D6F861
:105908000834E7E6611945F00105656043F00105D3
:10591800C7E904113046C1E902EE4D60A35000F01A
:10592800C5F80834D6E6930903F13901C9003833BC
:10593800A0E7BC425ED0BC68606820F0030845451B
:10594800A8EB050302D80F2B3FF766AF304600F0EF
:10595800ADF80024BEE603F15C0C03F15B044FEAEA
:10596800CC0039E659F808394B4540F095801CF0D1
:10597800030F0CF1FF3CF5D17B6823EA01037B6040
:10598800490099423FF6C3AE11B9C0E64900043454
:105998001942FBD0A44669E603F11008D4E60122B7
:1059A8009B109A407B681A437A6073E702EB080100
:1059B8004942C1F30B0A51463046009200F07CF888
:1059C800431CDDE900237FF4F5AEDA46F5E6542BF7
:1059D80026D8130B03F16F01C9006E334AE7B3F5FC
:1059E800AA7F26D8EB0B03F1780C03F177044FEA72
:1059F800CC00F1E5294B186840441860B6E6CAF3B4
:105A08000B0CBCF1000F7FF4B1AEBC68C84448F081
:105A180001006060F5E61446F3E60123536095E75C
:105A2800B3F5AA7F24D8D30B03F17801C9007733E3
:105A380020E740F25452934224D8AB0C03F17D0C7A
:105A480003F17C044FEACC00C6E5ABF1080BD8445F
:105A58004FF0000AA8EB0208AFE604F1080130464F
:105A68000093FFF70DFCBC68009B60681968C8E6E6
:105A780040F254518B420BD8930C03F17D01C900BD
:105A88007C33F7E64FF47E704FF07F0C7E24A3E55D
:105A98004FF47E717E23EDE67B6871E7BCA600209B
:105AA8000148FFF715BD00BFB0A600200148FFF769
:105AB80011BD00BFB0A60020002238B5064D04462F
:105AC80008462A60FDF7BAFA431C00D038BD2B6897
