:020000040800F2
:1000000000C0002041210008CD190008CF190008C8
:10001000D1190008D3190008D51900080000000004
:10002000000000000000000000000000D7190008D8
:10003000D919000800000000DB190008DD190008CC
:1000400089210008892100088921000889210008E8
:1000500089210008892100088921000889210008D8
:1000600089210008892100088921000889210008C8
:1000700089210008892100088921000889210008B8
:1000800089210008892100088921000889210008A8
:100090008921000889210008892100088921000898
:1000A0008921000889210008892100088921000888
:1000B0008921000889210008892100088921000878
:1000C0008921000889210008892100088921000868
:1000D0008921000889210008E5190008F5190008A0
:1000E0008921000889210008892100088921000848
:1000F0008921000889210008892100088921000838
:100100008921000889210008892100088921000827
:100110002D200008051A00088921000889210008FF
:100120008921000889210008892100088921000807
:1001300000000000000000000000000000000000BF
:1001400000000000000000000000000000000000AF
:10015000000000000000000000000000000000009F
:10016000000000000000000000000000000000008F
:10017000000000000000000000000000000000007F
:10018000000000000000000000000000000000006F
:10019000000000000000000000000000000000005F
:1001A000000000000000000000000000000000004F
:1001B000000000000000000000000000000000003F
:1001C000000000000000000000000000000000002F
:1001D000000000000000000000000000000000001F
:0401E0005FF8E0F1F3
:1001E40010B5054C237833B9044B13B10448AFF36D
:1001F40000800123237010BD3C0400200000000097
:100204005823000808B5034B1BB103490348AFF357
:10021400008008BD000000004004002058230008AE
:1002240010B504460E4B18784FF47A73B3FBF0F311
:100234000C4A1068B0FBF3F000F094F868B90F2C86
:1002440001D901200AE0002221464FF0FF3000F0DE
:1002540043F8054B1C60002000E0012010BD00BFE6
:1002640000000020080000200400002008B5074A10
:10027400136843F010031360032000F01BF8002000
:10028400FFF7CEFF01F07EFB002008BD00200240F6
:10029400034A1168034B1B780B441360704700BF7B
:1002A4005804002000000020014B1868704700BF6C
:1002B40058040020074AD36823F4E0631B041B0C92
:1002C400000200F4E060034343F0BF6343F40033EF
:1002D400D360704700ED00E000B5194BDB68C3F351
:1002E4000223C3F1070CBCF1040F28BF4FF0040C28
:1002F40003F1040EBEF1060F18D9033B4FF0FF3E85
:100304000EFA0CFC21EA0C0199400EFA03F322EADE
:100314000303194300280BDB0901C9B200F1604053
:1003240000F5614080F800135DF804FB0023E5E765
:1003340000F00F000901C9B2024B1954F4E700BFE1
:1003440000ED00E014ED00E0002807DB00F01F02E0
:10035400400901239340024A42F82030704700BF0D
:1003640000E100E00138B0F1807F0BD24FF0E023D0
:100374005861054AF02182F8231000209861072271
:100384001A6170470120704700ED00E008B590F84D
:100394002130022B03D004238363012008BD0268AB
:1003A400136823F00E0313600268136823F001033B
:1003B400136003684B4A93424ED9783A934224D04F
:1003C4001432934230D0143293422FD014329342D9
:1003D4002FD0143293422FD0143293422FD01432A0
:1003E40093422FD002F5627293422ED0143293427C
:1003F4002DD0143293422CD01432934202D04FF4B5
:10040400803203E04FF4805200E00122364B5A6000
:10041400012380F82130002380F82030436B002B27
:100424005ED098470020B9E71022EFE74FF48072BE
:10043400ECE74FF48052E9E74FF48032E6E74FF4FB
:100444008012E3E74FF08072E0E70122DEE710223A
:10045400DCE74FF48072D9E7244A934224D0143263
:10046400934225D01432934224D01432934224D0A0
:100474001432934224D01432934224D0143293423F
:1004840024D002F56272934223D01432934222D0D4
:100494001432934221D01432934202D04FF480326A
:1004A40003E04FF4805200E00122114B5A60AFE7A1
:1004B4001022FAE74FF48072F7E74FF48052F4E722
:1004C4004FF48032F1E74FF48012EEE74FF0807280
:1004D400EBE70122E9E71022E7E74FF48072E4E753
:1004E40000205BE780000240000402400800024054
:1004F4000000024070B582B00024A446B0E0874DED
:10050400AA4210D007D9864DAA420CD005F58035F1
:10051400AA4208D013E0A5F58015AA4203D005F538
:100524007025AA4207D18A68002A62D0012A5BD0CA
:100534004361082403E0A5F58015AA42F3D0BEF177
:10054400FF0F58D80646BEF1FF0F56D84FEA8C026B
:1005540033680F25954023EA050304FA02F2134396
:1005640033604B6813F0805F78D06E4B9A6942F029
:1005740001029A619B6903F001030193019B4FEA15
:100584009C02951C684B53F825600CF003039D00F6
:100594000F23AB4026EA0306644B984233D003F59D
:1005A4008063984200F0988003F58063984200F0DD
:1005B400958003F58063984200F0928003F5806390
:1005C400984200F08F8003F58063984219D0062387
:1005D4001AE0CC68B3E7CC680434B0E7CC680834DC
:1005E400ADE7CC680C34AAE703610824A7E700242C
:1005F400A5E70424A3E7061DA5E7ACF108029200D1
:10060400A6E7052300E00023AB4033430232464D06
:1006140045F822304B6813F4803F65D0444A136890
:1006240043EA0E0313604B6813F4003F62D0404A60
:10063400536843EA0E0353604B6813F4801F5FD082
:100644003B4A936843EA0E0393604B6813F4001F1C
:100654005CD0374AD36843EA0E03D3600CF1010C33
:100664000A6832FA0CF357D0012303FA0CF302EAB6
:10067400030E33EA0202F1D14A68122A3FF63FAF71
:10068400122A3FF65CAF01A555F822F02B050008AD
:10069400D7050008E1050008F30500084305000834
:1006A4004305000843050008430500084305000806
:1006B40043050008430500084305000843050008F6
:1006C40043050008430500084305000843050008E6
:1006D400DB050008E7050008012395E7022393E7FB
:1006E400032391E704238FE7114A136823EA0E03D7
:1006F400136098E70E4A536823EA0E0353609BE79E
:100704000B4A936823EA0E0393609EE7084AD36872
:1007140023EA0E03D360A1E702B070BD00002210EB
:1007240000003110001002400000014000080140A8
:10073400000401400AB10161704709040161704776
:1007440082B0084B1B68084AA2FB03235B0A00FB28
:1007540003F3019300BF019B5A1E0192002BF9D1B0
:1007640002B0704708000020D34D6210002800F04A
:10077400F18170B582B00446036813F0010F2CD0E8
:10078400994B5B6803F00C03042B1DD0964B5B68FC
:1007940003F00C03082B12D06368B3F5803F41D0FB
:1007A400002B55D103F1804303F504331A6822F476
:1007B40080321A601A6822F480221A6037E08A4B69
:1007C4005B6813F4803FE7D0874B1B6813F4003F4A
:1007D40003D06368002B00F0BF81236813F0020F7D
:1007E40075D0814B5B6813F00C0F5FD07E4B5B6858
:1007F40003F00C03082B54D02369002B00F08A80EB
:100804007A4B01221A60FFF74FFD0546764B1B68B1
:1008140013F0020F75D1FFF747FD401B0228F5D9ED
:1008240003209EE1704A136843F4803313606368C5
:1008340043B3FFF739FD05466B4B1B6813F4003FC8
:10084400CBD1FFF731FD401B6428F5D9032088E1A3
:10085400B3F5A02F09D0644B1A6822F480321A60D1
:100864001A6822F480221A60E1E703F18043A3F5B9
:100874003C331A6842F480221A601A6842F48032C7
:100884001A60D4E7FFF710FD0546574B1B6813F4B5
:10089400003FA2D0FFF708FD401B6428F5D90320D0
:1008A4005FE1514B5B6813F4803FA5D14E4B1B684D
:1008B40013F0020F03D02369012B40F04F814A4A01
:1008C400136823F0F803616943EAC10313602368E2
:1008D40013F0080F33D0A369002B5CD0434B0122E3
:1008E400C3F88024FFF7E0FC05463F4B5B6A13F036
:1008F400020F21D1FFF7D8FC401B0228F5D90320B1
:100904002FE1394A136823F0F803616943EAC1030C
:100914001360DCE7354B00221A60FFF7C5FC05467F
:10092400314B1B6813F0020FD1D0FFF7BDFC401B05
:100934000228F5D9032014E10120FFF701FF236801
:1009440013F0040F00F09680274BDB6913F0805FEF
:1009540034D1254BDA6942F08052DA61DB6903F065
:1009640080530193019B0125214B1B6813F4807F65
:1009740026D0E368012B3DD0002B53D103F18043F3
:1009840003F504331A6A22F001021A621A6A22F089
:1009940004021A6233E0154B0022C3F88024FFF7E7
:1009A40083FC0546104B5B6A13F0020FC7D0FFF7B8
:1009B4007BFC401B0228F5D90320D2E00025D3E7B5
:1009C4000B4A136843F480731360FFF76DFC06460B
:1009D400074B1B6813F4807FCBD1FFF765FC801BAA
:1009E4006428F5D90320BCE0001002400000424214
:1009F400007000405F4A136A43F001031362E36826
:100A040033B3FFF751FC06465A4B1B6A13F0020F2F
:100A14002FD1FFF749FC801B41F288339842F3D968
:100A240003209EE0052B09D0524B1A6A22F00102E2
:100A34001A621A6A22F004021A62E0E74D4B1A6A3B
:100A440042F004021A621A6A42F001021A62D6E7FC
:100A5400FFF72AFC0646474B1B6A13F0020F08D027
:100A6400FFF722FC801B41F288339842F3D903201C
:100A740077E0E5B9E369002B72D03E4A526802F090
:100A84000C02082A56D0022B17D03B4B00221A66C0
:100A9400FFF70AFC0446374B1B6813F0007F47D06E
:100AA400FFF702FC001B0228F5D9032059E0314A64
:100AB400D36923F08053D361DCE72F4B00221A66FD
:100AC400FFF7F2FB05462B4B1B6813F0007F06D0A3
:100AD400FFF7EAFB401B0228F5D9032041E0236A13
:100AE400B3F5803F1AD023494B6823F47413226A68
:100AF400606A024313434B601F4B01221A66FFF7DF
:100B0400D3FB04461B4B1B6813F0007F0ED1FFF789
:100B1400CBFB001B0228F5D9032022E0154A5368B9
:100B240023F40033A1680B435360DCE7002018E092
:100B3400002016E0012B16D00E4B5B6803F48031C5
:100B4400226A914211D103F47013626A93420ED166
:100B5400002006E001207047012002E0012000E0AF
:100B6400002002B070BD0120FBE70120F9E701205D
:100B7400F7E700BF001002400000424286B0164B67
:100B84000FCB0DF1180C0CE90F0040F20123ADF866
:100B94000430124B5B6803F00C02082A02D01048A0
:100BA40006B07047C3F38342624412F8100C13F486
:100BB400803F0CD0094B5B68C3F34043634413F894
:100BC400143C074A02FB00F0B0FBF3F0E8E7054BE6
:100BD40003FB00F0E4E700BF7023000800100240AC
:100BE40000127A0000093D00002800F0A08070B5D2
:100BF4000D460446524B1B6803F007038B420BD28D
:100C04004F4A136823F007030B431360136803F080
:100C140007038B4240F08D80236813F0020F17D036
:100C240013F0040F04D0474A536843F4E06353605D
:100C3400236813F0080F04D0424A536843F4605306
:100C44005360404A536823F0F003A1680B43536098
:100C5400236813F0010F31D06368012B20D0022BDD
:100C640025D0384A126812F0020F64D035494A6818
:100C740022F0030213434B60FFF716FB0646314B89
:100C84005B6803F00C036268B3EB820F16D0FFF7C6
:100C94000BFB801B41F288339842F0D9032045E0D6
:100CA400284A126812F4003FE0D101203EE0254AB0
:100CB400126812F0007FD9D1012037E0204B1B6865
:100CC40003F00703AB420AD91D4A136823F0070354
:100CD4002B431360136803F00703AB422DD1236841
:100CE40013F0040F06D0174A536823F4E063E16855
:100CF4000B435360236813F0080F07D0114A53685D
:100D040023F46053216943EAC1035360FFF736FFBC
:100D14000C4B5B68C3F303130B4AD35CD8400B4BF7
:100D240018600B4B1868FFF77BFA002070BD012098
:100D340070470120FAE70120F8E70120F6E700BF39
:100D44000020024000100240842300080800002014
:100D540004000020014B1868704700BF0800002001
:100D640008B5FFF7F7FF044B5B68C3F30223034A9C
:100D7400D35CD84008BD00BF001002409423000893
:100D840008B5FFF7E7FF044B5B68C3F3C223034ACC
:100D9400D35CD84008BD00BF001002409423000873
:100DA40030B4036A23F001030362036A426884696E
:100DB40024F073040D682C4323F0020C8B6843EA7F
:100DC4000C03104DA84203D005F50065A84205D1D7
:100DD40023F00803CD682B4323F00403094DA842F4
:100DE40003D005F50065A84205D122F440724D698F
:100DF4002A438D692A43426084614A6842630362DC
:100E040030BC7047002C014030B4036A23F4807373
:100E14000362036A4268C46924F0730C0C6844EAF0
:100E24000C0523F400738C6843EA0423114CA0429C
:100E340003D004F50064A04206D123F40063CC6817
:100E440043EA042323F480630A4CA04203D004F54C
:100E54000064A04207D122F440524C6942EA0412D1
:100E64008C6942EA04124260C5614A68C263036243
:100E740030BC7047002C014030B4036A23F4805323
:100E84000362036A4468C26922F4E6420D6842EAD6
:100E9400052223F400538D6843EA0533094DA84223
:100EA40003D005F50065A84204D124F480444D69BB
:100EB40044EA85144460C2614A680264036230BC37
:100EC400704700BF002C014010B4036A046A24F088
:100ED40001040462846924F0F00C4CEA021223F049
:100EE4000A030B438261036210BC704710B4046AA6
:100EF40024F0100404628469036A24F4704C4CEAFC
:100F0400023223F0A00343EA01138261036210BC9E
:100F14007047836823F070030B4343F00703836037
:100F240070477047704700000368244A904212D00B
:100F340002F5006290420ED0B0F1804F0BD0A2F5C2
:100F44009832904207D002F58062904203D002F5B5
:100F54008062904203D123F070034A681343174A16
:100F6400904212D002F5006290420ED0B0F1804F50
:100F74000BD0A2F59832904207D002F580629042DD
:100F840003D002F58062904203D123F44073CA680F
:100F9400134323F080034A69134303608B68C362DD
:100FA4000B688362054B984203D003F500639842B3
:100FB40001D10B690363012343617047002C014095
:100FC40040B310B5044690F83D30F3B1022384F8E1
:100FD4003D30214651F8040BFFF7A6FF012384F8A6
:100FE400463084F83E3084F83F3084F8403084F84A
:100FF400413084F8423084F8433084F8443084F833
:10100400453084F83D30002010BD80F83C3000F0BD
:101014008BFDDBE70120704740B310B5044690F820
:101024003D30F3B1022384F83D30214651F8040BDE
:10103400FFF77AFF012384F8463084F83E3084F8C1
:101044003F3084F8403084F8413084F8423084F8EA
:10105400433084F8443084F8453084F83D3000202F
:1010640010BD80F83C30FFF75CFFDBE701207047E0
:1010740040B310B5044690F83D30F3B1022384F830
:101084003D30214651F8040BFFF74EFF012384F84D
:10109400463084F83E3084F83F3084F8403084F899
:1010A400413084F8423084F8433084F8443084F882
:1010B400453084F83D30002010BD80F83C30FFF707
:1010C40031FFDBE701207047002857D070B50D468B
:1010D400044690F83D30002B4BD0022384F83D3079
:1010E4002268936823F4804323F007039360214626
:1010F40051F8040BFFF718FF21688A688B690E6AA0
:101104002868104323F4407C2CF0030CAA68AB69D4
:1011140042EA032343EA0C0323F47C4323F0FC0355
:10112400EA69D5F80CC04CEA022C4CEA030C2A6A92
:1011340013032A6943EA021343EA0C0326F0220646
:101144006A686D6942EA05123243886021688B61DE
:1011540023681A62012384F8463084F83E3084F808
:101164003F3084F8423084F8433084F83D30002026
:1011740070BD80F83C3000F0FDFCAEE70120704704
:1011840030B4036A23F010030362036A446882697B
:1011940022F4E6420D6842EA052223F020038D681A
:1011A40043EA0513114DA84203D005F50065A84292
:1011B40006D123F08003CD6843EA051323F04003EE
:1011C4000A4DA84203D005F50065A84207D124F4CE
:1011D40040644D6944EA85048D6944EA85044460A9
:1011E40082614A688263036230BC7047002C01400C
:1011F40090F83C30012B22D010B50446012380F82E
:101204003C300C2A0BD8DFE802F0070A0A0A0E0A5F
:101214000A0A120A0A0A16000068FFF7C1FD002034
:1012240084F83C0010BD0068FFF7AAFFF7E70068E8
:10123400FFF7EAFDF3E70068FFF71EFEEFE7022081
:10124400704738B590F83C30012B60D004460D4609
:10125400012380F83C300C2A1AD8DFE802F0071981
:1012640019191D1919193119191944000068FFF7C2
:1012740097FD2268936943F0080393612268936998
:1012840023F0040393612268936929690B439361F2
:10129400002084F83C0038BD0068FFF771FF226825
:1012A400936943F4006393612268936923F4806330
:1012B400936122689369296943EA01239361E7E70B
:1012C4000068FFF7A1FD2268D36943F00803D361E6
:1012D4002268D36923F00403D3612268D36929699E
:1012E4000B43D361D4E70068FFF7C6FD2268D369D6
:1012F40043F40063D3612268D36923F48063D36128
:101304002268D369296943EA0123D361C0E7022033
:10131400C1E710B4846824F47F4C42EA03220A43F0
:1013240042EA0C02826010BC704790F83C30012BFA
:1013340066D010B50446012380F83C30022380F8BF
:101344003D300268936823F47F4323F0770393606E
:101354000B68602B40D022D8402B47D00BD9502BA0
:101364000ED1CA6849680068FFF7AEFD50212068B5
:10137400FFF7CFFD04E0202B0CD008D9302B09D087
:10138400012384F83D30002084F83C0010BD0BB1EB
:10139400102BF5D119462068FFF7BBFDF0E7702B41
:1013A4000ED0B3F5005FEBD1CB684A68896800685A
:1013B400FFF7AFFF2268936843F480439360DFE74D
:1013C400CB684A6889680068FFF7A3FF22689368BE
:1013D40043F077039360D3E7CA6849680068FFF76E
:1013E40085FD60212068FFF794FDC9E7CA68496854
:1013F4000068FFF769FD40212068FFF78AFDBFE719
:101404000220704790F83C30012B34D010B40123F3
:1014140080F83C30022380F83D3003685A689C68A9
:1014240022F0700C0A6842EA0C025A600368134AFC
:10143400934212D002F5006293420ED0B3F1804F72
:101444000BD0A2F59832934207D002F58062934202
:1014540003D002F58062934204D124F080044A68E8
:1014640014439C60012380F83D30002380F83C3015
:10147400184610BC70470220704700BF002C014082
:1014840090F83C30012B22D0012380F83C30CB680B
:1014940023F440738A68134323F480634A68134334
:1014A40023F400630A68134323F480530A69134343
:1014B40023F400534A69134323F48043CA69134352
:1014C40002685364002380F83C30184670470220B9
:1014D40070470268D36823F49073D3600268536939
:1014E40023F001035361202380F83A30704790F8C9
:1014F4003930DBB2212B01D0022070478368B3F569
:10150400805F17D0036A5A1C02621A7803685A6013
:10151400C38C9BB2013B9BB2C3844BB90268D368B2
:1015240023F08003D3600268D36843F04003D360A0
:10153400002070470369002BE4D1036A1B8802680A
:10154400C3F308035360036A02330362E0E7000055
:1015540010B504460268136923F44053C1680B4371
:10156400136183680269134342691A430168CB68B3
:1015740023F4B05323F00C031343CB600268536984
:1015840023F4407381690B4353610268134B9A42FD
:1015940020D0FFF7E5FB024602EB820202EB820257
:1015A40063689B00B2FBF3F20D48A0FB02314909CA
:1015B400642303FB11231B013233A0FB03235B09C8
:1015C40003F0F00202EB011203F00F03216813444D
:1015D4008B6010BDFFF7D4FB0246DDE70038014005
:1015E4001F85EB5158B310B5044690F839300BB34E
:1015F400242384F839302268D36823F40053D36059
:101604002046FFF7A5FF2268136923F49043136172
:101614002268536923F02A0353612268D36843F490
:101624000053D3600020E063202384F8393084F829
:101634003A3010BD80F8383000F000FCD8E70120C3
:101644007047704708B50168CA6822F04002CA6052
:10165400202280F83920FFF7F4FF002008BD7047EE
:1016640008B590F83A30DBB2222B41D18368B3F548
:10167400805F14D0826AB3F5805F02D0E3B9036956
:10168400D3B903685B681370836A01338362C38DC3
:101694009BB2013B9BB2C385A3B1002008BD026984
:1016A400002AE7D1826A03685B68C3F308031380E6
:1016B400836A02338362EAE703685B6803F07F03AB
:1016C4001370E1E70268D36823F02003D360026853
:1016D400D36823F48073D3600268536923F0010351
:1016E4005361202380F83A30FFF7B9FF0020D5E793
:1016F4000220D3E77047000010B50446026813685F
:10170400D168526913F00F0005D113F0200F02D0F5
:1017140011F0200F13D128B112F0010213D111F4EA
:10172400907F10D113F0800F02D011F0800F6CD194
:1017340013F0400F02D011F0400F6AD110BD2046C3
:10174400FFF78EFFFAE713F0010F06D011F4807F44
:1017540003D0E06B40F00100E06313F0040F04D009
:101764001AB1E06B40F00200E06313F0020F04D002
:101774001AB1E06B40F00400E06313F0080F07D0E7
:1017840011F0200F00D11AB1E26B42F00802E263BB
:10179400E26B002AD2D013F0200F02D011F0200FF8
:1017A40021D123685B6903F04003E26B12F0080F58
:1017B40000D123B32046FFF78CFE23685A6912F048
:1017C400400F18D05A6922F040025A61636B73B11A
:1017D400124A5A63606BFEF7D9FD0028AED0606BE5
:1017E400436B9847AAE72046FFF73AFFD9E720461C
:1017F400FFF780FFA2E72046FFF77CFF9EE7204625
:10180400FFF778FF0023E36398E72046FFF76FFEB6
:1018140094E72046FFF716FF90E700BF251800085D
:1018240008B5406A0023C385C384FFF763FF08BD7E
:101834002DE9F04188B0002404940594069407949B
:101844002A4B9A6942F020029A619A6902F02002B6
:101854000092009A9A6942F004029A619A6902F02D
:1018640004020192019A9A6942F008029A619A6903
:1018740002F008020292029A9A6942F010029A61F6
:101884009B6903F010030393039B194D22460F2118
:101894002846FEF74FFF174E22464FF4E0513046DC
:1018A400FEF748FF0F2304934FF00108CDF814808E
:1018B40006940227079704A92846FEF71BFE4FF457
:1018C400704304930594069404A92846FEF712FE77
:1018D4004FF4E0530493CDF814800694079704A9B9
:1018E4003046FEF707FE08B0BDE8F0810010024064
:1018F400000C01400008014030B591B028220021BD
:1019040006A800F065FC0024019402940394049456
:101914000594012206924FF4803307930A9202251C
:101924000D950E934FF4E0130F9306A8FEF71EFFD8
:101934000F230193029503944FF480630493059459
:10194400294601A8FFF750F911B030BD08B5FEF7DC
:101954008DFCFFF7D1FFFFF76BFF00F07FF900F07C
:1019640059F800F087F800F0B7F800F0FFF900F03C
:1019740017FA00F02FFA00F047FA00F0B5FBFEE783
:101984007047000082B00E4B9A6942F001029A61DE
:101994009A6902F001020092009ADA6942F08052D8
:1019A400DA61DB6903F080530193019B054A5368B4
:1019B40023F0E06343F00073536002B0704700BF4C
:1019C40000100240000001407047FEE7FEE7FEE71A
:1019D400FEE770477047704708B5FEF759FC08BD2D
:1019E40008B50248FFF788FE08BD00BF7C0500204B
:1019F40008B50248FFF780FE08BD00BFBC05002003
:101A040008B50248FFF778FE08BD00BF3C06002079
:101A14007047000000B58DB02422002103A800F017
:101A2400D7FB00230193029311484FF080420260D8
:101A3400436083604FF6FF72C260036183610123D8
:101A440003930593099303A9FFF73EFB50B90023C1
:101A54000193029301A90648FFF7D4FC28B90DB0FD
:101A64005DF804FBFFF78CFFF1E7FFF789FFF6E76A
:101A7400A404002000B58DB02422002103A800F0A6
:101A8400A7FB0023019302931148124A02604360AA
:101A940083604FF6FF72C260036183610123039385
:101AA4000593099303A9FFF70FFB50B90023019392
:101AB400029301A90648FFF7A5FC28B90DB05DF80B
:101AC40004FBFFF75DFFF1E7FFF75AFFF6E700BFFE
:101AD400EC0400200004004000B583B00023009310
:101AE40001930F480F4A026042F20F724260836012
:101AF40041F61F42C2608361FFF762FA50B90023C6
:101B04000093019369460648FFF77CFC28B903B0AB
:101B14005DF804FBFFF734FFF1E7FFF731FFF6E769
:101B2400340500200010004082B003680E4A93423E
:101B340004D00E4A93420CD002B070470C4B9A6901
:101B440042F400629A619B6903F400630093009B72
:101B5400F2E7074BDA6942F01002DA61DB6903F05D
:101B640010030193019BE7E7002C014000100040A3
:101B74000010024000B589B0002304930593069336
:101B840007930368B3F1804F05D01D4A93421DD0DB
:101B940009B05DF804FB03F50433DA6942F001028D
:101BA400DA61DA6902F001020092009A9A6942F05D
:101BB40004029A619B6903F004030193019B0323CC
:101BC400049304A90F48FEF795FCE1E70E4BDA698C
:101BD40042F00202DA61DA6902F002020292029A27
:101BE4009A6942F004029A619B6903F00403039327
:101BF400039BC023049304A90248FEF77BFCC7E7B8
:101C040000040040000801400010024000B587B005
:101C14000023029303930493059302680D4B9A42A5
:101C240002D007B05DF804FB03F564439A6942F0FF
:101C340004029A619B6903F004030193019B4FF42E
:101C44004073029302230393059302A90248FEF70B
:101C540051FCE6E7002C01400008014010B596B0A5
:101C640000241294139414941594109411940994C8
:101C74000A940B940C940D940E940F9420222146F4
:101C840001A800F0A5FA3748374B036042F20F73FE
:101C94004360846041F61F43C3600461446184610E
:101CA400FFF78EF9002845D14FF48053129312A9FF
:101CB4002C48FFF73AFB00283FD12A48FFF7D8F910
:101CC40000283DD12748FFF7A7F900283BD100237E
:101CD4001093119310A92348FFF794FB002835D1E2
:101CE4006023099300220A920B920C920D920E9299
:101CF4000F9209A91B48FFF7A4FA50BB00230993CC
:101D0400042209A91748FFF773FA28BB002301939B
:101D140002930393049305934FF40052069208939D
:101D240001A91048FFF7ACFBC8B90E48FFF76EFFD6
:101D340016B010BDFFF724FEB6E7FFF721FEBCE79F
:101D4400FFF71EFEBEE7FFF71BFEC0E7FFF718FE16
:101D5400C6E7FFF715FED1E7FFF712FED6E7FFF758
:101D64000FFEE2E75C040020002C014008B50A489D
:101D74000A4B03604FF4E133436000238360C36084
:101D840003610C2242618361C361FFF72BFC00B93C
:101D940008BDFFF7F5FDFBE7FC050020004C004003
:101DA40008B50A480A4B03604FF4E133436000234B
:101DB4008360C36003610C2242618361C361FFF7E6
:101DC40011FC00B908BDFFF7DBFDFBE73C06002072
:101DD4000050004008B50A480A4B03604FF4E13351
:101DE400436000238360C36003610C22426183610A
:101DF400C361FFF7F7FB00B908BDFFF7C1FDFBE7BF
:101E04007C0500200044004008B50A480A4B0360E2
:101E14004FF4E133436000238360C36003610C2209
:101E240042618361C361FFF7DDFB00B908BDFFF7C1
:101E3400A7FDFBE7BC0500200048004030B58FB08B
:101E440000230A930B930C930D9303686D4A9342FA
:101E54000BD06D4A93423AD06C4A934270D06C4A8C
:101E6400934200F09D800FB030BD6A4BDA6942F4B2
:101E74000022DA61DA6902F400220192019A9A6975
:101E840042F010029A619B6903F010030293029BD3
:101E94004FF480630A9302230B9303230D935E4D47
:101EA4000AA92846FEF726FB4FF400630A93002490
:101EB4000B940C940AA92846FEF71CFB22462146E3
:101EC4003420FEF709FA3420FEF73EFACBE7514BF3
:101ED400DA6942F48012DA61DA6902F48012039258
:101EE400039A9A6942F010029A619A6902F0100208
:101EF4000492049A9A6942F020029A619B6903F061
:101F040020030593059B4FF480530A9302230B93FC
:101F140003230D930AA94048FEF7ECFA04230A931D
:101F240000240B940C940AA93C48FEF7E3FA2246D9
:101F340021463520FEF7D0F93520FEF705FA92E761
:101F4400344BDA6942F40032DA61DA6902F40032BD
:101F54000692069A9A6942F004029A619B6903F018
:101F640004030793079B04230A9302230B9303237D
:101F74000D932B4D0AA92846FEF7BCFA08230A93B1
:101F840000240B940C940AA92846FEF7B3FA2246BF
:101F940021462620FEF7A0F92620FEF7D5F962E7B0
:101FA4001C4BDA6942F48022DA61DA6902F4802295
:101FB4000892089A9A6942F008029A619B6903F0B0
:101FC40008030993099B4FF480630A9302230B933C
:101FD40003230D93134D0AA92846FEF78BFA4FF4F9
:101FE40000630A9300240B940C940AA92846FEF774
:101FF40081FA224621462720FEF76EF92720FEF7B4
:10200400A3F930E7004C0040005000400044004079
:10201400004800400010024000100140001401403C
:1020240000080140000C0140164B1B6813F0200F00
:1020340013D0144B5B68DBB2134A12685AB1432BBA
:102044000CD012490A68501C086011498B540F4A7D
:102054001268C72A0BD0532B0DD070470D4A0121AB
:102064001160002209490A6007490A60EFE7064A3D
:1020740000211160EFE7044B01221A60034B002298
:102084001A60EAE7004C00407C0600204807002064
:10209400800600204C070020A8B1A2B1017011688D
:1020A4004160516881609268C2600022426282622B
:1020B400C2620361009B4361002303634363836340
:1020C400C36303644364704768B10022C26302645B
:1020D40042640263426382630022C2628262426299
:1020E40002628261C261704730B583B00C4D2846EC
:1020F400FFF7EAFF0B4C2046FFF7E6FF00230093AF
:10210400094B0A4A01212846FFF7C6FF084B0093F2
:10211400084B094A01212046FFF7BEFF03B030BD3A
:10212400500700209807002000C0DA459C230008CF
:102134000000C84200002042A8230008002103E058
:102144000B4B5B58435004310A480B4B42189A42DC
:10215400F6D30A4A02E0002342F8043B084B9A42B1
:10216400F9D3FFF755FC00F00FF8FFF7EFFB7047CA
:10217400C4230008000000203C0400203C0400208C
:10218400E4070020FEE7000070B50D4E0D4D761BF0
:10219400B61006D0002455F8043B01349847A642F3
:1021A400F9D1094E094D00F0D5F8761BB61006D0CA
:1021B400002455F8043B01349847A642F9D170BD78
:1021C400B8230008B8230008C0230008B823000877
:1021D400830730B548D0541E002A3FD00346CAB204
:1021E40001E0013C3AD303F8012B9D07F9D1032CFC
:1021F4002DD9CDB245EA05250F2C45EA054536D93A
:10220400A4F1100222F00F0C03F1200EE6444FEA71
:10221400121C03F1100242E9045542E9025510323E
:102224007245F8D10CF1010214F00C0F03EB021209
:1022340004F00F0C13D0ACF1040323F003030433B4
:10224400134442F8045B9342FBD10CF003042CB119
:10225400CAB21C4403F8012B9C42FBD130BD644636
:102264001346002CF4D1F9E703461446BFE71A4697
:10227400A446E0E7024B13B1024800F005B87047EA
:102284000000000099220008002301461A4618465F
:1022940000F01AB838B5084B084D5B1B9C1007D0EA
:1022A400043B1D44013C55F804399847002CF9D1EE
:1022B400BDE8384000F054B8C4230008C023000827
:1022C400704700BF704700BF2DE9F047DFF87CA0DE
:1022D4000646DAF8000098460F469146FFF7F0FFED
:1022E4001B4B1B68D3F8484124B365681F2D26DCBB
:1022F4005EB96B1C0235DAF80000636044F825709F
:10230400FFF7E0FF0020BDE8F087012304EB85011F
:10231400C1F88890D4F88821AB401A43022EC4F83F
:102324008821C1F80881E4D1D4F88C211343C4F87E
:102334008C31DEE703F5A674C3F84841D5E7DAF833
:102344000000FFF7BFFF4FF0FF30DCE73804002048
:10235400B4230008F8B500BFF8BC08BC9E4670471B
:0C236400F8B500BFF8BC08BC9E467047EE
:1023700002030405060708090A0B0C0D0E0F1010C6
:102380000000000000000000000000000102030443
:102390000607080900000000010203040000B4421F
:1023A00000000041000000000000004100000000AB
:0823B0000000000010000020F5
:0823B800792200080902000867
:0423C000E50100082B
:1023C40001000000100000000024F40000000000E0
:1023D40000000000FC02002064030020CC03002065
:1023E40000000000000000000000000000000000E9
:1023F40000000000000000000000000000000000D9
:1024040000000000000000000000000000000000C8
:1024140000000000000000000000000000000000B8
:1024240000000000000000000000000000000000A8
:102434000000000000000000000000000000000098
:102444000000000000000000000000000000000088
:102454000000000000000000000000000000000078
:102464000000000000000000000000000000000068
:102474000000000000000000010000000000000057
:102484000E33CDAB34126DE6ECDE05000B0000001C
:102494000000000000000000000000000000000038
:1024A4000000000000000000000000000000000028
:1024B4000000000000000000000000000000000018
:1024C4000000000000000000000000000000000008
:0C27F4000000000000000000E0070020D2
:04000005080021418D
:00000001FF
