:020000040800F2
:1000000000C00020F933000875220008772200089C
:10001000792200087B2200087D22000800000000F1
:100020000000000000000000000000007F22000827
:1000300081220008000000008322000885220008B9
:1000400041340008413400084134000841340008BC
:1000500041340008413400084134000841340008AC
:10006000413400084134000841340008413400089C
:10007000413400084134000841340008413400088C
:1000800041340008413400088D2200084134000842
:10009000413400084134000841340008413400086C
:1000A0009D220008AD220008BD220008CD220008D4
:1000B000DD220008ED220008413400084134000828
:1000C000413400084134000841340008413400083C
:1000D0004134000841340008B52900083D2A0008D1
:1000E000413400084134000841340008413400081C
:1000F000413400084134000841340008413400080C
:1001000041340008413400084134000841340008FB
:10011000C52A00084D2B0008FD22000841340008C4
:1001200041340008413400084134000841340008DB
:1001300000000000000000000000000000000000BF
:1001400000000000000000000000000000000000AF
:10015000000000000000000000000000000000009F
:10016000000000000000000000000000000000008F
:10017000000000000000000000000000000000007F
:10018000000000000000000000000000000000006F
:10019000000000000000000000000000000000005F
:1001A000000000000000000000000000000000004F
:1001B000000000000000000000000000000000003F
:1001C000000000000000000000000000000000002F
:1001D000000000000000000000000000000000001F
:0401E0005FF8E0F1F3
:1001E40010B5054C237833B9044B13B10448AFF36D
:1001F40000800123237010BD5C3C0020000000003F
:100204009845000808B5034B1BB103490348AFF3F5
:10021400008008BD00000000603C002098450008F4
:1002240010B504460E4B18784FF47A73B3FBF0F311
:100234000C4A1068B0FBF3F000F07AFA68B90F2C9E
:1002440001D901200AE0002221464FF0FF3000F0DE
:1002540029FA054B1C60002000E0012010BD00BFFE
:1002640000000020103400200400002008B5074AD4
:10027400136843F010031360032000F001FA002018
:10028400FFF7CEFF01F0D2FF002008BD002002409E
:10029400034A1168034B1B780B441360704700BF7B
:1002A400783C002000000020014B1868704700BF14
:1002B400783C00207047704710B5044603685A68BC
:1002C40012F0200F18D01A6812F0020F14D0826AAC
:1002D40012F0100F03D1826A42F4007282629A68AB
:1002E40002F46022B2F5602F38D02046FFF7E2FF17
:1002F40023686FF012021A6023685A6812F0800FA4
:1003040022D01A6812F0040F1ED0A26A12F0100F45
:1003140003D1A26A42F40052A2629A6802F4E04253
:10032400B2F5E04F31D05A6812F4806F05D19A6863
:1003340002F46022B2F5602F24D0204600F09EF92A
:1003440023686FF00C021A6023685A6812F0400F99
:1003540003D01B6813F0010F28D110BD227B002AA3
:10036400C3D15A6822F020025A60A36A23F480732E
:10037400A362A36A13F4805FB7D1A36A43F00103B5
:10038400A362B2E7227B002AD7D15A6822F0800206
:100394005A60A36A23F48053A362A36A13F4807F90
:1003A400CBD1A36A43F00103A362C6E7A36A43F473
:1003B4008033A3622046FFF77EFF23686FF00102BB
:1003C4001A60CAE730B482B00022019290F8242067
:1003D400012A00F091800346012280F824204A6813
:1003E400062A2DD80468606B02EB8202053A4FF0AE
:1003F4001F0C0CFA02FC20EA0C000D6805FA02F24C
:10040400024362630A68092A3AD91C68E06802EB6D
:1004140042021E3A4FF0070C0CFA02FC20EA0C00D0
:100424008D6805FA02F20243E2600A68103A012A72
:1004340036D90020002283F8242002B030BC704753
:100444000C2A0ED80568286B02EB8202233A1F247B
:10045400944020EA04000C6804FA02F202432A637E
:10046400D0E70568E86A02EB8202413A1F2494400F
:1004740020EA04000C6804FA02F20243EA62C1E7CB
:100484001C68206902EB42024FF0070C0CFA02FCD4
:1004940020EA0C008D6805FA02F202432261C4E7E7
:1004A4001A681648824205D09A6A42F020029A627B
:1004B4000120BFE7906810F4000F1BD1906840F44E
:1004C400000090600A68102A01D00020B2E70C4AAC
:1004D40012680C49A1FB0212920C02EB8202520038
:1004E400019202E0019A013A0192019A002AF9D19B
:1004F40000209FE700209DE702209EE700240140A2
:100504001034002083DE1B4338B503689A6812F068
:10051400010F01D1002038BD04469A6822F001027F
:100524009A60FFF7C1FE054623689B6813F0010F2C
:100534000ED0FFF7B9FE431B022BF5D9A36A43F093
:100544001003A362E36A43F00103E3620120E2E7DC
:100554000020E0E7002800F0888070B50446836A34
:10056400002B52D02046FFF7CFFFA36A13F01003ED
:1005740075D1002873D1A26A22F4885222F00202B3
:1005840042F00202A2626268266839498E4242D071
:10059400E1690A43217B42EA4102A568B5F5807FFF
:1005A40002D0012D3ED01D4694F814C0BCF1010FB9
:1005B4003BD0716821F46941294371602568AE68B4
:1005C4002C4931401143A960A168B1F5807F01D065
:1005D400012902D12369013B1B052568E96A21F43D
:1005E40070010B43EB6223689968234B0B409A42DA
:1005F4002CD0A36A23F0120343F01003A362E36A2E
:1006040043F00103E36201202EE0C36280F824304A
:1006140001F0A6FCA6E7E169B1F5402FB9D14FF48A
:100624000021B6E74FF48075BEE731B9A1690139FD
:1006340045EA413141F40065BBE7A16A41F020017C
:10064400A162E16A41F00101E162B2E70023E362E1
:10065400A36A23F0030343F00103A36204E0A36A43
:1006640043F01003A362012070BD0120704700BF56
:10067400003C0140FDF7E1FFFE0E1FFF7047000044
:10068400074AD36823F4E0631B041B0C000200F444
:10069400E060034343F0BF6343F40033D360704727
:1006A40000ED00E000B5194BDB68C3F30223C3F18E
:1006B400070CBCF1040F28BF4FF0040C03F1040E27
:1006C400BEF1060F18D9033B4FF0FF3E0EFA0CFCA7
:1006D40021EA0C0199400EFA03F322EA03031943B9
:1006E40000280BDB0901C9B200F1604000F561404C
:1006F40080F800135DF804FB0023E5E700F00F0029
:100704000901C9B2024B1954F4E700BF00ED00E03F
:1007140014ED00E0002807DB00F01F02400901236C
:100724009340024A42F82030704700BF00E100E0E5
:100734000138B0F1807F0BD24FF0E0235861054AB5
:10074400F02182F823100020986107221A61704773
:100754000120704700ED00E070B582B00024A4468B
:10076400B0E0874DAA4210D007D9864DAA420CD0DA
:1007740005F58035AA4208D013E0A5F58015AA42F4
:1007840003D005F57025AA4207D18A68002A62D0F1
:10079400012A5BD04361082403E0A5F58015AA4231
:1007A400F3D0BEF1FF0F58D80646BEF1FF0F56D85E
:1007B4004FEA8C0233680F25954023EA050304FAB7
:1007C40002F2134333604B6813F0805F78D06E4BB2
:1007D4009A6942F001029A619B6903F00103019353
:1007E400019B4FEA9C02951C684B53F825600CF062
:1007F40003039D000F23AB4026EA0306644B984293
:1008040033D003F58063984200F0988003F5806349
:10081400984200F0958003F58063984200F092803E
:1008240003F58063984200F08F8003F5806398425B
:1008340019D006231AE0CC68B3E7CC680434B0E7D7
:10084400CC680834ADE7CC680C34AAE7036108240B
:10085400A7E70024A5E70424A3E7061DA5E7ACF158
:1008640008029200A6E7052300E00023AB403343CF
:100874000232464D45F822304B6813F4803F65D070
:10088400444A136843EA0E0313604B6813F4003FB1
:1008940062D0404A536843EA0E0353604B6813F432
:1008A400801F5FD03B4A936843EA0E0393604B6812
:1008B40013F4001F5CD0374AD36843EA0E03D360B5
:1008C4000CF1010C0A6832FA0CF357D0012303FA35
:1008D4000CF302EA030E33EA0202F1D14A68122A47
:1008E4003FF63FAF122A3FF65CAF01A555F822F060
:1008F4008F0700083B08000845080008570800084F
:10090400A7070008A7070008A7070008A70700080B
:10091400A7070008A7070008A7070008A7070008FB
:10092400A7070008A7070008A7070008A7070008EB
:10093400A70700083F0800084B080008012395E7B3
:10094400022393E7032391E704238FE7114A1368F3
:1009540023EA0E03136098E70E4A536823EA0E0352
:1009640053609BE70B4A936823EA0E0393609EE768
:10097400084AD36823EA0E03D360A1E702B070BD2E
:10098400000022100000311000100240000001405D
:1009940000080140000401400AB1016170470904E4
:1009A4000161704782B0084B1B68084AA2FB03230D
:1009B4005B0A00FB03F3019300BF019B5A1E0192E3
:1009C400002BF9D102B0704710340020D34D6210CF
:1009D400002800F0F18170B582B00446036813F07A
:1009E400010F2CD0994B5B6803F00C03042B1DD032
:1009F400964B5B6803F00C03082B12D06368B3F5C5
:100A0400803F41D0002B55D103F1804303F50433DB
:100A14001A6822F480321A601A6822F480221A605A
:100A240037E08A4B5B6813F4803FE7D0874B1B6841
:100A340013F4003F03D06368002B00F0BF812368E8
:100A440013F0020F75D0814B5B6813F00C0F5FD06D
:100A54007E4B5B6803F00C03082B54D02369002BF6
:100A640000F08A807A4B01221A60FFF71DFC0546CC
:100A7400764B1B6813F0020F75D1FFF715FC401B72
:100A84000228F5D903209EE1704A136843F48033A9
:100A94001360636843B3FFF707FC05466B4B1B68A1
:100AA40013F4003FCBD1FFF7FFFB401B6428F5D9BB
:100AB400032088E1B3F5A02F09D0644B1A6822F40F
:100AC40080321A601A6822F480221A60E1E703F186
:100AD4008043A3F53C331A6842F480221A601A68F2
:100AE40042F480321A60D4E7FFF7DEFB0546574B29
:100AF4001B6813F4003FA2D0FFF7D6FB401B642809
:100B0400F5D903205FE1514B5B6813F4803FA5D115
:100B14004E4B1B6813F0020F03D02369012B40F0E6
:100B24004F814A4A136823F0F803616943EAC10319
:100B34001360236813F0080F33D0A369002B5CD033
:100B4400434B0122C3F88024FFF7AEFB05463F4B1D
:100B54005B6A13F0020F21D1FFF7A6FB401B0228AA
:100B6400F5D903202FE1394A136823F0F8036169AA
:100B740043EAC1031360DCE7354B00221A60FFF738
:100B840093FB0546314B1B6813F0020FD1D0FFF7DE
:100B94008BFB401B0228F5D9032014E10120FFF749
:100BA40001FF236813F0040F00F09680274BDB69E4
:100BB40013F0805F34D1254BDA6942F08052DA6158
:100BC400DB6903F080530193019B0125214B1B68D2
:100BD40013F4807F26D0E368012B3DD0002B53D142
:100BE40003F1804303F504331A6A22F001021A6206
:100BF4001A6A22F004021A6233E0154B0022C3F889
:100C04008024FFF751FB0546104B5B6A13F0020F7B
:100C1400C7D0FFF749FB401B0228F5D90320D2E0D7
:100C24000025D3E70B4A136843F480731360FFF77E
:100C34003BFB0646074B1B6813F4807FCBD1FFF7C1
:100C440033FB801B6428F5D90320BCE0001002406C
:100C540000004242007000405F4A136A43F00103FF
:100C64001362E36833B3FFF71FFB06465A4B1B6A54
:100C740013F0020F2FD1FFF717FB801B41F28833CB
:100C84009842F3D903209EE0052B09D0524B1A6AEF
:100C940022F001021A621A6A22F004021A62E0E7E0
:100CA4004D4B1A6A42F004021A621A6A42F00102B7
:100CB4001A62D6E7FFF7F8FA0646474B1B6A13F0A9
:100CC400020F08D0FFF7F0FA801B41F288339842F4
:100CD400F3D9032077E0E5B9E369002B72D03E4AEB
:100CE400526802F00C02082A56D0022B17D03B4B54
:100CF40000221A66FFF7D8FA0446374B1B6813F034
:100D0400007F47D0FFF7D0FA001B0228F5D9032053
:100D140059E0314AD36923F08053D361DCE72F4B88
:100D240000221A66FFF7C0FA05462B4B1B6813F026
:100D3400007F06D0FFF7B8FA401B0228F5D903203C
:100D440041E0236AB3F5803F1AD023494B6823F46A
:100D54007413226A606A024313434B601F4B0122DF
:100D64001A66FFF7A1FA04461B4B1B6813F0007FB9
:100D74000ED1FFF799FA001B0228F5D9032022E0CF
:100D8400154A536823F40033A1680B435360DCE72E
:100D9400002018E0002016E0012B16D00E4B5B68F3
:100DA40003F48031226A914211D103F47013626A10
:100DB40093420ED1002006E001207047012002E09A
:100DC400012000E0002002B070BD0120FBE70120FB
:100DD400F9E70120F7E700BF00100240000042429B
:100DE40086B0164B0FCB0DF1180C0CE90F0040F236
:100DF4000123ADF80430124B5B6803F00C02082A9F
:100E040002D0104806B07047C3F38342624412F81C
:100E1400100C13F4803F0CD0094B5B68C3F34043C0
:100E2400634413F8143C074A02FB00F0B0FBF3F0F0
:100E3400E8E7054B03FB00F0E4E700BFB04500081A
:100E44000010024000127A0000093D00002800F062
:100E5400A08070B50D460446524B1B6803F007038F
:100E64008B420BD24F4A136823F007030B431360E2
:100E7400136803F007038B4240F08D80236813F05E
:100E8400020F17D013F0040F04D0474A536843F4F9
:100E9400E0635360236813F0080F04D0424A536898
:100EA40043F460535360404A536823F0F003A1684D
:100EB4000B435360236813F0010F31D06368012B97
:100EC40020D0022B25D0384A126812F0020F64D0C9
:100ED40035494A6822F0030213434B60FFF7E4F9F3
:100EE4000646314B5B6803F00C036268B3EB820F78
:100EF40016D0FFF7D9F9801B41F288339842F0D914
:100F0400032045E0284A126812F4003FE0D1012092
:100F14003EE0254A126812F0007FD9D1012037E063
:100F2400204B1B6803F00703AB420AD91D4A136820
:100F340023F007032B431360136803F00703AB424A
:100F44002DD1236813F0040F06D0174A536823F4F5
:100F5400E063E1680B435360236813F0080F07D084
:100F6400114A536823F46053216943EAC10353606F
:100F7400FFF736FF0C4B5B68C3F303130B4AD35CD8
:100F8400D8400B4B18600B4B1868FFF749F9002049
:100F940070BD012070470120FAE70120F8E7012025
:100FA400F6E700BF0020024000100240444700085A
:100FB4001034002004000020014B1868704700BF63
:100FC4001034002008B5FFF7F7FF044B5B68C3F348
:100FD4000223034AD35CD84008BD00BF001002407E
:100FE4005447000808B5FFF7E7FF044B5B68C3F3F9
:100FF400C223034AD35CD84008BD00BF001002409E
:101004005447000870B582B00446036813F0010F1A
:1010140036D03F4BDB6913F0805F49D13C4BDA6932
:1010240042F08052DA61DB6903F080530193019B43
:101034000125384B1B6813F4807F3BD0344B1B6A6B
:1010440013F4407313D0626802F440729A420ED0D3
:101054002F4A136A23F440702F490126C1F84064D3
:101064000026C1F84064106213F0010F36D1284AFB
:10107400136A23F4407361680B431362002D3ED15D
:10108400236813F0020F06D0214A536823F4404327
:10109400A1680B435360236813F0100F34D01C4A2B
:1010A400536823F4800361690B43536000202CE0F0
:1010B4000025BEE7174A136843F480731360FFF7F3
:1010C400F3F80646134B1B6813F4807FB6D1FFF781
:1010D400EBF8801B6428F5D9032016E0FFF7E4F849
:1010E40006460B4B1B6A13F0020FC0D1FFF7DCF866
:1010F400801B41F288339842F3D9032005E0D36979
:1011040023F08053D361BBE7002002B070BD00BF61
:1011140000100240007000400000424230B4036AF4
:1011240023F001030362036A4268846924F07304B0
:101134000D682C4323F0020C8B6843EA0C03104D1A
:10114400A84203D005F50065A84205D123F00803A1
:10115400CD682B4323F00403094DA84203D005F5C1
:101164000065A84205D122F440724D692A438D6975
:101174002A43426084614A684263036230BC704718
:10118400002C014030B4036A23F480730362036AC1
:101194004268C46924F0730C0C6844EA0C0523F417
:1011A40000738C6843EA0423114CA04203D004F575
:1011B4000064A04206D123F40063CC6843EA04230C
:1011C40023F480630A4CA04203D004F50064A042D7
:1011D40007D122F440524C6942EA04128C6942EA73
:1011E40004124260C5614A68C263036230BC70473E
:1011F400002C014030B4036A23F480530362036A71
:101204004468C26922F4E6420D6842EA052223F4E6
:1012140000538D6843EA0533094DA84203D005F510
:101224000065A84204D124F480444D6944EA85143D
:101234004460C2614A680264036230BC704700BF04
:10124400002C014010B4036A046A24F0010404620F
:10125400846924F0F00C4CEA021223F00A030B43D5
:101264008261036210BC704710B4046A24F0100455
:1012740004628469036A24F4704C4CEA023223F059
:10128400A00343EA01138261036210BC70478368C0
:1012940023F070030B4343F007038360704700009F
:1012A40090F83D30DBB2012B2AD1022380F83D3087
:1012B4000368154A934218D002F50062934214D091
:1012C400B3F1804F11D0A2F5983293420DD002F5BC
:1012D4008062934209D002F58062934205D01A6875
:1012E40042F001021A60002070479A6802F0070277
:1012F400062A07D01A6842F001021A6000207047DB
:101304000120704700207047002C014090F83D30C8
:10131400DBB2012B2FD1022380F83D300268D36861
:1013240043F00103D3600368154A934218D002F5D1
:101334000062934214D0B3F1804F11D0A2F59832D9
:1013440093420DD002F58062934209D002F5806287
:10135400934205D01A6842F001021A6000207047D7
:101364009A6802F00702062A07D01A6842F00102BE
:101374001A6000207047012070470020704700BFAA
:10138400002C01407047704770477047704710B594
:10139400044603681A6912F0020F11D0DA6812F0D9
:1013A400020F0DD06FF002021A6101230377036864
:1013B4009B6913F0030F70D0FFF7E6FF0023237738
:1013C40023681A6912F0040F12D0DA6812F0040FBD
:1013D4000ED06FF004021A610223237723689B69FD
:1013E40013F4407F5FD02046FFF7CEFF002323771E
:1013F40023681A6912F0080F12D0DA6812F0080F85
:101404000ED06FF008021A61042323772368DB6986
:1014140013F0030F4ED02046FFF7B6FF00232377C7
:1014240023681A6912F0100F12D0DA6812F0100F44
:101434000ED06FF010021A61082323772368DB694A
:1014440013F4407F3DD02046FFF79EFF002323770F
:1014540023681A6912F0010F03D0DA6812F0010F41
:1014640036D123681A6912F0800F03D0DA6812F0BB
:10147400800F34D123681A6912F0400F03D0DA6860
:1014840012F0400F32D123681A6912F0200F03D0F2
:10149400DA6812F0200F30D110BDFFF774FF204638
:1014A400FFF773FF8AE72046FFF76DFF2046FFF73B
:1014B4006CFF9BE72046FFF766FF2046FFF765FFBA
:1014C400ACE72046FFF75FFF2046FFF75EFFBDE76E
:1014D4006FF001021A61204601F03CFFC1E76FF092
:1014E40080021A61204600F07FFBC3E76FF04002E0
:1014F4001A612046FFF74AFFC5E76FF020021A6120
:10150400204600F070FBC7E70368244A904212D0DB
:1015140002F5006290420ED0B0F1804F0BD0A2F5DC
:101524009832904207D002F58062904203D002F5CF
:101534008062904203D123F070034A681343174A30
:10154400904212D002F5006290420ED0B0F1804F6A
:101554000BD0A2F59832904207D002F580629042F7
:1015640003D002F58062904203D123F44073CA6829
:10157400134323F080034A69134303608B68C362F7
:101584000B688362054B984203D003F500639842CD
:1015940001D10B690363012343617047002C0140AF
:1015A40040B310B5044690F83D30F3B1022384F8FB
:1015B4003D30214651F8040BFFF7A6FF012384F8C0
:1015C400463084F83E3084F83F3084F8403084F864
:1015D400413084F8423084F8433084F8443084F84D
:1015E400453084F83D30002010BD80F83C3000F0D8
:1015F40037FFDBE70120704740B310B5044690F88D
:101604003D30F3B1022384F83D30214651F8040BF8
:10161400FFF77AFF012384F8463084F83E3084F8DB
:101624003F3084F8403084F8413084F8423084F804
:10163400433084F8443084F8453084F83D30002049
:1016440010BD80F83C30FFF79DFEDBE701207047BA
:10165400002857D070B50D46044690F83D30002B55
:101664004BD0022384F83D302268936823F48043EE
:1016740023F007039360214651F8040BFFF744FF5E
:1016840021688A688B690E6A2868104323F4407CB9
:101694002CF0030CAA68AB6942EA032343EA0C0367
:1016A40023F47C4323F0FC03EA69D5F80CC04CEA2C
:1016B400022C4CEA030C2A6A13032A6943EA021334
:1016C40043EA0C0326F022066A686D6942EA0512B1
:1016D4003243886021688B6123681A62012384F88D
:1016E400463084F83E3084F83F3084F8423084F841
:1016F400433084F83D30002070BD80F83C3000F069
:10170400FFFEAEE70120704730B4036A23F01003F4
:101714000362036A4468826922F4E6420D6842EA7D
:10172400052223F020038D6843EA0513114DA842D6
:1017340003D005F50065A84206D123F08003CD68E7
:1017440043EA051323F040030A4DA84203D005F5EC
:101754000065A84207D124F440644D6944EA850435
:101764008D6944EA8504446082614A688263036245
:1017740030BC7047002C014038B590F83C30012B48
:1017840060D004460D46012380F83C300C2A1AD858
:10179400DFE802F0071919191D1919193119191956
:1017A40044000068FFF7BAFC2268936943F0080319
:1017B40093612268936923F0040393612268936917
:1017C40029690B439361002084F83C0038BD00680C
:1017D400FFF79AFF2268936943F4006393612268D8
:1017E400936923F48063936122689369296943EAC6
:1017F40001239361E7E70068FFF7C4FC2268D3691B
:1018040043F00803D3612268D36923F00403D3614E
:101814002268D36929690B43D361D4E70068FFF7D1
:10182400E9FC2268D36943F40063D3612268D36975
:1018340023F48063D3612268D369296943EA0123CD
:10184400D361C0E70220C1E710B4846824F47F4C5C
:1018540042EA03220A4342EA0C02826010BC704747
:1018640090F83C30012B66D010B50446012380F873
:101874003C30022380F83D300268936823F47F43B0
:1018840023F0770393600B68602B40D022D8402B61
:1018940047D00BD9502B0ED1CA6849680068FFF7AE
:1018A400D1FC50212068FFF7F2FC04E0202B0CD07F
:1018B40008D9302B09D0012384F83D30002084F866
:1018C4003C0010BD0BB1102BF5D119462068FFF771
:1018D400DEFCF0E7702B0ED0B3F5005FEBD1CB68E4
:1018E4004A6889680068FFF7AFFF2268936843F489
:1018F40080439360DFE7CB684A6889680068FFF734
:10190400A3FF2268936843F077039360D3E7CA6820
:1019140049680068FFF7A8FC60212068FFF7B7FC5E
:10192400C9E7CA6849680068FFF78CFC4021206851
:10193400FFF7ADFCBFE70220704701F01F01012350
:1019440003FA01FC036A23EA0C030362036A02FA42
:1019540001F10B430362704710B5044608460029A1
:101964003AD194F83E30DBB2013B18BF0123002B7F
:1019740066D1002849D1022384F83E300122014671
:101984002068FFF7DAFF23682F4A934203D002F559
:101994000062934203D15A6C42F400425A642368B1
:1019A400294A934241D002F5006293423DD0B3F1FB
:1019B400804F3AD0A2F59832934236D002F5806235
:1019C400934232D002F5806293422ED01A6842F0DC
:1019D40001021A60002032E0042908D008290DD041
:1019E40094F84130DBB2013B18BF0123BFE794F800
:1019F4003F30DBB2013B18BF0123B8E794F8403015
:101A0400DBB2013B18BF0123B1E7042805D0082845
:101A140007D0022384F84130B0E7022384F83F3032
:101A2400ACE7022384F84030A8E79A6802F0070282
:101A3400062A07D01A6842F001021A60002010BD7D
:101A44000120FCE70020FAE7002C014038B50446E9
:101A540090F83E00C0B294F83F3094F84220D2B2DD
:101A640094F843C00D46B1B9012849D1012A48D19F
:101A7400022384F83E3084F842307DB3042D39D0FB
:101A8400012200212068FFF758FF01220421206869
:101A9400FFF753FF27E0DBB25FFA8CFC042912D076
:101AA400012833D1012B2CD1012A31D1BCF1010FF2
:101AB40030D1022384F83E3084F83F3084F8423039
:101AC40084F84330D9E7012B1CD1BCF1010F1BD1A1
:101AD400022384F83F3084F84330CEE7012200210A
:101AE4002068FFF72AFF2268136843F0010313609C
:101AF400002006E0012204212068FFF71EFFF2E720
:101B0400012038BD0120FCE71846FAE70120F8E778
:101B14001846F6E71046F4E790F83C30012B34D031
:101B240010B4012380F83C30022380F83D30036870
:101B34005A689C6822F0700C0A6842EA0C025A60E7
:101B44000368134A934212D002F5006293420ED006
:101B5400B3F1804F0BD0A2F59832934207D002F52F
:101B64008062934203D002F58062934204D124F050
:101B740080044A6814439C60012380F83D300023AC
:101B840080F83C30184610BC70470220704700BFF4
:101B9400002C014090F83C30012B22D0012380F826
:101BA4003C30CB6823F440738A68134323F4806386
:101BB4004A68134323F400630A68134323F48053ED
:101BC4000A69134323F400534A69134323F48043FB
:101BD400CA69134302685364002380F83C301846F2
:101BE40070470220704770477047000010B50446E4
:101BF4000268136923F44053C1680B43136183687B
:101C04000269134342691A430168CB6823F4B05351
:101C140023F00C031343CB600268536923F440732D
:101C240081690B4353610268134B9A4220D0FFF73A
:101C3400C9F9024602EB820202EB820263689B004E
:101C4400B2FBF3F20D48A0FB02314909642303FB04
:101C540011231B013233A0FB03235B0903F0F002C1
:101C640002EB011203F00F03216813448B6010BDD3
:101C7400FFF7B8F90246DDE7003801401F85EB5154
:101C84002DE9F84305460F4616469946DDF82080AF
:101C94002C68246837EA04030CBF4FF0010C4FF0A2
:101CA400000CB4451FD1B8F1FF3FF1D0B8F1000FDB
:101CB40005D0FEF7F9FAA0EB09004045E8D92A68F7
:101CC400D36823F4D073D3602A68536923F00103E3
:101CD4005361202385F8393085F83A30002385F89C
:101CE4003830032000E00020BDE8F88358B310B575
:101CF400044690F839300BB3242384F83930226831
:101D0400D36823F40053D3602046FFF76FFF2268A3
:101D1400136923F4904313612268536923F02A035F
:101D240053612268D36843F40053D3600020E06316
:101D3400202384F8393084F83A3010BD80F83830E4
:101D440000F02EFDD8E7012070472DE9F04182B064
:101D54001E4690F83930DBB2202B54D104460D4690
:101D64009046002953D0002A53D090F83830012BE4
:101D740051D0012380F838300023C363212380F835
:101D84003930FEF791FA0746A4F82480A4F8268097
:101D9400A368B3F5805F05D04FF00008002384F8F2
:101DA400383012E0236913B14FF00008F6E7A84673
:101DB4000025F3E738F8023B2268C3F308035360B5
:101DC400E28C92B2013A92B2E284E38C9BB273B198
:101DD40000963B46002280212046FFF751FFE0B9E0
:101DE400002DE7D015F8012B23685A60E8E7009628
:101DF4003B46002240212046FFF742FF78B92023CA
:101E040084F8393000E0022002B0BDE8F0810120FE
:101E1400FAE70120F8E70220F6E70320F4E70320BD
:101E2400F2E72DE9F04182B01E4690F83A30DBB279
:101E3400202B5BD104460D46904600295AD0002A37
:101E44005AD090F83830012B58D0012380F838301C
:101E54000023C363222380F83A30FEF725FA0746AD
:101E6400A4F82C80A4F82E80A368B3F5805F05D075
:101E74004FF00008002384F8383017E0236913B1C9
:101E84004FF00008F6E7A8460025F3E723685B68EF
:101E9400C3F3080328F8023B03E023685B682B7054
:101EA4000135E28D92B2013A92B2E285E38D9BB2A2
:101EB400BBB100963B46002220212046FFF7E0FEFE
:101EC400F0B9002DE2D0A368B3F5805FE5D013B973
:101ED4002369002BE1D023685B6803F07F032B7038
:101EE400DEE7202384F83A30002000E0022002B02C
:101EF400BDE8F0810120FAE70120F8E70220F6E7C7
:101F04000320F4E700B585B0002301930293039303
:101F14001148124A02608360037303754FF4602210
:101F2400C261436001230361FEF714FB68B9042313
:101F34000193012302930023039301A90648FEF7AA
:101F440041FA28B905B05DF804FB00F06DF9EEE73D
:101F540000F06AF9F6E700BF7C3C00200024014051
:101F640000B587B00023029303930493059302689A
:101F7400154B9A4202D007B05DF804FB03F56C439D
:101F84009A6942F400729A619A6902F400720092AA
:101F9400009A9A6942F004029A619B6903F004036F
:101FA4000193019B102302930323039302A907487F
:101FB400FEF7D2FB002211461220FEF773FB12201B
:101FC400FEF7A8FBD7E700BF00240140000801404A
:101FD4002DE9F04389B000240494059406940794F1
:101FE400354B9A6942F010029A619A6902F0100224
:101FF4000092009A9A6942F020029A619A6902F06A
:1020040020020192019A9A6942F004029A619A6943
:1020140002F004020292029A9A6942F008029A615A
:102024009B6903F008030393039BDFF89090224617
:102034004FF2C4314846FEF7AFFCDFF884802246F5
:10204400FB214046FEF7A8FC1E4D22464FF480615A
:102054002846FEF7A1FC01224FF418412846FEF75A
:102064009BFC4FF2C4330493012705970694022680
:10207400079604A94846FEF76FFBFB2304930597D4
:102084000694079604A94046FEF766FB4FF4704396
:1020940004930594069404A94046FEF75DFB4FF4AF
:1020A4001C43049305970694079604A92846FEF753
:1020B40053FB09B0BDE8F08300100240001001405A
:1020C400000C01400008014030B597B028220021DF
:1020D4000CA801F0DFF900240794089409940A94E9
:1020E4000B9401940294039404940594069401229D
:1020F4000C924FF480330D93109202251395149390
:102104004FF4E01315930CA8FEF762FC0F2307931A
:10211400089509944FF480630A930B94294607A801
:10212400FEF794FE01954FF40043039301A8FEF7D4
:1021340069FF17B030BD000008B500F0E7FB114897
:1021440001F0A4F801221146104600F041FD00F010
:1021540015FC01F025F9012000F04AFE022000F0F0
:1021640047FE01F055F84FF6FF71012000F0AAFF79
:1021740000221146104600F02BFD4FF47A7000F057
:10218400DFFB08BDD03D002000B585B0FEF76EF83A
:10219400FFF79AFFFFF71CFF00F036FA00F0D4F8BF
:1021A40000F004F900F034F900F0ACFA00F0C4FADD
:1021B40000F0DCFAFFF7A6FEFFF7BEFF4BF6404344
:1021C4000393202402940194154D009500231022BA
:1021D4001946012000F092FF4FF60743039302943F
:1021E40001940095002330220121084600F086FF67
:1021F40048F2304303930294019400950023502243
:102204000221012000F07AFF402301936823009308
:10221400044B22460021012000F0B0FFFEE700BF7E
:10222400C4450008080000207047000082B00E4B2F
:102234009A6942F001029A619A6902F001020092DD
:10224400009ADA6942F08052DA61DB6903F0805364
:102254000193019B054A536823F0E06343F0007344
:10226400536002B0704700BF0010024000000140FC
:102274007047FEE7FEE7FEE7FEE7704770477047EA
:1022840008B5FEF705F808BD08B50248FEF714F8CE
:1022940008BD00BF7C3C002008B50248FFF777F872
:1022A40008BD00BFB03C002008B50248FFF76FF836
:1022B40008BD00BFB03C002008B50248FFF767F82E
:1022C40008BD00BFB03C002008B50248FFF75FF826
:1022D40008BD00BFB03C002008B50248FFF757F81E
:1022E40008BD00BFF83C002008B50248FFF74FF8CE
:1022F40008BD00BF403D002008B50248FFF747F87D
:1023040008BD00BF883D002008B503460B4A12688B
:1023140042B10A4A106803446A46934206D8074AFF
:10232400136008BD054A06491160F2E701F088F818
:102334000C2303604FF0FF30F3E700BFAC3C0020F8
:10234400104300207047000000B58DB02422002106
:1023540003A801F09FF800230193029312484FF061
:1023640080420260436083604FF6FF72C260036183
:1023740083610323039301230593099303A9FFF7BF
:1023840067F950B900230193029301A90648FFF7A6
:10239400C3FB28B90DB05DF804FBFFF745FFF1E777
:1023A400FFF742FFF6E700BFF83C002000B58DB010
:1023B4002422002103A801F06DF800230193029365
:1023C4001148124A0260436083604FF6FF72C26094
:1023D400036183610323039301230593099303A9F1
:1023E400FFF736F950B900230193029301A9064877
:1023F400FFF792FB28B90DB05DF804FBFFF714FF5B
:10240400F1E7FFF711FFF6E7403D0020000400402C
:1024140000B583B00023009301930F480F4A026074
:1024240009224260836041F61F42C2608361FFF764
:10243400B7F850B900230093019369460648FFF7A3
:102444006BFB28B903B05DF804FBFFF7EDFEF1E781
:10245400FFF7EAFEF6E700BF883D002000100040C9
:1024640000B583B00368234A934205D0224A9342BD
:102474002DD003B05DF804FB204B9A6942F400624E
:102484009A619B6903F400630093009B0022114648
:102494001820FEF707F91820FEF73CF90022114630
:1024A4001920FEF7FFF81920FEF734F9002211462F
:1024B4001A20FEF7F7F81A20FEF72CF9002211462D
:1024C4001B20FEF7EFF81B20FEF724F9D1E70B4B96
:1024D400DA6942F01002DA61DB6903F01003019358
:1024E400019B002211463620FEF7DCF83620FEF769
:1024F40011F9BEE7002C014000100040001002401A
:1025040000B589B0002304930593069307930368E9
:10251400B3F1804F05D0254A934225D009B05DF828
:1025240004FB03F50433DA6942F00102DA61DA6983
:1025340002F001020092009A9A6942F004029A6140
:102544009B6903F004030193019B0323049304A9EF
:102554001748FEF701F9002211461C20FEF7A2F8E5
:102564001C20FEF7D7F8D9E7124BDA6942F00202D1
:10257400DA61DA6902F002020292029A9A6942F07E
:1025840004029A619B6903F004030393039BC02331
:10259400049304A90648FEF7DFF8002211461D2023
:1025A400FEF780F81D20FEF7B5F8B7E700040040F9
:1025B400000801400010024000B587B000230293D8
:1025C40003930493059302680D4B9A4202D007B01B
:1025D4005DF804FB03F564439A6942F004029A61CE
:1025E4009B6903F004030193019B4FF4407302932E
:1025F40002230393059302A90248FEF7ADF8E6E728
:10260400002C01400008014010B596B0002412943B
:102614001394149415941094119409940A940B949B
:102624000C940D940E940F942022214601A800F0DE
:1026340031FF3248324B036001234360846041F62A
:102644001F43C360046144618461FEF7A9FF00284D
:102654003ED14FF48053129312A92848FFF700F992
:10266400002838D12548FEF7C7FF002836D10023BB
:102674001093119310A92148FFF74EFA002830D186
:102684006023099300220A920B920C920D920E92EF
:102694000F9209A91948FFF76FF828BB042209A96A
:1026A4001648FFF769F810BB0023019302930393C4
:1026B400049305934FF400520692089301A90F481E
:1026C400FFF768FAB0B90D48FFF776FF16B010BDF2
:1026D400FFF7AAFDBDE7FFF7A7FDC3E7FFF7A4FDDA
:1026E400C5E7FFF7A1FDCBE7FFF79EFDD6E7FFF7B0
:1026F4009BFDD9E7FFF798FDE5E700BFB03C00205C
:10270400002C014008B50A480A4B03604FF4E1333A
:10271400436000238360C36003610C2242618361D0
:10272400C361FFF7E3FA00B908BDFFF77DFDFBE7DE
:10273400503E0020004C004008B50A480A4B036094
:102744004FF4E133436000238360C36003610C22D0
:1027540042618361C361FFF7C9FA00B908BDFFF79D
:1027640063FDFBE7D03D00200044004008B50A4863
:102774000A4B03604FF4E133436000238360C3607A
:1027840003610C2242618361C361FFF7AFFA00B9B0
:1027940008BDFFF749FDFBE7103E0020004800405C
:1027A40030B58BB00023069307930893099303680D
:1027B4004F4A934207D04F4A934236D04E4A9342EF
:1027C40063D00BB030BD4D4BDA6942F40022DA61BC
:1027D400DA6902F400220092009A9A6942F0100227
:1027E4009A619B6903F010030193019B4FF480638A
:1027F40006930223079303230993414D06A9284610
:10280400FDF7AAFF4FF4006306930024079408948D
:1028140006A92846FDF7A0FF224621463420FDF7ED
:1028240041FF3420FDF776FFCBE7344BDA6942F4FD
:102834000032DA61DA6902F400320292029A9A6989
:1028440042F004029A619B6903F004030393039B1F
:10285400042306930223079303230993294D06A90E
:102864002846FDF779FF082306930024079408946B
:1028740006A92846FDF770FF224621462620FDF7CB
:1028840011FF2620FDF746FF9BE71C4BDA6942F453
:102894008022DA61DA6902F480220492049A9A6945
:1028A40042F008029A619B6903F008030593059BB3
:1028B4004FF4806306930223079303230993124D75
:1028C40006A92846FDF748FF4FF400630693002449
:1028D4000794089406A92846FDF73EFF22462146A0
:1028E4002720FDF7DFFE2720FDF714FF69E700BF6F
:1028F400004C0040004400400048004000100240EA
:102904000010014000080140000C0140074B1B6807
:10291400074AA2FB0312D20C06490A70064AA2FB1C
:1029240003239B09054A1360704700BF103400203D
:1029340083DE1B43943E0020D34D6210903E002062
:1029440010B44FF0E0235C690B4A126802FB00FCF0
:102954009B69002104E0E01A02441144614509D254
:102964001A464FF0E0239B699A42FAD0F3D9D21A5F
:102974001144F3E710BC7047903E0020094B1A68DD
:10298400D36843F02003D360074B1A68D36843F03D
:102994002003D360054B1A68D36843F02003D36047
:1029A400704700BFD03D0020103E0020503E002064
:1029B4001C4B1B6813F0200F32D010B5194B5C6808
:1029C400E4B2194B1B6883B9184B1B685BB1432CE9
:1029D4000CD0174A1368591C1160164AD454144B6E
:1029E4001B68C72B09D0532C0FD010BD0E4B0122EE
:1029F4001A600E4B00221A60F1E700210B4B19609C
:102A0400C7220C4800F046FDEDE7084B1B68002B7D
:102A1400EBD1064B01221A60054B00221A60E4E751
:102A2400704700BF00440040743F0020983E0020DF
:102A3400703F0020A83E00201C4B1B6813F0200FA1
:102A440033D010B5194B5C68E4B2194B1B6883B9D9
:102A5400184B1B685BB1432C0CD0174A1368591CE4
:102A64001160164AD454144B1B68C72B09D0532C3D
:102A740010D010BD0E4B01221A600E4B00221A60BA
:102A8400F1E7C72200210D4800F004FD094B0022A4
:102A94001A60ECE7074B1B68002BEAD1054B0122B7
:102AA4001A60054B00221A60E3E7704700480040B3
:102AB400444000209C3E002040400020783F0020FD
:102AC4001C4B1B6813F0200F32D010B5194B5C68F7
:102AD400E4B2194B1B6883B9184B1B685BB1432CD8
:102AE4000CD0174A1368591C1160164AD454144B5D
:102AF4001B68C72B09D0532C0FD010BD0E4B0122DD
:102B04001A600E4B00221A60F1E700210B4B19608A
:102B1400C7220C4800F0BEFCEDE7084B1B68002BF5
:102B2400EBD1064B01221A60054B00221A60E4E740
:102B3400704700BF004C004014410020A03E00201C
:102B440010410020484000201C4B1B6813F0200F4C
:102B540032D010B5194B5C68E4B2194B1B6883B9C9
:102B6400184B1B685BB1432C0CD0174A1368591CD3
:102B74001160164AD454144B1B68C72B09D0532C2C
:102B84000FD010BD0E4B01221A600E4B00221A60AA
:102B9400F1E700210B4B1960C7220C4800F07AFCC6
:102BA400EDE7084B1B68002BEBD1064B01221A60A2
:102BB400054B00221A60E4E7704700BF0050004054
:102BC400E4410020A43E0020E04100201841002000
:102BD40038B50D461446A0B100224FF40041134805
:102BE400FDF7DAFEA5B100224FF400610F48FDF7AE
:102BF400D3FEA4B100224FF480510C48FDF7CCFE63
:102C040038BD01224FF400410848FDF7C5FEE9E74D
:102C140001224FF400610548FDF7BEFEE9E70122F9
:102C24004FF480510148FDF7B7FEE9E70008014081
:102C340038B50C46012802D002282DD038BD002218
:102C440020212D48FDF7A8FE00250EE0002240219A
:102C54002A48FDF7A1FE01224FF480712748FDF7B1
:102C64009BFE6400E4B20135EDB2072D0ED80022BC
:102C74004FF480712148FDF78FFE14F0800FE5D0EA
:102C8400012240211D48FDF787FEE4E701222021AF
:102C94001948FDF781FED1E701224FF4005117488E
:102CA400FDF77AFE00250EE0012280211348FDF78E
:102CB40073FE01224FF400711048FDF76DFE6400AD
:102CC400E4B20135EDB2072D0ED800224FF40071A5
:102CD4000A48FDF761FE14F0800FE5D1002280213F
:102CE4000648FDF759FEE4E700224FF4005103487B
:102CF400FDF752FEA2E700BF000C014000100140A6
:102D040038B504460D4601280AD001224FF480410B
:102D14000648FDF741FE29462046FFF789FF38BDE6
:102D2400012240210248FDF737FEF4E7001001407C
:102D3400000C014038B504460D46012802D0022893
:102D440006D038BD012240210948FDF725FE05E0E3
:102D540001224FF480410748FDF71EFEC5F3072109
:102D64002046FFF765FFE9B22046FFF761FFE8E779
:102D7400000C01400010014038B504460D460128FE
:102D84000AD000224FF480410648FDF705FE29468B
:102D94002046FFF74DFF38BD002240210248FDF7D1
:102DA400FBFDF4E700100140000C0140F8B50446B7
:102DB4000F4615461E462A21FFF7DEFFB91C2046A2
:102DC400FFF7B8FFB11C2046FFF7B4FF2B212046C4
:102DD400FFF7D2FF691C2046FFF7ACFF06990131CB
:102DE4002046FFF7A7FF2C212046FFF7C5FFF8BDBB
:102DF40038B50446012800F02F81022800F04381F1
:102E040011212046FFF7B8FF7820FFF799FDB12183
:102E14002046FFF7B1FF05212046FFF771FF3C2153
:102E24002046FFF76DFF3C212046FFF769FFB221E2
:102E34002046FFF7A1FF05212046FFF761FF3C2153
:102E44002046FFF75DFF3C212046FFF759FFB321E1
:102E54002046FFF791FF05212046FFF751FF3C2153
:102E64002046FFF74DFF3C212046FFF749FF05218F
:102E74002046FFF745FF3C212046FFF741FF3C2158
:102E84002046FFF73DFFB4212046FFF775FF0321DD
:102E94002046FFF735FFC0212046FFF76DFF2821AC
:102EA4002046FFF72DFF08212046FFF729FF0421C4
:102EB4002046FFF725FFC1212046FFF75DFFC02113
:102EC4002046FFF71DFFC2212046FFF755FF0D21C5
:102ED4002046FFF715FF00212046FFF711FFC3210D
:102EE4002046FFF749FF8D212046FFF709FF2A21DD
:102EF4002046FFF705FFC4212046FFF73DFF8D2143
:102F04002046FFF7FDFEEE212046FFF7F9FEC5211E
:102F14002046FFF731FF1A212046FFF7F1FE362144
:102F24002046FFF729FF00212046FFF7E9FEE021B4
:102F34002046FFF721FF04212046FFF7E1FE22216E
:102F44002046FFF7DDFE07212046FFF7D9FE0A21C0
:102F54002046FFF7D5FE2E212046FFF7D1FE302173
:102F64002046FFF7CDFE25212046FFF7C9FE2A2182
:102F74002046FFF7C5FE28212046FFF7C1FE262183
:102F84002046FFF7BDFE2E212046FFF7B9FE3A2169
:102F94002046FFF7B5FE00212046FFF7B1FE0121D0
:102FA4002046FFF7ADFE03212046FFF7A9FE1321BB
:102FB4002046FFF7A5FEE1212046FFF7DDFE0421B0
:102FC4002046FFF79DFE16212046FFF799FE0621B5
:102FD4002046FFF795FE0D212046FFF791FE2D2197
:102FE4002046FFF78DFE26212046FFF789FE232188
:102FF4002046FFF785FE27212046FFF781FE272183
:103004002046FFF77DFE25212046FFF779FE2D217E
:103014002046FFF775FE3B212046FFF771FE002195
:103024002046FFF76DFE01212046FFF769FE0421CB
:103034002046FFF765FE13212046FFF761FE3A2183
:103044002046FFF799FE05212046FFF759FE292166
:103054002046FFF791FE38BD184D002280212846F6
:10306400FDF79AFC1420FFF76BFC0122802128460F
:10307400FDF792FC1420FFF763FC0122102128467F
:10308400FDF78AFCBCE60E4D00224FF400412846B1
:10309400FDF782FC1420FFF753FC01224FF400419A
:1030A4002846FDF779FC1420FFF74AFC01224FF46F
:1030B40080512846FDF770FCA2E600BF000C0140D9
:1030C40000100140F0B583B006460D469F230093DF
:1030D4007F2300221146FFF769FE002707E02946F7
:1030E4003046FFF727FE01349F2CF8D901377F2F94
:1030F40001D80024F8E703B0F0BD00002DE9F04347
:1031040083B0DDF828800B9CDDF830900D9FB8F17A
:10311400000F2ED006460D4611461A460B1902EB37
:10312400090001380090013B3046FFF73FFE09FBE0
:1031340004F44FEAD40909FB05854FF0000814E0B4
:103144000D4B19683046FFF7F5FD0134072C09D8FB
:103154002B78234113F0010FF2D039463046FFF7A4
:10316400E9FDF2E7013508F10108C84501D2002460
:10317400ECE703B0BDE8F08314340020F0B583B06D
:1031840006461D46089F099CCB191019013800906A
:10319400013B0120FFF70AFE04FB07F700240BE0C4
:1031A40062000132A95C3046FFF7AAFD15F814103D
:1031B4003046FFF7A5FD0134BC42F1D303B0F0BDA6
:1031C400A8B1A2B101701168416051688160926830
:1031D400C260002242628262C2620361009B436158
:1031E4000023036343638363C363036443647047DB
:1031F40068B10022C2630264426402634263826370
:103204000022C2628262426202628261C2617047CB
:103214002DE9F04383B0164C2046FFF7E9FF04F193
:1032240048063046FFF7E4FF124D2846FFF7E0FF5B
:10323400DFF84480114F4FF00009CDF80090434669
:103244003A4600212046FFF7BBFFCDF800904346E5
:103254003A4600213046FFF7B3FF094B0093094B70
:10326400094A01212846FFF7ABFF03B0BDE8F0830C
:10327400E84100207842002000C0DA455C4700089D
:1032840000002041000020426847000808B5054BB3
:103294001860054B1868002302221946806800F064
:1032A4004BF908BDC04200201834002010B5013885
:1032B40001280AD814464FF0FF3392B20748006839
:1032C400FEF743FD40B9204610BD00F0B9F80923CC
:1032D40003604FF0FF30F7E70520F5E7C042002018
:1032E400022801D80020704708B500F0A9F8092386
:1032F40003604FF0FF3008BD08B500F0A1F80923C2
:1033040003604FF0FF3008BD08B548B94FF0FF33F4
:10331400012208480068FEF784FD40B9012008BD79
:1033240000F08EF8092303604FF0FF30F7E7052023
:10333400F5E700BFC042002008B5022804D84FF4C6
:1033440000534B60002008BD00F07AF809230360A5
:10335400F8E700000E4B834200D070470D4B1A680B
:1033640001321A601A680C4981FB0231D317C3EB8E
:103374002113322101FB1323002BEED1054B1A68D4
:10338400064B9A42E9DD034B00221A60E5E700BFD1
:10339400883D0020C44200201F85EB51F8FFFF7FC9
:1033A40070B5104C2046FDF77BFF0F4E3046FDF7FD
:1033B40077FF0E4D2846FDF773FF0D48FDF7A6FF76
:1033C40000212046FEF7C8FA04212046FEF7C4FA7D
:1033D4003C213046FEF73AFB3C212846FEF736FBFB
:1033E40070BD00BFB03C0020F83C0020403D0020F0
:1033F400883D0020002103E00B4B5B58435004310F
:103404000A480B4B42189A42F6D30A4A02E00023B8
:1034140042F8043B084B9A42F9D3FEF793FF00F0BD
:1034240015F8FEF7B1FE704784470008000000203D
:103434005C3C00205C3C002010430020FEE70000C0
:10344400014B1868704700BF1834002070B50D4E4A
:103454000D4D761BB61006D0002455F8043B0134FC
:103464009847A642F9D1094E094D01F093F8761B0D
:10347400B61006D0002455F8043B01349847A64200
:10348400F9D170BD784700087847000880470008E4
:1034940078470008830730B548D0541E002A3FD02F
:1034A4000346CAB201E0013C3AD303F8012B9D075D
:1034B400F9D1032C2DD9CDB245EA05250F2C45EAC7
:1034C400054536D9A4F1100222F00F0C03F1200EA9
:1034D400E6444FEA121C03F1100242E9045542E9A2
:1034E400025510327245F8D10CF1010214F00C0FA0
:1034F40003EB021204F00F0C13D0ACF1040323F01D
:1035040003030433134442F8045B9342FBD10CF0ED
:1035140003042CB1CAB21C4403F8012B9C42FBD116
:1035240030BD64461346002CF4D1F9E70346144633
:10353400BFE71A46A446E0E72DE9F043694C0E467E
:10354400D4F80080174604461D4683B0B8F1000F36
:1035540003D0D8F83830002B77D0022F05D0012FB4
:1035640000F2AC80002DC0F2A980636EDA0752D558
:103574002146404600F05AF9216B41B104F1400361
:10358400994202D0404600F07DFA002323630023D1
:10359400B4F90CC0A3611CF0800F636064D12CF4F7
:1035A4004A6C2CF0030C022FA4F80CC06AD001ABB7
:1035B400214640466A4600F091FBA3891843A08146
:1035C400002D2FD0002E2ED0D8F83830002B38D034
:1035D400009BC4E90465AB42B4F90C3026601CBFFF
:1035E40043F40063A381012F04BF43F00103A381CB
:1035F4009AB213F008032CD0D1075DD500216D4297
:10360400A561656EA16015F0010527D00025284647
:1036140003B0BDE8F083A3899B05A9D4A06D00F095
:1036240059FBA5E7009D284600F088FB06460028C4
:1036340047D0A38943F08003A381D8F83830002B06
:10364400C6D1404600F026F9C2E7404600F022F910
:1036540083E7A360656E15F00105D7D1930524D5E2
:10366400284603B0BDE8F0834046216900F00AFA19
:10367400B4F90CC0022F2CF44A6C2CF0030CA4F8FF
:103684000CC094D100250021012204F143032360DE
:103694002361636E4CF0020CD807A4F80CC0A1603F
:1036A4006261DDD41CF4007FDAD1A06D00F014FB5C
:1036B400284603B0BDE8F083A560CBE74FF0FF35A3
:1036C400CEE7DDF80090A94504D0484600F036FB6B
:1036D400064620B94FF0FF35B4F90CC0D3E74D4688
:1036E400A7E700BF18340020024B13B1024800F0D2
:1036F40005B8704700000000BD39000800230146EA
:103704001A46184600F048BEB1F90C20F8B50C462C
:103714001107074643D4636842F40062002BA28178
:103724005BDDA56A002D56D000233E683B6093B252
:1037340012F4805255D101233846E169A847421C4E
:1037440065D0A389A56A5B0705D56368C01A236B96
:103754000BB1E36BC01A0246E16900233846A8475F
:10376400411C40D13B68002B3DD01D2B01D0162BB2
:1037740054D10022A38923F40063A3812369C4E9FB
:103784000032216B3E6031B304F14003994202D010
:10379400384600F077F9002318462363F8BD2669FC
:1037A400CEB193B29A0718BF0023256808BF636996
:1037B4002660AD1BA3600CE02B463246D4F824C02F
:1037C4003846E169E047B0F1000CA5EB0C0566440E
:1037D40016DD002DF0DC0020F8BDE36B002BA0DC2F
:1037E400F9E7206DAFE70022B4F90C30626023F4EE
:1037F40000632269A381DB042260C2D52065C0E78F
:10380400A3894FF0FF3043F04003A381F8BD3B6828
:10381400002B96D01D2B06D0162B04D0A38943F081
:103824004003A381F8BD00203E60F8BD38B50546CD
:103834000C4608B1836BA3B1B4F90C00B8B1636E44
:10384400DB0701D4810515D528462146FFF75CFF27
:10385400636E0546DA0702D4A3899B050ED5284674
:1038640038BD00F017F8B4F90C000028E7D105467C
:10387400284638BDA06D00F02DFAE5E7A06D00F0F4
:103884002BFA284638BD00BF014900F0FBB900BF40
:103894004D4400082DE9F0478246394800F01AFAF1
:1038A400DAF83840002C66D1042303223549DAF8CB
:1038B4000450CAF83C10DFF8D090DFF8D080344FC1
:1038C400344E0AF53B71CAE9B921CAF8E0422146EF
:1038D400EB600822C5E90044C5E904446C66AC60A9
:1038E400AC6105F15C00FFF7D5FDC5E90759C5E9F1
:1038F4000987EE6205F1580000F0E8F9DAF808509B
:10390400254B2146EB600822C5E90044C5E904447F
:103914006C66AC60AC6105F15C00FFF7BBFDC5E90A
:103924000759C5E90987EE6205F1580000F0CEF9A0
:10393400DAF80C50194B2146EB600822C5E9004423
:10394400C5E904446C66AC60AC6105F15C00FFF74A
:10395400A1FD05F15800C5E90759C5E90A76C5F87E
:10396400248000F0B3F901230548CAF83830BDE8D3
:10397400F04700F0B1B90248BDE8F04700F0ACB937
:10398400D44200208D380008E542000809430008AD
:1039940049430008694300080900010012000200BD
:1039A400014800F097B900BFD0420020014800F060
:1039B40093B900BFD042002038B5084B084D5B1BBB
:1039C4009C1007D0043B1D44013C55F8043998472A
:1039D400002CF9D1BDE8384000F0E2BD844700086E
:1039E40080470008F8B50C46234F064600F05AFC01
:1039F400BB685D68C4F57E6325F003050F332B4473
:103A040023F47F6323F00F03A3F58054B4F5805FA0
:103A140007DB0021304600F051FCBB682B44984280
:103A240004D0304600F044FC0020F8BD304661422A
:103A340000F044FC01300DD0104ABB682D1B45F04A
:103A440001055D60136830461B1B136000F030FCF9
:103A54000120F8BD0021304600F030FCBA68831A1A
:103A64000F2BDEDD43F001035360054B03491B6854
:103A7400C01A0860D5E700BF4C380020D8420020A7
:103A8400543C002000295ED0F8B50C46064600F0F0
:103A940009FC54F8042C784FA4F1080522F0010124
:103AA4006818D7F808C04368844523F0030300F07E
:103AB4008780D207436034D454F8082C07F10804F3
:103AC400AD1A1144AA68A24268D000EB030CDCF8DA
:103AD40004E0D5F80CC01EF0010FC2F80CC0CCF8FD
:103AE400082000F0918041F001036B600160B1F5A2
:103AF400007F31D24A09CB08012191407A68013311
:103B04001143796007EBC30257F83310083AC5E94B
:103B1400021247F83350CD603046BDE8F84000F05B
:103B2400C7BBC2185268D2070ED4194407F108045F
:103B34008368A34270D0C268DA60936041F00103E5
:103B44006B606950D3E7704741F00103B1F5007F22
:103B540044F8043C0160CDD3B1F5206F4FEA512302
:103B640047D28B0903F1390003F13802C300F81876
:103B7400FB580838984258D05A6822F003028A4207
:103B840002D99B689842F7D1D868C5E902308560AC
:103B94003046DD60BDE8F84000F08ABBC2185268C8
:103BA400D20763D40B44D0E90212CA60916043F097
:103BB40001026A603046EB50BDE8F84000F078BB83
:103BC4000B44D10707D454F8082CAD1A1344D5E993
:103BD4000212CA60916043F001026A60274ABD6024
:103BE40012689A4298D8264B30461968FFF7FAFEB5
:103BF40092E7142B0AD9542B1FD80B0B03F16F0037
:103C040003F16E02C300B2E7194491E703F15C00CB
:103C140003F15B02C300AAE741F00103C7E90455BD
:103C2400C5E902446B60695076E70121921001FAFC
:103C340002F279680A437A60A7E7B3F5AA7F06D847
:103C4400CB0B03F1780003F17702C3008FE740F256
:103C54005452934206D88B0C03F17D0003F17C028D
:103C6400C30084E74FF47E737E2280E741F00103B2
:103C74006B60016050E700BF4C380020583C0020C6
:103C8400084300202DE9F8434FF000090746884611
:103C940000F53876D6E90154013D10D4A389013DDD
:103CA400012B08D9B4F90E30013304D0214638462B
:103CB400C04749EA00096B1C04F16804EED1366878
:103CC400002EE7D14846BDE8F88300BF704700BF27
:103CD400704700BF704700BF704700BF70B50C4607
:103CE400B1F90E10154600291E4696B014DB6A463B
:103CF40000F010FC00280FDB019A4FF4806302F4FB
:103D04007042A2F50052B2FA82F24FF400605209F6
:103D140032602B6016B070BD0023B4F90C10336010
:103D240011F0800004D0402218462A6016B070BDFD
:103D34004FF480632B6016B070BD00BF024B014688
:103D4400186800F003B800BF183400202DE9F04FC4
:103D540001F10B05162D064683B025D8102900F273
:103D6400B88000F09FFA102518224FF0020CB54FCE
:103D74003A445368A2F108018B4200F0B7805A68B4
:103D8400D96822F003021A449C683046E1608C60D2
:103D9400516803F1080441F00101516000F088FA10
:103DA400204603B0BDE8F08F35F0070500F191809F
:103DB400A94200F28E8000F075FAB5F5FC7FC0F0E0
:103DC40094816B0A00F08C80042B00F26A81AB09A9
:103DD40003F1390C03F138044FEACC00994F38440D
:103DE40043680838984206D10CE0002980F2268105
:103DF400DB68984206D05A6822F00302511B0F294F
:103E0400F3DDA4463C69DFF840E274457AD0626889
:103E140022F00302531B0F2B00F37681002BC7E91A
:103E240004EE80F26781B2F5007F80F019810121F0
:103E3400D30852090B4491407A6857F833000A4377
:103E440007EBC3010839A060E1607A6047F83340AA
:103E5400C46001214FEAAC039940914259D8114200
:103E640006D12CF0030C490011420CF1040CFAD0D9
:103E740007EBCC0948466446D0F80C80404508D18D
:103E84001CE1002B80F22181D8F80C80404500F021
:103E94001581D8F8042022F00302531B0F2BF0DD08
:103EA40008EB050145F00105C8F804503046D8E98F
:103EB4000264F460A66043F00104C7E904114C6095
:103EC400C1E902EE48F8023000F0F2F908F1080402
:103ED40002E00C2300243360204603B0BDE8F08FD9
:103EE4004FF400704FF0400C3F2477E7D3689A42B8
:103EF40008BF0CF1020C7FF442AF3C69DFF848E1E3
:103F0400744584D101217A684FEAAC039940914207
:103F1400A5D9BC68636823F003094D4503D8A9EB10
:103F240005030F2B7ADCDFF824B1494BDBF80020C2
:103F34001B6801322B4404EB090A00F02F8103F5BE
:103F440080530F3323F47F6828F00F08414630462E
:103F540000F0B4F9411C024600F0EF80824500F203
:103F6400EA803C4B196841440846196000F04981D5
:103F7400DBF80010019301311BBFA2EB0A0A504485
:103F8400CBF80020186012F0070B00F01181CBF180
:103F940008010A44CBF5805190440831A1EB080193
:103FA400C1F30B0A51463046009200F087F9421CD7
:103FB400DDE9002300F04B81801A00EB0A08196840
:103FC40048F001005144BC42BA601960506000F0EE
:103FD4002481B9F10F0F40F222814FF0050E606881
:103FE400A9F10C0C2CF0070C00F0010040EA0C00C5
:103FF4006060BCF10F0F04EB0C00C0E901EE00F2AD
:104004002E8114465068144B1A688A4238BF1960CE
:10401400124B1A688A4238BF196090E0621943F063
:10402400010345F0010565603046BA600834536009
:1040340000F03EF9204603B0BDE8F08FD9681A4479
:10404400A2E600BF4C38002054380020543C002025
:1040540008430020D84200200043002004430020ED
:10406400B2F5206F4FEA52235FD3142B00F2B180D4
:1040740003F15C01C9005B33781879580838884229
:1040840000F08F804B6823F00303934202D98968C0
:104094008842F7D1C8687A68C4E902108460CC60A9
:1040A400D7E6142B59D9542B00F29B802B0B03F128
:1040B4006F0C03F16E044FEACC008FE60134A307C2
:1040C40000F108007FF4D8AE53E0444642445368FC
:1040D400D8F80C1043F00103536054F8083F3046FD
:1040E400D9608B6000F0E4F8F6E64FEAD50C05F1F0
:1040F40008023CE622445368304643F0010353600F
:1041040000F0D6F80834E7E6611945F0010565606A
:1041140043F00105C7E904113046C1E902EE4D60E0
:10412400A35000F0C5F80834D6E6930903F1390129
:10413400C9003833A0E7BC425ED0BC68606820F098
:1041440003084545A8EB050302D80F2B3FF766AFDC
:10415400304600F0ADF80024BEE603F15C0C03F138
:104164005B044FEACC0039E659F808394B4540F076
:1041740095801CF0030F0CF1FF3CF5D17B6823EA1A
:1041840001037B60490099423FF6C3AE11B9C0E612
:10419400490004341942FBD0A44669E603F110082F
:1041A400D4E601229B109A407B681A437A6073E735
:1041B40002EB08014942C1F30B0A51463046009212
:1041C40000F07CF8431CDDE900237FF4F5AEDA4609
:1041D400F5E6542B26D8130B03F16F01C9006E3397
:1041E4004AE7B3F5AA7F26D8EB0B03F1780C03F169
:1041F40077044FEACC00F1E5294B18684044186075
:10420400B6E6CAF30B0CBCF1000F7FF4B1AEBC6888
:10421400C84448F001006060F5E61446F3E6012363
:10422400536095E7B3F5AA7F24D8D30B03F1780143
:10423400C900773320E740F25452934224D8AB0CA0
:1042440003F17D0C03F17C044FEACC00C6E5ABF12D
:10425400080BD8444FF0000AA8EB0208AFE604F1BB
:10426400080130460093FFF70DFCBC68009B6068B2
:104274001968C8E640F254518B420BD8930C03F1F1
:104284007D01C9007C33F7E64FF47E704FF07F0C5C
:104294007E24A3E54FF47E717E23EDE67B6871E70F
:1042A400D84200200148FFF715BD00BFCC420020D2
:1042B4000148FFF711BD00BFCC420020002238B5F1
:1042C400064D044608462A60FEF71EF8431C00D03B
:1042D40038BD2B68002BFBD0236038BD0C43002075
:1042E40010B50C46B1F90E1000F03EF9002803DBBE
:1042F400236D0344236510BDA38923F48053A38154
:1043040010BD00BF2DE9F0410C46B1F90C101F4659
:10431400CB05054616460BD421F48051A1813B46BA
:1043240032462846B4F90E10BDE8F04100F01EB83C
:10433400B4F90E100223002200F000F9B4F90C10B5
:10434400EAE700BF10B50C46B1F90E1000F0F6F81C
:10435400A389421C0EBF23F4805343F48053206589
:10436400A38110BDB1F90E1000F05CB838B50C464D
:10437400114600228446074D20462A601A466446A8
:10438400FEF794FF431C00D038BD2B68002BFBD0F4
:10439400236038BD0C4300202DE9F047DFF87CA0F2
:1043A4000646DAF8000098460F469146FFF792FC5D
:1043B4001B4B1B68D3F8484124B365681F2D26DCCA
:1043C4005EB96B1C0235DAF80000636044F82570AE
:1043D400FFF782FC0020BDE8F087012304EB850190
:1043E400C1F88890D4F88821AB401A43022EC4F84F
:1043F4008821C1F80881E4D1D4F88C211343C4F88E
:104404008C31DEE703F5A674C3F84841D5E7DAF842
:104414000000FFF761FC4FF0FF30DCE74838002074
:1044240074470008002238B5064D044608462A6041
:10443400FEF756FF431C00D038BD2B68002BFBD081
:10444400236038BD0C43002070B500294BD00646CC
:104454000C4610B1836B002B48D0636ED80734D55B
:10446400B4F90C30002B3ED021463046FFF74CF90E
:10447400E36A054633B13046E16998470028B8BF7E
:104484004FF0FF35A3891A063BD4216B41B104F1E7
:104494004003994202D03046FFF7F4FA0023236325
:1044A400616C21B13046FFF7EDFA00236364FFF736
:1044B40077FA0022636EA281DB0727D5A06DFFF790
:1044C40007FCFFF773FA284670BDA3899905CBD47E
:1044D400A06DFFF7FFFBB4F90C30002BC4D1656E5F
:1044E40015F0010508D00025284670BDFFF7D2F964
:1044F400636ED807B4D4E8E7A06DFFF7EDFB284658
:1045040070BD30462169FFF7BDFABEE7A06DFFF725
:10451400E3FBD3E770B50026074D04460846114671
:104524002E60FEF709FF431C00D070BD2B68002BE2
:10453400FBD0236070BD00BF0C43002038B50C468F
:10454400114600228446074D20462A601A466446D6
:10455400FEF7D2FE431C00D038BD2B68002BFBD0E5
:10456400236038BD0C43002038B50C4611460022A8
:104574008446074D20462A601A466446FEF7C4FE68
:10458400431C00D038BD2B68002BFBD0236038BD02
:104594000C430020F8B500BFF8BC08BC9E46704729
:0C45A400F8B500BFF8BC08BC9E4670478C
:1045B00002030405060708090A0B0C0D0E0F101064
:1045C00000000000000000000000000000000000EB
:1045D0008000800000FFFF010001800100018001D8
:1045E000000180010001800100FFFF010001800146
:1045F00000018001000180010001800100FFFF0136
:10460000000180018000000000300C0000300C042C
:1046100010300C0E60300C06E0300C03C0318C0101
:104620008031CC0080314C0000312C0000301C0067
:1046300000300C0CFCFFFF1F000000000000000019
:10464000000000000000000000000000000000006A
:104650000000000100000003C0FFFF070000000091
:10466000000000000000000000000000000000004A
:104670000000000000000018FCFFFF3F0080010068
:10468000008001000080010000861100008F2100E1
:104690000083C1008083810180810103C080010704
:1046A0006080010E3080011C108001180880010814
:1046B0000486010000F8010000E000000040000056
:1046C00000000000000000000000000000000000EA
:1046D00000000004C0FFFF0FC000000CC000000C71
:1046E000C000000CC0FFFF0F4000000C4020400045
:1046F0004060E00040C0600040C0200040801006E4
:1047000040FEFF0F6040600060406000604060005D
:10471000604060006040600CA0FFFF1F2040600010
:104720003040600010606000106060000830600081
:1047300008106000040C6000040660008001200086
:10474000000000000000000000000000010203045F
:104750000607080900000000010203040000C84227
:104760000000C842000000000000004100000000FE
:084770000000000020340020CD
:08477800ED36000809020008FB
:04478000E501000847
:104784000100000010000000001068004000011B40
:10479400BEF7BEF7BEF7BEF7BEF7BEF7BEF7BEF76D
:1047A400BEF7BEF7BEF7BEF7BEF7BEF7BEF7BEF75D
:1047B400BEF7BEF7BEF7BEF7BEF7BEF7BEF7BEF74D
:1047C400BEF7BEF7BEF7BEF7BEF7BEF7BEF7BEF73D
:104A3400BEF7BEF7BEF7BEF7DFFFBEF7BEF7BEF7A1
:104A4400BEF7BEF7BEF7BEF7BEF7BEF7BEF7BEF7BA
:104A5400BEF7BEF7BEF7BEF7BEF7BEF7BEF7BEF7AA
:104A6400BEF7BEF7BEF7BEF7BEF7BEF7BEF7BEF79A
:104A7400BEF7BEF7BEF7BEF7BEF7BEF7BEF7BEF78A
:104A8400BEF7BEF7BEF7BEF7BEF7BEF7BEF7BEF77A
:104A9400BEF7BEF7BEF7BEF7BEF7BEF7BEF7BEF76A
:104AA400BEF7BEF7BEF7BEF7BEF7BEF7BEF7BEF75A
:104AB400BEF7BEF7BEF7BEF7BEF7BEF7BEF7BEF74A
:104AC400BEF7BEF7BEF7BEF7BEF7BEF7BEF7BEF73A
:104AD400BEF7BEF7BEF7BEF7BEF7BEF7BEF7BEF72A
:104AE400BEF7BEF7BEF7BEF7BEF7BEF7BEF7BEF71A
:104AF400BEF7BEF7DFFF5DEFFBDED7BDF39C10848E
:104B040010841084B294F7BDDBDE9EF7BEF7BEF7C7
:104B1400BEF7BEF7BEF7BEF7BEF7BEF7BEF7BEF7E9
:104B2400BEF7BEF7BEF7BEF7BEF7BEF7BEF7BEF7D9
:104B3400BEF7BEF7BEF7BEF7BEF7BEF7BEF7BEF7C9
:104B4400BEF7BEF7BEF7BEF7BEF7BEF7BEF7BEF7B9
:104B5400BEF7BEF7BEF7BEF7BEF7BEF7BEF7BEF7A9
:104B6400BEF759CEF7BDD39CCF7BCF7B308455ADF8
:104B7400F7BD1CE7BEF7DFFFBEF7BEF7BEF7BEF713
:104B8400BEF7BEF7BEF7BEF7BEF7BEF7BEF7BEF779
:104B9400BEF7BEF7BEF7BEF7BEF7BEF7BEF7BEF769
:104BA400BEF7BEF7BEF7BEF7BEF7BEF7BEF7BEF759
:104BB400BEF7BEF7BEF7BEF7BEF7BEF79EF7DFFF40
:104BC40018C66D6B41084108200000000000000079
:104BD4000000000020000000000000002421518C8F
:104BE400DFFFBEF7BEF7BEF7BEF7BEF7BEF7BEF7F0
:104BF400BEF7BEF7BEF7BEF7BEF7BEF7BEF7BEF709
:104C0400BEF7BEF7BEF7BEF7BEF7BEF7BEF7BEF7F8
:104C1400BEF7BEF7BEF7BEF7BEF7BEF7BEF7BEF7E8
:104C2400BEF7BEF7BEF7BEF7BEF71CE70C6361081C
:104C34000000000000000000000000000000000070
:104C440000002000200004218E733CE7DFFF9EF764
:104C5400BEF7BEF7BEF7DFFFBEF7BEF7BEF7BEF77F
:104C6400BEF7BEF7BEF7BEF7BEF7BEF7BEF7BEF798
:104C7400BEF7BEF7BEF7BEF7BEF7BEF7BEF7BEF788
:104C8400BEF7BEF7BEF7BEF79EF77DEFCB5A4108DD
:104C940020000000000000000000000000000000F0
:104CA4000000000000000000000000000000000000
:104CB4000000E3183CE7BEF7BEF7BEF7BEF7BEF749
:104CC400BEF7BEF7BEF7BEF7BEF7BEF7BEF7BEF738
:104CD400BEF7BEF7BEF7BEF7BEF7BEF7BEF7BEF728
:104CE400BEF7BEF7BEF7BEF7BEF7BEF7BEF7BEF718
:104CF400BEF79EF7DFFFD7BD61080000000000008B
:104D04004108200020000000000000000000000016
:104D14002000200000000000000020008210108409
:104D2400BEF7BEF7BEF7BEF7BEF7BEF7BEF7BEF7D7
:104D3400BEF7BEF7BEF7BEF7BEF7BEF7BEF7BEF7C7
:104D4400BEF7BEF7BEF7BEF7BEF7BEF7BEF7BEF7B7
:104D5400BEF7BEF79EF77DEF08422000200000005A
:104D640000000000000000000000000000004108F6
:104D74008210A210C318C31861082000000020008C
:104D840000000000200065291CE79EF7BEF7BEF76F
:104D9400BEF7BEF7BEF7BEF7BEF7BEF7BEF7BEF767
:104DA400BEF7BEF7BEF7BEF7BEF7BEF7BEF7BEF757
:104DB400BEF7BEF7BEF7BEF7BEF7BEF7BEF7BEF747
:104DC400BEF7F7BD4108000020000000000000000D
:104DD40020006108C318C318C31882102000000003
:104DE400000000000000000000002000200000007F
:104DF40020008E73BEF7BEF7BEF7BEF7BEF7BEF750
:104E0400BEF7BEF7BEF7BEF7BEF7BEF7BEF7BEF7F6
:104E1400BEF7BEF7BEF7BEF7BEF7BEF7BEF7BEF7E6
:104E2400BEF7DFFF10840000000000000000000057
:104E34002000000000006108A631EB5A4D6B4D6B59
:104E44002C630C632C632C630C632C63EB5A652971
:104E540000000000200020004108718CBEF7BEF75E
:104E6400BEF7BEF7BEF7BEF7BEF7BEF7BEF7BEF796
:104E7400BEF7BEF7BEF7BEF7BEF7BEF7BEF7BEF786
:104E8400BEF7BEF7BEF7BEF7BEF7BEF7BEF7BEF776
:104E9400494A200020000000000020000842EB5A8C
:104EA4002C630C630C63EB5A0C632C634D6B2C6307
:104EB400AA52652920002000000020000000000004
:104EC400000020002000B294DFFFBEF7BEF7BEF75B
:104ED400BEF7BEF7BEF7BEF7BEF7BEF7BEF7BEF726
:104EE400BEF7BEF7BEF7BEF7BEF7BEF7BEF7BEF716
:104EF4001CE78210000000000000000020000000F9
:104F04002000C7390C630C630C63EB5A0C630C630D
:104F14000C632C630C630C630C634D6B0C630C63AC
:104F24004D6B6529000041080000DFFFBEF79EF7C6
:104F3400BEF7BEF7BEF7BEF7BEF7BEF7BEF7BEF7C5
:104F4400BEF7BEF7BEF7BEF7BEF7BEF7BEF7BEF7B5
:104F5400BEF7BEF7BEF7BEF7BEF7BEF7BEF7BEF7A5
:104F640079CE00000000200008422C630C63EB5A49
:104F74000C63EB5A0C632C630C630C632C630C639F
:104F84000C63CB5A2C63EB5A242120002000000030
:104F94000000000020000000C739DFFFBEF7BEF7A5
:104FA400BEF7BEF7BEF7BEF7BEF7BEF7BEF7BEF755
:104FB400BEF7BEF7BEF7BEF7BEF7BEF79EF7D7BD86
:104FC4000000410800000000200020002000494AA1
:104FD4002C630C630C632C630C630C630C638A52A8
:104FE400E7394529C739CB5A2C632C630C630C630E
:104FF4000C632C63CB5A6108200082109EF7BEF725
:10500400BEF7BEF7BEF7BEF7BEF7BEF7BEF7BEF7F4
:10501400BEF7BEF7BEF7BEF7BEF7BEF7BEF7BEF7E4
:10502400BEF7BEF7BEF7BEF7BEF7BEF7BEF77DEF1D
:105034002000000041080C634D6BEB5A2C63CB5AE3
:105044002C630C632842C739A6312842CB5A2C63FF
:105054002C634D6B2C630C630C632C638631000052
:105064000000200000000000200000007DEFBEF7DB
:10507400BEF7BEF7BEF7BEF7BEF7BEF7BEF7BEF784
:10508400BEF7BEF7BEF7BEF7BEF7BEF718C6000000
:105094002000200020002000000024214D6B0C6320
:1050A4000C630C630C632C63EB5A82100000000049
:1050B40000002000200020000000A210EB5A0C6326
:1050C4000C630C632C630C63410820000C63DFFF4A
:1050D400BEF7BEF7BEF7BEF7BEF7BEF7BEF7BEF724
:1050E400BEF7BEF7BEF7BEF7BEF7BEF7BEF7BEF714
:1050F400BEF7BEF7BEF7BEF7BEF7BEF7BEF7C318DE
:1051040000004108CF7BEB5AEB5AEB5A2C63AA52AE
:10511400A210000000000000200020000000000099
:105124004529EB5A2C630C630C63EB5A0C632C6318
:10513400E3180000200020002000000000005DEFC4
:10514400BEF7BEF7BEF7BEF7BEF7BEF7BEF7BEF7B3
:10515400BEF7BEF7BEF7BEF7BEF779CE61082000F2
:105164000000000000000000494A2C632C634D6BD2
:105174000C630C632C632421000020002000200019
:1051840000002000F39CBEF7DFFF9EF74529A631FF
:105194000C630C634D6B2C63CB5ABEF7DFFFBEF779
:1051A400BEF7BEF7BEF7BEF7BEF7BEF7BEF7BEF753
:1051B400BEF7BEF7BEF7BEF7BEF7BEF7BEF7BEF743
:1051C400BEF7BEF7BEF7BEF7BEF7BEF7BEF79EF753
:1051D40038C60C630C632C63EB5A8E738210000088
:1051E4000000000000004108000020002000200012
:1051F4006108A210C7392D632C630C630C632C6304
:105204004D6BE73920002000200000000000000062
:10521400BEF7BEF7BEF7BEF7BEF7BEF7BEF7BEF7E2
:10522400BEF7BEF7BEF7BEF7DFFF4108200020003F
:10523400000020000000CB5A2C632C632C634D6BC0
:10524400308438C6C31800000000000000000000CD
:1052540020003CE7BEF7BEF7BEF7BEF7BEF7EB5A39
:10526400E73938C6CB5A6D6B2C633CE7BEF7BEF703
:10527400BEF7BEF7BEF7BEF7BEF7BEF7BEF7BEF782
:10528400BEF7BEF7BEF7BEF7BEF7BEF7BEF7BEF772
:10529400BEF7BEF7BEF7BEF7BEF7BEF7BEF7BEF762
:1052A40038C62C63EB5AEF7B38C68210000000002E
:1052B400000000000000000000000000000018C60C
:1052C400BEF7BEF79EF75DEFBAD68E732C630C6300
:1052D4002C634D6BC73920002000200020002000E3
:1052E4004529BEF7BEF7BEF7BEF7BEF7BEF7BEF759
:1052F400BEF7BEF7BEF7BEF7084241080000000043
:10530400000000008A522C632C632C63EB5AF7BD17
:10531400BEF7E73920002000000000000000000074
:1053240075ADBEF7DFFFDFFFBEF7BEF7BEF7BEF712
:10533400A210A6319EF796B5EB5A75ADBEF7BEF72F
:10534400BEF7BEF7BEF7BEF7BEF7BEF7BEF7BEF7B1
:10535400BEF7BEF7BEF7BEF7BEF7BEF7BEF7BEF7A1
:10536400BEF7BEF7BEF7BEF7BEF7BEF7BEF7BEF791
:1053740010840C6379CE9EF7863120000000000073
:105384000000000000000000000000003CE7DFFF18
:10539400BEF7BEF7BEF7BEF7BEF79EF775ADCB5AA4
:1053A4000C632C630C63E7392000200020002000EC
:1053B4000000B294BEF7BEF7BEF7BEF7BEF7BEF765
:1053C400BEF7BEF7BEF73CE7200000000000000077
:1053D400000086310C632C632C63EF7B3CE7DFFF1A
:1053E400EB5A200020002000000000000000821082
:1053F400BEF79EF7BEF7BEF7BEF7BEF7BEF7DFFFF8
:10540400DBDE2000F39CBEF7BAD60C63DFFFDFFFC0
:10541400BEF7BEF7BEF7BEF7BEF7BEF7BEF7BEF7E0
:10542400BEF7BEF7BEF7BEF7BEF7BEF7BEF7BEF7D0
:10543400BEF7BEF7BEF7BEF7BEF7BEF7BEF79EF7E0
:105444000C637DEFBEF78A522000000000000000CC
:1054540000000000000000000000B6B5BEF7BEF773
:10546400BEF7BEF7BEF7BEF7BEF7BEF79EF7FBDE8C
:10547400EB5A2C630C632C63E318200020002000FB
:1054840000006108DFFFDFFFBEF7BEF7BEF7BEF71F
:10549400BEF7BEF7BEF7494A200000000000000036
:1054A400C3184D6B2C630C63518C7DEFDFFF59CE19
:1054B4002000000000000000000000000000AE73A7
:1054C400DFFFBEF7BEF7BEF7BEF7BEF7BEF7BEF707
:1054D4007DEF821020005DEFBEF79EF7FBDEBEF786
:1054E400BEF7BEF7BEF7BEF7BEF7BEF7BEF7BEF710
:1054F400BEF7BEF7BEF7BEF7BEF7BEF7BEF7BEF700
:10550400BEF7BEF7BEF7BEF7BEF7BEF7BEF796B559
:105514009EF7DFFF96B520000000000000000000A9
:1055240000000000000000008210BEF7BEF7BEF7C6
:10553400BEF7BEF7BEF7BEF7BEF7BEF77DEF9EF728
:105544007DEFEB5A0C632C634D6B410800000000A7
:1055540000000000718CDFFFBEF7BEF7BEF7BEF798
:10556400BEF7BEF79EF72000000000000000000018
:105574000C630C632C63EF7B9EF7DFFFBEF7200008
:1055840000000000000000000000000000003CE7F4
:10559400BEF7BEF7BEF7BEF7BEF7BEF7BEF7DFFF36
:1055A4009EF704214108C318BEF7DFFF3CE7BEF7AE
:1055B400BEF7BEF7BEF7BEF7BEF7BEF7BEF7BEF73F
:1055C400BEF7BEF7BEF7BEF7BEF7BEF7BEF7BEF72F
:1055D400BEF7BEF7BEF7BEF7BEF7BEF79EF75DEFA8
:1055E4009EF7BEF70000200000000000000000004D
:1055F4000000000000000000AA52DFFFBEF7BEF763
:10560400BEF7BEF7BEF7BEF7BEF7BEF72842BEF739
:10561400DFFF5DEFAA522C630C63494A00000000CF
:10562400000041084108BEF7BEF7BEF7BEF7BEF75B
:10563400BEF7BEF718C600000000000000004529B0
:105644004D6B2C63AA52BEF7DFFFBEF7518C0000EE
:105654000000000000000000000000002000DFFF48
:10566400BEF7BEF7BEF7BEF7BEF7BEF7BEF7BEF78E
:10567400BEF7694A20002000BAD6BEF7BEF7BEF7CF
:10568400BEF7BEF7BEF7BEF7BEF7BEF7BEF7BEF76E
:10569400BEF7BEF7BEF7BEF7BEF7BEF7BEF7BEF75E
:1056A400BEF7BEF7BEF7BEF7BEF7BEF7BEF7BEF74E
:1056B400BEF7AA52610800000000000000000000CC
:1056C400000000000000000038C6BEF7BEF7BEF7B9
:1056D400BEF7BEF7BEF7BEF7BEF7BEF7D7BD9AD684
:1056E400BEF7BEF71CE70C630C632C63821020002A
:1056F4000000000020005DEFBEF7BEF7BEF7BEF766
:10570400BEF7BEF7C73900000000000000002C639C
:105714000C632C631CE7DFFFDFFF9EF72000000013
:105724000000000020000000200061080C63DFFF7F
:10573400BEF7BEF7BEF7BEF7BEF7BEF7BEF7BEF7BD
:10574400BEF7AA5200000000C318BEF7BEF7BEF7AA
:10575400BEF7BEF7BEF7BEF7BEF7BEF7BEF7BEF79D
:10576400BEF7BEF7BEF7BEF7BEF7BEF7BEF7BEF78D
:10577400BEF7BEF7BEF7BEF7BEF7BEF7BEF7BEF77D
:10578400BEF74108200000000000000000000000F7
:1057940041082000694A20003CE79EF79EF7BEF7C7
:1057A400BEF7BEF7BEF7BEF7BEF7BEF7FBDE452970
:1057B4009EF7BEF7BEF7F7BD2C630C63694A200061
:1057C40000000000000055ADDFFFBEF7BEF7BEF7D6
:1057D400BEF7DFFF2000000000000000C3180C63C8
:1057E4002C6396B5DFFFBEF7BEF759CE200000004C
:1057F400000000002000200055AD75AD41087DEF8C
:10580400BEF7BEF7BEF7BEF7BEF7BEF7BEF7BEF7EC
:10581400BEF7A6310000000020001CE7BEF7BEF76B
:10582400BEF7BEF7BEF7BEF7BEF7BEF7BEF7BEF7CC
:10583400BEF7BEF7BEF7BEF7BEF7BEF7BEF7BEF7BC
:10584400BEF7BEF7BEF7BEF7BEF7BEF7BEF7BEF7AC
:1058540096B54108000000000000000000000000B0
:1058640010847DEF610800001CE79EF7BEF7BEF7C9
:10587400BEF7BEF7BEF7BEF7BEF79EF7FBDE4108E4
:105884007DEFBEF7DFFFBEF79294EB5A4D6B20001D
:10589400000000000000A631BEF7BEF7BEF7BEF759
:1058A400BEF7BEF72000000000000000AA524D6BB6
:1058B4000C63BEF7BEF7BEF7BEF745290000000033
:1058C4000000000020009AD61CE720000000718C24
:1058D400BEF7BEF7BEF7BEF7BEF7BEF7BEF7BEF71C
:1058E400BEF76108000000000000AE73BEF7BEF70B
:1058F400BEF7BEF7BEF7BEF7BEF7BEF7BEF7BEF7FC
:10590400BEF7BEF7BEF7BEF7BEF7BEF7BEF7BEF7EB
:10591400BEF7BEF7BEF7BEF7BEF7BEF7BEF7DFFFB2
:10592400C31821000000000000000000000096B52C
:10593400BEF7410820000000F7BDBEF7BEF7BEF772
:10594400BEF7BEF7BEF7BEF7BEF7BEF734A500003C
:105954009294BEF7BEF7BEF7BFF74D6B0C6386316A
:105964000000000000004108DFFFBEF7BEF7BEF7ED
:10597400BEF7BEF720000000000000000C630C63BB
:105984001CE7DFFFBEF7BEF79EF700000000000033
:105994000000000038C6DFFF821020002000A210A3
:1059A400DFFFBEF7BEF7BEF7BEF7BEF7BEF7BEF722
:1059B4009EF720002000000000000000BEF7BEF7A4
:1059C400BEF7BEF7BEF7BEF7BEF7BEF7BEF7BEF72B
:1059D400BEF7BEF7BEF7BEF7BEF7BEF7BEF7BEF71B
:1059E400BEF7BEF7BEF7BEF7BEF7BEF7BEF77DEF54
:1059F400000021000000000000002000518CBEF7D0
:105A0400AE73410820000000AA52BEF7BEF7BEF7ED
:105A1400BEF7BEF7BEF7BEF7BEF7BEF7AA52200028
:105A24004108BEF7BEF7BEF7DFFFF8BD2C630C6379
:105A34000000000000002000DFFFBEF7BEF7BEF745
:105A4400BEF7BEF7200000002000C3180C63CF7B14
:105A5400BEF7BEF7BEF7BEF75DEF20000000000002
:105A640020002842DFFFBAD600000000000020001A
:105A74009AD6DFFFBEF7BEF7BEF7BEF7BEF7BEF796
:105A84008631000000000000000020007DEFBEF71A
:105A9400BEF7BEF7BEF7BEF7BEF7BEF7BEF7BEF75A
:105AA400BEF7BEF7BEF7BEF7BEF7BEF7BEF7BEF74A
:105AB400BEF7BEF7BEF7BEF7BEF7BEF7BEF7BAD65F
:105AC400000020000000000041080421DFFF7DEFFA
:105AD400000000002000000020007DEFBEF7BEF7AC
:105AE400BEF7BEF7BEF7BEF7DFFF9EF7000020004B
:105AF40000007DEFBEF7BEF7BEF7DFFF4D6B2C63F2
:105B04002100000000002000BEF7BEF7BEF7BEF77C
:105B1400BEF79EF700000000200008420C637DEFF2
:105B2400DFFFBEF7BEF79EF7F39C000000002000E5
:105B340020009EF7DFFFC7390000000000002000AE
:105B440041085DEFBEF7BEF7BEF7BEF7BEF7BEF77E
:105B54004D6B00000000000000006108FBDEBEF792
:105B6400BEF7BEF7BEF7BEF7BEF7BEF7BEF7BEF789
:105B7400BEF7BEF7BEF7BEF7BEF7BEF7BEF7BEF779
:105B8400BEF7BEF7BEF7BEF7BEF7BEF7BEF7518C41
:105B940000002000200000004108FBDEBEF796B59F
:105BA40000000000200000002000D39C9EF7BEF7F8
:105BB400BEF7BEF7BEF7BEF7BEF7F39C00000000C9
:105BC40020007DEFBEF7BEF7BEF7BEF7BAD62D6351
:105BD4000421000000002000BEF7BEF7BEF7BEF7A8
:105BE400BEF79EF7200000002000EB5AD39CBEF7BE
:105BF400BEF7BEF7BEF7BEF7E739000000000000AD
:105C0400AA529EF7DFFF20000000000000002000E1
:105C14002000410859CEBEF7BEF7BEF7B294BEF7D6
:105C2400DFFF20002000000020006108D39CBEF7A5
:105C3400BEF7BEF7BEF7BEF7BEF7BEF7BEF7BEF7B8
:105C4400BEF7BEF7BEF7BEF7BEF7BEF7BEF7BEF7A8
:105C5400BEF7BEF7BEF7BEF7BEF7DFFFBEF7652996
:105C640020000000000020004529BEF7FFFF0421AA
:105C74000000000000000000200041087DEFBEF796
:105C8400BEF7BEF7BEF7BEF7BEF70842000000003D
:105C9400200018C6BEF7BEF7BEF7BEF7BEF7EF7B0F
:105CA4000842000000002000BEF7BEF7BEF7BEF7B2
:105CB400BEF79EF72000000020004D6B3CE79EF7E6
:105CC400BEF7BEF7BEF7BEF70421000000002000B7
:105CD4005DEFDFFF7DEF000000000000000000002A
:105CE4000000000000004108410841086108BEF7B7
:105CF4009EF765290000000001000100EB5ABEF781
:105D0400BEF7BEF7BEF7BEF7BEF7BEF7BEF7BEF7E7
:105D1400BEF7BEF7BEF7BEF7BEF7BEF7BEF7BEF7D7
:105D2400BEF7BEF7BEF7BEF7BEF7BEF7BEF7410833
