:020000040800F2
:1000000000C00020D14A0008D5340008D7340008C9
:10001000D9340008DB340008DD340008000000009B
:10002000000000000000000000000000DF340008B5
:10003000E134000800000000E3340008E534000863
:10004000194B0008194B0008194B0008194B000800
:10005000194B0008194B0008194B0008194B0008F0
:10006000194B0008194B0008194B0008194B0008E0
:10007000194B0008194B0008194B0008194B0008D0
:10008000194B0008194B0008ED340008194B000803
:10009000194B0008194B0008194B0008194B0008B0
:1000A000FD3400080D3500081D3500082D35000809
:1000B0003D3500084D350008194B0008194B000864
:1000C000194B0008194B0008194B0008194B000880
:1000D000194B0008194B00083D3C0008C53C0008BE
:1000E000194B0008194B0008194B0008194B000860
:1000F000194B0008194B0008194B0008194B000850
:10010000194B0008194B0008194B0008194B00083F
:10011000913D0008193E00085D350008194B0008A4
:10012000194B0008194B0008194B0008194B00081F
:1001300000000000000000000000000000000000BF
:1001400000000000000000000000000000000000AF
:10015000000000000000000000000000000000009F
:10016000000000000000000000000000000000008F
:10017000000000000000000000000000000000007F
:10018000000000000000000000000000000000006F
:10019000000000000000000000000000000000005F
:1001A000000000000000000000000000000000004F
:1001B000000000000000000000000000000000003F
:1001C000000000000000000000000000000000002F
:1001D000000000000000000000000000000000001F
:0401E0005FF8E0F1F3
:1001E80010B5054C237833B9044B13B10448AFF369
:1001F80000800123237010BDC80900200000000002
:1002080068AD000808B5034B1BB103490348AFF3B9
:10021800008008BD00000000CC09002068AD00087F
:100228004FF0FF0C1CEAD0521EBF1CEAD15392EAD1
:100238000C0F93EA0C0F6FD01A4480EA010C4002AD
:1002480018BF5FEA41211ED04FF0006343EA501007
:1002580043EA5111A0FB01310CF00040B1F5000F49
:100268003EBF490041EAD3715B0040EA010062F1F8
:100278007F02FD2A1DD8B3F1004F40EBC25008BFE2
:1002880020F00100704790F0000F0CF0004C08BF00
:1002980049024CEA502040EA51207F3AC2BFD2F1CD
:1002A800FF0340EAC250704740F400004FF00003DB
:1002B800013A5DDC12F1190FDCBF00F00040704715
:1002C800C2F10002410021FA02F1C2F1200200FA53
:1002D80002FC5FEA310040F1000053EA4C0308BF1A
:1002E80020EADC70704792F0000F00F0004C02BF6B
:1002F800400010F4000F013AF9D040EA0C0093F0E6
:10030800000F01F0004C02BF490011F4000F013B3F
:10031800F9D041EA0C018FE70CEAD15392EA0C0FAD
:1003280018BF93EA0C0F0AD030F0004C18BF31F018
:10033800004CD8D180EA010000F00040704790F0EE
:10034800000F17BF90F0004F084691F0000F91F092
:10035800004F14D092EA0C0F01D142020FD193EA58
:100368000C0F03D14B0218BF084608D180EA0100E0
:1003780000F0004040F0FE4040F40000704740F0BC
:10038800FE4040F44000704781F0004102E000BFA9
:1003980083F0004330B54FEA41044FEA430594EA3D
:1003A800050F08BF90EA020F1FBF54EA000C55EA78
:1003B800020C7FEA645C7FEA655C00F0E2804FEA49
:1003C8005454D4EB5555B8BF6D420CDD2C4480EA2B
:1003D800020281EA030382EA000083EA010180EA5B
:1003E800020281EA0303362D88BF30BD11F0004FA9
:1003F8004FEA01314FF4801C4CEA113102D04042DF
:1004080061EB410113F0004F4FEA03334CEA133319
:1004180002D0524263EB430394EA050F00F0A78031
:10042800A4F10104D5F1200E0DDB02FA0EFC22FA2C
:1004380005F2801841F1000103FA0EF2801843FA20
:1004480005F359410EE0A5F120050EF1200E012A11
:1004580003FA0EFC28BF4CF0020C43FA05F3C0184F
:1004680051EBE37101F0004507D54FF0000EDCF1C8
:10047800000C7EEB00006EEB0101B1F5801F1BD371
:10048800B1F5001F0CD349085FEA30004FEA3C0C75
:1004980004F101044FEA445212F5800F80F09A806B
:1004A800BCF1004F08BF5FEA500C50F1000041EB6F
:1004B800045141EA050130BD5FEA4C0C404141EB73
:1004C8000101013C28BFB1F5801FE9D291F0000F6E
:1004D80004BF01460020B1FA81F308BF2033A3F11D
:1004E8000B03B3F120020CDA0C3208DD02F1140C14
:1004F800C2F10C0201FA0CF021FA02F10CE002F14F
:100508001402D8BFC2F1200C01FA02F120FA0CFC47
:10051800DCBF41EA0C019040E41AA2BF01EB045190
:10052800294330BD6FEA04041F3C1CDA0C340EDC8E
:1005380004F11404C4F1200220FA04F001FA02F3D1
:1005480040EA030021FA04F345EA030130BDC4F18F
:100558000C04C4F1200220FA02F001FA04F340EA84
:100568000300294630BD21FA04F0294630BD94F035
:10057800000F83F4801306BF81F480110134013D1C
:100588004EE77FEA645C18BF7FEA655C29D094EA8D
:10059800050F08BF90EA020F05D054EA000C04BF0B
:1005A8001946104630BD91EA030F1EBF00210020F6
:1005B80030BD5FEA545C05D14000494128BF41F095
:1005C800004130BD14F580043CBF01F5801130BDF9
:1005D80001F0004545F0FE4141F470014FF0000084
:1005E80030BD7FEA645C1ABF194610467FEA655C35
:1005F8001CBF0B46024650EA013406BF52EA0335D7
:1006080091EA030F41F4002130BD00BF90F0000FC4
:1006180004BF0021704730B54FF4806404F1320400
:100628004FF000054FF0000150E700BF90F0000FB9
:1006380004BF0021704730B54FF4806404F13204E0
:1006480010F0004548BF40424FF000013EE700BFB0
:1006580042004FEAE2014FEA31014FEA02701FBF40
:1006680012F07F4393F07F4F81F06051704732F072
:100678007F4208BF704793F07F4F04BF41F40021C9
:10068800704730B54FF4607401F0004521F0004127
:100698001CE700BF50EA010208BF704730B54FF0B1
:1006A80000050AE050EA010208BF704730B511F0B2
:1006B800004502D5404261EB41014FF4806404F1EA
:1006C80032045FEA915C3FF4D8AE4FF003025FEA70
:1006D800DC0C18BF03325FEADC0C18BF033202EBF4
:1006E800DC02C2F1200300FA03FC20FA02F001FA4E
:1006F80003FE40EA0E0021FA02F11444BDE600BFF1
:100708004FEA4102B2F1E04324BFB3F5001CDCF12B
:10071800FE5C0DD901F0004C4FEAC0024CEA507063
:10072800B2F1004F40EB830008BF20F00100704792
:1007380011F0804F21D113F13872BCBF01F0004095
:10074800704741F480114FEA5252C2F11802C2F1C7
:10075800200C10FA0CF320FA02F018BF40F0010048
:100768004FEAC1234FEAD32303FA0CFC40EA0C00FA
:1007780023FA02F34FEA4303CCE77FEA625307D137
:1007880050EA01331EBF4FF0FE4040F4400070476E
:1007980001F0004040F0FE4040F40000704700BF08
:1007A80080F0004002E000BF81F0004142001FBF1E
:1007B8005FEA410392EA030F7FEA226C7FEA236C27
:1007C8006AD04FEA1262D2EB1363C1BFD21841401C
:1007D80048404140B8BF5B42192B88BF704710F0B2
:1007E800004F40F4000020F07F4018BF404211F055
:1007F800004F41F4000121F07F4118BF494292EABD
:10080800030F3FD0A2F1010241FA03FC10EB0C00E8
:10081800C3F1200301FA03F100F0004302D5494275
:1008280060EB4000B0F5000F13D3B0F1807F06D322
:1008380040084FEA310102F10102FE2A51D2B1F11A
:10084800004F40EBC25008BF20F0010040EA03000F
:100858007047490040EB0000013A28BFB0F5000F8F
:10086800EDD2B0FA80FCACF1080CB2EB0C0200FA45
:100878000CF0AABF00EBC25052421843BCBFD04094
:100888001843704792F0000F81F4000106BF80F40E
:1008980000000132013BB5E74FEA41037FEA226CD1
:1008A80018BF7FEA236C21D092EA030F04D092F09C
:1008B800000F08BF0846704790EA010F1CBF0020D0
:1008C800704712F07F4F04D1400028BF40F000402D
:1008D800704712F100723CBF00F50000704700F04D
:1008E800004343F0FE4040F4000070477FEA226274
:1008F80016BF08467FEA23630146420206BF5FEA45
:10090800412390EA010F40F4800070474FF0000344
:1009180004E000BF10F0004348BF40425FEA000C0B
:1009280008BF704743F0964301464FF000001CE0B3
:1009380050EA010208BF70474FF000030AE000BF09
:1009480050EA010208BF704711F0004302D5404247
:1009580061EB41015FEA010C02BF844601460020B9
:1009680043F0B64308BFA3F18053A3F50003BCFAD4
:100978008CF2083AA3EBC25310DB01FA02FC634481
:1009880000FA02FCC2F12002BCF1004F20FA02F288
:1009980043EB020008BF20F00100704702F120027B
:1009A80001FA02FCC2F1200250EA4C0021FA02F2DC
:1009B80043EB020008BF20EADC7070474FF0FF3CB1
:1009C80006E000BF4FF0010C02E000BF4FF0010C41
:1009D8004DF804CD4FEA40024FEA41037FEA226C0A
:1009E80018BF7FEA236C11D001B052EA530C18BF2C
:1009F80090EA010F58BFB2EB030088BFC81738BF91
:100A08006FEAE17018BF40F0010070477FEA226C7E
:100A180002D15FEA402C05D17FEA236CE4D15FEA7A
:100A2800412CE1D05DF8040B704700BF84460846AE
:100A38006146FFE70FB5FFF7C9FF002848BF10F16F
:100A4800000F0FBD4DF808EDFFF7F4FF0CBF0120B4
:100A580000205DF808FB00BF4DF808EDFFF7EAFF3E
:100A680034BF012000205DF808FB00BF4DF808EDF9
:100A7800FFF7E0FF94BF012000205DF808FB00BFEE
:100A88004DF808EDFFF7D2FF94BF012000205DF874
:100A980008FB00BF4DF808EDFFF7C8FF34BF012081
:100AA80000205DF808FB00BF4FEA4002B2F1FE4F9C
:100AB8000FD34FF09E03B3EB12620DD94FEA002318
:100AC80043F0004310F0004F23FA02F018BF4042F1
:100AD80070474FF00000704712F1610F01D14202D8
:100AE80005D110F0004008BF6FF0004070474FF08C
:100AF80000007047844641EA000313F0030349D11C
:100B0800403A23D30B6803604B6843608B6883606B
:100B1800CB68C3600B6903614B6943618B6983616F
:100B2800CB69C3610B6A03624B6A43628B6A836257
:100B3800CB6AC3620B6B03634B6B43638B6B83633F
:100B4800CB6BC36340304031403ADBD230320BD3F9
:100B58000B6803604B6843608B688360CB68C36035
:100B680010301031103AF3D20C3205D351F8043B4F
:100B780040F8043B043AF9D2043208D0D2071CBF2B
:100B880011F8013B00F8013B01D30B880380604654
:100B9800704700BF082A13D38B07B1D010F00303A6
:100BA800AED0C3F10403D21ADB071CBF11F8013B16
:100BB80000F8013BA4D331F8023B20F8023B9FE741
:100BC800043AD9D3013A11F8013B00F8013BF9D2B4
:100BD8000B7803704B7843708B788370604670474E
:100BE80070B54FF0FF0C4CF4E06C1CEA11541DBFBB
:100BF8001CEA135594EA0C0F95EA0C0F00F0DEF886
:100C08002C4481EA030621EA4C5123EA4C5350EA6A
:100C1800013518BF52EA033541F4801143F48013BB
:100C280038D0A0FB02CE4FF00005E1FB02E506F04C
:100C38000042E0FB03E54FF00006E1FB03569CF0A1
:100C4800000F18BF4EF0010EA4F1FF04B6F5007FA7
:100C580064F5407404D25FEA4E0E6D4146EB060619
:100C680042EAC62141EA55514FEAC52040EA5E50A2
:100C78004FEACE2EB4F1FD0C88BFBCF5E06F1ED84C
:100C8800BEF1004F08BF5FEA500E50F1000041EB83
:100C9800045170BD06F0004646EA010140EA020030
:100CA80081EA0301B4EB5C04C2BFD4EB0C0541EA52
:100CB800045170BD41F480114FF0000E013C00F367
:100CC800AB8014F1360FDEBF002001F0004170BD8B
:100CD800C4F10004203C35DA0C341BDC04F11404A4
:100CE800C4F1200500FA05F320FA04F001FA05F230
:100CF80040EA020001F0004221F0004110EBD370FD
:100D080021FA04F642EB06015EEA430E08BF20EA28
:100D1800D37070BDC4F10C04C4F1200500FA04F3CB
:100D280020FA05F001FA04F240EA020001F000415D
:100D380010EBD37041F100015EEA430E08BF20EAD0
:100D4800D37070BDC4F1200500FA05F24EEA020E18
:100D580020FA04F301FA05F243EA020321FA04F047
:100D680001F0004121FA04F220EA020000EBD370FE
:100D78005EEA430E08BF20EAD37070BD94F0000FFE
:100D88000FD101F00046400041EB010111F4801F32
:100D980008BF013CF7D041EA060195F0000F18BFE3
:100DA800704703F00046520043EB030313F4801F1F
:100DB80008BF013DF7D043EA0603704794EA0C0FD9
:100DC8000CEA135518BF95EA0C0F0CD050EA4106EF
:100DD80018BF52EA4306D1D181EA030101F000416C
:100DE8004FF0000070BD50EA410606BF1046194694
:100DF80052EA430619D094EA0C0F02D150EA0136A0
:100E080013D195EA0C0F05D152EA03361CBF1046E0
:100E180019460AD181EA030101F0004141F0FE417F
:100E280041F470014FF0000070BD41F0FE4141F403
:100E3800780170BD70B54FF0FF0C4CF4E06C1CEA03
:100E480011541DBF1CEA135594EA0C0F95EA0C0FB8
:100E580000F0A7F8A4EB050481EA030E52EA033573
:100E68004FEA013100F088804FEA03334FF0805594
:100E780045EA131343EA12634FEA022245EA1115C1
:100E880045EA10654FEA00260EF000419D4208BF72
:100E9800964244F1FD0404F5407402D25B084FEA1F
:100EA8003202B61A65EB03055B084FEA32024FF4CB
:100EB80080104FF4002CB6EB020E75EB030E22BF28
:100EC800B61A754640EA0C005B084FEA3202B6EBE8
:100ED800020E75EB030E22BFB61A754640EA5C0097
:100EE8005B084FEA3202B6EB020E75EB030E22BF27
:100EF800B61A754640EA9C005B084FEA3202B6EB28
:100F0800020E75EB030E22BFB61A754640EADC00E6
:100F180055EA060E18D04FEA051545EA16754FEA48
:100F280006164FEAC30343EA52734FEAC2025FEA66
:100F38001C1CC0D111F4801F0BD141EA00014FF0F5
:100F480000004FF0004CB6E711F4801F04BF0143C6
:100F58000020B4F1FD0C88BFBCF5E06F3FF6AFAEE2
:100F6800B5EB030C04BFB6EB020C5FEA500C50F172
:100F7800000041EB045170BD0EF0004E4EEA1131F5
:100F880014EB5C04C2BFD4EB0C0541EA045170BDFC
:100F980041F480114FF0000E013C90E645EA060E40
:100FA8008DE60CEA135594EA0C0F08BF95EA0C0F6E
:100FB8003FF43BAF94EA0C0F0AD150EA01347FF4B6
:100FC80034AF95EA0C0F7FF425AF104619462CE78D
:100FD80095EA0C0F06D152EA03353FF4FDAE1046F0
:100FE800194622E750EA410618BF52EA43067FF441
:100FF800C5AE50EA41047FF40DAF52EA43057FF4D1
:10100800EBAE12E74FF0FF3C06E000BF4FF0010CDB
:1010180002E000BF4FF0010C4DF804CD4FEA410C3F
:101028007FEA6C5C4FEA430C18BF7FEA6C5C1BD00C
:1010380001B050EA410C0CBF52EA430C91EA030F8D
:1010480002BF90EA020F0020704710F1000F91EAEA
:10105800030F58BF994208BF90422CBFD8176FEAB8
:10106800E37040F0010070474FEA410C7FEA6C5C86
:1010780002D150EA013C07D14FEA430C7FEA6C5C8D
:10108800D6D152EA033CD3D05DF8040B704700BFB9
:101098008446104662468C461946634600E000BF07
:1010A80001B5FFF7B7FF002848BF10F1000F01BDD9
:1010B8004DF808EDFFF7F4FF0CBF012000205DF8A4
:1010C80008FB00BF4DF808EDFFF7EAFF34BF012029
:1010D80000205DF808FB00BF4DF808EDFFF7E0FFC2
:1010E80094BF012000205DF808FB00BF4DF808ED13
:1010F800FFF7CEFF94BF012000205DF808FB00BF7A
:101108004DF808EDFFF7C4FF34BF012000205DF85B
:1011180008FB00BF4FEA410C7FEA6C5C02D150EA41
:10112800013C0AD14FEA430C7FEA6C5C02D152EAD7
:10113800033C02D14FF0000070474FF001007047A8
:101148004FEA410212F5001215D211D56FF47873E7
:10115800B3EB625212D94FEAC12343F0004343EA8A
:10116800505311F0004F23FA02F018BF4042704765
:101178004FF00000704750EA013005D111F00040EF
:1011880008BF6FF0004070474FF00000704700BF85
:1011980053B94AB9002908BF00281CBF4FF0FF31D6
:1011A8004FF0FF3000F076B9ADF1080C6DE904CED0
:1011B80000F006F8DDF804E0DDE9022304B070472A
:1011C8002DE9F047089E0D4604468846002B4DD170
:1011D8008A42944668D9B2FA82F252B101FA02F30D
:1011E800C2F1200120FA01F10CFA02FC41EA0308DD
:1011F80094404FEA1C41B8FBF1F71FFA8CFE01FB43
:10120800178807FB0EF0230C43EA084398420AD9D3
:101218001CEB030307F1FF3580F01E81984240F272
:101228001B81023F63441B1AB3FBF1F001FB10332F
:1012380000FB0EFEA4B244EA0344A6450AD91CEBFF
:10124800040400F1FF3380F00981A64540F20681CD
:10125800644402380021A4EB0E0440EA07401EB1A2
:101268000023D440C6E90043BDE8F0878B4208D983
:10127800002E00F0EE800021C6E900050846BDE812
:10128800F087B3FA83F100294AD1AB4202D38242F4
:1012980000F2FC80841A65EB030301209846002EB7
:1012A800E2D0C6E90048DFE702B9FFDEB2FA82F20F
:1012B800002A40F09180A1EB0C0001214FEA1C4765
:1012C8001FFA8CFEB0FBF7F307FB1300250C45EA69
:1012D80000450EFB03F0A84208D91CEB050503F1F5
:1012E800FF3802D2A84200F2CE8043462D1AB5FB41
:1012F800F7F007FB10550EFB00FEA4B244EA0544C4
:10130800A64508D91CEB040400F1FF3502D2A64516
:1013180000F2B6802846A4EB0E0440EA03409EE79C
:10132800C1F120078B4022FA07FC4CEA030C25FA8E
:1013380007FA4FEA1C49BAFBF9F820FA07F309FB48
:1013480018AA8D401FFA8CFE1D4300FA01F308FB12
:101358000EF02C0C44EA0A44A04202FA01F20BD91E
:101368001CEB040408F1FF3A80F08880A04240F2A8
:101378008580A8F102086444241AB4FBF9F009FB3B
:10138800104400FB0EFEADB245EA0444A64508D958
:101398001CEB040400F1FF356CD2A6456AD902386B
:1013A800644440EA0840A0FB0295A4EB0E04AC425A
:1013B800C846AE4656D353D0002E69D0B3EB0802C8
:1013C80064EB0E0422FA01F304FA07F71F43CC403A
:1013D800C6E90074002147E70CFA02FCC2F12001BB
:1013E80025FA01F34FEA1C4720FA01F195400D4315
:1013F800B3FBF7F107FB11331FFA8CFE280C40EA08
:10140800034001FB0EF3834204FA02F408D91CEBF3
:10141800000001F1FF382FD283422DD902396044F0
:10142800C01AB0FBF7F307FB1300ADB245EA00455D
:1014380003FB0EF0A84208D91CEB050503F1FF38A1
:1014480016D2A84214D9023B6544281A43EA01413E
:1014580038E73146304607E72F46E4E61846F9E60E
:101468004B45A9D2B9EB020865EB0C0E0138A3E78E
:101478004346EAE7284694E74146D1E7D0467BE76A
:101488006444023847E7023B65442FE7084606E70D
:101498003146E9E6704700BF10B504460E4B187890
:1014A8004FF47A73B3FBF0F30C4A1068B0FBF3F017
:1014B80000F07AFA68B90F2C01D901200AE000225D
:1014C80021464FF0FF3000F029FA054B1C60002040
:1014D80000E0012010BD00BF00000020080000202F
:1014E8000400002008B5074A136843F0100313608E
:1014F800032000F001FA0020FFF7CEFF01F0C4FF3F
:10150800002008BD00200240034A1168034B1B78E5
:101518000B441360704700BFE4090020000000205E
:10152800014B1868704700BFE409002070477047F6
:1015380010B5044603685A6812F0200F18D01A68CC
:1015480012F0020F14D0826A12F0100F03D1826ACF
:1015580042F4007282629A6802F46022B2F5602F47
:1015680038D02046FFF7E2FF23686FF012021A60B6
:1015780023685A6812F0800F22D01A6812F0040FFC
:101588001ED0A26A12F0100F03D1A26A42F40052D0
:10159800A2629A6802F4E042B2F5E04F31D05A688C
:1015A80012F4806F05D19A6802F46022B2F5602FB8
:1015B80024D0204600F09EF923686FF00C021A60D0
:1015C80023685A6812F0400F03D01B6813F0010F0C
:1015D80028D110BD227B002AC3D15A6822F02002EC
:1015E8005A60A36A23F48073A362A36A13F4805F2A
:1015F800B7D1A36A43F00103A362B2E7227B002AB2
:10160800D7D15A6822F080025A60A36A23F4805323
:10161800A362A36A13F4807FCBD1A36A43F00103CA
:10162800A362C6E7A36A43F48033A3622046FFF7A8
:101638007EFF23686FF001021A60CAE730B482B0F7
:101648000022019290F82420012A00F0918003469C
:10165800012280F824204A68062A2DD80468606B85
:1016680002EB8202053A4FF01F0C0CFA02FC20EA4A
:101678000C000D6805FA02F2024362630A68092A3F
:101688003AD91C68E06802EB42021E3A4FF0070C98
:101698000CFA02FC20EA0C008D6805FA02F20243FB
:1016A800E2600A68103A012A36D90020002283F83D
:1016B800242002B030BC70470C2A0ED80568286B6D
:1016C80002EB8202233A1F24944020EA04000C68AB
:1016D80004FA02F202432A63D0E70568E86A02EBDB
:1016E8008202413A1F24944020EA04000C6804FA5C
:1016F80002F20243EA62C1E71C68206902EB420277
:101708004FF0070C0CFA02FC20EA0C008D6805FA71
:1017180002F202432261C4E71A681648824205D0E1
:101728009A6A42F020029A620120BFE7906810F49A
:10173800000F1BD1906840F4000090600A68102ADE
:1017480001D00020B2E70C4A12680C49A1FB021232
:10175800920C02EB82025200019202E0019A013AD5
:101768000192019A002AF9D100209FE700209DE705
:1017780002209EE7002401400800002083DE1B436E
:1017880038B503689A6812F0010F01D1002038BDFE
:1017980004469A6822F001029A60FFF7C1FE0546E6
:1017A80023689B6813F0010F0ED0FFF7B9FE431BA7
:1017B800022BF5D9A36A43F01003A362E36A43F04E
:1017C8000103E3620120E2E70020E0E7002800F0DF
:1017D800888070B50446836A002B52D02046FFF7F4
:1017E800CFFFA36A13F0100375D1002873D1A26A42
:1017F80022F4885222F0020242F00202A2626268D7
:10180800266839498E4242D0E1690A43217B42EA7F
:101818004102A568B5F5807F02D0012D3ED01D4656
:1018280094F814C0BCF1010F3BD0716821F46941F0
:10183800294371602568AE682C4931401143A9607D
:10184800A168B1F5807F01D0012902D12369013B4C
:101858001B052568E96A21F470010B43EB622368D4
:101868009968234B0B409A422CD0A36A23F01203A9
:1018780043F01003A362E36A43F00103E36201202B
:101888002EE0C36280F8243001F0AEFCA6E7E169DF
:10189800B1F5402FB9D14FF40021B6E74FF4807568
:1018A800BEE731B9A169013945EA413141F4006522
:1018B800BBE7A16A41F02001A162E16A41F00101A0
:1018C800E162B2E70023E362A36A23F0030343F073
:1018D8000103A36204E0A36A43F01003A36201209A
:1018E80070BD0120704700BF003C0140FDF7E1FFDB
:1018F800FE0E1FFF70470000074AD36823F4E06319
:101908001B041B0C000200F4E060034343F0BF63B8
:1019180043F40033D360704700ED00E000B5194B85
:10192800DB68C3F30223C3F1070CBCF1040F28BF23
:101938004FF0040C03F1040EBEF1060F18D9033B57
:101948004FF0FF3E0EFA0CFC21EA0C0199400EFA0A
:1019580003F322EA0303194300280BDB0901C9B288
:1019680000F1604000F5614080F800135DF804FB69
:101978000023E5E700F00F000901C9B2024B195432
:10198800F4E700BF00ED00E014ED00E0002807DBFD
:1019980000F01F02400901239340024A42F8203018
:1019A800704700BF00E100E00138B0F1807F0BD242
:1019B8004FF0E0235861054AF02182F823100020F7
:1019C800986107221A6170470120704700ED00E016
:1019D80070B582B00024A446B0E0874DAA4210D06A
:1019E80007D9864DAA420CD005F58035AA4208D001
:1019F80013E0A5F58015AA4203D005F57025AA4283
:101A080007D18A68002A62D0012A5BD04361082482
:101A180003E0A5F58015AA42F3D0BEF1FF0F58D810
:101A28000646BEF1FF0F56D84FEA8C0233680F25E1
:101A3800954023EA050304FA02F2134333604B6826
:101A480013F0805F78D06E4B9A6942F001029A6178
:101A58009B6903F001030193019B4FEA9C02951CCB
:101A6800684B53F825600CF003039D000F23AB402F
:101A780026EA0306644B984233D003F58063984204
:101A880000F0988003F58063984200F0958003F594
:101A98008063984200F0928003F58063984200F0DA
:101AA8008F8003F58063984219D006231AE0CC682A
:101AB800B3E7CC680434B0E7CC680834ADE7CC6849
:101AC8000C34AAE703610824A7E70024A5E7042447
:101AD800A3E7061DA5E7ACF108029200A6E70523D7
:101AE80000E00023AB4033430232464D45F8223034
:101AF8004B6813F4803F65D0444A136843EA0E03E9
:101B080013604B6813F4003F62D0404A536843EABD
:101B18000E0353604B6813F4801F5FD03B4A9368F1
:101B280043EA0E0393604B6813F4001F5CD0374AF6
:101B3800D36843EA0E03D3600CF1010C0A6832FA49
:101B48000CF357D0012303FA0CF302EA030E33EA2D
:101B58000202F1D14A68122A3FF63FAF122A3FF635
:101B68005CAF01A555F822F00B1A0008B71A000857
:101B7800C11A0008D31A0008231A0008231A0008FB
:101B8800231A0008231A0008231A0008231A000839
:101B9800231A0008231A0008231A0008231A000829
:101BA800231A0008231A0008231A0008BB1A000881
:101BB800C71A0008012395E7022393E7032391E757
:101BC80004238FE7114A136823EA0E03136098E78A
:101BD8000E4A536823EA0E0353609BE70B4A936847
:101BE80023EA0E0393609EE7084AD36823EA0E03AC
:101BF800D360A1E702B070BD0000221000003110D0
:101C080000100240000001400008014000040140AB
:101C18008368194201D001207047002070470AB13B
:101C280001617047090401617047000082B0084BE8
:101C38001B68084AA2FB03235B0A00FB03F301931A
:101C480000BF019B5A1E0192002BF9D102B07047C8
:101C580008000020D34D6210002800F0F18170B513
:101C680082B00446036813F0010F2CD0994B5B68CF
:101C780003F00C03042B1DD0964B5B6803F00C0398
:101C8800082B12D06368B3F5803F41D0002B55D1A3
:101C980003F1804303F504331A6822F480321A6092
:101CA8001A6822F480221A6037E08A4B5B6813F4C2
:101CB800803FE7D0874B1B6813F4003F03D063686D
:101CC800002B00F0BF81236813F0020F75D0814B01
:101CD8005B6813F00C0F5FD07E4B5B6803F00C035E
:101CE800082B54D02369002B00F08A807A4B0122FC
:101CF8001A60FFF715FC0546764B1B6813F0020FB8
:101D080075D1FFF70DFC401B0228F5D903209EE191
:101D1800704A136843F480331360636843B3FFF772
:101D2800FFFB05466B4B1B6813F4003FCBD1FFF755
:101D3800F7FB401B6428F5D9032088E1B3F5A02FF1
:101D480009D0644B1A6822F480321A601A6822F4A7
:101D580080221A60E1E703F18043A3F53C331A6857
:101D680042F480221A601A6842F480321A60D4E77A
:101D7800FFF7D6FB0546574B1B6813F4003FA2D06C
:101D8800FFF7CEFB401B6428F5D903205FE1514BD8
:101D98005B6813F4803FA5D14E4B1B6813F0020F0C
:101DA80003D02369012B40F04F814A4A136823F07E
:101DB800F803616943EAC1031360236813F0080F4D
:101DC80033D0A369002B5CD0434B0122C3F8802495
:101DD800FFF7A6FB05463F4B5B6A13F0020F21D1C4
:101DE800FFF79EFB401B0228F5D903202FE1394A53
:101DF800136823F0F803616943EAC1031360DCE761
:101E0800354B00221A60FFF78BFB0546314B1B68E8
:101E180013F0020FD1D0FFF783FB401B0228F5D93E
:101E2800032014E10120FFF701FF236813F0040FDA
:101E380000F09680274BDB6913F0805F34D1254B87
:101E4800DA6942F08052DA61DB6903F0805301936A
:101E5800019B0125214B1B6813F4807F26D0E36882
:101E6800012B3DD0002B53D103F1804303F50433FC
:101E78001A6A22F001021A621A6A22F004021A622D
:101E880033E0154B0022C3F88024FFF749FB0546D1
:101E9800104B5B6A13F0020FC7D0FFF741FB401BE2
:101EA8000228F5D90320D2E00025D3E70B4A1368AE
:101EB80043F480731360FFF733FB0646074B1B6838
:101EC80013F4807FCBD1FFF72BFB801B6428F5D957
:101ED8000320BCE0001002400000424200700040B5
:101EE8005F4A136A43F001031362E36833B3FFF7F1
:101EF80017FB06465A4B1B6A13F0020F2FD1FFF748
:101F08000FFB801B41F288339842F3D903209EE0EF
:101F1800052B09D0524B1A6A22F001021A621A6A7A
:101F280022F004021A62E0E74D4B1A6A42F00402FA
:101F38001A621A6A42F001021A62D6E7FFF7F0FA4B
:101F48000646474B1B6A13F0020F08D0FFF7E8FA62
:101F5800801B41F288339842F3D9032077E0E5B932
:101F6800E369002B72D03E4A526802F00C02082A3C
:101F780056D0022B17D03B4B00221A66FFF7D0FA37
:101F88000446374B1B6813F0007F47D0FFF7C8FAA9
:101F9800001B0228F5D9032059E0314AD36923F000
:101FA8008053D361DCE72F4B00221A66FFF7B8FA9B
:101FB80005462B4B1B6813F0007F06D0FFF7B0FADD
:101FC800401B0228F5D9032041E0236AB3F5803F7E
:101FD8001AD023494B6823F47413226A606A0243B7
:101FE80013434B601F4B01221A66FFF799FA044608
:101FF8001B4B1B6813F0007F0ED1FFF791FA001BF3
:102008000228F5D9032022E0154A536823F4003347
:10201800A1680B435360DCE7002018E0002016E0BD
:10202800012B16D00E4B5B6803F48031226A914273
:1020380011D103F47013626A93420ED1002006E0B6
:1020480001207047012002E0012000E0002002B0DA
:1020580070BD0120FBE70120F9E70120F7E700BF89
:10206800001002400000424286B0164B0FCB0DF123
:10207800180C0CE90F0040F20123ADF80430124BA4
:102088005B6803F00C02082A02D0104806B07047BB
:10209800C3F38342624412F8100C13F4803F0CD04F
:1020A800094B5B68C3F34043634413F8143C074A85
:1020B80002FB00F0B0FBF3F0E8E7054B03FB00F090
:1020C800E4E700BF80AD00080010024000127A006B
:1020D80000093D00002800F0A08070B50D460446B8
:1020E800524B1B6803F007038B420BD24F4A13680D
:1020F80023F007030B431360136803F007038B42B5
:1021080040F08D80236813F0020F17D013F0040FEE
:1021180004D0474A536843F4E0635360236813F0DC
:10212800080F04D0424A536843F460535360404A4E
:10213800536823F0F003A1680B435360236813F03E
:10214800010F31D06368012B20D0022B25D0384AEB
:10215800126812F0020F64D035494A6822F003026F
:1021680013434B60FFF7DCF90646314B5B6803F01D
:102178000C036268B3EB820F16D0FFF7D1F9801B0E
:1021880041F288339842F0D9032045E0284A126882
:1021980012F4003FE0D101203EE0254A126812F017
:1021A800007FD9D1012037E0204B1B6803F00703DB
:1021B800AB420AD91D4A136823F007032B43136067
:1021C800136803F00703AB422DD1236813F0040F03
:1021D80006D0174A536823F4E063E1680B43536061
:1021E800236813F0080F07D0114A536823F460538B
:1021F800216943EAC1035360FFF736FF0C4B5B6864
:10220800C3F303130B4AD35CD8400B4B18600B4B3A
:102218001868FFF741F9002070BD012070470120C0
:10222800FAE70120F8E70120F6E700BF00200240A6
:102238000010024094AD00080800002004000020AF
:10224800014B1868704700BF0800002008B5FFF769
:10225800F7FF044B5B68C3F30223034AD35CD840FF
:1022680008BD00BF00100240A4AD000808B5FFF784
:10227800E7FF044B5B68C3F3C223034AD35CD8402F
:1022880008BD00BF00100240A4AD000870B582B0C0
:102298000446036813F0010F36D03F4BDB6913F097
:1022A800805F49D13C4BDA6942F08052DA61DB69E0
:1022B80003F080530193019B0125384B1B6813F4ED
:1022C800807F3BD0344B1B6A13F4407313D0626891
:1022D80002F440729A420ED02F4A136A23F44070D7
:1022E8002F490126C1F840640026C1F840641062F5
:1022F80013F0010F36D1284A136A23F4407361683A
:102308000B431362002D3ED1236813F0020F06D051
:10231800214A536823F44043A1680B435360236860
:1023280013F0100F34D01C4A536823F480036169FA
:102338000B43536000202CE00025BEE7174A1368C2
:1023480043F480731360FFF7EBF80646134B1B68E2
:1023580013F4807FB6D1FFF7E3F8801B6428F5D922
:10236800032016E0FFF7DCF806460B4B1B6A13F058
:10237800020FC0D1FFF7D4F8801B41F2883398428E
:10238800F3D9032005E0D36923F08053D361BBE779
:10239800002002B070BD00BF001002400070004075
:1023A8000000424230B4036A23F001030362036A67
:1023B8004268846924F073040D682C4323F0020CEE
:1023C8008B6843EA0C03104DA84203D005F500655D
:1023D800A84205D123F00803CD682B4323F004035A
:1023E800094DA84203D005F50065A84205D122F49D
:1023F80040724D692A438D692A43426084614A6864
:102408004263036230BC7047002C014030B4036A59
:1024180023F480730362036A4268C46924F0730C6E
:102428000C6844EA0C0523F400738C6843EA04231F
:10243800114CA04203D004F50064A04206D123F455
:102448000063CC6843EA042323F480630A4CA04267
:1024580003D004F50064A04207D122F440524C692D
:1024680042EA04128C6942EA04124260C5614A6871
:10247800C263036230BC7047002C014030B4036A69
:1024880023F480530362036A4468C26922F4E64273
:102498000D6842EA052223F400538D6843EA0533A8
:1024A800094DA84203D005F50065A84204D124F4DB
:1024B80080444D6944EA85144460C2614A680264F4
:1024C800036230BC704700BF002C014010B4036A9F
:1024D800046A24F001040462846924F0F00C4CEAD4
:1024E800021223F00A030B438261036210BC704797
:1024F80010B4046A24F0100404628469036A24F4A2
:10250800704C4CEA023223F0A00343EA01138261C3
:10251800036210BC7047836823F070030B4343F0D9
:10252800070383607047000090F83D30DBB2012B51
:102538002AD1022380F83D300368154A934218D007
:1025480002F50062934214D0B3F1804F11D0A2F586
:10255800983293420DD002F58062934209D002F579
:102568008062934205D01A6842F001021A60002086
:1025780070479A6802F00702062A07D01A6842F0E4
:1025880001021A6000207047012070470020704740
:10259800002C014090F83D30DBB2012B2FD10223F3
:1025A80080F83D300268D36843F00103D3600368C4
:1025B800154A934218D002F50062934214D0B3F141
:1025C800804F11D0A2F5983293420DD002F5806267
:1025D800934209D002F58062934205D01A6842F00E
:1025E80001021A60002070479A6802F00702062A62
:1025F80007D01A6842F001021A60002070470120D3
:1026080070470020704700BF002C0140704770479A
:1026180070477047704710B5044603681A6912F08E
:10262800020F11D0DA6812F0020F0DD06FF002021B
:102638001A610123037703689B6913F0030F70D0B5
:10264800FFF7E6FF0023237723681A6912F0040FC7
:1026580012D0DA6812F0040F0ED06FF004021A617B
:102668000223237723689B6913F4407F5FD02046B9
:10267800FFF7CEFF0023237723681A6912F0080FAB
:1026880012D0DA6812F0080F0ED06FF008021A6143
:10269800042323772368DB6913F0030F4ED0204609
:1026A800FFF7B6FF0023237723681A6912F0100F8B
:1026B80012D0DA6812F0100F0ED06FF010021A6103
:1026C800082323772368DB6913F4407F3DD0204635
:1026D800FFF79EFF0023237723681A6912F0010F82
:1026E80003D0DA6812F0010F36D123681A6912F0A4
:1026F800800F03D0DA6812F0800F34D123681A698A
:1027080012F0400F03D0DA6812F0400F32D123687C
:102718001A6912F0200F03D0DA6812F0200F30D1B6
:1027280010BDFFF774FF2046FFF773FF8AE72046C6
:10273800FFF76DFF2046FFF76CFF9BE72046FFF78A
:1027480066FF2046FFF765FFACE72046FFF75FFF0F
:102758002046FFF75EFFBDE76FF001021A612046D1
:1027680002F014F9C1E76FF080021A61204600F008
:102778007FFBC3E76FF040021A612046FFF74AFF6C
:10278800C5E76FF020021A61204600F070FBC7E72A
:102798000368244A904212D002F5006290420ED09B
:1027A800B0F1804F0BD0A2F59832904207D002F5D5
:1027B8008062904203D002F58062904203D123F0F8
:1027C80070034A681343174A904212D002F5006218
:1027D80090420ED0B0F1804F0BD0A2F598329042C3
:1027E80007D002F58062904203D002F580629042E1
:1027F80003D123F44073CA68134323F080034A6962
:10280800134303608B68C3620B688362054B98426D
:1028180003D003F50063984201D10B6903630123D8
:1028280043617047002C014040B310B5044690F84E
:102838003D30F3B1022384F83D30214651F8040BB2
:10284800FFF7A6FF012384F8463084F83E3084F869
:102858003F3084F8403084F8413084F8423084F8BE
:10286800433084F8443084F8453084F83D30002003
:1028780010BD80F83C3000F031FFDBE701207047E5
:1028880040B310B5044690F83D30F3B1022384F804
:102898003D30214651F8040BFFF77AFF012384F8F5
:1028A800463084F83E3084F83F3084F8403084F86D
:1028B800413084F8423084F8433084F8443084F856
:1028C800453084F83D30002010BD80F83C30FFF7DB
:1028D8009DFEDBE701207047002857D070B50D46F4
:1028E800044690F83D30002B4BD0022384F83D304D
:1028F8002268936823F4804323F0070393602146FA
:1029080051F8040BFFF744FF21688A688B690E6A47
:102918002868104323F4407C2CF0030CAA68AB69A8
:1029280042EA032343EA0C0323F47C4323F0FC0329
:10293800EA69D5F80CC04CEA022C4CEA030C2A6A66
:1029480013032A6943EA021343EA0C0326F022061A
:102958006A686D6942EA05123243886021688B61B2
:1029680023681A62012384F8463084F83E3084F8DC
:102978003F3084F8423084F8433084F83D300020FA
:1029880070BD80F83C3000F0F9FEAEE701207047DA
:1029980030B4036A23F010030362036A446882694F
:1029A80022F4E6420D6842EA052223F020038D68EE
:1029B80043EA0513114DA84203D005F50065A84266
:1029C80006D123F08003CD6843EA051323F04003C2
:1029D8000A4DA84203D005F50065A84207D124F4A2
:1029E80040644D6944EA85048D6944EA850444607D
:1029F80082614A688263036230BC7047002C0140E0
:102A080038B590F83C30012B60D004460D460123C0
:102A180080F83C300C2A1AD8DFE802F00719191997
:102A28001D1919193119191944000068FFF7BAFC62
:102A38002268936943F0080393612268936923F03D
:102A4800040393612268936929690B439361002009
:102A580084F83C0038BD0068FFF79AFF2268936944
:102A680043F4006393612268936923F4806393615C
:102A780022689369296943EA01239361E7E70068BB
:102A8800FFF7C4FC2268D36943F00803D3612268C6
:102A9800D36923F00403D3612268D36929690B43FE
:102AA800D361D4E70068FFF7E9FC2268D36943F4EF
:102AB8000063D3612268D36923F48063D3612268F9
:102AC800D369296943EA0123D361C0E70220C1E73A
:102AD80010B4846824F47F4C42EA03220A4342EA91
:102AE8000C02826010BC704790F83C30012B66D015
:102AF80010B50446012380F83C30022380F83D30AD
:102B08000268936823F47F4323F0770393600B688C
:102B1800602B40D022D8402B47D00BD9502B0ED158
:102B2800CA6849680068FFF7D1FC50212068FFF7A0
:102B3800F2FC04E0202B0CD008D9302B09D001235B
:102B480084F83D30002084F83C0010BD0BB1102BF8
:102B5800F5D119462068FFF7DEFCF0E7702B0ED0A0
:102B6800B3F5005FEBD1CB684A6889680068FFF766
:102B7800AFFF2268936843F480439360DFE7CB6834
:102B88004A6889680068FFF7A3FF2268936843F0E2
:102B980077039360D3E7CA6849680068FFF7A8FC21
:102BA80060212068FFF7B7FCC9E7CA684968006870
:102BB800FFF78CFC40212068FFF7ADFCBFE702203F
:102BC800704701F01F01012303FA01FC036A23EA9D
:102BD8000C030362036A02FA01F10B4303627047B4
:102BE80010B50446084600293AD194F83E30DBB2C5
:102BF800013B18BF0123002B66D1002849D10223CD
:102C080084F83E30012201462068FFF7DAFF236886
:102C18002F4A934203D002F50062934203D15A6CC3
:102C280042F400425A642368294A934241D002F58B
:102C3800006293423DD0B3F1804F3AD0A2F598326A
:102C4800934236D002F58062934232D002F5806218
:102C580093422ED01A6842F001021A60002032E036
:102C6800042908D008290DD094F84130DBB2013B83
:102C780018BF0123BFE794F83F30DBB2013B18BF10
:102C88000123B8E794F84030DBB2013B18BF0123B9
:102C9800B1E7042805D0082807D0022384F841307A
:102CA800B0E7022384F83F30ACE7022384F84030D1
:102CB800A8E79A6802F00702062A07D01A6842F0C5
:102CC80001021A60002010BD0120FCE70020FAE78D
:102CD800002C014038B5044690F83E00C0B294F884
:102CE8003F3094F84220D2B294F843C00D46B1B9AF
:102CF800012849D1012A48D1022384F83E3084F8BA
:102D080042307DB3042D39D0012200212068FFF71D
:102D180058FF012204212068FFF753FF27E0DBB2A8
:102D28005FFA8CFC042912D0012833D1012B2CD155
:102D3800012A31D1BCF1010F30D1022384F83E3091
:102D480084F83F3084F8423084F84330D9E7012BC7
:102D58001CD1BCF1010F1BD1022384F83F3084F849
:102D68004330CEE7012200212068FFF72AFF2268BE
:102D7800136843F001031360002006E001220421D8
:102D88002068FFF71EFFF2E7012038BD0120FCE7AD
:102D98001846FAE70120F8E71846F6E71046F4E780
:102DA80090F83C30012B34D010B4012380F83C302B
:102DB800022380F83D3003685A689C6822F0700C42
:102DC8000A6842EA0C025A600368134A934212D016
:102DD80002F5006293420ED0B3F1804F0BD0A2F5FA
:102DE8009832934207D002F58062934203D002F5ED
:102DF8008062934204D124F080044A6814439C60A2
:102E0800012380F83D30002380F83C30184610BC80
:102E180070470220704700BF002C014090F83C30FA
:102E2800012B22D0012380F83C30CB6823F4407377
:102E38008A68134323F480634A68134323F40063C6
:102E48000A68134323F480530A69134323F4005395
:102E58004A69134323F48043CA69134302685364DD
:102E6800002380F83C3018467047022070477047AE
:102E78007047000010B504460268136923F44053F4
:102E8800C1680B43136183680269134342691A439B
:102E98000168CB6823F4B05323F00C031343CB60D1
:102EA8000268536923F4407381690B4353610268D4
:102EB800134B9A4220D0FFF7C9F9024602EB82026F
:102EC80002EB820263689B00B2FBF3F20D48A0FBA1
:102ED80002314909642303FB11231B013233A0FB90
:102EE80003235B0903F0F00202EB011203F00F0366
:102EF800216813448B6010BDFFF7B8F90246DDE77F
:102F0800003801401F85EB512DE9F84305460F466F
:102F180016469946DDF820802C68246837EA0403B1
:102F28000CBF4FF0010C4FF0000CB4451FD1B8F1A5
:102F3800FF3FF1D0B8F1000F05D0FEF7F1FAA0EB92
:102F480009004045E8D92A68D36823F4D073D360D0
:102F58002A68536923F001035361202385F8393027
:102F680085F83A30002385F83830032000E0002047
:102F7800BDE8F88358B310B5044690F839300BB360
:102F8800242384F839302268D36823F40053D360AB
:102F98002046FFF76FFF2268136923F490431361FB
:102FA8002268536923F02A0353612268D36843F4E3
:102FB8000053D3600020E063202384F8393084F87C
:102FC8003A3010BD80F8383000F028FDD8E70120ED
:102FD80070472DE9F04182B01E4690F83930DBB2D7
:102FE800202B54D104460D469046002953D0002A80
:102FF80053D090F83830012B51D0012380F8383065
:103008000023C363212380F83930FEF789FA074685
:10301800A4F82480A4F82680A368B3F5805F05D0BF
:103028004FF00008002384F8383012E0236913B108
:103038004FF00008F6E7A8460025F3E738F8023B0A
:103048002268C3F308035360E28C92B2013A92B249
:10305800E284E38C9BB273B100963B460022802148
:103068002046FFF751FFE0B9002DE7D015F8012BF6
:1030780023685A60E8E700963B4600224021204634
:10308800FFF742FF78B9202384F8393000E00220A6
:1030980002B0BDE8F0810120FAE70120F8E702203C
:1030A800F6E70320F4E70320F2E72DE9F04182B0C8
:1030B8001E4690F83A30DBB2202B5BD104460D4611
:1030C800904600295AD0002A5AD090F83830012B5F
:1030D80058D0012380F838300023C363222380F8B6
:1030E8003A30FEF71DFA0746A4F82C80A4F82E8083
:1030F800A368B3F5805F05D04FF00008002384F87B
:10310800383017E0236913B14FF00008F6E7A846F6
:103118000025F3E723685B68C3F3080328F8023B3C
:1031280003E023685B682B700135E28D92B2013AA7
:1031380092B2E285E38D9BB2BBB100963B4600227A
:1031480020212046FFF7E0FEF0B9002DE2D0A36869
:10315800B3F5805FE5D013B92369002BE1D023686C
:103168005B6803F07F032B70DEE7202384F83A3096
:10317800002000E0022002B0BDE8F0810120FAE75B
:103188000120F8E70220F6E70320F4E700B585B050
:1031980000230193029303931148124A026083604B
:1031A800037303754FF46022C26143600123036116
:1031B800FEF70CFB68B90423019301230293002353
:1031C800039301A90648FEF739FA28B905B05DF856
:1031D80004FB00F057F9EEE700F054F9F6E700BFFA
:1031E800E80900200024014000B587B000230293BD
:1031F8000393049305930268154B9A4202D007B0D3
:103208005DF804FB03F56C439A6942F400729A6115
:103218009A6902F400720092009A9A6942F00402D4
:103228009A619B6903F004030193019B10230293A5
:103238000323039302A90748FEF7CAFB002211469D
:103248001220FEF76BFB1220FEF7A0FBD7E700BFAA
:1032580000240140000801402DE9F04389B0002412
:103268000494059406940794354B9A6942F0100229
:103278009A619A6902F010020092009A9A6942F0E3
:1032880020029A619A6902F020020192019A9A69D1
:1032980042F004029A619A6902F004020292029AC8
:1032A8009A6942F008029A619B6903F00803039344
:1032B800039BDFF8909022464FF2C4314846FEF750
:1032C800AEFCDFF8848022464FF484614046FEF766
:1032D800A6FC1E4D2246FB212846FEF7A0FC012233
:1032E8004FF418414046FEF79AFC4FF2C43304935A
:1032F8000127059706940226079604A94846FEF773
:1033080067FB49F62043049305970694079604A99A
:103318004046FEF75DFBFB2304930597069407964A
:1033280004A92846FEF754FB4FF470430493059410
:10333800069404A92846FEF74BFB09B0BDE8F083C4
:10334800001002400010014000080140000C01403C
:1033580030B597B0282200210CA801F005FC002404
:103368000794089409940A940B9401940294039482
:1033780004940594069401220C924FF480330D9323
:1033880010920225139514934FF4E01315930CA88B
:10339800FEF762FC0F230793089509944FF48063A6
:1033A8000A930B94294607A8FEF794FE01954FF45B
:1033B8000043039301A8FEF769FF17B030BD000072
:1033C80008B500F0E1FB144801F070FA012211463B
:1033D800104600F061FD00F00FFC01F0F9FA012041
:1033E80000F0D4FF022000F0D1FF01F021FA002103
:1033F800084600F081FD002001F060FB002000F08D
:10340800DFFE4FF6FF71012001F02AF90022114674
:10341800104600F041FD08BDBC0B002008B5FEF7C2
:1034280061F8FFF795FFFFF717FF00F02BFA00F0A0
:10343800C9F800F0F9F800F029F900F0BBFA00F03B
:10344800D3FAFFF7A3FE00F09BFAFFF7B9FF0C4889
:1034580001F02CFA0021084600F04EFD00215A2008
:1034680000F04AFD4FF47A7000F0A8FB00210846EE
:1034780000F042FD4FF47A7000F0A0FBEEE700BFC9
:103488003C0B00207047000082B00E4B9A6942F056
:1034980001029A619A6902F001020092009ADA69BF
:1034A80042F08052DA61DB6903F080530193019B9B
:1034B800054A536823F0E06343F00073536002B099
:1034C800704700BF00100240000001407047FEE74F
:1034D800FEE7FEE7FEE770477047704708B5FEF75E
:1034E80013F808BD08B50248FEF722F808BD00BF6A
:1034F800E809002008B50248FFF78DF808BD00BFAD
:103508001C0A002008B50248FFF785F808BD00BF6F
:103518001C0A002008B50248FFF77DF808BD00BF67
:103528001C0A002008B50248FFF775F808BD00BF5F
:103538001C0A002008B50248FFF76DF808BD00BF57
:10354800640A002008B50248FFF765F808BD00BF07
:10355800AC0A002008B50248FFF75DF808BD00BFB7
:10356800F40A00200120704708B501F0D3FA1623A9
:1035780003604FF0FF3008BD08B54FF0FF31FFF78B
:10358800F3FFFEE708B503460B4A126842B10A4A40
:10359800106803446A46934206D8074A136008BD78
:1035A800054A06491160F2E701F0B4FA0C230360FA
:1035B8004FF0FF30F3E700BF180A0020B8100020D2
:1035C8007047000000B58DB02422002103A801F047
:1035D800CBFA00230193029312484FF08042026015
:1035E800436083604FF6FF72C26003618361032307
:1035F800039301230593099303A9FFF76DF950B9C4
:1036080000230193029301A90648FFF7C9FB28B9D3
:103618000DB05DF804FBFFF735FFF1E7FFF732FF68
:10362800F6E700BF640A002000B58DB0242200210F
:1036380003A801F099FA0023019302931148124A52
:103648000260436083604FF6FF72C260036183616A
:103658000323039301230593099303A9FFF73CF977
:1036680050B900230193029301A90648FFF798FB7C
:1036780028B90DB05DF804FBFFF704FFF1E7FFF789
:1036880001FFF6E7AC0A00200004004000B583B053
:103698000023009301930F480F4A026009224260F9
:1036A800836041F61F42C2608361FFF7BDF850B9DD
:1036B80000230093019369460648FFF771FB28B978
:1036C80003B05DF804FBFFF7DDFEF1E7FFF7DAFE74
:1036D800F6E700BFF40A00200010004000B583B0F0
:1036E8000368234A934205D0224A93422DD003B05F
:1036F8005DF804FB204B9A6942F400629A619B6969
:1037080003F400630093009B002211461820FEF783
:1037180005F91820FEF73AF9002211461920FEF79C
:10372800FDF81920FEF732F9002211461A20FEF79B
:10373800F5F81A20FEF72AF9002211461B20FEF799
:10374800EDF81B20FEF722F9D1E70B4BDA6942F0BE
:103758001002DA61DB6903F010030193019B002278
:1037680011463620FEF7DAF83620FEF70FF9BEE7E5
:10377800002C0140001000400010024000B589B044
:10378800002304930593069307930368B3F1804FCE
:1037980005D0254A934225D009B05DF804FB03F50E
:1037A8000433DA6942F00102DA61DA6902F00102EF
:1037B8000092009A9A6942F004029A619B6903F0A8
:1037C80004030193019B0323049304A91748FEF7FC
:1037D800FFF8002211461C20FEF7A0F81C20FEF777
:1037E800D5F8D9E7124BDA6942F00202DA61DA69F0
:1037F80002F002020292029A9A6942F004029A6165
:103808009B6903F004030393039BC023049304A957
:103818000648FEF7DDF8002211461D20FEF77EF867
:103828001D20FEF7B3F8B7E7000400400008014088
:103838000010024000B587B000230293039304935D
:10384800059302680D4B9A4202D007B05DF804FB5D
:1038580003F564439A6942F004029A619B6903F094
:1038680004030193019B4FF44073029302230393D3
:10387800059302A90248FEF7ABF8E6E7002C0140E1
:103888000008014010B596B00024129413941494C3
:1038980015941094119409940A940B940C940D9413
:1038A8000E940F942022214601A801F05DF93248B8
:1038B800324B036001234360846041F61F43C360B9
:1038C800046144618461FEF7AFFF00283ED14FF4E4
:1038D8008053129312A92848FFF706F9002838D117
:1038E8002548FEF7CDFF002836D100231093119309
:1038F80010A92148FFF754FA002830D16023099312
:1039080000220A920B920C920D920E920F9209A924
:103918001948FFF775F828BB042209A91648FFF7CC
:103928006FF810BB0023019302930393049305934C
:103938004FF400520692089301A90F48FFF76EFA58
:10394800B0B90D48FFF776FF16B010BDFFF79AFD26
:10395800BDE7FFF797FDC3E7FFF794FDC5E7FFF75E
:1039680091FDCBE7FFF78EFDD6E7FFF78BFDD9E793
:10397800FFF788FDE5E700BF1C0A0020002C014086
:1039880008B50A480A4B03604FF4E133436000234B
:103998008360C36003610C2242618361C361FFF7E6
:1039A800E9FA00B908BDFFF76DFDFBE7BC0B002085
:1039B800004C004008B50A480A4B03604FF4E13355
:1039C800436000238360C36003610C22426183610A
:1039D800C361FFF7CFFA00B908BDFFF753FDFBE756
:1039E8003C0B00200044004008B50A480A4B03601D
:1039F8004FF4E133436000238360C36003610C220A
:103A080042618361C361FFF7B5FA00B908BDFFF7EA
:103A180039FDFBE77C0B00200048004030B58BB037
:103A28000023069307930893099303684F4A934228
:103A380007D04F4A934236D04E4A934263D00BB0D8
:103A480030BD4D4BDA6942F40022DA61DA6902F4DA
:103A580000220092009A9A6942F010029A619B69CA
:103A680003F010030193019B4FF480630693022334
:103A7800079303230993414D06A92846FDF7A8FF9C
:103A88004FF40063069300240794089406A9284677
:103A9800FDF79EFF224621463420FDF73FFF3420E4
:103AA800FDF774FFCBE7344BDA6942F40032DA6190
:103AB800DA6902F400320292029A9A6942F0040228
:103AC8009A619B6903F004030393039B0423069301
:103AD8000223079303230993294D06A92846FDF7D6
:103AE80077FF0823069300240794089406A928461C
:103AF800FDF76EFF224621462620FDF70FFF262000
:103B0800FDF744FF9BE71C4BDA6942F48022DA6137
:103B1800DA6902F480220492049A9A6942F008024F
:103B28009A619B6903F008030593059B4FF4806332
:103B380006930223079303230993124D06A92846E7
:103B4800FDF746FF4FF4006306930024079408949A
:103B580006A92846FDF73CFF224621462720FDF707
:103B6800DDFE2720FDF712FF69E700BF004C00408B
:103B7800004400400048004000100240001001408E
:103B880000080140000C0140074B1B68074AA2FBD4
:103B98000312D20C06490A70064AA2FB03239B09AA
:103BA800054A1360704700BF0800002083DE1B43EE
:103BB800000C0020D34D6210FC0B002010B44FF015
:103BC800E0235C690B4A126802FB00FC9B69002138
:103BD80004E0E01A02441144614509D21A464FF044
:103BE800E0239B699A42FAD0F3D9D21A1144F3E739
:103BF80010BC7047FC0B00200B4B1B68DA6842F4C2
:103C08000052DA60094A1168CA6842F02002CA60A4
:103C1800074A1168CA6842F02002CA60DA6842F0AE
:103C28002002DA60704700BFBC0B00203C0B00206C
:103C38007C0B00201C4B1B6813F0200F32D010B5F2
:103C4800194B5C68E4B2194B1B6883B9184B1B68A5
:103C58005BB1432C0CD0174A1368591C1160164AE3
:103C6800D454144B1B68C72B09D0532C0FD010BD4C
:103C78000E4B01221A600E4B00221A60F1E7002158
:103C88000B4B1960C7220C4800F06EFFEDE7084B9C
:103C98001B68002BEBD1064B01221A60054B002252
:103CA8001A60E4E7704700BF00440040E80C0020B9
:103CB8000C0C0020E40C00201C0C00202B4B1B6873
:103CC80013F0200F51D010B5284B5C68E4B2284B94
:103CD8001B6883B9274B1B685BB1432C0CD0264A61
:103CE8001368591C1160254AD454234B1B68C72BF1
:103CF80027D0532C2ED010BD1D4B01221A60002353
:103D08001F4A13601F4A13601C4B1B78012B05D0F8
:103D1800022B11D0174B00221A60E6E7174A937856
:103D28001B0217490B60D07803440B605278022AB3
:103D3800F0D15B420B60EDE7104B5A78114B1A60DB
:103D4800E8E7C72200210D4800F00EFF094B0022CA
:103D58001A60CEE7074B1B68002BCCD1054B01221C
:103D68001A60054B00221A60C5E7704700480040FA
:103D7800B80D0020100C0020B40D0020EC0C002021
:103D8800080C0020040C00201C4B1B6813F0200FAB
:103D980032D010B5194B5C68E4B2194B1B6883B973
:103DA800184B1B685BB1432C0CD0174A1368591C7D
:103DB8001160164AD454144B1B68C72B09D0532CD6
:103DC8000FD010BD0E4B01221A600E4B00221A6054
:103DD800F1E700210B4B1960C7220C4800F0C4FE24
:103DE800EDE7084B1B68002BEBD1064B01221A604C
:103DF800054B00221A60E4E7704700BF004C004002
:103E0800880E0020140C0020840E0020BC0D002019
:103E18001C4B1B6813F0200F32D010B5194B5C688F
:103E2800E4B2194B1B6883B9184B1B685BB1432C70
:103E38000CD0174A1368591C1160164AD454144BF5
:103E48001B68C72B09D0532C0FD010BD0E4B012275
:103E58001A600E4B00221A60F1E700210B4B196023
:103E6800C7220C4800F080FEEDE7084B1B68002BCA
:103E7800EBD1064B01221A60054B00221A60E4E7D9
:103E8800704700BF00500040580F0020180C002059
:103E9800540F00208C0E002038B50D461446A0B1F2
:103EA80000224FF400411348FDF7B9FEA5B10022E6
:103EB8004FF400610F48FDF7B2FEA4B100224FF4A1
:103EC80080510C48FDF7ABFE38BD01224FF400418C
:103ED8000848FDF7A4FEE9E701224FF40061054810
:103EE800FDF79DFEE9E701224FF480510148FDF7F7
:103EF80096FEE9E700080140014B186059607047D9
:103F0800600F002010B5012810D0E0B9012926D093
:103F1800B1F1FF3F17D1002204211848FDF77FFEB9
:103F2800012208211648FDF77AFE0CE001290BD082
:103F3800134C012211462046FDF771FE0022022192
:103F48002046FDF76CFE10BD0D4C00222046FDF703
:103F580066FE012202212046FDF761FEF3E70122F9
:103F6800042100F1804000F58830FDF758FE00225A
:103F780008210348FDF753FEE5E700BF00100140A4
:103F8800000C014010B50C4601280BD0A8B9002937
:103F98001ADD0121FFF7B6FF002CB8BF64420D4BB4
:103FA8009C630AE0002909DD01210846FFF7AAFF02
:103FB800002CB8BF6442074B5C6310BD4FF0FF3163
:103FC8000120FFF79FFFF3E74FF0FF310020FFF7D5
:103FD80099FFE1E7002C014030B9094B586A40428B
:103FE80000B200225A627047012801D000207047B1
:103FF8004FF08043586A00B200225A62704700BFEF
:1040080000040040000000002DE9F04F87B000F0E8
:1040180009FD8046624C2068FCF708FB82468B4607
:104028006068FCF703FB5AA3D3E90023FCF7D8FD2B
:1040380004460D4602460B4650465946FCF7A8F979
:1040480006460F46DFF85C91D9F80000FCF7EEFA57
:1040580051A3D3E90023FCF7C3FDCDE904010246CF
:104068000B4630463946FCF793F906460F4640465C
:10407800FCF7EEFA02460B46CDE9022330463946F4
:10408800FCF788F9FCF73CFB0746474EB060224630
:104098002B4650465946FCF77DF902460B46DDE9AA
:1040A8000401FCF777F9DDE90223FCF771F9FCF765
:1040B80027FB044670610025C9F800503B49384683
:1040C800FCF7AEF8B06039492046FCF7A9F87061F2
:1040D8002846FFF781FF84B2644224B20120FFF72B
:1040E8007BFF80B2404200B2314BB3F90050631BF2
:1040F800002BB8BF5B42B3F5C87F02DC2C4B1C8099
:1041080025462C4BB3F90060831B002BB8BF5B42DC
:10411800B3F5C87F02DC274B18800646224CD4F83A
:1041280008802846FCF7F6FB0146234F42463846EE
:1041380000F0C9FAFCF7B8FC0FFA80F8D4F814902C
:104148003046FCF7E7FB01464A4607F1480000F015
:10415800BAFAFCF7A9FC07B241460020FFF712FFA4
:1041680039460120FFF70EFF6769A068FCF79CFC41
:1041780004463846FCF798FC009023463246294608
:104188000E4800F043FD07B0BDE8F08FAFF30080A4
:10419800333333333333D33F9A9999999999B93F44
:1041A800600F0020080C00206C0F0020666686C097
:1041B800840F0020860F0020880F0020ACAD000877
:1041C800014B1870704700BF5C0F002038B50C46D3
:1041D800012802D002282DD038BD002220212D48E8
:1041E800FDF71DFD00250EE0002240212A48FDF7BD
:1041F80016FD01224FF480712748FDF710FD640079
:10420800E4B20135EDB2072D0ED800224FF48071CB
:104218002148FDF704FD14F0800FE5D0012240216C
:104228001D48FDF7FCFCE4E7012220211948FDF7B1
:10423800F6FCD1E701224FF400511748FDF7EFFCD7
:1042480000250EE0012280211348FDF7E8FC012239
:104258004FF400711048FDF7E2FC6400E4B2013548
:10426800EDB2072D0ED800224FF400710A48FDF771
:10427800D6FC14F0800FE5D1002280210648FDF716
:10428800CEFCE4E700224FF400510348FDF7C7FCD9
:10429800A2E700BF000C01400010014038B50446F9
:1042A8000D4601280AD001224FF480410648FDF747
:1042B800B6FC29462046FFF789FF38BD0122402178
:1042C8000248FDF7ACFCF4E700100140000C014087
:1042D80038B504460D46012802D0022806D038BD5C
:1042E800012240210948FDF79AFC05E001224FF41C
:1042F80080410748FDF793FCC5F307212046FFF7E7
:1043080065FFE9B22046FFF761FFE8E7000C0140CE
:104318000010014038B504460D4601280AD0002295
:104328004FF480410648FDF77AFC29462046FFF7FE
:104338004DFF38BD002240210248FDF770FCF4E72C
:1043480000100140000C0140F8B504460F46154620
:104358001E462A21FFF7DEFFB91C2046FFF7B8FFEB
:10436800B11C2046FFF7B4FF2B212046FFF7D2FFF0
:10437800691C2046FFF7ACFF069901312046FFF77C
:10438800A7FF2C212046FFF7C5FFF8BD38B5044626
:10439800012800F02F81022800F0438111212046D6
:1043A800FFF7B8FF7820FFF709FCB1212046FFF797
:1043B800B1FF05212046FFF771FF3C212046FFF79A
:1043C8006DFF3C212046FFF769FFB2212046FFF729
:1043D800A1FF05212046FFF761FF3C212046FFF79A
:1043E8005DFF3C212046FFF759FFB3212046FFF728
:1043F80091FF05212046FFF751FF3C212046FFF79A
:104408004DFF3C212046FFF749FF05212046FFF7D5
:1044180045FF3C212046FFF741FF3C212046FFF79E
:104428003DFFB4212046FFF775FF03212046FFF723
:1044380035FFC0212046FFF76DFF28212046FFF7F2
:104448002DFF08212046FFF729FF04212046FFF70A
:1044580025FFC1212046FFF75DFFC0212046FFF759
:104468001DFFC2212046FFF755FF0D212046FFF70B
:1044780015FF00212046FFF711FFC3212046FFF753
:1044880049FF8D212046FFF709FF2A212046FFF723
:1044980005FFC4212046FFF73DFF8D212046FFF789
:1044A800FDFEEE212046FFF7F9FEC5212046FFF765
:1044B80031FF1A212046FFF7F1FE36212046FFF78B
:1044C80029FF00212046FFF7E9FEE0212046FFF7FB
:1044D80021FF04212046FFF7E1FE22212046FFF7B5
:1044E800DDFE07212046FFF7D9FE0A212046FFF707
:1044F800D5FE2E212046FFF7D1FE30212046FFF7BA
:10450800CDFE25212046FFF7C9FE2A212046FFF7C8
:10451800C5FE28212046FFF7C1FE26212046FFF7C9
:10452800BDFE2E212046FFF7B9FE3A212046FFF7AF
:10453800B5FE00212046FFF7B1FE01212046FFF716
:10454800ADFE03212046FFF7A9FE13212046FFF701
:10455800A5FEE1212046FFF7DDFE04212046FFF7F6
:104568009DFE16212046FFF799FE06212046FFF7FB
:1045780095FE0D212046FFF791FE2D212046FFF7DD
:104588008DFE26212046FFF789FE23212046FFF7CE
:1045980085FE27212046FFF781FE27212046FFF7C9
:1045A8007DFE25212046FFF779FE2D212046FFF7C5
:1045B80075FE3B212046FFF771FE00212046FFF7DC
:1045C8006DFE01212046FFF769FE04212046FFF712
:1045D80065FE13212046FFF761FE3A212046FFF7CA
:1045E80099FE05212046FFF759FE29212046FFF7AD
:1045F80091FE38BD184D002280212846FDF70FFB9B
:104608001420FFF7DBFA012280212846FDF707FB7B
:104618001420FFF7D3FA012210212846FDF7FFFAEC
:10462800BCE60E4D00224FF400412846FDF7F7FA8C
:104638001420FFF7C3FA01224FF400412846FDF782
:10464800EEFA1420FFF7BAFA01224FF480512846F7
:10465800FDF7E5FAA2E600BF000C0140001001409A
:10466800F0B583B006460D469F2300937F230022B2
:104678001146FFF769FE002707E029463046FFF795
:1046880027FE01349F2CF8D901377F2F01D8002449
:10469800F8E703B0F0BDA8B1A2B10170116841609C
:1046A800516881609268C260002242628262C2627E
:1046B8000361009B43610023036343638363C36314
:1046C800036443647047002800F0A0802DE9F84394
:1046D8000446076C4764C66B06641046FCF764F82A
:1046E8000546E0632378002B46D16168FBF798FD07
:1046F80080466062A1682846FBF792FDA16AFCF734
:1047080055F80746A062636BA363236B6363314666
:104718002846FCF749F82063E168FBF781FD054668
:10472800E062666931463846FCF7B4F988B1A6629A
:10473800A16A4046FCF73AF801462846FCF736F8E5
:104748000546206226693146FCF7A4F958B126626D
:1047580014E006F1004631463846FCF77DF900289A
:10476800E6D0A662E4E706F1004631462846FCF7A3
:1047780073F918B1266201E0012B02D0206ABDE866
:10478800F883D4F804803146FCF70EF80146404619
:10479800FBF746FD80466062A1682846FBF740FDAE
:1047A8008146A062636BA363236B63633146304623
:1047B800FBF7FCFF01462846FBF7F6FF01463846A3
:1047C800FBF7F4FF2063E168FBF72AFD0546E0628A
:1047D80049464046FBF7EAFF01462846FBF7E6FF55
:1047E800216AFBF7E3FF0546206226693146FCF79C
:1047F80051F908B12662C1E706F10046314628465C
:10480800FCF72AF90028B9D02662B7E700207047DC
:1048180068B10022C2630264426402634263826335
:104828000022C2628262426202628261C261704791
:104838002DE9F04182B0154C2046FFF7E9FF04F15D
:1048480048063046FFF7E4FF114D2846FFF7E0FF22
:10485800104F4FF00008CDF800803B460E4A01216A
:104868002046FFF718FFCDF800803B460B4A012190
:104878003046FFF710FF0A4B00930A4B0A4A002103
:104888002846FFF708FF02B0BDE8F081880F002036
:104898001810002000C0DA45C8AD0008BCAD0008FB
:1048A8000000204100002042D4AD000808B5054BA7
:1048B8001860054B1868002302221946806800F02A
:1048C800B9F908BD601000201C000020022801D89A
:1048D8000120704708B500F01DF909230360002086
:1048E80008BD000010B5013801280AD814464FF059
:1048F800FF3392B207480068FEF76BFB40B92046C9
:1049080010BD00F007F9092303604FF0FF30F7E707
:104918000520F5E760100020022801D80020704724
:1049280008B500F0F7F8092303604FF0FF3008BD21
:1049380008B500F0EFF8092303604FF0FF3008BD19
:1049480008B548B94FF0FF33012208480068FEF760
:10495800ACFB40B9012008BD00F0DCF80923036076
:104968004FF0FF30F7E70520F5E700BF60100020A3
:1049780008B5022804D84FF400534B60002008BD46
:1049880000F0C8F809230360F8E7000008B50D4BEC
:10499800834200D008BD0C4B1A6801321A601B68AC
:1049A800322B08D0084B1A68084B9A42F2DD064BA6
:1049B80000221A60EEE7FFF727FB034B00221A607C
:1049C800F0E700BFF40A002064100020F8FFFF7F22
:1049D80070B5104C2046FDF7A7FD0F4E3046FDF789
:1049E800A3FD0E4D2846FDF79FFD0D48FDF7D2FDAE
:1049F80000212046FEF7F4F804212046FEF7F0F8DF
:104A08003C213046FEF766F93C212846FEF762F95C
:104A180070BD00BF1C0A0020640A0020AC0A0020F8
:104A2800F40A0020224B1B780BB90020704710B500
:104A38004FF480511F48FDF7EBF801281BD00024E4
:104A48004FF480411B48FDF7E3F801281AD04FF4D2
:104A580000411848FDF7DCF801281AD04FF400513E
:104A68001448FDF7D5F801281AD04FF07F51204699
:104A7800FBF7D6FB10BD00210F4B1868FBF796FE1D
:104A88000446DDE70C4B59682046FBF78FFE0446C9
:104A9800DDE7094B99682046FBF788FE0446DDE709
:104AA800054BD9682046FBF781FE0446DDE700BFC9
:104AB80068100020000C01400C000020014B187009
:104AC800704700BF68100020002103E00B4B5B58C3
:104AD800435004310A480B4B42189A42F6D30A4A0B
:104AE80002E0002342F8043B084B9A42F9D3FEF750
:104AF80067FD00F015F8FEF791FC7047F4B1000867
:104B080000000020C8090020C8090020B4100020B7
:104B1800FEE70000014B1868704700BF1C0000202A
:104B280070B50D4E0D4D761BB61006D0002455F805
:104B3800043B01349847A642F9D1094E094D06F0C5
:104B48000FF9761BB61006D0002455F8043B013443
:104B58009847A642F9D170BDE8B10008E8B100084D
:104B6800F0B10008E8B10008830730B548D0541EFA
:104B7800002A3FD00346CAB201E0013C3AD303F809
:104B8800012B9D07F9D1032C2DD9CDB245EA052576
:104B98000F2C45EA054536D9A4F1100222F00F0C76
:104BA80003F1200EE6444FEA121C03F1100242E919
:104BB800045542E9025510327245F8D10CF1010250
:104BC80014F00C0F03EB021204F00F0C13D0ACF12D
:104BD800040323F003030433134442F8045B9342B1
:104BE800FBD10CF003042CB1CAB21C4403F8012B0E
:104BF8009C42FBD130BD64461346002CF4D1F9E742
:104C080003461446BFE71A46A446E0E70FB400B5CA
:104C1800074A83B004AB106853F8042B81680193EA
:104C280000F0E0F803B05DF804EB04B0704700BF93
:104C38001C0000202DE9F043694C0E46D4F8008092
:104C4800174604461D4683B0B8F1000F03D0D8F8C4
:104C58003830002B77D0022F05D0012F00F2AC801E
:104C6800002DC0F2A980636EDA0752D5214640466E
:104C780002F0AEFF216B41B104F14003994202D02A
:104C8800404603F0D1F8002323630023B4F90CC095
:104C9800A3611CF0800F636064D12CF44A6C2CF083
:104CA800030C022FA4F80CC06AD001AB2146404681
:104CB8006A4603F059FAA3891843A081002D2FD022
:104CC800002E2ED0D8F83830002B38D0009BC4E9FD
:104CD8000465AB42B4F90C3026601CBF43F4006392
:104CE800A381012F04BF43F00103A3819AB213F0FB
:104CF80008032CD0D1075DD500216D42A561656EF2
:104D0800A16015F0010527D00025284603B0BDE8AD
:104D1800F083A3899B05A9D4A06D03F0B1F9A5E799
:104D2800009D284603F050FA0646002847D0A3897C
:104D380043F08003A381D8F83830002BC6D1404611
:104D480002F07AFFC2E7404602F076FF83E7A360ED
:104D5800656E15F00105D7D1930524D5284603B013
:104D6800BDE8F0834046216903F05EF8B4F90CC051
:104D7800022F2CF44A6C2CF0030CA4F80CC094D12C
:104D880000250021012204F1430323602361636E9F
:104D98004CF0020CD807A4F80CC0A1606261DDD405
:104DA8001CF4007FDAD1A06D03F06CF9284603B03B
:104DB800BDE8F083A560CBE74FF0FF35CEE7DDF81F
:104DC8000090A94504D0484603F0FEF9064620B9EC
:104DD8004FF0FF35B4F90CC0D3E74D46A7E700BF45
:104DE8001C0000202DE9F04FD5B01C4691460791D4
:104DF8000546099003F03CF902680E941046179294
:104E080004F01EF916901DB1AB6B002B00F01D824B
:104E1800079A536EDD0740F12D81B2F90C2091B24B
:104E28008F0409D4079B42F400529A8191B21A4622
:104E38005B6E23F4005353660E0740F1C080079B56
:104E48001B69002B00F0BB8001F01A030A2B00F04D
:104E5800C48000242BAB224698464D46CDE9294410
:104E68002893129400230024CDE914342B78CDE93B
:104E78001922CDE91B2218920B92002B00F08F818A
:104E8800AA4604E01AF8013F002B00F0BB80252B4E
:104E9800F8D1BAEB050640F0B9809AF80030002B3B
:104EA80000F07D8100234FF0FF324FF02B092024C2
:104EB8001F469AF8016008920AF1010A8DF88330BA
:104EC8000A930AF1010AA6F120035A2B00F2E180A5
:104ED800DFE813F00503DF00DF000003DF00DF0079
:104EE800DF00DE02DF00DF006A006E02DF0055022D
:104EF8007802DF0073025B005B005B005B005B0015
:104F08005B005B005B005B00DF00DF00DF00DF00B1
:104F1800DF00DF00DF006C01DF00EA01C4016C0183
:104F28006C016C01DF00DF00DF00DF00D002DF0072
:104F3800DF002302DF00DF00DF00F801DF0092025C
:104F4800DF00DF008707DF00DF00DF00DF00DF00B2
:104F5800DF00DF00DF006C01DF00EA01C6016C0141
:104F68006C016C01B602C601BF01DF00C302DF009D
:104F78005A022502A402BF01DF00F801720084076B
:104F8800DF00DF006507DF0072000022A6F13003B2
:104F98001AF8016B02EB820203EB4202A6F130031E
:104FA800092BF5D90A928EE70E9B53F8042B002A99
:104FB8000A920E93C0F2E0819AF8006081E7079D9B
:104FC8000998294601F0FCFC002841F04D83A98985
:104FD80001F01A030A2B7FF43CAF079AB2F90E309E
:104FE800002BFFF636AF536ED80702D4890541F17E
:104FF800488123464A460799099855B0BDE8F04FBD
:1050080001F09CBCBAEB050600F0C9802A9BC8E9F0
:10501800005633442A93299B0133072B299305DC37
:1050280008F108080B9B33440B9336E70799099856
:1050380028AA04F0A3F880B90DF1AC08F2E70799A3
:10504800099828AA04F09AF8002800F099800D9B86
:105058001BB11946099802F0E7FE079A536ED90763
:1050680040F1E88093895B0601F10A830B9855B0FB
:10507800BDE8F08F079BB3F90C20900591B23FF57E
:10508800CFAE1D46986D02F0FBFFB5F90C2091B22A
:10509800C6E6002E00F08380012300228DF8EC6024
:1050A80006933BAD8DF883200C930D9208920F92D6
:1050B8001392109217F0020302D00699023106915A
:1050C80017F0840B07D10A990698A1EB0009B9F1EA
:1050D800000F00F390832A9C82B10122C8F80420B3
:1050E800299A013401320DF18301072A2A94299261
:1050F800C8F8001000F3D88308F108087BB1022330
:10510800C8F80430299B0234013321AA072B2A94BA
:105118002993C8F8002000F3D58308F10808BBF1EB
:10512800800F00F08882089B0C9AA3EB020BBBF15E
:10513800000F00F3CB82FB0500F11F820C9BC8F81F
:1051480000501C44C8F80430299B2A940133072BCB
:10515800299300F3448308F10808780705D50A9BCA
:10516800069A9D1A002D00F3B983DDE90A230699F2
:105178008A42ACBF9B185B180B93002C7FF45FAF7F
:10518800002329930D9B1BB10D99099802F04CFE41
:1051980055460DF1AC082B78002B7FF471AE2A9B95
:1051A800002B41F010820023299356E70E9B07330A
:1051B80023F00702F2E80234CDE91434DDE91434AF
:1051C80024F00044994618460E9221464FF0FF32CB
:1051D800AB4BFBF79FFF002840F018854846214657
:1051E8004FF0FF32A64BFBF777FF002840F00E8503
:1051F800DDE9140100220023FBF764FF002840F0DA
:1052080065879DF88320002103209E4D9E4B27F043
:1052180080070D910690472EC8BF1D4608910C9037
:105228000F9113911091002A3FF444AF069B01336C
:1052380006933FE7079B9B899A053FF514AF079CA8
:10524800A06D02F01FFFA3890DE7099802F0F4FC96
:10525800DEE59AF8006047F0200732E647F01007CD
:10526800BA060E9B40F16E84073323F007031A46F3
:105278005B6852F8084B99460E92002BC0F26F8477
:10528800089B013300F0FB8254EA090327F0800BE6
:1052980040F0F682089B002B40F0F7825F4600231F
:1052A80054AD08930C933DE1012000220E9B06901B
:1052B80053F8041B3BAD8DF883208DF8EC100E934A
:1052C8000C90F2E64FF000090E9C089B54F8045B22
:1052D8008DF88390002D00F0A1855A1C00F0A5865A
:1052E8001A464946284603F023FA0D90002801F093
:1052F80050810D9B9DF883205B1B0C9323EAE3737D
:10530800CDF820900E940693CDF83490CDF83C90CB
:10531800CDF84C90CDF8409085E747F0100717F08E
:10532800200900F0F2830E9B073323F00703D3F81C
:10533800049053F8084B0E93002327F4806B002247
:105348008DF88320089A511C00F0D48054EA090192
:105358002BF0800740F0CD80002A40F00486002B17
:105368009DD11BF001030C9300F0308430230DF223
:105378004F158DF84F31D5E00A9B5B420A939AF896
:10538800006047F004079CE5BD0600F1FD84FC06BB
:1053980000F1EE85780600F1B286B90540F1E8859E
:1053A8000E9B0B9953F8042B554611700E93F2E699
:1053B8009AF800608DF8839083E59AF8006047F0CA
:1053C80080077EE5524612F8016B2A2E01F08D8285
:1053D800A6F13003092B924698BF002201F2E5801E
:1053E8001AF8016B02EB820203EB4202A6F13003CA
:1053F800092BF5D9089266E547F0100B1BF0200938
:1054080000F091830E9B073323F007031A4652F8E6
:10541800084BD3F804900E92012390E730227826A7
:105428000E9B8DF8842053F8044B184A0E934FF0C6
:105438000009022347F0020B8DF8856018927EE779
:105448009AF80060682E03BF9AF8016047F4007765
:105458000AF1010A47F0400733E59AF800606C2E1C
:1054680003BF9AF8016047F020070AF1010A47F0E4
:10547800100726E59AF8006047F0080721E500BF05
:10548800FFFFEF7FE4AD0008E8AD0008F4AD0008C9
:10549800099E304602F0ECFD436818461B9303F062
:1054A800CFFD034630461C931E4602F0E1FD83689B
:1054B8001993002E3FF480AD199B002B3FF47CAD6F
:1054C800199B1B78002B3FF477AD9AF8006047F4DE
:1054D8008067F6E49AF8006047F00107F1E49DF868
:1054E8008330002B7FF468AD9AF800608DF8834014
:1054F800E7E4BB46012B00F0C381022B54AD1FD15A
:10550800189A04F00F03D35C240944EA09744FEA9B
:10551800191905F8013D54EA0903F2D15F4654AB65
:105528005B1B0C93089A0C9900238A42B8BF0A4661
:105538000D9306920F939DF883201393109372E6B0
:1055480004F00703E40844EA49744FEAD909303300
:1055580054EA09012A4605F8013DF1D11BF0010F73
:10556800DCD0302BDAD03023023A05F8013C54ABBA
:105578009B1A5F4615460C93D4E7652E40F3E980E5
:10558800DDE9140100220023FBF792FD002800F05A
:10559800E1810123C8F80430299BC04A0133013452
:1055A800072B2A942993C8F8002000F3BF8408F138
:1055B8000808229B129A934280F2DC82169B179A63
:1055C8001C44C8E90023299B2A940133072B2993FB
:1055D80000F3178408F10808129B5D1E002D7FF761
:1055E800BCAD102D41F35D81DFF8B49222464946E7
:1055F8001026B946299B0F46DDF824B0079C05E024
:1056080008F10808103D102D40F39D840133103235
:10561800072BC8E90076CDE92932F1DD2146584645
:1056280028AA03F0ABFD00287FF411ADDDE929328B
:105638000DF1AC08E6E70A9B069AA3EB020BBBF157
:10564800000F7FF770ADBBF1100F41F35280DFF808
:105658005092204641464C46A8461023299A079D59
:10566800DDF8249006E0ABF1100BBBF1100F01F14F
:10567800080119DD01321030072AC1E90043CDE9DC
:105688002920F0DD2946484628AA03F077FD00289E
:105698007FF4DDACDDE92920ABF1100BBBF1100F75
:1056A8004FF010032BA9E5DC4546A1468846044681
:1056B80001325C44072ACDE92924C8F80090C8F8CB
:1056C80004B000F3918308F108082CE5BBF1100F32
:1056D80040F3E384DFF8C891204641464C46A8468B
:1056E8001023299A079DDDF8249006E0ABF1100BF2
:1056F800BBF1100F01F1080119DD01321030072A42
:10570800C1E90043CDE92920F0DD2946484628AA09
:1057180003F034FD00287FF49AACDDE92920ABF1D1
:10572800100BBBF1100F4FF010032BA9E5DC454619
:10573800A1468846044601325C44072ACDE929245B
:10574800C8F80090C8F804B000F3D28108F108083E
:10575800F1E4129B012B40F382810123299E01343D
:105768001E44072EC8F800502A94C8F80430299619
:1057780000F36C8308F10808169B0136179A1C443D
:10578800072EC8E90023CDE9296400F36C8308F1EA
:1057980008080022DDE914010023FBF789FC002832
:1057A80040F07A81129B0136013B01351C44072EDB
:1057B800C8F800502996C8F804302A9400F35F818D
:1057C80008F108081A9B01361C44C8F80430072E53
:1057D80024ABCDE92964C8F800307FF7BCAC079941
:1057E800099828AA03F0CAFC00287FF430AC2A9C48
:1057F8000DF1AC08B1E4B9F1100F40F3C686DDE94C
:1058080029214046CDE91D36B84610244F46079E4B
:10581800A946099D04E0103F102F00F1080016DD8D
:105828000132204B1031072AC0E90034CDE9292183
:10583800F1DD3146284628AA03F0A0FC00287FF4B1
:1058480006ACDDE92921103F102F2BA8E8DC4D46D6
:10585800DDE91D36B9464746804609EB01040132A9
:105868001049072ACDE92924C8F80490C8F800107F
:1058780000F340839DF8832008F108082CE4BB4618
:105888000A2C79F1000380F0FB82012330345F4653
:105898008DF84F410C930DF24F1543E624AE0008E6
:1058A80038AE000828AE00080799099828AA1D9361
:1058B80003F064FC00287FF4CAAB2A9C1D9B0DF101
:1058C800AC081BE40799099828AA03F057FC00289C
:1058D8007FF4BDAB2A9C0DF1AC0820E4102D40F3F9
:1058E800BE861026299B099FDDF81C9004E0103D18
:1058F800102D08F1080817DD0133BA4A1034072BB8
:10590800C8E90026CDE92934F1DD4946384628AAF8
:1059180003F034FC00287FF49AABDDE92934103D0C
:10592800102D0DF1AC08E7DC0133AE4A2C44072BEF
:10593800CDE92934C8F80450C8F800207FF715AC21
:105948000799099828AA03F019FC00287FF47FAB6F
:105958002A9C0AE42299002940F31081DDF840903E
:10596800129B9945A8BF9946B9F1000F0BDD299BF9
:105978004C440133072BC8E900592A94299300F3B2
:10598800818508F10808109EB9F1000FA8BFA6EBA1
:105998000906002E00F3F582DDF840B07905AB4426
:1059A80000F1AC84229B129A934202DBFA0740F181
:1059B8009283169A17991444C8E90012299A2A94CE
:1059C8000132072A299200F3A88508F10808129ADB
:1059D800AE18A6EB0B06D51AAE42A8BF2E46002E6F
:1059E8000DDD299B34440133072BC8F800B0C8F8F3
:1059F80004602A94299300F3FC8508F10808002E16
:105A0800A8BFAD1B002D7FF7A8AB102D40F3498729
:105A1800DFF8D491224649461026B946299B0F46FD
:105A2800DDF824B0079C05E008F10808103D102DAA
:105A380040F3898201331032072BC8E90076CDE99B
:105A48002932F1DD2146584628AA03F097FB0028A1
:105A58007FF4FDAADDE929320DF1AC08E6E7FE077F
:105A68003FF57BAE0123299E01341E44072EC8F85A
:105A780000502A94C8F8043029967FF7A1AE0799F8
:105A8800099828AA03F07AFB00287FF4E0AADDE948
:105A980029640DF1AC0895E6129B5D1E002D7FF779
:105AA80091AE102D40F31987224608974FF0100B3E
:105AB800DFF83491099C079F05E008F10808103DBC
:105AC800102D40F3C78201361032072EC8E9009B1B
