:020000040800F2
:1000000000C00020F1460008892F00088B2F00084F
:100010008D2F00088F2F0008912F0008000000008E
:10002000000000000000000000000000932F000806
:10003000952F000800000000972F0008992F000856
:100040003947000839470008394700083947000890
:100050003947000839470008394700083947000880
:100060003947000839470008394700083947000870
:100070003947000839470008394700083947000860
:100080003947000839470008394700083947000850
:100090003947000839470008394700083947000840
:1000A000A12F0008B12F0008C12F0008D12F000890
:1000B000E12F000839470008394700083947000890
:1000C0003947000839470008394700083947000810
:1000D0003947000839470008B93700084138000897
:1000E00039470008394700083947000839470008F0
:1000F00039470008394700083947000839470008E0
:1001000039470008394700083947000839470008CF
:10011000C938000851390008F12F00083947000894
:1001200039470008394700083947000839470008AF
:1001300000000000000000000000000000000000BF
:1001400000000000000000000000000000000000AF
:10015000000000000000000000000000000000009F
:10016000000000000000000000000000000000008F
:10017000000000000000000000000000000000007F
:10018000000000000000000000000000000000006F
:10019000000000000000000000000000000000005F
:1001A000000000000000000000000000000000004F
:1001B000000000000000000000000000000000003F
:1001C000000000000000000000000000000000002F
:1001D000000000000000000000000000000000001F
:0401E0005FF8E0F1F3
:1001E80010B5054C237833B9044B13B10448AFF369
:1001F80000800123237010BDC80900200000000002
:1002080088A9000808B5034B1BB103490348AFF39D
:10021800008008BD00000000CC09002088A9000863
:100228004FF0FF0C1CEAD0521EBF1CEAD15392EAD1
:100238000C0F93EA0C0F6FD01A4480EA010C4002AD
:1002480018BF5FEA41211ED04FF0006343EA501007
:1002580043EA5111A0FB01310CF00040B1F5000F49
:100268003EBF490041EAD3715B0040EA010062F1F8
:100278007F02FD2A1DD8B3F1004F40EBC25008BFE2
:1002880020F00100704790F0000F0CF0004C08BF00
:1002980049024CEA502040EA51207F3AC2BFD2F1CD
:1002A800FF0340EAC250704740F400004FF00003DB
:1002B800013A5DDC12F1190FDCBF00F00040704715
:1002C800C2F10002410021FA02F1C2F1200200FA53
:1002D80002FC5FEA310040F1000053EA4C0308BF1A
:1002E80020EADC70704792F0000F00F0004C02BF6B
:1002F800400010F4000F013AF9D040EA0C0093F0E6
:10030800000F01F0004C02BF490011F4000F013B3F
:10031800F9D041EA0C018FE70CEAD15392EA0C0FAD
:1003280018BF93EA0C0F0AD030F0004C18BF31F018
:10033800004CD8D180EA010000F00040704790F0EE
:10034800000F17BF90F0004F084691F0000F91F092
:10035800004F14D092EA0C0F01D142020FD193EA58
:100368000C0F03D14B0218BF084608D180EA0100E0
:1003780000F0004040F0FE4040F40000704740F0BC
:10038800FE4040F44000704781F0004102E000BFA9
:1003980083F0004330B54FEA41044FEA430594EA3D
:1003A800050F08BF90EA020F1FBF54EA000C55EA78
:1003B800020C7FEA645C7FEA655C00F0E2804FEA49
:1003C8005454D4EB5555B8BF6D420CDD2C4480EA2B
:1003D800020281EA030382EA000083EA010180EA5B
:1003E800020281EA0303362D88BF30BD11F0004FA9
:1003F8004FEA01314FF4801C4CEA113102D04042DF
:1004080061EB410113F0004F4FEA03334CEA133319
:1004180002D0524263EB430394EA050F00F0A78031
:10042800A4F10104D5F1200E0DDB02FA0EFC22FA2C
:1004380005F2801841F1000103FA0EF2801843FA20
:1004480005F359410EE0A5F120050EF1200E012A11
:1004580003FA0EFC28BF4CF0020C43FA05F3C0184F
:1004680051EBE37101F0004507D54FF0000EDCF1C8
:10047800000C7EEB00006EEB0101B1F5801F1BD371
:10048800B1F5001F0CD349085FEA30004FEA3C0C75
:1004980004F101044FEA445212F5800F80F09A806B
:1004A800BCF1004F08BF5FEA500C50F1000041EB6F
:1004B800045141EA050130BD5FEA4C0C404141EB73
:1004C8000101013C28BFB1F5801FE9D291F0000F6E
:1004D80004BF01460020B1FA81F308BF2033A3F11D
:1004E8000B03B3F120020CDA0C3208DD02F1140C14
:1004F800C2F10C0201FA0CF021FA02F10CE002F14F
:100508001402D8BFC2F1200C01FA02F120FA0CFC47
:10051800DCBF41EA0C019040E41AA2BF01EB045190
:10052800294330BD6FEA04041F3C1CDA0C340EDC8E
:1005380004F11404C4F1200220FA04F001FA02F3D1
:1005480040EA030021FA04F345EA030130BDC4F18F
:100558000C04C4F1200220FA02F001FA04F340EA84
:100568000300294630BD21FA04F0294630BD94F035
:10057800000F83F4801306BF81F480110134013D1C
:100588004EE77FEA645C18BF7FEA655C29D094EA8D
:10059800050F08BF90EA020F05D054EA000C04BF0B
:1005A8001946104630BD91EA030F1EBF00210020F6
:1005B80030BD5FEA545C05D14000494128BF41F095
:1005C800004130BD14F580043CBF01F5801130BDF9
:1005D80001F0004545F0FE4141F470014FF0000084
:1005E80030BD7FEA645C1ABF194610467FEA655C35
:1005F8001CBF0B46024650EA013406BF52EA0335D7
:1006080091EA030F41F4002130BD00BF90F0000FC4
:1006180004BF0021704730B54FF4806404F1320400
:100628004FF000054FF0000150E700BF90F0000FB9
:1006380004BF0021704730B54FF4806404F13204E0
:1006480010F0004548BF40424FF000013EE700BFB0
:1006580042004FEAE2014FEA31014FEA02701FBF40
:1006680012F07F4393F07F4F81F06051704732F072
:100678007F4208BF704793F07F4F04BF41F40021C9
:10068800704730B54FF4607401F0004521F0004127
:100698001CE700BF50EA010208BF704730B54FF0B1
:1006A80000050AE050EA010208BF704730B511F0B2
:1006B800004502D5404261EB41014FF4806404F1EA
:1006C80032045FEA915C3FF4D8AE4FF003025FEA70
:1006D800DC0C18BF03325FEADC0C18BF033202EBF4
:1006E800DC02C2F1200300FA03FC20FA02F001FA4E
:1006F80003FE40EA0E0021FA02F11444BDE600BFF1
:100708004FEA4102B2F1E04324BFB3F5001CDCF12B
:10071800FE5C0DD901F0004C4FEAC0024CEA507063
:10072800B2F1004F40EB830008BF20F00100704792
:1007380011F0804F21D113F13872BCBF01F0004095
:10074800704741F480114FEA5252C2F11802C2F1C7
:10075800200C10FA0CF320FA02F018BF40F0010048
:100768004FEAC1234FEAD32303FA0CFC40EA0C00FA
:1007780023FA02F34FEA4303CCE77FEA625307D137
:1007880050EA01331EBF4FF0FE4040F4400070476E
:1007980001F0004040F0FE4040F40000704700BF08
:1007A80080F0004002E000BF81F0004142001FBF1E
:1007B8005FEA410392EA030F7FEA226C7FEA236C27
:1007C8006AD04FEA1262D2EB1363C1BFD21841401C
:1007D80048404140B8BF5B42192B88BF704710F0B2
:1007E800004F40F4000020F07F4018BF404211F055
:1007F800004F41F4000121F07F4118BF494292EABD
:10080800030F3FD0A2F1010241FA03FC10EB0C00E8
:10081800C3F1200301FA03F100F0004302D5494275
:1008280060EB4000B0F5000F13D3B0F1807F06D322
:1008380040084FEA310102F10102FE2A51D2B1F11A
:10084800004F40EBC25008BF20F0010040EA03000F
:100858007047490040EB0000013A28BFB0F5000F8F
:10086800EDD2B0FA80FCACF1080CB2EB0C0200FA45
:100878000CF0AABF00EBC25052421843BCBFD04094
:100888001843704792F0000F81F4000106BF80F40E
:1008980000000132013BB5E74FEA41037FEA226CD1
:1008A80018BF7FEA236C21D092EA030F04D092F09C
:1008B800000F08BF0846704790EA010F1CBF0020D0
:1008C800704712F07F4F04D1400028BF40F000402D
:1008D800704712F100723CBF00F50000704700F04D
:1008E800004343F0FE4040F4000070477FEA226274
:1008F80016BF08467FEA23630146420206BF5FEA45
:10090800412390EA010F40F4800070474FF0000344
:1009180004E000BF10F0004348BF40425FEA000C0B
:1009280008BF704743F0964301464FF000001CE0B3
:1009380050EA010208BF70474FF000030AE000BF09
:1009480050EA010208BF704711F0004302D5404247
:1009580061EB41015FEA010C02BF844601460020B9
:1009680043F0B64308BFA3F18053A3F50003BCFAD4
:100978008CF2083AA3EBC25310DB01FA02FC634481
:1009880000FA02FCC2F12002BCF1004F20FA02F288
:1009980043EB020008BF20F00100704702F120027B
:1009A80001FA02FCC2F1200250EA4C0021FA02F2DC
:1009B80043EB020008BF20EADC7070474FF0FF3CB1
:1009C80006E000BF4FF0010C02E000BF4FF0010C41
:1009D8004DF804CD4FEA40024FEA41037FEA226C0A
:1009E80018BF7FEA236C11D001B052EA530C18BF2C
:1009F80090EA010F58BFB2EB030088BFC81738BF91
:100A08006FEAE17018BF40F0010070477FEA226C7E
:100A180002D15FEA402C05D17FEA236CE4D15FEA7A
:100A2800412CE1D05DF8040B704700BF84460846AE
:100A38006146FFE70FB5FFF7C9FF002848BF10F16F
:100A4800000F0FBD4DF808EDFFF7F4FF0CBF0120B4
:100A580000205DF808FB00BF4DF808EDFFF7EAFF3E
:100A680034BF012000205DF808FB00BF4DF808EDF9
:100A7800FFF7E0FF94BF012000205DF808FB00BFEE
:100A88004DF808EDFFF7D2FF94BF012000205DF874
:100A980008FB00BF4DF808EDFFF7C8FF34BF012081
:100AA80000205DF808FB00BF4FEA4002B2F1FE4F9C
:100AB8000FD34FF09E03B3EB12620DD94FEA002318
:100AC80043F0004310F0004F23FA02F018BF4042F1
:100AD80070474FF00000704712F1610F01D14202D8
:100AE80005D110F0004008BF6FF0004070474FF08C
:100AF80000007047844641EA000313F0030349D11C
:100B0800403A23D30B6803604B6843608B6883606B
:100B1800CB68C3600B6903614B6943618B6983616F
:100B2800CB69C3610B6A03624B6A43628B6A836257
:100B3800CB6AC3620B6B03634B6B43638B6B83633F
:100B4800CB6BC36340304031403ADBD230320BD3F9
:100B58000B6803604B6843608B688360CB68C36035
:100B680010301031103AF3D20C3205D351F8043B4F
:100B780040F8043B043AF9D2043208D0D2071CBF2B
:100B880011F8013B00F8013B01D30B880380604654
:100B9800704700BF082A13D38B07B1D010F00303A6
:100BA800AED0C3F10403D21ADB071CBF11F8013B16
:100BB80000F8013BA4D331F8023B20F8023B9FE741
:100BC800043AD9D3013A11F8013B00F8013BF9D2B4
:100BD8000B7803704B7843708B788370604670474E
:100BE80070B54FF0FF0C4CF4E06C1CEA11541DBFBB
:100BF8001CEA135594EA0C0F95EA0C0F00F0DEF886
:100C08002C4481EA030621EA4C5123EA4C5350EA6A
:100C1800013518BF52EA033541F4801143F48013BB
:100C280038D0A0FB02CE4FF00005E1FB02E506F04C
:100C38000042E0FB03E54FF00006E1FB03569CF0A1
:100C4800000F18BF4EF0010EA4F1FF04B6F5007FA7
:100C580064F5407404D25FEA4E0E6D4146EB060619
:100C680042EAC62141EA55514FEAC52040EA5E50A2
:100C78004FEACE2EB4F1FD0C88BFBCF5E06F1ED84C
:100C8800BEF1004F08BF5FEA500E50F1000041EB83
:100C9800045170BD06F0004646EA010140EA020030
:100CA80081EA0301B4EB5C04C2BFD4EB0C0541EA52
:100CB800045170BD41F480114FF0000E013C00F367
:100CC800AB8014F1360FDEBF002001F0004170BD8B
:100CD800C4F10004203C35DA0C341BDC04F11404A4
:100CE800C4F1200500FA05F320FA04F001FA05F230
:100CF80040EA020001F0004221F0004110EBD370FD
:100D080021FA04F642EB06015EEA430E08BF20EA28
:100D1800D37070BDC4F10C04C4F1200500FA04F3CB
:100D280020FA05F001FA04F240EA020001F000415D
:100D380010EBD37041F100015EEA430E08BF20EAD0
:100D4800D37070BDC4F1200500FA05F24EEA020E18
:100D580020FA04F301FA05F243EA020321FA04F047
:100D680001F0004121FA04F220EA020000EBD370FE
:100D78005EEA430E08BF20EAD37070BD94F0000FFE
:100D88000FD101F00046400041EB010111F4801F32
:100D980008BF013CF7D041EA060195F0000F18BFE3
:100DA800704703F00046520043EB030313F4801F1F
:100DB80008BF013DF7D043EA0603704794EA0C0FD9
:100DC8000CEA135518BF95EA0C0F0CD050EA4106EF
:100DD80018BF52EA4306D1D181EA030101F000416C
:100DE8004FF0000070BD50EA410606BF1046194694
:100DF80052EA430619D094EA0C0F02D150EA0136A0
:100E080013D195EA0C0F05D152EA03361CBF1046E0
:100E180019460AD181EA030101F0004141F0FE417F
:100E280041F470014FF0000070BD41F0FE4141F403
:100E3800780170BD70B54FF0FF0C4CF4E06C1CEA03
:100E480011541DBF1CEA135594EA0C0F95EA0C0FB8
:100E580000F0A7F8A4EB050481EA030E52EA033573
:100E68004FEA013100F088804FEA03334FF0805594
:100E780045EA131343EA12634FEA022245EA1115C1
:100E880045EA10654FEA00260EF000419D4208BF72
:100E9800964244F1FD0404F5407402D25B084FEA1F
:100EA8003202B61A65EB03055B084FEA32024FF4CB
:100EB80080104FF4002CB6EB020E75EB030E22BF28
:100EC800B61A754640EA0C005B084FEA3202B6EBE8
:100ED800020E75EB030E22BFB61A754640EA5C0097
:100EE8005B084FEA3202B6EB020E75EB030E22BF27
:100EF800B61A754640EA9C005B084FEA3202B6EB28
:100F0800020E75EB030E22BFB61A754640EADC00E6
:100F180055EA060E18D04FEA051545EA16754FEA48
:100F280006164FEAC30343EA52734FEAC2025FEA66
:100F38001C1CC0D111F4801F0BD141EA00014FF0F5
:100F480000004FF0004CB6E711F4801F04BF0143C6
:100F58000020B4F1FD0C88BFBCF5E06F3FF6AFAEE2
:100F6800B5EB030C04BFB6EB020C5FEA500C50F172
:100F7800000041EB045170BD0EF0004E4EEA1131F5
:100F880014EB5C04C2BFD4EB0C0541EA045170BDFC
:100F980041F480114FF0000E013C90E645EA060E40
:100FA8008DE60CEA135594EA0C0F08BF95EA0C0F6E
:100FB8003FF43BAF94EA0C0F0AD150EA01347FF4B6
:100FC80034AF95EA0C0F7FF425AF104619462CE78D
:100FD80095EA0C0F06D152EA03353FF4FDAE1046F0
:100FE800194622E750EA410618BF52EA43067FF441
:100FF800C5AE50EA41047FF40DAF52EA43057FF4D1
:10100800EBAE12E74FF0FF3C06E000BF4FF0010CDB
:1010180002E000BF4FF0010C4DF804CD4FEA410C3F
:101028007FEA6C5C4FEA430C18BF7FEA6C5C1BD00C
:1010380001B050EA410C0CBF52EA430C91EA030F8D
:1010480002BF90EA020F0020704710F1000F91EAEA
:10105800030F58BF994208BF90422CBFD8176FEAB8
:10106800E37040F0010070474FEA410C7FEA6C5C86
:1010780002D150EA013C07D14FEA430C7FEA6C5C8D
:10108800D6D152EA033CD3D05DF8040B704700BFB9
:101098008446104662468C461946634600E000BF07
:1010A80001B5FFF7B7FF002848BF10F1000F01BDD9
:1010B8004DF808EDFFF7F4FF0CBF012000205DF8A4
:1010C80008FB00BF4DF808EDFFF7EAFF34BF012029
:1010D80000205DF808FB00BF4DF808EDFFF7E0FFC2
:1010E80094BF012000205DF808FB00BF4DF808ED13
:1010F800FFF7CEFF94BF012000205DF808FB00BF7A
:101108004DF808EDFFF7C4FF34BF012000205DF85B
:1011180008FB00BF4FEA410C7FEA6C5C02D150EA41
:10112800013C0AD14FEA430C7FEA6C5C02D152EAD7
:10113800033C02D14FF0000070474FF001007047A8
:101148004FEA410212F5001215D211D56FF47873E7
:10115800B3EB625212D94FEAC12343F0004343EA8A
:10116800505311F0004F23FA02F018BF4042704765
:101178004FF00000704750EA013005D111F00040EF
:1011880008BF6FF0004070474FF00000704700BF85
:1011980053B94AB9002908BF00281CBF4FF0FF31D6
:1011A8004FF0FF3000F076B9ADF1080C6DE904CED0
:1011B80000F006F8DDF804E0DDE9022304B070472A
:1011C8002DE9F047089E0D4604468846002B4DD170
:1011D8008A42944668D9B2FA82F252B101FA02F30D
:1011E800C2F1200120FA01F10CFA02FC41EA0308DD
:1011F80094404FEA1C41B8FBF1F71FFA8CFE01FB43
:10120800178807FB0EF0230C43EA084398420AD9D3
:101218001CEB030307F1FF3580F01E81984240F272
:101228001B81023F63441B1AB3FBF1F001FB10332F
:1012380000FB0EFEA4B244EA0344A6450AD91CEBFF
:10124800040400F1FF3380F00981A64540F20681CD
:10125800644402380021A4EB0E0440EA07401EB1A2
:101268000023D440C6E90043BDE8F0878B4208D983
:10127800002E00F0EE800021C6E900050846BDE812
:10128800F087B3FA83F100294AD1AB4202D38242F4
:1012980000F2FC80841A65EB030301209846002EB7
:1012A800E2D0C6E90048DFE702B9FFDEB2FA82F20F
:1012B800002A40F09180A1EB0C0001214FEA1C4765
:1012C8001FFA8CFEB0FBF7F307FB1300250C45EA69
:1012D80000450EFB03F0A84208D91CEB050503F1F5
:1012E800FF3802D2A84200F2CE8043462D1AB5FB41
:1012F800F7F007FB10550EFB00FEA4B244EA0544C4
:10130800A64508D91CEB040400F1FF3502D2A64516
:1013180000F2B6802846A4EB0E0440EA03409EE79C
:10132800C1F120078B4022FA07FC4CEA030C25FA8E
:1013380007FA4FEA1C49BAFBF9F820FA07F309FB48
:1013480018AA8D401FFA8CFE1D4300FA01F308FB12
:101358000EF02C0C44EA0A44A04202FA01F20BD91E
:101368001CEB040408F1FF3A80F08880A04240F2A8
:101378008580A8F102086444241AB4FBF9F009FB3B
:10138800104400FB0EFEADB245EA0444A64508D958
:101398001CEB040400F1FF356CD2A6456AD902386B
:1013A800644440EA0840A0FB0295A4EB0E04AC425A
:1013B800C846AE4656D353D0002E69D0B3EB0802C8
:1013C80064EB0E0422FA01F304FA07F71F43CC403A
:1013D800C6E90074002147E70CFA02FCC2F12001BB
:1013E80025FA01F34FEA1C4720FA01F195400D4315
:1013F800B3FBF7F107FB11331FFA8CFE280C40EA08
:10140800034001FB0EF3834204FA02F408D91CEBF3
:10141800000001F1FF382FD283422DD902396044F0
:10142800C01AB0FBF7F307FB1300ADB245EA00455D
:1014380003FB0EF0A84208D91CEB050503F1FF38A1
:1014480016D2A84214D9023B6544281A43EA01413E
:1014580038E73146304607E72F46E4E61846F9E60E
:101468004B45A9D2B9EB020865EB0C0E0138A3E78E
:101478004346EAE7284694E74146D1E7D0467BE76A
:101488006444023847E7023B65442FE7084606E70D
:101498003146E9E6704700BF10B504460E4B187890
:1014A8004FF47A73B3FBF0F30C4A1068B0FBF3F017
:1014B80000F094F868B90F2C01D901200AE0002245
:1014C80021464FF0FF3000F043F8054B1C60002028
:1014D80000E0012010BD00BF00000020080000202F
:1014E8000400002008B5074A136843F0100313608E
:1014F800032000F01BF80020FFF7CEFF01F01EFDCF
:10150800002008BD00200240034A1168034B1B78E5
:101518000B441360704700BFE4090020000000205E
:10152800014B1868704700BFE4090020074AD368D8
:1015380023F4E0631B041B0C000200F4E060034387
:1015480043F0BF6343F40033D360704700ED00E01D
:1015580000B5194BDB68C3F30223C3F1070CBCF1D8
:10156800040F28BF4FF0040C03F1040EBEF1060F60
:1015780018D9033B4FF0FF3E0EFA0CFC21EA0C0190
:1015880099400EFA03F322EA0303194300280BDB00
:101598000901C9B200F1604000F5614080F800130C
:1015A8005DF804FB0023E5E700F00F000901C9B26C
:1015B800024B1954F4E700BF00ED00E014ED00E021
:1015C800002807DB00F01F02400901239340024A6C
:1015D80042F82030704700BF00E100E00138B0F168
:1015E800807F0BD24FF0E0235861054AF02182F842
:1015F80023100020986107221A6170470120704764
:1016080000ED00E070B582B00024A446B0E0874D3C
:10161800AA4210D007D9864DAA420CD005F58035CC
:10162800AA4208D013E0A5F58015AA4203D005F513
:101638007025AA4207D18A68002A62D0012A5BD0A5
:101648004361082403E0A5F58015AA42F3D0BEF152
:10165800FF0F58D80646BEF1FF0F56D84FEA8C0246
:1016680033680F25954023EA050304FA02F2134371
:1016780033604B6813F0805F78D06E4B9A6942F004
:1016880001029A619B6903F001030193019B4FEAF0
:101698009C02951C684B53F825600CF003039D00D1
:1016A8000F23AB4026EA0306644B984233D003F578
:1016B8008063984200F0988003F58063984200F0B8
:1016C800958003F58063984200F0928003F580636B
:1016D800984200F08F8003F58063984219D0062362
:1016E8001AE0CC68B3E7CC680434B0E7CC680834B7
:1016F800ADE7CC680C34AAE703610824A7E7002407
:10170800A5E70424A3E7061DA5E7ACF108029200AB
:10171800A6E7052300E00023AB4033430232464DE1
:1017280045F822304B6813F4803F65D0444A13686B
:1017380043EA0E0313604B6813F4003F62D0404A3B
:10174800536843EA0E0353604B6813F4801F5FD05D
:101758003B4A936843EA0E0393604B6813F4001FF7
:101768005CD0374AD36843EA0E03D3600CF1010C0E
:101778000A6832FA0CF357D0012303FA0CF302EA91
:10178800030E33EA0202F1D14A68122A3FF63FAF4C
:10179800122A3FF65CAF01A555F822F03F16000863
:1017A800EB160008F516000807170008571600087A
:1017B800571600085716000857160008571600084D
:1017C800571600085716000857160008571600083D
:1017D800571600085716000857160008571600082D
:1017E800EF160008FB160008012395E7022393E78C
:1017F800032391E704238FE7114A136823EA0E03B2
:10180800136098E70E4A536823EA0E0353609BE778
:101818000B4A936823EA0E0393609EE7084AD3684D
:1018280023EA0E03D360A1E702B070BD00002210C6
:101838000000311000100240000001400008014083
:10184800000401408368194201D00120704700203C
:1018580070470AB1016170470904016170470000CF
:1018680082B0084B1B68084AA2FB03235B0A00FBF3
:1018780003F3019300BF019B5A1E0192002BF9D17B
:1018880002B0704708000020D34D6210002800F015
:10189800F18170B582B00446036813F0010F2CD0B3
:1018A800994B5B6803F00C03042B1DD0964B5B68C7
:1018B80003F00C03082B12D06368B3F5803F41D0C6
:1018C800002B55D103F1804303F504331A6822F441
:1018D80080321A601A6822F480221A6037E08A4B34
:1018E8005B6813F4803FE7D0874B1B6813F4003F15
:1018F80003D06368002B00F0BF81236813F0020F48
:1019080075D0814B5B6813F00C0F5FD07E4B5B6822
:1019180003F00C03082B54D02369002B00F08A80B5
:101928007A4B01221A60FFF7FBFD0546764B1B68D0
:1019380013F0020F75D1FFF7F3FD401B0228F5D90C
:1019480003209EE1704A136843F480331360636890
:1019580043B3FFF7E5FD05466B4B1B6813F4003FE7
:10196800CBD1FFF7DDFD401B6428F5D9032088E1C2
:10197800B3F5A02F09D0644B1A6822F480321A609C
:101988001A6822F480221A60E1E703F18043A3F584
:101998003C331A6842F480221A601A6842F4803292
:1019A8001A60D4E7FFF7BCFD0546574B1B6813F4D4
:1019B800003FA2D0FFF7B4FD401B6428F5D90320EF
:1019C8005FE1514B5B6813F4803FA5D14E4B1B6818
:1019D80013F0020F03D02369012B40F04F814A4ACC
:1019E800136823F0F803616943EAC10313602368AD
:1019F80013F0080F33D0A369002B5CD0434B0122AE
:101A0800C3F88024FFF78CFD05463F4B5B6A13F053
:101A1800020F21D1FFF784FD401B0228F5D90320CE
:101A28002FE1394A136823F0F803616943EAC103D7
:101A38001360DCE7354B00221A60FFF771FD05469D
:101A4800314B1B6813F0020FD1D0FFF769FD401B23
:101A58000228F5D9032014E10120FFF701FF2368CC
:101A680013F0040F00F09680274BDB6913F0805FBA
:101A780034D1254BDA6942F08052DA61DB6903F030
:101A880080530193019B0125214B1B6813F4807F30
:101A980026D0E368012B3DD0002B53D103F18043BE
:101AA80003F504331A6A22F001021A621A6A22F054
:101AB80004021A6233E0154B0022C3F88024FFF7B2
:101AC8002FFD0546104B5B6A13F0020FC7D0FFF7D6
:101AD80027FD401B0228F5D90320D2E00025D3E7D3
:101AE8000B4A136843F480731360FFF719FD064629
:101AF800074B1B6813F4807FCBD1FFF711FD801BC8
:101B08006428F5D90320BCE00010024000004242DE
:101B1800007000405F4A136A43F001031362E368F0
:101B280033B3FFF7FDFC06465A4B1B6A13F0020F4E
:101B38002FD1FFF7F5FC801B41F288339842F3D987
:101B480003209EE0052B09D0524B1A6A22F00102AD
:101B58001A621A6A22F004021A62E0E74D4B1A6A06
:101B680042F004021A621A6A42F001021A62D6E7C7
:101B7800FFF7D6FC0646474B1B6A13F0020F08D046
:101B8800FFF7CEFC801B41F288339842F3D903203B
:101B980077E0E5B9E369002B72D03E4A526802F05B
:101BA8000C02082A56D0022B17D03B4B00221A668B
:101BB800FFF7B6FC0446374B1B6813F0007F47D08D
:101BC800FFF7AEFC001B0228F5D9032059E0314A83
:101BD800D36923F08053D361DCE72F4B00221A66C8
:101BE800FFF79EFC05462B4B1B6813F0007F06D0C1
:101BF800FFF796FC401B0228F5D9032041E0236A31
:101C0800B3F5803F1AD023494B6823F47413226A32
:101C1800606A024313434B601F4B01221A66FFF7A9
:101C28007FFC04461B4B1B6813F0007F0ED1FFF7A7
:101C380077FC001B0228F5D9032022E0154A5368D7
:101C480023F40033A1680B435360DCE7002018E05D
:101C5800002016E0012B16D00E4B5B6803F4803190
:101C6800226A914211D103F47013626A93420ED131
:101C7800002006E001207047012002E0012000E07A
:101C8800002002B070BD0120FBE70120F9E7012028
:101C9800F7E700BF001002400000424286B0164B32
:101CA8000FCB0DF1180C0CE90F0040F20123ADF831
:101CB8000430124B5B6803F00C02082A02D010486B
:101CC80006B07047C3F38342624412F8100C13F451
:101CD800803F0CD0094B5B68C3F34043634413F85F
:101CE800143C074A02FB00F0B0FBF3F0E8E7054BB1
:101CF80003FB00F0E4E700BFA0A9000800100240C1
:101D080000127A0000093D00002800F0A08070B59C
:101D18000D460446524B1B6803F007038B420BD257
:101D28004F4A136823F007030B431360136803F04B
:101D380007038B4240F08D80236813F0020F17D001
:101D480013F0040F04D0474A536843F4E063536028
:101D5800236813F0080F04D0424A536843F46053D1
:101D68005360404A536823F0F003A1680B43536063
:101D7800236813F0010F31D06368012B20D0022BA8
:101D880025D0384A126812F0020F64D035494A68E3
:101D980022F0030213434B60FFF7C2FB0646314BA8
:101DA8005B6803F00C036268B3EB820F16D0FFF791
:101DB800B7FB801B41F288339842F0D9032045E0F5
:101DC800284A126812F4003FE0D101203EE0254A7B
:101DD800126812F0007FD9D1012037E0204B1B6830
:101DE80003F00703AB420AD91D4A136823F007031F
:101DF8002B431360136803F00703AB422DD123680C
:101E080013F0040F06D0174A536823F4E063E1681F
:101E18000B435360236813F0080F07D0114A536827
:101E280023F46053216943EAC1035360FFF736FF87
:101E38000C4B5B68C3F303130B4AD35CD8400B4BC2
:101E480018600B4B1868FFF727FB002070BD0120B6
:101E580070470120FAE70120F8E70120F6E700BF04
:101E68000020024000100240C4A900080800002019
:101E780004000020014B1868704700BF08000020CC
:101E880008B5FFF7F7FF044B5B68C3F30223034A67
:101E9800D35CD84008BD00BF00100240D4A9000898
:101EA80008B5FFF7E7FF044B5B68C3F3C223034A97
:101EB800D35CD84008BD00BF00100240D4A9000878
:101EC80030B4036A23F001030362036A4268846939
:101ED80024F073040D682C4323F0020C8B6843EA4A
:101EE8000C03104DA84203D005F50065A84205D1A2
:101EF80023F00803CD682B4323F00403094DA842BF
:101F080003D005F50065A84205D122F440724D6959
:101F18002A438D692A43426084614A6842630362A6
:101F280030BC7047002C014030B4036A23F480733E
:101F38000362036A4268C46924F0730C0C6844EABB
:101F48000C0523F400738C6843EA0423114CA04267
:101F580003D004F50064A04206D123F40063CC68E2
:101F680043EA042323F480630A4CA04203D004F517
:101F78000064A04207D122F440524C6942EA04129C
:101F88008C6942EA04124260C5614A68C26303620E
:101F980030BC7047002C014030B4036A23F48053EE
:101FA8000362036A4468C26922F4E6420D6842EAA1
:101FB800052223F400538D6843EA0533094DA842EE
:101FC80003D005F50065A84204D124F480444D6986
:101FD80044EA85144460C2614A680264036230BC02
:101FE800704700BF002C014010B4036A046A24F053
:101FF80001040462846924F0F00C4CEA021223F014
:102008000A030B438261036210BC704710B4046A70
:1020180024F0100404628469036A24F4704C4CEAC6
:10202800023223F0A00343EA01138261036210BC69
:102038007047836823F070030B4343F00703836002
:102048007047000090F83D30DBB2012B2AD1022303
:1020580080F83D300368154A934218D002F50062B3
:10206800934214D0B3F1804F11D0A2F59832934225
:102078000DD002F58062934209D002F58062934246
:1020880005D01A6842F001021A60002070479A6869
:1020980002F00702062A07D01A6842F001021A6005
:1020A800002070470120704700207047002C014035
:1020B80090F83D30DBB2012B2FD1022380F83D3060
:1020C8000268D36843F00103D3600368154A93425A
:1020D80018D002F50062934214D0B3F1804F11D0AA
:1020E800A2F5983293420DD002F58062934209D04E
:1020F80002F58062934205D01A6842F001021A6024
:10210800002070479A6802F00702062A07D01A686A
:1021180042F001021A600020704701207047002039
:10212800704700BF002C01407047704770477047E8
:102138007047704710B5044603681A6912F0020F19
:1021480011D0DA6812F0020F0DD06FF002021A6196
:102158000123037703689B6913F0030F70D0FFF71F
:10216800E6FF0023237723681A6912F0040F12D0C0
:10217800DA6812F0040F0ED06FF004021A6102231D
:10218800237723689B6913F4407F5FD02046FFF7CD
:10219800CEFF0023237723681A6912F0080F12D0A4
:1021A800DA6812F0080F0ED06FF008021A610423E3
:1021B80023772368DB6913F0030F4ED02046FFF71F
:1021C800B6FF0023237723681A6912F0100F12D084
:1021D800DA6812F0100F0ED06FF010021A6108239F
:1021E80023772368DB6913F4407F3DD02046FFF74F
:1021F8009EFF0023237723681A6912F0010F03D08A
:10220800DA6812F0010F36D123681A6912F0800FCC
:1022180003D0DA6812F0800F34D123681A6912F0FB
:10222800400F03D0DA6812F0400F32D123681A69E0
:1022380012F0200F03D0DA6812F0200F30D110BD51
:10224800FFF774FF2046FFF773FF8AE72046FFF782
:102258006DFF2046FFF76CFF9BE72046FFF766FF00
:102268002046FFF765FFACE72046FFF75FFF2046F3
:10227800FFF75EFFBDE76FF001021A61204602F02A
:10228800AFF9C1E76FF080021A61204600F0D6FB73
:10229800C3E76FF040021A612046FFF74AFFC5E71F
:1022A8006FF020021A61204600F0C7FBC7E7000064
:1022B8000368244A904212D002F5006290420ED080
:1022C800B0F1804F0BD0A2F59832904207D002F5BA
:1022D8008062904203D002F58062904203D123F0DD
:1022E80070034A681343174A904212D002F50062FD
:1022F80090420ED0B0F1804F0BD0A2F598329042A8
:1023080007D002F58062904203D002F580629042C5
:1023180003D123F44073CA68134323F080034A6946
:10232800134303608B68C3620B688362054B984252
:1023380003D003F50063984201D10B6903630123BD
:1023480043617047002C014040B310B5044690F833
:102358003D30F3B1022384F83D30214651F8040B97
:10236800FFF7A6FF012384F8463084F83E3084F84E
:102378003F3084F8403084F8413084F8423084F8A3
:10238800433084F8443084F8453084F83D300020E8
:1023980010BD80F83C3000F0EBFEDBE70120704711
:1023A80040B310B5044690F83D30F3B1022384F8E9
:1023B8003D30214651F8040BFFF77AFF012384F8DA
:1023C800463084F83E3084F83F3084F8403084F852
:1023D800413084F8423084F8433084F8443084F83B
:1023E800453084F83D30002010BD80F83C30FFF7C0
:1023F8009BFEDBE70120704740B310B5044690F818
:102408003D30F3B1022384F83D30214651F8040BE6
:10241800FFF74EFF012384F8463084F83E3084F8F5
:102428003F3084F8403084F8413084F8423084F8F2
:10243800433084F8443084F8453084F83D30002037
:1024480010BD80F83C30FFF770FEDBE701207047D5
:10245800002857D070B50D46044690F83D30002B43
:102468004BD0022384F83D302268936823F48043DC
:1024780023F007039360214651F8040BFFF718FF78
:1024880021688A688B690E6A2868104323F4407CA7
:102498002CF0030CAA68AB6942EA032343EA0C0355
:1024A80023F47C4323F0FC03EA69D5F80CC04CEA1A
:1024B800022C4CEA030C2A6A13032A6943EA021322
:1024C80043EA0C0326F022066A686D6942EA05129F
:1024D8003243886021688B6123681A62012384F87B
:1024E800463084F83E3084F83F3084F8423084F82F
:1024F800433084F83D30002070BD80F83C3000F057
:1025080087FEAEE70120704730B4036A23F010035A
:102518000362036A4468826922F4E6420D6842EA6B
:10252800052223F020038D6843EA0513114DA842C4
:1025380003D005F50065A84206D123F08003CD68D5
:1025480043EA051323F040030A4DA84203D005F5DA
:102558000065A84207D124F440644D6944EA850423
:102568008D6944EA8504446082614A688263036233
:1025780030BC7047002C014090F83C30012B22D031
:1025880010B50446012380F83C300C2A0BD8DFE84C
:1025980002F0070A0A0A0E0A0A0A120A0A0A1600AA
:1025A8000068FFF78DFC002084F83C0010BD00682F
:1025B800FFF7AAFFF7E70068FFF7B6FCF3E7006844
:1025C800FFF7EAFCEFE70220704738B590F83C3097
:1025D800012B60D004460D46012380F83C300C2ABC
:1025E8001AD8DFE802F0071919191D191919311934
:1025F800191944000068FFF763FC2268936943F0E7
:10260800080393612268936923F0040393612268A5
:10261800936929690B439361002084F83C0038BD15
:102628000068FFF771FF2268936943F400639361C0
:102638002268936923F48063936122689369296906
:1026480043EA01239361E7E70068FFF76DFC22681E
:10265800D36943F00803D3612268D36923F00403E4
:10266800D3612268D36929690B43D361D4E7006831
:10267800FFF792FC2268D36943F40063D3612268B0
:10268800D36923F48063D3612268D369296943EA53
:102698000123D361C0E70220C1E710B4846824F4A1
:1026A8007F4C42EA03220A4342EA0C02826010BCD1
:1026B800704790F83C30012B66D010B504460123D2
:1026C80080F83C30022380F83D300268936823F498
:1026D8007F4323F0770393600B68602B40D022D8A8
:1026E800402B47D00BD9502B0ED1CA6849680068D7
:1026F800FFF77AFC50212068FFF79BFC04E0202BB1
:102708000CD008D9302B09D0012384F83D300020A3
:1027180084F83C0010BD0BB1102BF5D11946206888
:10272800FFF787FCF0E7702B0ED0B3F5005FEBD115
:10273800CB684A6889680068FFF7AFFF226893682A
:1027480043F480439360DFE7CB684A688968006890
:10275800FFF7A3FF2268936843F077039360D3E7FA
:10276800CA6849680068FFF751FC60212068FFF7D4
:1027780060FCC9E7CA6849680068FFF735FC402172
:102788002068FFF756FCBFE70220704701F01F01E1
:10279800012303FA01FC036A23EA0C030362036AB8
:1027A80002FA01F10B4303627047000010B50446BA
:1027B800084600293AD194F83E30DBB2013B18BFF5
:1027C8000123002B66D1002849D1022384F83E302A
:1027D800012201462068FFF7D9FF23682F4A934258
:1027E80003D002F50062934203D15A6C42F40042CE
:1027F8005A642368294A934241D002F50062934201
:102808003DD0B3F1804F3AD0A2F59832934236D0FA
:1028180002F58062934232D002F5806293422ED054
:102828001A6842F001021A60002032E0042908D038
:1028380008290DD094F84130DBB2013B18BF0123C1
:10284800BFE794F83F30DBB2013B18BF0123B8E77C
:1028580094F84030DBB2013B18BF0123B1E70428EC
:1028680005D0082807D0022384F84130B0E70223B6
:1028780084F83F30ACE7022384F84030A8E79A6830
:1028880002F00702062A07D01A6842F001021A600D
:10289800002010BD0120FCE70020FAE7002C0140D1
:1028A80038B5044690F83E00C0B294F83F3094F82A
:1028B8004220D2B294F843C00D46B1B9012849D19B
:1028C800012A48D1022384F83E3084F842307DB38F
:1028D800042D39D0012200212068FFF757FF01227B
:1028E80004212068FFF752FF27E0DBB25FFA8CFC77
:1028F800042912D0012833D1012B2CD1012A31D13E
:10290800BCF1010F30D1022384F83E3084F83F3007
:1029180084F8423084F84330D9E7012B1CD1BCF14C
:10292800010F1BD1022384F83F3084F84330CEE7EF
:10293800012200212068FFF729FF2268136843F06D
:1029480001031360002006E0012204212068FFF73C
:102958001DFFF2E7012038BD0120FCE71846FAE721
:102968000120F8E71846F6E71046F4E790F83C30FF
:10297800012B34D010B4012380F83C30022380F8B6
:102988003D3003685A689C6822F0700C0A6842EA75
:102998000C025A600368134A934212D002F500628F
:1029A80093420ED0B3F1804F0BD0A2F598329342E8
:1029B80007D002F58062934203D002F58062934209
:1029C80004D124F080044A6814439C60012380F8F1
:1029D8003D30002380F83C30184610BC7047022078
:1029E800704700BF002C014090F83C30012B22D0EA
:1029F800012380F83C30CB6823F440738A68134382
:102A080023F480634A68134323F400630A6813437A
:102A180023F480530A69134323F400534A69134388
:102A280023F48043CA69134302685364002380F87F
:102A38003C301846704702207047704770470000C6
:102A480010B504460268136923F44053C1680B4368
:102A5800136183680269134342691A430168CB68AA
:102A680023F4B05323F00C031343CB60026853697B
:102A780023F4407381690B4353610268134B9A42F4
:102A880020D0FFF7FDF9024602EB820202EB820238
:102A980063689B00B2FBF3F20D48A0FB02314909C1
:102AA800642303FB11231B013233A0FB03235B09BF
:102AB80003F0F00202EB011203F00F032168134444
:102AC8008B6010BDFFF7ECF90246DDE700380140E6
:102AD8001F85EB512DE9F84305460F4616469946E2
:102AE800DDF820802C68246837EA04030CBF4FF017
:102AF800010C4FF0000CB4451FD1B8F1FF3FF1D0E5
:102B0800B8F1000F05D0FEF70BFDA0EB090040451A
:102B1800E8D92A68D36823F4D073D3602A68536944
:102B280023F001035361202385F8393085F83A30C2
:102B3800002385F83830032000E00020BDE8F88342
:102B480058B310B5044690F839300BB3242384F8F1
:102B580039302268D36823F40053D3602046FFF746
:102B68006FFF2268136923F4904313612268536945
:102B780023F02A0353612268D36843F40053D360D7
:102B88000020E063202384F8393084F83A3010BDFF
:102B980080F8383000F0B0FCD8E7012070472DE904
:102BA800F04182B01E4690F83930DBB2202B54D168
:102BB80004460D469046002953D0002A53D090F879
:102BC8003830012B51D0012380F838300023C363FB
:102BD800212380F83930FEF7A3FC0746A4F82480A7
:102BE800A4F82680A368B3F5805F05D04FF00008ED
:102BF800002384F8383012E0236913B14FF000083D
:102C0800F6E7A8460025F3E738F8023B2268C3F345
:102C180008035360E28C92B2013A92B2E284E38CE8
:102C28009BB273B100963B46002280212046FFF7F5
:102C380051FFE0B9002DE7D015F8012B23685A6041
:102C4800E8E700963B46002240212046FFF742FF76
:102C580078B9202384F8393000E0022002B0BDE8BA
:102C6800F0810120FAE70120F8E70220F6E70320C7
:102C7800F4E70320F2E72DE9F04182B01E4690F810
:102C88003A30DBB2202B5BD104460D469046002932
:102C98005AD0002A5AD090F83830012B58D0012346
:102CA80080F838300023C363222380F83A30FEF7D7
:102CB80037FC0746A4F82C80A4F82E80A368B3F547
:102CC800805F05D04FF00008002384F8383017E003
:102CD800236913B14FF00008F6E7A8460025F3E78B
:102CE80023685B68C3F3080328F8023B03E0236802
:102CF8005B682B700135E28D92B2013A92B2E2859F
:102D0800E38D9BB2BBB100963B46002220212046B2
:102D1800FFF7E0FEF0B9002DE2D0A368B3F5805FBD
:102D2800E5D013B92369002BE1D023685B6803F071
:102D38007F032B70DEE7202384F83A30002000E080
:102D4800022002B0BDE8F0810120FAE70120F8E78F
:102D58000220F6E70320F4E72DE9F04389B00024C8
:102D68000494059406940794354B9A6942F020021E
:102D78009A619A6902F020020092009A9A6942F0D8
:102D880010029A619A6902F010020192019A9A69F6
:102D980042F004029A619A6902F004020292029ACD
:102DA8009A6942F008029A619B6903F00803039349
:102DB800039BDFF8909022464FF471714846FEF766
:102DC80048FDDFF884802246FF214046FEF741FD9A
:102DD8001E4D22464FF480612846FEF73AFD012237
:102DE8004FF418412846FEF734FD4FF471730493ED
:102DF8000127059706940226079604A94846FEF778
:102E080001FCFF23049305970694079604A94046FE
:102E1800FEF7F8FB4FF4704304930594069404A955
:102E28004046FEF7EFFB4FF41C43049305970694C6
:102E3800079604A92846FEF7E5FB09B0BDE8F0832C
:102E48000010024000100140000C01400008014041
:102E580030B591B02822002106A801F095FC002485
:102E680001940294039404940594012206924FF469
:102E7800803307930A9202250D950E934FF4E013C1
:102E88000F9306A8FEF702FD0F2301930295039402
:102E98004FF4806304930594294601A8FEF734FF94
:102EA80011B030BD00B583B0FEF71CFBFFF7D0FFB3
:102EB800FFF752FF00F030FA00F0CEF800F0FEF80D
:102EC80000F02EF900F0B0FA00F0C8FA00F0E0FACD
:102ED80000F0F8FA00F006FC01221146104600F056
:102EE800EFFD00F037FC01F093FB012001F00EF834
:102EF800022001F00BF801F0C5FA0022114601206A
:102F080000F0DEFD00211E2000F00AFE094CFF251E
:102F18000095234620221146012001F0C9F90095A9
:102F2800234620221146022001F0C2F900F050FD8C
:102F3800FCE700BFB4A900087047000082B00E4B40
:102F48009A6942F001029A619A6902F001020092BC
:102F5800009ADA6942F08052DA61DB6903F0805343
:102F68000193019B054A536823F0E06343F0007323
:102F7800536002B0704700BF0010024000000140DB
:102F88007047FEE7FEE7FEE7FEE7704770477047C9
:102F980008B5FEF7B9FA08BD08B50248FFF7CAF840
:102FA80008BD00BFEC09002008B50248FFF7C2F8C9
:102FB80008BD00BFEC09002008B50248FFF7BAF8C1
:102FC80008BD00BFEC09002008B50248FFF7B2F8B9
:102FD80008BD00BFEC09002008B50248FFF7AAF8B1
:102FE80008BD00BF340A002008B50248FFF7A2F860
:102FF80008BD00BFC40A00200120704708B501F0D1
:1030080099FB162303604FF0FF3008BD08B54FF059
:10301800FF31FFF7F3FFFEE708B503460B4A1268D6
:1030280042B10A4A106803446A46934206D8074ADE
:10303800136008BD054A06491160F2E701F07AFB02
:103048000C2303604FF0FF30F3E700BFE8090020CE
:10305800E01000207047000000B58DB02422002148
:1030680003A801F091FB00230193029312484FF04B
:1030780080420260436083604FF6FF72C260036162
:1030880083610323039301230593099303A9FFF79E
:10309800DFF950B900230193029301A90648FFF70D
:1030A80065FC28B90DB05DF804FBFFF745FFF1E7B3
:1030B800FFF742FFF6E700BF340A002000B58DB0E5
:1030C8002422002103A801F05FFB0023019302934F
:1030D8001148124A0260436083604FF6FF72C26073
:1030E800036183610323039301230593099303A9D0
:1030F800FFF7AEF950B900230193029301A90648DE
:10310800FFF734FC28B90DB05DF804FBFFF714FF96
:10311800F1E7FFF711FFF6E77C0A00200004004002
:1031280000B583B00023009301930F480F4A026053
:1031380009224260836041F61F42C2608361FFF743
:1031480003F950B900230093019369460648FFF735
:103158000DFC28B903B05DF804FBFFF7EDFEF1E7BD
:10316800FFF7EAFEF6E700BFC40A0020001000409F
:1031780000B583B00368234A934205D0224A93429C
:103188002DD003B05DF804FB204B9A6942F400622D
:103198009A619B6903F400630093009B0022114627
:1031A8001820FEF7D5F91820FEF70AFA0022114672
:1031B8001920FEF7CDF91920FEF702FA0022114670
:1031C8001A20FEF7C5F91A20FEF7FAF9002211466F
:1031D8001B20FEF7BDF91B20FEF7F2F9D1E70B4BD8
:1031E800DA6942F01002DA61DB6903F01003019337
:1031F800019B002211463620FEF7AAF93620FEF779
:10320800DFF9BEE7002C014000100040001002402A
:1032180000B589B0002304930593069307930368C8
:10322800B3F1804F05D0254A934225D009B05DF807
:1032380004FB03F50433DA6942F00102DA61DA6962
:1032480002F001020092009A9A6942F004029A611F
:103258009B6903F004030193019B0323049304A9CE
:103268001748FEF7CFF9002211461C20FEF770F927
:103278001C20FEF7A5F9D9E7124BDA6942F00202E1
:10328800DA61DA6902F002020292029A9A6942F05D
:1032980004029A619B6903F004030393039BC02310
:1032A800049304A90648FEF7ADF9002211461D2033
:1032B800FEF74EF91D20FEF783F9B7E7000400403A
:1032C800000801400010024000B587B000230293B7
:1032D80003930493059302680D4B9A4202D007B0FA
:1032E8005DF804FB03F564439A6942F004029A61AD
:1032F8009B6903F004030193019B4FF4407302930D
:1033080002230393059302A90248FEF77BF9E6E737
:10331800002C01400008014010B596B0002412941A
:103328001394149415941094119409940A940B947A
:103338000C940D940E940F942022214601A801F0BC
:1033480023FA3748374B036042F20F7343608460B7
:1033580041F61F43C360046144618461FEF7F4FFD2
:10336800002845D14FF48053129312A92C48FFF737
:10337800A0F900283FD12A48FFF73EF800283DD1A0
:103388002748FFF70DF800283BD10023109311932D
:1033980010A92348FFF7EAFA002835D160230993DA
:1033A80000220A920B920C920D920E920F9209A98A
:1033B8001B48FFF70AF950BB00230993042209A907
:1033C8001748FFF7D9F828BB00230193029303930A
:1033D800049305934FF400520692089301A91048EC
:1033E800FFF702FBC8B90E48FFF76EFF16B010BD15
:1033F800FFF7A2FDB6E7FFF79FFDBCE7FFF79CFDCF
:10340800BEE7FFF799FDC0E7FFF796FDC6E7FFF7B0
:1034180093FDD1E7FFF790FDD6E7FFF78DFDE2E7D3
:10342800EC090020002C014008B50A480A4B03604B
:103438004FF4E133436000238360C36003610C22CF
:1034480042618361C361FFF77BFB00B908BDFFF7E9
:1034580073FDFBE78C0B0020004C004008B50A48C0
:103468000A4B03604FF4E133436000238360C36079
:1034780003610C2242618361C361FFF761FB00B9FC
:1034880008BDFFF759FDFBE7CC0B002000500040BA
:1034980008B50A480A4B03604FF4E1334360002340
:1034A8008360C36003610C2242618361C361FFF7DB
:1034B80047FB00B908BDFFF73FFDFBE70C0B0020F9
:1034C8000044004008B50A480A4B03604FF4E13352
:1034D800436000238360C36003610C2242618361FF
:1034E800C361FFF72DFB00B908BDFFF725FDFBE71A
:1034F8004C0B00200048004030B58FB000230A93E1
:103508000B930C930D9303686D4A93420BD06D4A4D
:1035180093423AD06C4A934270D06C4A934200F07E
:103528009D800FB030BD6A4BDA6942F40022DA613F
:10353800DA6902F400220192019A9A6942F01002B3
:103548009A619B6903F010030293029B4FF4806316
:103558000A9302230B9303230D935E4D0AA9284671
:10356800FEF750F84FF400630A9300240B940C9470
:103578000AA92846FEF746F8224621463420FDF7D8
:10358800E7FF3420FEF71CF8CBE7514BDA6942F429
:103598008012DA61DA6902F480120392039A9A6956
:1035A80042F010029A619A6902F010020492049A99
:1035B8009A6942F020029A619B6903F020030593FF
:1035C800059B4FF480530A9302230B9303230D9317
:1035D8000AA94048FEF716F804230A9300240B941E
:1035E8000C940AA93C48FEF70DF8224621463520DE
:1035F800FDF7AEFF3520FDF7E3FF92E7344BDA69BC
:1036080042F40032DA61DA6902F400320692069A6C
:103618009A6942F004029A619B6903F004030793D4
:10362800079B04230A9302230B9303230D932B4D2B
:103638000AA92846FDF7E6FF08230A9300240B94FD
:103648000C940AA92846FDF7DDFF224621462620CC
:10365800FDF77EFF2620FDF7B3FF62E71C4BDA6912
:1036680042F48022DA61DA6902F480220892089A28
:103678009A6942F008029A619B6903F0080309936A
:10368800099B4FF480630A9302230B9303230D9342
:10369800134D0AA92846FDF7B5FF4FF400630A93B6
:1036A80000240B940C940AA92846FDF7ABFF224688
:1036B80021462720FDF74CFF2720FDF781FF30E743
:1036C800004C0040005000400044004000480040CA
:1036D80000100240001001400014014000080140A1
:1036E800000C0140074B1B68074AA2FB0312D20CCF
:1036F80006490A70064AA2FB03239B09054A136080
:10370800704700BF0800002083DE1B43100C002018
:10371800D34D62100C0C002010B44FF0E0235C690C
:103728000B4A126802FB00FC9B69002104E0E01AC6
:1037380002441144614509D21A464FF0E0239B69BF
:103748009A42FAD0F3D9D21A1144F3E710BC704761
:103758000C0C00200C4B1A68D36843F02003D3608C
:103768000A4B1A68D36843F02003D360084B1A68E1
:10377800D36843F02003D360064B1A68D36843F03C
:103788002003D360704700BF0C0B00204C0B0020B7
:103798008C0B0020CC0B002010B50C4600F0B0FEBE
:1037A8002146024801F042F810BD00BFDCA900081C
:1037B8001C4B1B6813F0200F32D010B5194B5C68F6
:1037C800E4B2194B1B6883B9184B1B685BB1432CD7
:1037D8000CD0174A1368591C1160164AD454144B5C
:1037E8001B68C72B09D0532C0FD010BD0E4B0122DC
:1037F8001A600E4B00221A60F1E700210B4B19608A
:10380800C7220C4800F0C0FFEDE7084B1B68002BEF
:10381800EBD1064B01221A60054B00221A60E4E73F
:10382800704700BF00440040F00C0020140C00203A
:10383800EC0C0020240C00201C4B1B6813F0200FFC
:1038480033D010B5194B5C68E4B2194B1B6883B9C7
:10385800184B1B685BB1432C0CD0174A1368591CD2
:103868001160164AD454144B1B68C72B09D0532C2B
:1038780010D010BD0E4B01221A600E4B00221A60A8
:10388800F1E7C72200210D4800F07EFF094B002216
:103898001A60ECE7074B1B68002BEAD1054B0122A5
:1038A8001A60054B00221A60E3E7704700480040A1
:1038B800C00D0020180C0020BC0D0020F40C0020C6
:1038C8001C4B1B6813F0200F32D010B5194B5C68E5
:1038D800E4B2194B1B6883B9184B1B685BB1432CC6
:1038E8000CD0174A1368591C1160164AD454144B4B
:1038F8001B68C72B09D0532C0FD010BD0E4B0122CB
:103908001A600E4B00221A60F1E700210B4B196078
:10391800C7220C4800F038FFEDE7084B1B68002B66
:10392800EBD1064B01221A60054B00221A60E4E72E
:10393800704700BF004C0040900E00201C0C002077
:103948008C0E0020C40D00201C4B1B6813F0200FA8
:1039580032D010B5194B5C68E4B2194B1B6883B9B7
:10396800184B1B685BB1432C0CD0174A1368591CC1
:103978001160164AD454144B1B68C72B09D0532C1A
:103988000FD010BD0E4B01221A600E4B00221A6098
:10399800F1E700210B4B1960C7220C4800F0F4FE38
:1039A800EDE7084B1B68002BEBD1064B01221A6090
:1039B800054B00221A60E4E7704700BF0050004042
:1039C800600F0020200C00205C0F0020940E0020C7
:1039D80008B5324B1B6813B1304B00221A60304BCC
:1039E8001B6873B32F4B5B78302B11D0312B35D03C
:1039F800322B38D0332B39D0342B42D0352B48D00A
:103A0800362B17D100221146012000F059F811E099
:103A180032210A2000F084F84FF4FA70FFF77CFE98
:103A28006FF031016FF0090000F07AF84FF4FA7086
:103A3800FFF772FE1A4B00221A601B491B48FFF75A
:103A4800ABFE1B4B1B6813B1194B00221A60194BB4
:103A58001B6813B1174B00221A6008BD00211E20F5
:103A680000F05EF8E6E700F083F9E3E700211420B0
:103A780000F056F8104B01221A70104B00221A70F1
:103A8800D8E70021084600F04BF80B4B00221A70CB
:103A9800D0E70A4B01221A70CCE700BFF00C0020D7
:103AA800C00D0020F40C0020E0A900084C0B0020F9
:103AB800900E0020600F002094100020640F00205A
:103AC80038B50D461446A0B100224FF40041134802
:103AD800FDF7BFFEA5B100224FF400610F48FDF7C6
:103AE800B8FEA4B100224FF480510C48FDF7B1FE96
:103AF80038BD01224FF400410848FDF7AAFEE9E766
:103B080001224FF400610548FDF7A3FEE9E7012211
:103B18004FF480510148FDF79CFEE9E70008014099
:103B280038B50C46054DFCF781FDC5E90001204676
:103B3800FCF77CFDC5E9020138BD00BF680F002015
:103B480008B5084B1B780BB9002008BD4FF48061FD
:103B58000548FDF777FE012801D00020F5E7012090
:103B6800F3E700BF640F00200008014010B50128EA
:103B78000CD0012924D0002204211748FDF769FE42
:103B8800012208211548FDF764FE10BD01290BD05C
:103B9800124C002201212046FDF75BFE0122022182
:103BA8002046FDF756FEF0E70C4C01221146204650
:103BB800FDF74FFE002202212046FDF74AFEE4E70A
:103BC800012204210448FDF744FE0022082103488D
:103BD800FDF73FFED9E700BF00100140000C01408F
:103BE80010B50C4601280BD0002919DD4FF0FF3124
:103BF800FFF7BCFF002CB8BF64420B4B9C6310BDA1
:103C0800002908DD0121FFF7B1FF002CB8BF64428D
:103C1800054B5C63F3E74FF0FF31FFF7A7FFF4E7CD
:103C28000121FFF7A3FFE5E7002C0140012804D09C
:103C3800044B586A404200B270474FF08043586ABC
:103C480000B2704700040040F8B5454CD4E900675D
:103C580041A3D3E90023D4E90201FCF7C1FF0246DE
:103C68000B4630463946FCF793FB06460F4600F0F4
:103C7800F9FCFCF7EDFC02460B4630463946FCF7EA
:103C880089FB384DC5E90401D4E9006732A3D3E9BB
:103C98000023D4E90201FCF7A3FF02460B46304695
:103CA8003946FCF777FB06460F4600F0DBFCFCF7CD
:103CB800CFFC02460B4630463946FCF769FB024604
:103CC80001F10043C5E90A23FFF73AFF18B10020C4
:103CD8000021C5E90401234C00220023C4E90A237A
:103CE8000120FFF7A3FF0646D4E90401FCF708FD0D
:103CF80005463046FCF70EFE01461B4F2A4638465D
:103D080000F018FBFCF7D0FE01460020FFF768FF23
:103D18000220FFF78BFF0646D4E90A01FCF7F0FC06
:103D280005463046FCF7F6FD01462A4607F14800ED
:103D380000F000FBFCF7B8FE01460120FFF750FF3A
:103D48000120FFF773FF0146D4E90423074800F078
:103D58006DFDF8BDAFF30080333333333333D33FD6
:103D6800680F0020800F0020B40F0020F0A9000881
:103D780008B5084B00200849C3E90401C3E90A0152
:103D880042F21070FFF7C8FC00210846FFF7C8FE92
:103D980008BD00BF800F002000003E4038B5054632
:103DA8000C46002220212C48FDF753FD012D22D07E
:103DB800022D48D038BD002240212848FDF749FD92
:103DC80001224FF480712548FDF743FD6400E4B2F9
:103DD8000135EDB2072D10D800224FF480711F482D
:103DE800FDF737FD14F0800FE5D0012240211B4874
:103DF800FDF72FFDE4E70025ECE701222021164816
:103E0800FDF727FDD6E7012240211448FDF721FDE3
:103E180001224FF480711148FDF71BFD6400E4B2E4
:103E28000135EDB2072D10D800224FF480710B48F0
:103E3800FDF70FFD14F0800FE5D10022402107485F
:103E4800FDF707FDE4E70025ECE701222021024801
:103E5800FDF7FFFCAEE700BF000C01400010014079
:103E680038B504460D46012240210448FDF7F1FC0F
:103E780029462046FFF792FF38BD00BF000C0140DD
:103E880038B504460D46012240210648FDF7E1FCFD
:103E9800C5F307212046FFF781FFE9B22046FFF767
:103EA8007DFF38BD000C014038B504460D460022A0
:103EB80040210448FDF7CDFC29462046FFF76EFF58
:103EC80038BD00BF000C0140F8B504460F46154642
:103ED8001E462A21FFF7E8FF791C2046FFF7D0FF8E
:103EE800711C2046FFF7CCFF2B212046FFF7DCFF93
:103EF800A91C2046FFF7C4FF069902312046FFF7A8
:103F0800BFFF2C212046FFF7CFFFF8BD38B5044688
:103F1800A04D002280212846FDF79BFC1420FFF7C6
:103F2800FBFB012280212846FDF793FC1420FFF7B4
:103F3800F3FB012210212846FDF78BFC11212046B6
:103F4800FFF7B2FF7820FFF7E7FBB1212046FFF724
:103F5800ABFF05212046FFF783FF3C212046FFF7F2
:103F68007FFF3C212046FFF77BFFB2212046FFF769
:103F78009BFF05212046FFF773FF3C212046FFF7F2
:103F88006FFF3C212046FFF76BFFB3212046FFF768
:103F98008BFF05212046FFF763FF3C212046FFF7F2
:103FA8005FFF3C212046FFF75BFF05212046FFF716
:103FB80057FF3C212046FFF753FF3C212046FFF7DF
:103FC8004FFFB4212046FFF76FFF03212046FFF77C
:103FD80047FFC0212046FFF767FF28212046FFF74B
:103FE8003FFF08212046FFF73BFF04212046FFF74B
:103FF80037FFC1212046FFF757FFC0212046FFF7B2
:104008002FFFC2212046FFF74FFF0D212046FFF763
:1040180027FF00212046FFF723FFC3212046FFF793
:1040280043FF8D212046FFF71BFF2A212046FFF77B
:1040380017FFC4212046FFF737FF8D212046FFF7E1
:104048000FFFEE212046FFF70BFFC5212046FFF7A3
:104058002BFF1A212046FFF703FF36212046FFF7E2
:1040680023FF70212046FFF7FBFEE0212046FFF7E3
:104078001BFF04212046FFF7F3FE22212046FFF70D
:10408800EFFE07212046FFF7EBFE0A212046FFF747
:10409800E7FE2E212046FFF7E3FE30212046FFF7FA
:1040A800DFFE25212046FFF7DBFE2A212046FFF709
:1040B800D7FE28212046FFF7D3FE26212046FFF70A
:1040C800CFFE2E212046FFF7CBFE3A212046FFF7F0
:1040D800C7FE00212046FFF7C3FE01212046FFF757
:1040E800BFFE03212046FFF7BBFE13212046FFF742
:1040F800B7FEE1212046FFF7D7FE04212046FFF74F
:10410800AFFE16212046FFF7ABFE06212046FFF73B
:10411800A7FE0D212046FFF7A3FE2D212046FFF71D
:104128009FFE26212046FFF79BFE23212046FFF70E
:1041380097FE27212046FFF793FE27212046FFF709
:104148008FFE25212046FFF78BFE2D212046FFF705
:1041580087FE3B212046FFF783FE00212046FFF71C
:104168007FFE01212046FFF77BFE04212046FFF752
:1041780077FE13212046FFF773FE3A212046FFF70A
:1041880093FE05212046FFF76BFE29212046FFF705
:104198008BFE38BD000C0140F0B583B006460D46D5
:1041A8007F2300939F2300221146FFF78DFE0027EF
:1041B80007E029463046FFF763FE01347F2CF8D923
:1041C80001379F2F01D80024F8E703B0F0BD30B5C0
:1041D80083B004461D4600920B46FFF775FE29463C
:1041E8002046FFF74DFE03B030BD00002DE9F04F2B
:1041F80085B09DF83850DDF83C80902904D80646F3
:1042080089469246702A02D905B0BDE8F08F203B56
:10421800DBB2039302F10F030093CB1DFFF754FEAB
:1042280005B3002735E0204B19683046FFF728FE14
:104238007F080134E4B2072C07D817F0010FF2D039
:1042480041463046FFF71CFEF2E709F101095FFA23
:1042580089F9B9F10F0FD7D809EB0A13134AD75CBC
:104268002C46E8E7A946DDF80CA0F2E76D08013412
:10427800E4B2072C0BD815F0010FF7D043460BEB2F
:104288000A0204EB09013046FFF7A1FFEEE7013708
:10429800FFB20F2FB8D8BB46039B07EB0313034AA3
:1042A800D55C0024E5E700BFB00F0020F8A900089E
:1042B8002DE9F04182B007460C4615461E46DDF84A
:1042C80020800DE0702D12D8CDF8048000230093D3
:1042D80016F8013B2A4621463846FFF787FF08347F
:1042E800337863B1902CEDD910350024EAE74FF408
:1042F80078413846FFF750FF00252C46E4E702B026
:10430800BDE8F081A8B1A2B101701168416051689F
:1043180081609268C260002242628262C262036166
:10432800009B43610023036343638363C3630364A4
:1043380043647047002800F092802DE9F8430B464B
:1043480011460446076C4764C66B06641846FCF7BA
:104358002BFA0546E0632378002B46D16168FBF70A
:104368005FFF80466062A1682846FBF759FFA16A93
:10437800FCF71CFA0746A062636BA363236B6363B5
:1043880031462846FCF710FA2063E168FBF748FF3E
:104398000546E062666931463846FCF77BFB88B122
:1043A800A662A16A4046FCF701FA01462846FCF7D6
:1043B800FDF90546206226693146FCF76BFB58B1CA
:1043C800266214E006F1004631463846FCF744FB05
:1043D8000028E6D0A662E4E706F100463146284602
:1043E800FCF73AFB18B1266201E0012B02D0206AE3
:1043F800BDE8F883D4F804803146FCF7D5F90146C6
:104408004046FBF70DFF80466062A1682846FBF72F
:1044180007FF8146A062636BA363236B6363314626
:104428003046FCF7C3F901462846FCF7BDF90146BA
:104438003846FCF7BBF92063E168FBF7F1FE054657
:10444800E06249464046FCF7B1F901462846FCF7C8
:10445800ADF90146206AFCF7A9F92062C7E70020F8
:10446800704768B10022C263026442640263426317
:1044780082630022C2628262426202628261C26117
:10448800704700002DE9F04383B0164C2046FFF733
:10449800E8FF04F148063046FFF7E3FF124D2846CF
:1044A800FFF7DFFFDFF84480114F4FF00009CDF828
:1044B800009043463A4601212046FFF723FFCDF8F6
:1044C800009043463A4601213046FFF71BFF094B4F
:1044D8000093094B094A01212846FFF713FF03B04F
:1044E800BDE8F083B40F00204410002000C0DA4576
:1044F800E8AF00080000204100002042F4AF0008A7
:1045080008B5054B1860054B1868002302221946A8
:10451800806800F09FF908BD8C1000201C00002066
:10452800022801D80120704708B500F003F90923D3
:104538000360002008BD000010B5013801280AD822
:1045480014464FF0FF3392B207480068FEF727FB86
:1045580040B9204610BD00F0EDF8092303604FF084
:10456800FF30F7E70520F5E78C100020022801D876
:104578000020704708B500F0DDF8092303604FF00C
:10458800FF3008BD08B500F0D5F8092303604FF0E7
:10459800FF3008BD08B548B94FF0FF33012208487D
:1045A8000068FEF768FB40B9012008BD00F0C2F8BA
:1045B800092303604FF0FF30F7E70520F5E700BF58
:1045C8008C10002008B5022804D84FF400534B6023
:1045D800002008BD00F0AEF809230360F8E70000EA
:1045E800084B834200D0704710B5074C236801334D
:1045F8002360FFF729FB2268044B9A4201DD002261
:10460800226010BDC40A002090100020F8FFFF7F30
:1046180070B5104C2046FDF715FD0F4E3046FDF7DE
:1046280011FD0E4D2846FDF70DFD0D48FDF740FD27
:1046380000212046FEF7BAF804212046FEF7B6F816
:104648003C213046FEF72CF93C212846FEF728F994
:1046580070BD00BFEC090020340A00207C0A00204D
:10466800C40A00201D4B1B780BB90020704710B5F9
:104678004FF480511A48FDF7E5F801281CD00024B2
:104688004FF400511648FDF7DDF8012817D04FF414
:1046980000511348FDF7D6F8012814D04FF4005103
:1046A8000F48FDF7CFF8012811D02046002C12DB67
:1046B8008010FCF72FF910BD0A4B1C68E0E7094B86
:1046C8005B681C44E3E7074B9B681C44E6E7054B23
:1046D800DB681C44E9E7E01CEAE700BF941000200F
:1046E800000C01400C000020002103E00B4B5B583C
:1046F800435004310A480B4B42189A42F6D30A4AEF
:1047080002E0002342F8043B084B9A42F9D3FEF733
:10471800A1FC00F015F8FEF7C5FB704714B40008BB
:1047280000000020C8090020C8090020E01000206F
:10473800FEE70000014B1868704700BF1C0000200E
:1047480070B50D4E0D4D761BB61006D0002455F8E9
:10475800043B01349847A642F9D1094E094D06F0A9
:104768000FF9761BB61006D0002455F8043B013427
:104778009847A642F9D170BD08B4000808B40008EB
:1047880010B4000808B40008830730B548D0541E98
:10479800002A3FD00346CAB201E0013C3AD303F8ED
:1047A800012B9D07F9D1032C2DD9CDB245EA05255A
:1047B8000F2C45EA054536D9A4F1100222F00F0C5A
:1047C80003F1200EE6444FEA121C03F1100242E9FD
:1047D800045542E9025510327245F8D10CF1010234
:1047E80014F00C0F03EB021204F00F0C13D0ACF111
:1047F800040323F003030433134442F8045B934295
:10480800FBD10CF003042CB1CAB21C4403F8012BF1
:104818009C42FBD130BD64461346002CF4D1F9E725
:1048280003461446BFE71A46A446E0E70FB400B5AE
:10483800074A83B004AB106853F8042B81680193CE
:1048480000F0E0F803B05DF804EB04B0704700BF77
:104858001C0000202DE9F043694C0E46D4F8008076
:10486800174604461D4683B0B8F1000F03D0D8F8A8
:104878003830002B77D0022F05D0012F00F2AC8002
:10488800002DC0F2A980636EDA0752D52146404652
:1048980002F0AEFF216B41B104F14003994202D00E
:1048A800404603F0D1F8002323630023B4F90CC079
:1048B800A3611CF0800F636064D12CF44A6C2CF067
:1048C800030C022FA4F80CC06AD001AB2146404665
:1048D8006A4603F059FAA3891843A081002D2FD006
:1048E800002E2ED0D8F83830002B38D0009BC4E9E1
:1048F8000465AB42B4F90C3026601CBF43F4006376
:10490800A381012F04BF43F00103A3819AB213F0DE
:1049180008032CD0D1075DD500216D42A561656ED5
:10492800A16015F0010527D00025284603B0BDE891
:10493800F083A3899B05A9D4A06D03F0B1F9A5E77D
:10494800009D284603F050FA0646002847D0A38960
:1049580043F08003A381D8F83830002BC6D14046F5
:1049680002F07AFFC2E7404602F076FF83E7A360D1
:10497800656E15F00105D7D1930524D5284603B0F7
:10498800BDE8F0834046216903F05EF8B4F90CC035
:10499800022F2CF44A6C2CF0030CA4F80CC094D110
:1049A80000250021012204F1430323602361636E83
:1049B8004CF0020CD807A4F80CC0A1606261DDD4E9
:1049C8001CF4007FDAD1A06D03F06CF9284603B01F
:1049D800BDE8F083A560CBE74FF0FF35CEE7DDF803
:1049E8000090A94504D0484603F0FEF9064620B9D0
:1049F8004FF0FF35B4F90CC0D3E74D46A7E700BF29
:104A08001C0000202DE9F04FD5B01C4691460791B7
:104A18000546099003F03CF902680E941046179277
:104A280004F01EF916901DB1AB6B002B00F01D822F
:104A3800079A536EDD0740F12D81B2F90C2091B22F
:104A48008F0409D4079B42F400529A8191B21A4606
:104A58005B6E23F4005353660E0740F1C080079B3A
:104A68001B69002B00F0BB8001F01A030A2B00F031
:104A7800C48000242BAB224698464D46CDE92944F4
:104A88002893129400230024CDE914342B78CDE91F
:104A98001922CDE91B2218920B92002B00F08F816E
:104AA800AA4604E01AF8013F002B00F0BB80252B32
:104AB800F8D1BAEB050640F0B9809AF80030002B1F
:104AC80000F07D8100234FF0FF324FF02B092024A6
:104AD8001F469AF8016008920AF1010A8DF883309E
:104AE8000A930AF1010AA6F120035A2B00F2E18089
:104AF800DFE813F00503DF00DF000003DF00DF005D
:104B0800DF00DE02DF00DF006A006E02DF00550210
:104B18007802DF0073025B005B005B005B005B00F8
:104B28005B005B005B005B00DF00DF00DF00DF0095
:104B3800DF00DF00DF006C01DF00EA01C4016C0167
:104B48006C016C01DF00DF00DF00DF00D002DF0056
:104B5800DF002302DF00DF00DF00F801DF00920240
:104B6800DF00DF008707DF00DF00DF00DF00DF0096
:104B7800DF00DF00DF006C01DF00EA01C6016C0125
:104B88006C016C01B602C601BF01DF00C302DF0081
:104B98005A022502A402BF01DF00F801720084074F
:104BA800DF00DF006507DF0072000022A6F1300396
:104BB8001AF8016B02EB820203EB4202A6F1300302
:104BC800092BF5D90A928EE70E9B53F8042B002A7D
:104BD8000A920E93C0F2E0819AF8006081E7079D7F
:104BE8000998294601F0FCFC002841F04D83A98969
:104BF80001F01A030A2B7FF43CAF079AB2F90E3082
:104C0800002BFFF636AF536ED80702D4890541F161
:104C1800488123464A460799099855B0BDE8F04FA0
:104C280001F09CBCBAEB050600F0C9802A9BC8E9D4
:104C3800005633442A93299B0133072B299305DC1B
:104C480008F108080B9B33440B9336E7079909983A
:104C580028AA04F0A3F880B90DF1AC08F2E7079987
:104C6800099828AA04F09AF8002800F099800D9B6A
:104C78001BB11946099802F0E7FE079A536ED90747
:104C880040F1E88093895B0601F10A830B9855B0DF
:104C9800BDE8F08F079BB3F90C20900591B23FF562
:104CA800CFAE1D46986D02F0FBFFB5F90C2091B20E
:104CB800C6E6002E00F08380012300228DF8EC6008
:104CC80006933BAD8DF883200C930D9208920F92BA
:104CD8001392109217F0020302D00699023106913E
:104CE80017F0840B07D10A990698A1EB0009B9F1CE
:104CF800000F00F390832A9C82B10122C8F8042097
:104D0800299A013401320DF18301072A2A94299244
:104D1800C8F8001000F3D88308F108087BB1022313
:104D2800C8F80430299B0234013321AA072B2A949E
:104D38002993C8F8002000F3D58308F10808BBF1CF
:104D4800800F00F08882089B0C9AA3EB020BBBF142
:104D5800000F00F3CB82FB0500F11F820C9BC8F803
:104D680000501C44C8F80430299B2A940133072BAF
:104D7800299300F3448308F10808780705D50A9BAE
:104D8800069A9D1A002D00F3B983DDE90A230699D6
:104D98008A42ACBF9B185B180B93002C7FF45FAF63
:104DA800002329930D9B1BB10D99099802F04CFE25
:104DB80055460DF1AC082B78002B7FF471AE2A9B79
:104DC800002B41F010820023299356E70E9B0733EE
:104DD80023F00702F2E80234CDE91434DDE9143493
:104DE80024F00044994618460E9221464FF0FF32AF
:104DF800AB4BFCF78FF9002840F018854846214650
:104E08004FF0FF32A64BFCF767F9002840F00E85FB
:104E1800DDE9140100220023FCF754F9002840F0D2
:104E280065879DF88320002103209E4D9E4B27F027
:104E380080070D910690472EC8BF1D4608910C901B
:104E48000F9113911091002A3FF444AF069B013350
:104E580006933FE7079B9B899A053FF514AF079C8C
:104E6800A06D02F01FFFA3890DE7099802F0F4FC7A
:104E7800DEE59AF8006047F0200732E647F01007B1
:104E8800BA060E9B40F16E84073323F007031A46D7
:104E98005B6852F8084B99460E92002BC0F26F845B
:104EA800089B013300F0FB8254EA090327F0800BCA
:104EB80040F0F682089B002B40F0F7825F46002303
:104EC80054AD08930C933DE1012000220E9B0690FF
:104ED80053F8041B3BAD8DF883208DF8EC100E932E
:104EE8000C90F2E64FF000090E9C089B54F8045B06
:104EF8008DF88390002D00F0A1855A1C00F0A5863E
:104F08001A464946284603F023FA0D90002801F076
:104F180050810D9B9DF883205B1B0C9323EAE37360
:104F2800CDF820900E940693CDF83490CDF83C90AF
:104F3800CDF84C90CDF8409085E747F0100717F072
:104F4800200900F0F2830E9B073323F00703D3F800
:104F5800049053F8084B0E93002327F4806B00222B
:104F68008DF88320089A511C00F0D48054EA090176
:104F78002BF0800740F0CD80002A40F00486002BFB
:104F88009DD11BF001030C9300F0308430230DF207
:104F98004F158DF84F31D5E00A9B5B420A939AF87A
:104FA800006047F004079CE5BD0600F1FD84FC069F
:104FB80000F1EE85780600F1B286B90540F1E88582
:104FC8000E9B0B9953F8042B554611700E93F2E67D
:104FD8009AF800608DF8839083E59AF8006047F0AE
:104FE80080077EE5524612F8016B2A2E01F08D8269
:104FF800A6F13003092B924698BF002201F2E58002
:105008001AF8016B02EB820203EB4202A6F13003AD
:10501800092BF5D9089266E547F0100B1BF020091B
:1050280000F091830E9B073323F007031A4652F8CA
:10503800084BD3F804900E92012390E7302278268B
:105048000E9B8DF8842053F8044B184A0E934FF0AA
:105058000009022347F0020B8DF8856018927EE75D
:105068009AF80060682E03BF9AF8016047F4007749
:105078000AF1010A47F0400733E59AF800606C2E00
:1050880003BF9AF8016047F020070AF1010A47F0C8
:10509800100726E59AF8006047F0080721E500BFE9
:1050A800FFFFEF7F04B0000808B0000814B0000844
:1050B800099E304602F0ECFD436818461B9303F046
:1050C800CFFD034630461C931E4602F0E1FD83687F
:1050D8001993002E3FF480AD199B002B3FF47CAD53
:1050E800199B1B78002B3FF477AD9AF8006047F4C2
:1050F8008067F6E49AF8006047F00107F1E49DF84C
:105108008330002B7FF468AD9AF800608DF88340F7
:10511800E7E4BB46012B00F0C381022B54AD1FD13D
:10512800189A04F00F03D35C240944EA09744FEA7F
:10513800191905F8013D54EA0903F2D15F4654AB49
:105148005B1B0C93089A0C9900238A42B8BF0A4645
:105158000D9306920F939DF883201393109372E694
:1051680004F00703E40844EA49744FEAD9093033E4
:1051780054EA09012A4605F8013DF1D11BF0010F57
:10518800DCD0302BDAD03023023A05F8013C54AB9E
:105198009B1A5F4615460C93D4E7652E40F3E980C9
:1051A800DDE9140100220023FBF782FF002800F04C
:1051B800E1810123C8F80430299BC04A0133013436
:1051C800072B2A942993C8F8002000F3BF8408F11C
:1051D8000808229B129A934280F2DC82169B179A47
:1051E8001C44C8E90023299B2A940133072B2993DF
:1051F80000F3178408F10808129B5D1E002D7FF745
:10520800BCAD102D41F35D81DFF8B49222464946CA
:105218001026B946299B0F46DDF824B0079C05E007
:1052280008F10808103D102D40F39D840133103219
:10523800072BC8E90076CDE92932F1DD2146584629
:1052480028AA03F0ABFD00287FF411ADDDE929326F
:105258000DF1AC08E6E70A9B069AA3EB020BBBF13B
:10526800000F7FF770ADBBF1100F41F35280DFF8EC
:105278005092204641464C46A8461023299A079D3D
:10528800DDF8249006E0ABF1100BBBF1100F01F133
:10529800080119DD01321030072AC1E90043CDE9C0
:1052A8002920F0DD2946484628AA03F077FD002882
:1052B8007FF4DDACDDE92920ABF1100BBBF1100F59
:1052C8004FF010032BA9E5DC4546A1468846044665
:1052D80001325C44072ACDE92924C8F80090C8F8AF
:1052E80004B000F3918308F108082CE5BBF1100F16
:1052F80040F3E384DFF8C891204641464C46A8466F
:105308001023299A079DDDF8249006E0ABF1100BD5
:10531800BBF1100F01F1080119DD01321030072A25
:10532800C1E90043CDE92920F0DD2946484628AAED
:1053380003F034FD00287FF49AACDDE92920ABF1B5
:10534800100BBBF1100F4FF010032BA9E5DC4546FD
:10535800A1468846044601325C44072ACDE929243F
:10536800C8F80090C8F804B000F3D28108F1080822
:10537800F1E4129B012B40F382810123299E013421
:105388001E44072EC8F800502A94C8F804302996FD
:1053980000F36C8308F10808169B0136179A1C4421
:1053A800072EC8E90023CDE9296400F36C8308F1CE
:1053B80008080022DDE914010023FBF779FE002824
:1053C80040F07A81129B0136013B01351C44072EBF
:1053D800C8F800502996C8F804302A9400F35F8171
:1053E80008F108081A9B01361C44C8F80430072E37
:1053F80024ABCDE92964C8F800307FF7BCAC079925
:10540800099828AA03F0CAFC00287FF430AC2A9C2B
:105418000DF1AC08B1E4B9F1100F40F3C686DDE92F
:1054280029214046CDE91D36B84610244F46079E2F
:10543800A946099D04E0103F102F00F1080016DD71
:105448000132204B1031072AC0E90034CDE9292167
:10545800F1DD3146284628AA03F0A0FC00287FF495
:1054680006ACDDE92921103F102F2BA8E8DC4D46BA
:10547800DDE91D36B9464746804609EB010401328D
:105488001049072ACDE92924C8F80490C8F8001063
:1054980000F340839DF8832008F108082CE4BB46FC
:1054A8000A2C79F1000380F0FB82012330345F4637
:1054B8008DF84F410C930DF24F1543E644B00008A8
:1054C80058B0000848B000080799099828AA1D9301
:1054D80003F064FC00287FF4CAAB2A9C1D9B0DF1E5
:1054E800AC081BE40799099828AA03F057FC002880
:1054F8007FF4BDAB2A9C0DF1AC0820E4102D40F3DD
:10550800BE861026299B099FDDF81C9004E0103DFB
:10551800102D08F1080817DD0133BA4A1034072B9B
:10552800C8E90026CDE92934F1DD4946384628AADC
:1055380003F034FC00287FF49AABDDE92934103DF0
:10554800102D0DF1AC08E7DC0133AE4A2C44072BD3
:10555800CDE92934C8F80450C8F800207FF715AC05
:105568000799099828AA03F019FC00287FF47FAB53
:105578002A9C0AE42299002940F31081DDF8409022
:10558800129B9945A8BF9946B9F1000F0BDD299BDD
:105598004C440133072BC8E900592A94299300F396
:1055A800818508F10808109EB9F1000FA8BFA6EB85
:1055B8000906002E00F3F582DDF840B07905AB440A
:1055C80000F1AC84229B129A934202DBFA0740F165
:1055D8009283169A17991444C8E90012299A2A94B2
:1055E8000132072A299200F3A88508F10808129ABF
:1055F800AE18A6EB0B06D51AAE42A8BF2E46002E53
:105608000DDD299B34440133072BC8F800B0C8F8D6
:1056180004602A94299300F3FC8508F10808002EF9
:10562800A8BFAD1B002D7FF7A8AB102D40F349870D
:10563800DFF8D491224649461026B946299B0F46E1
:10564800DDF824B0079C05E008F10808103D102D8E
:1056580040F3898201331032072BC8E90076CDE97F
:105668002932F1DD2146584628AA03F097FB002885
:105678007FF4FDAADDE929320DF1AC08E6E7FE0763
:105688003FF57BAE0123299E01341E44072EC8F83E
:1056980000502A94C8F8043029967FF7A1AE0799DC
:1056A800099828AA03F07AFB00287FF4E0AADDE92C
:1056B80029640DF1AC0895E6129B5D1E002D7FF75D
:1056C80091AE102D40F31987224608974FF0100B22
:1056D800DFF83491099C079F05E008F10808103DA0
:1056E800102D40F3C78201361032072EC8E9009BFF
:1056F800CDE92962F1DD3946204628AA03F04EFBA0
:1057080000287FF4B4AADDE929620DF1AC08E6E7C8
:105718000799099828AA03F041FB00287FF4A7AA53
:105728002A9C0DF1AC08FFF716BB17F0100377D1D0
:1057380017F0400200F0AC820E9A994652F8044BDA
:105748000E92A4B208E41BF010030E9A54D11BF079
:1057580040014DD052F8044B99460E920123A4B251
:10576800FFF7FDBB53F8044B0E93FB0653D47D069D
:105778004ED544F3C0394B4624B2FFF78EBB2D23D8
:1057880064428DF88330BB464FF0010369EB490949
:10579800FFF7E8BBF8077FF5F0AA1FE50123C8F873
:1057A8000430299B194A01330134072B2A94299381
:1057B800C8F8002000F3688408F10808002940F0C0
:1057C8002582129A07F0010313433FF4D6AA169BC9
:1057D8001799E218C8E90013299B2A920133072B6D
:1057E800299300F3508308F1080820E254ADA9E496
:1057F8001BF4007940F0A08252F8044B01230E926A
:10580800FFF7ADBB48B0000858B0000844B0000826
:10581800B80500F179824FEAE4794B46FFF73DBBC2
:105828000E9B53F8044B0E93FFF796BBDDE914016A
:1058380002460B46FBF76EFC002840F0F785612E08
:1058480000F06C85412E00F07F82089B013300F048
:10585800948526F02003472B069300F07B85DDE92D
:10586800141247F480730F931346002BC0F2F4858B
:105878000C9300238B461D930D93069B462B00F03B
:105888002B84452B00F0148508990C9B019102216B
:10589800009126A9049123A9039122A95A4609989F
:1058A800029100F0ADFF069B0546472B40F0448669
:1058B80017F0010FB9460F9F40F0F784269B5B1B3A
:1058C8001293069B472B00F0F182069B462B00F0B3
:1058D8004284229B1093109B069A013B412A2293F3
:1058E80000F08A850021F2B2002B8DF89020B6BF17
:1058F8002D222B22109B8DF89120B8BFC3F10103F4
:10590800092B40F381850DF19F0C6246BA4F1C4666
:10591800104687FB0312D917C1EBA20101EB8102E4
:10592800A3EB42023032632C00F8012C0B4600F145
:10593800FF32ECDC3033811EDBB28C4502F8013CCF
:1059480040F2FF850DF1920101E012F8013B944508
:1059580001F8013BF9D10DF1A1030DF192021B1AD7
:10596800134424AA9B1A1A93129B1A9A012B1A44BD
:105978000C9240F39E850C9B169A13440C930023BB
:105988000C9A29F4806722EAE27247F480770F9331
:105998000692139310931D9B002B40F0B0829DF844
:1059A80083200893FFF74FBA0E9B0B9853F8041BFC
:1059B800C2175546C1E900020E93FFF7FCB98F4B99
:1059C800189317F0200949D00E9B073323F00703DB
:1059D800D3F8049053F8084B0E93F80709D554EA06
:1059E800090306D030238DF8856047F002078DF84B
:1059F8008430022327F4806BFFF7B1BABB46FFF768
:105A08000DBB7F4B1893DCE70799099828AA03F088
:105A1800C5F900287FF42BA92A9C0DF1AC08FFF7E3
:105A280092B90799099828AA03F0B8F900287FF4D1
:105A38001EA92A9C0DF1AC08FFF7DEBB062B2946F0
:105A480028BF06232A4608950D9506936D4D0E949A
:105A58000C930F9113911091FFF7F5B917F01003FC
:105A680069D00E9B53F8044B0E93B6E70799099833
:105A780028AA03F093F900287FF4F9A8DDE929643E
:105A88000DF1AC0888E40799099828AA03F086F96B
:105A980000287FF4ECA8DDE929640DF1AC0888E45E
:105AA80000230BF48062CDE90CA8069692461E46A8
:105AB800DDF8648054AF0CE00023204649460A22F2
:105AC800FBF766FB0A2C79F100031BD304468946D1
