:020000040800F2
:1000000000C00020C1390008412200084322000836
:10001000452200084722000849220008000000008D
:100020000000000000000000000000004B2200085B
:100030004D220008000000004F2200085122000855
:10004000093A0008093A0008093A0008093A000884
:10005000093A0008093A0008093A0008093A000874
:10006000093A0008093A0008093A0008093A000864
:10007000093A0008093A0008093A0008093A000854
:10008000093A0008093A000859220008093A00080C
:10009000093A0008093A0008093A0008093A000834
:1000A00069220008792200088922000899220008A4
:1000B000A9220008B9220008093A0008093A0008F4
:1000C000093A0008093A0008093A0008093A000804
:1000D000093A0008093A0008792900080D2A0008A1
:1000E000093A0008093A0008093A0008093A0008E4
:1000F000093A0008093A0008093A0008093A0008D4
:10010000093A0008093A0008093A0008093A0008C3
:10011000D92A0008612B0008093A0008093A0008AA
:10012000093A0008093A0008093A0008093A0008A3
:1001300000000000000000000000000000000000BF
:1001400000000000000000000000000000000000AF
:10015000000000000000000000000000000000009F
:10016000000000000000000000000000000000008F
:10017000000000000000000000000000000000007F
:10018000000000000000000000000000000000006F
:10019000000000000000000000000000000000005F
:1001A000000000000000000000000000000000004F
:1001B000000000000000000000000000000000003F
:1001C000000000000000000000000000000000002F
:1001D000000000000000000000000000000000001F
:0401E0005FF8E0F1F3
:1001E40010B5054C237833B9044B13B10448AFF36D
:1001F40000800123237010BDF49F00200000000044
:10020400604B000808B5034B1BB103490348AFF327
:10021400008008BD00000000F89F0020604B00082B
:1002240010B504460E4B18784FF47A73B3FBF0F311
:100234000C4A1068B0FBF3F000F07AFA68B90F2C9E
:1002440001D901200AE0002221464FF0FF3000F0DE
:1002540029FA054B1C60002000E0012010BD00BFFE
:1002640000000020080000200400002008B5074A10
:10027400136843F010031360032000F001FA002018
:10028400FFF7CEFF01F0B8FF002008BD00200240B8
:10029400034A1168034B1B780B441360704700BF7B
:1002A40010A0002000000020014B1868704700BF18
:1002B40010A000207047704710B5044603685A68C0
:1002C40012F0200F18D01A6812F0020F14D0826AAC
:1002D40012F0100F03D1826A42F4007282629A68AB
:1002E40002F46022B2F5602F38D02046FFF7E2FF17
:1002F40023686FF012021A6023685A6812F0800FA4
:1003040022D01A6812F0040F1ED0A26A12F0100F45
:1003140003D1A26A42F40052A2629A6802F4E04253
:10032400B2F5E04F31D05A6812F4806F05D19A6863
:1003340002F46022B2F5602F24D0204600F09EF92A
:1003440023686FF00C021A6023685A6812F0400F99
:1003540003D01B6813F0010F28D110BD227B002AA3
:10036400C3D15A6822F020025A60A36A23F480732E
:10037400A362A36A13F4805FB7D1A36A43F00103B5
:10038400A362B2E7227B002AD7D15A6822F0800206
:100394005A60A36A23F48053A362A36A13F4807F90
:1003A400CBD1A36A43F00103A362C6E7A36A43F473
:1003B4008033A3622046FFF77EFF23686FF00102BB
:1003C4001A60CAE730B482B00022019290F8242067
:1003D400012A00F091800346012280F824204A6813
:1003E400062A2DD80468606B02EB8202053A4FF0AE
:1003F4001F0C0CFA02FC20EA0C000D6805FA02F24C
:10040400024362630A68092A3AD91C68E06802EB6D
:1004140042021E3A4FF0070C0CFA02FC20EA0C00D0
:100424008D6805FA02F20243E2600A68103A012A72
:1004340036D90020002283F8242002B030BC704753
:100444000C2A0ED80568286B02EB8202233A1F247B
:10045400944020EA04000C6804FA02F202432A637E
:10046400D0E70568E86A02EB8202413A1F2494400F
:1004740020EA04000C6804FA02F20243EA62C1E7CB
:100484001C68206902EB42024FF0070C0CFA02FCD4
:1004940020EA0C008D6805FA02F202432261C4E7E7
:1004A4001A681648824205D09A6A42F020029A627B
:1004B4000120BFE7906810F4000F1BD1906840F44E
:1004C400000090600A68102A01D00020B2E70C4AAC
:1004D40012680C49A1FB0212920C02EB8202520038
:1004E400019202E0019A013A0192019A002AF9D19B
:1004F40000209FE700209DE702209EE700240140A2
:100504000800002083DE1B4338B503689A6812F0A4
:10051400010F01D1002038BD04469A6822F001027F
:100524009A60FFF7C1FE054623689B6813F0010F2C
:100534000ED0FFF7B9FE431B022BF5D9A36A43F093
:100544001003A362E36A43F00103E3620120E2E7DC
:100554000020E0E7002800F0888070B50446836A34
:10056400002B52D02046FFF7CFFFA36A13F01003ED
:1005740075D1002873D1A26A22F4885222F00202B3
:1005840042F00202A2626268266839498E4242D071
:10059400E1690A43217B42EA4102A568B5F5807FFF
:1005A40002D0012D3ED01D4694F814C0BCF1010FB9
:1005B4003BD0716821F46941294371602568AE68B4
:1005C4002C4931401143A960A168B1F5807F01D065
:1005D400012902D12369013B1B052568E96A21F43D
:1005E40070010B43EB6223689968234B0B409A42DA
:1005F4002CD0A36A23F0120343F01003A362E36A2E
:1006040043F00103E36201202EE0C36280F824304A
:1006140001F0A6FCA6E7E169B1F5402FB9D14FF48A
:100624000021B6E74FF48075BEE731B9A1690139FD
:1006340045EA413141F40065BBE7A16A41F020017C
:10064400A162E16A41F00101E162B2E70023E362E1
:10065400A36A23F0030343F00103A36204E0A36A43
:1006640043F01003A362012070BD0120704700BF56
:10067400003C0140FDF7E1FFFE0E1FFF7047000044
:10068400074AD36823F4E0631B041B0C000200F444
:10069400E060034343F0BF6343F40033D360704727
:1006A40000ED00E000B5194BDB68C3F30223C3F18E
:1006B400070CBCF1040F28BF4FF0040C03F1040E27
:1006C400BEF1060F18D9033B4FF0FF3E0EFA0CFCA7
:1006D40021EA0C0199400EFA03F322EA03031943B9
:1006E40000280BDB0901C9B200F1604000F561404C
:1006F40080F800135DF804FB0023E5E700F00F0029
:100704000901C9B2024B1954F4E700BF00ED00E03F
:1007140014ED00E0002807DB00F01F02400901236C
:100724009340024A42F82030704700BF00E100E0E5
:100734000138B0F1807F0BD24FF0E0235861054AB5
:10074400F02182F823100020986107221A61704773
:100754000120704700ED00E070B582B00024A4468B
:10076400B0E0874DAA4210D007D9864DAA420CD0DA
:1007740005F58035AA4208D013E0A5F58015AA42F4
:1007840003D005F57025AA4207D18A68002A62D0F1
:10079400012A5BD04361082403E0A5F58015AA4231
:1007A400F3D0BEF1FF0F58D80646BEF1FF0F56D85E
:1007B4004FEA8C0233680F25954023EA050304FAB7
:1007C40002F2134333604B6813F0805F78D06E4BB2
:1007D4009A6942F001029A619B6903F00103019353
:1007E400019B4FEA9C02951C684B53F825600CF062
:1007F40003039D000F23AB4026EA0306644B984293
:1008040033D003F58063984200F0988003F5806349
:10081400984200F0958003F58063984200F092803E
:1008240003F58063984200F08F8003F5806398425B
:1008340019D006231AE0CC68B3E7CC680434B0E7D7
:10084400CC680834ADE7CC680C34AAE7036108240B
:10085400A7E70024A5E70424A3E7061DA5E7ACF158
:1008640008029200A6E7052300E00023AB403343CF
:100874000232464D45F822304B6813F4803F65D070
:10088400444A136843EA0E0313604B6813F4003FB1
:1008940062D0404A536843EA0E0353604B6813F432
:1008A400801F5FD03B4A936843EA0E0393604B6812
:1008B40013F4001F5CD0374AD36843EA0E03D360B5
:1008C4000CF1010C0A6832FA0CF357D0012303FA35
:1008D4000CF302EA030E33EA0202F1D14A68122A47
:1008E4003FF63FAF122A3FF65CAF01A555F822F060
:1008F4008F0700083B08000845080008570800084F
:10090400A7070008A7070008A7070008A70700080B
:10091400A7070008A7070008A7070008A7070008FB
:10092400A7070008A7070008A7070008A7070008EB
:10093400A70700083F0800084B080008012395E7B3
:10094400022393E7032391E704238FE7114A1368F3
:1009540023EA0E03136098E70E4A536823EA0E0352
:1009640053609BE70B4A936823EA0E0393609EE768
:10097400084AD36823EA0E03D360A1E702B070BD2E
:10098400000022100000311000100240000001405D
:1009940000080140000401400AB1016170470904E4
:1009A4000161704782B0084B1B68084AA2FB03230D
:1009B4005B0A00FB03F3019300BF019B5A1E0192E3
:1009C400002BF9D102B0704708000020D34D62100B
:1009D400002800F0F18170B582B00446036813F07A
:1009E400010F2CD0994B5B6803F00C03042B1DD032
:1009F400964B5B6803F00C03082B12D06368B3F5C5
:100A0400803F41D0002B55D103F1804303F50433DB
:100A14001A6822F480321A601A6822F480221A605A
:100A240037E08A4B5B6813F4803FE7D0874B1B6841
:100A340013F4003F03D06368002B00F0BF812368E8
:100A440013F0020F75D0814B5B6813F00C0F5FD06D
:100A54007E4B5B6803F00C03082B54D02369002BF6
:100A640000F08A807A4B01221A60FFF71DFC0546CC
:100A7400764B1B6813F0020F75D1FFF715FC401B72
:100A84000228F5D903209EE1704A136843F48033A9
:100A94001360636843B3FFF707FC05466B4B1B68A1
:100AA40013F4003FCBD1FFF7FFFB401B6428F5D9BB
:100AB400032088E1B3F5A02F09D0644B1A6822F40F
:100AC40080321A601A6822F480221A60E1E703F186
:100AD4008043A3F53C331A6842F480221A601A68F2
:100AE40042F480321A60D4E7FFF7DEFB0546574B29
:100AF4001B6813F4003FA2D0FFF7D6FB401B642809
:100B0400F5D903205FE1514B5B6813F4803FA5D115
:100B14004E4B1B6813F0020F03D02369012B40F0E6
:100B24004F814A4A136823F0F803616943EAC10319
:100B34001360236813F0080F33D0A369002B5CD033
:100B4400434B0122C3F88024FFF7AEFB05463F4B1D
:100B54005B6A13F0020F21D1FFF7A6FB401B0228AA
:100B6400F5D903202FE1394A136823F0F8036169AA
:100B740043EAC1031360DCE7354B00221A60FFF738
:100B840093FB0546314B1B6813F0020FD1D0FFF7DE
:100B94008BFB401B0228F5D9032014E10120FFF749
:100BA40001FF236813F0040F00F09680274BDB69E4
:100BB40013F0805F34D1254BDA6942F08052DA6158
:100BC400DB6903F080530193019B0125214B1B68D2
:100BD40013F4807F26D0E368012B3DD0002B53D142
:100BE40003F1804303F504331A6A22F001021A6206
:100BF4001A6A22F004021A6233E0154B0022C3F889
:100C04008024FFF751FB0546104B5B6A13F0020F7B
:100C1400C7D0FFF749FB401B0228F5D90320D2E0D7
:100C24000025D3E70B4A136843F480731360FFF77E
:100C34003BFB0646074B1B6813F4807FCBD1FFF7C1
:100C440033FB801B6428F5D90320BCE0001002406C
:100C540000004242007000405F4A136A43F00103FF
:100C64001362E36833B3FFF71FFB06465A4B1B6A54
:100C740013F0020F2FD1FFF717FB801B41F28833CB
:100C84009842F3D903209EE0052B09D0524B1A6AEF
:100C940022F001021A621A6A22F004021A62E0E7E0
:100CA4004D4B1A6A42F004021A621A6A42F00102B7
:100CB4001A62D6E7FFF7F8FA0646474B1B6A13F0A9
:100CC400020F08D0FFF7F0FA801B41F288339842F4
:100CD400F3D9032077E0E5B9E369002B72D03E4AEB
:100CE400526802F00C02082A56D0022B17D03B4B54
:100CF40000221A66FFF7D8FA0446374B1B6813F034
:100D0400007F47D0FFF7D0FA001B0228F5D9032053
:100D140059E0314AD36923F08053D361DCE72F4B88
:100D240000221A66FFF7C0FA05462B4B1B6813F026
:100D3400007F06D0FFF7B8FA401B0228F5D903203C
:100D440041E0236AB3F5803F1AD023494B6823F46A
:100D54007413226A606A024313434B601F4B0122DF
:100D64001A66FFF7A1FA04461B4B1B6813F0007FB9
:100D74000ED1FFF799FA001B0228F5D9032022E0CF
:100D8400154A536823F40033A1680B435360DCE72E
:100D9400002018E0002016E0012B16D00E4B5B68F3
:100DA40003F48031226A914211D103F47013626A10
:100DB40093420ED1002006E001207047012002E09A
:100DC400012000E0002002B070BD0120FBE70120FB
:100DD400F9E70120F7E700BF00100240000042429B
:100DE40086B0164B0FCB0DF1180C0CE90F0040F236
:100DF4000123ADF80430124B5B6803F00C02082A9F
:100E040002D0104806B07047C3F38342624412F81C
:100E1400100C13F4803F0CD0094B5B68C3F34043C0
:100E2400634413F8143C074A02FB00F0B0FBF3F0F0
:100E3400E8E7054B03FB00F0E4E700BF784B00084C
:100E44000010024000127A0000093D00002800F062
:100E5400A08070B50D460446524B1B6803F007038F
:100E64008B420BD24F4A136823F007030B431360E2
:100E7400136803F007038B4240F08D80236813F05E
:100E8400020F17D013F0040F04D0474A536843F4F9
:100E9400E0635360236813F0080F04D0424A536898
:100EA40043F460535360404A536823F0F003A1684D
:100EB4000B435360236813F0010F31D06368012B97
:100EC40020D0022B25D0384A126812F0020F64D0C9
:100ED40035494A6822F0030213434B60FFF7E4F9F3
:100EE4000646314B5B6803F00C036268B3EB820F78
:100EF40016D0FFF7D9F9801B41F288339842F0D914
:100F0400032045E0284A126812F4003FE0D1012092
:100F14003EE0254A126812F0007FD9D1012037E063
:100F2400204B1B6803F00703AB420AD91D4A136820
:100F340023F007032B431360136803F00703AB424A
:100F44002DD1236813F0040F06D0174A536823F4F5
:100F5400E063E1680B435360236813F0080F07D084
:100F6400114A536823F46053216943EAC10353606F
:100F7400FFF736FF0C4B5B68C3F303130B4AD35CD8
:100F8400D8400B4B18600B4B1868FFF749F9002049
:100F940070BD012070470120FAE70120F8E7012025
:100FA400F6E700BF00200240001002408C4B00080E
:100FB4000800002004000020014B1868704700BF9F
:100FC4000800002008B5FFF7F7FF044B5B68C3F384
:100FD4000223034AD35CD84008BD00BF001002407E
:100FE4009C4B000808B5FFF7E7FF044B5B68C3F3AD
:100FF400C223034AD35CD84008BD00BF001002409E
:101004009C4B000870B582B00446036813F0010FCE
:1010140036D03F4BDB6913F0805F49D13C4BDA6932
:1010240042F08052DA61DB6903F080530193019B43
:101034000125384B1B6813F4807F3BD0344B1B6A6B
:1010440013F4407313D0626802F440729A420ED0D3
:101054002F4A136A23F440702F490126C1F84064D3
:101064000026C1F84064106213F0010F36D1284AFB
:10107400136A23F4407361680B431362002D3ED15D
:10108400236813F0020F06D0214A536823F4404327
:10109400A1680B435360236813F0100F34D01C4A2B
:1010A400536823F4800361690B43536000202CE0F0
:1010B4000025BEE7174A136843F480731360FFF7F3
:1010C400F3F80646134B1B6813F4807FB6D1FFF781
:1010D400EBF8801B6428F5D9032016E0FFF7E4F849
:1010E40006460B4B1B6A13F0020FC0D1FFF7DCF866
:1010F400801B41F288339842F3D9032005E0D36979
:1011040023F08053D361BBE7002002B070BD00BF61
:1011140000100240007000400000424230B4036AF4
:1011240023F001030362036A4268846924F07304B0
:101134000D682C4323F0020C8B6843EA0C03104D1A
:10114400A84203D005F50065A84205D123F00803A1
:10115400CD682B4323F00403094DA84203D005F5C1
:101164000065A84205D122F440724D692A438D6975
:101174002A43426084614A684263036230BC704718
:10118400002C014030B4036A23F480730362036AC1
:101194004268C46924F0730C0C6844EA0C0523F417
:1011A40000738C6843EA0423114CA04203D004F575
:1011B4000064A04206D123F40063CC6843EA04230C
:1011C40023F480630A4CA04203D004F50064A042D7
:1011D40007D122F440524C6942EA04128C6942EA73
:1011E40004124260C5614A68C263036230BC70473E
:1011F400002C014030B4036A23F480530362036A71
:101204004468C26922F4E6420D6842EA052223F4E6
:1012140000538D6843EA0533094DA84203D005F510
:101224000065A84204D124F480444D6944EA85143D
:101234004460C2614A680264036230BC704700BF04
:10124400002C014010B4036A046A24F0010404620F
:10125400846924F0F00C4CEA021223F00A030B43D5
:101264008261036210BC704710B4046A24F0100455
:1012740004628469036A24F4704C4CEA023223F059
:10128400A00343EA01138261036210BC70478368C0
:1012940023F070030B4343F007038360704700009F
:1012A40090F83D30DBB2012B2AD1022380F83D3087
:1012B4000368154A934218D002F50062934214D091
:1012C400B3F1804F11D0A2F5983293420DD002F5BC
:1012D4008062934209D002F58062934205D01A6875
:1012E40042F001021A60002070479A6802F0070277
:1012F400062A07D01A6842F001021A6000207047DB
:101304000120704700207047002C014090F83D30C8
:10131400DBB2012B2FD1022380F83D300268D36861
:1013240043F00103D3600368154A934218D002F5D1
:101334000062934214D0B3F1804F11D0A2F59832D9
:1013440093420DD002F58062934209D002F5806287
:10135400934205D01A6842F001021A6000207047D7
:101364009A6802F00702062A07D01A6842F00102BE
:101374001A6000207047012070470020704700BFAA
:10138400002C01407047704770477047704710B594
:10139400044603681A6912F0020F11D0DA6812F0D9
:1013A400020F0DD06FF002021A6101230377036864
:1013B4009B6913F0030F70D0FFF7E6FF0023237738
:1013C40023681A6912F0040F12D0DA6812F0040FBD
:1013D4000ED06FF004021A610223237723689B69FD
:1013E40013F4407F5FD02046FFF7CEFF002323771E
:1013F40023681A6912F0080F12D0DA6812F0080F85
:101404000ED06FF008021A61042323772368DB6986
:1014140013F0030F4ED02046FFF7B6FF00232377C7
:1014240023681A6912F0100F12D0DA6812F0100F44
:101434000ED06FF010021A61082323772368DB694A
:1014440013F4407F3DD02046FFF79EFF002323770F
:1014540023681A6912F0010F03D0DA6812F0010F41
:1014640036D123681A6912F0800F03D0DA6812F0BB
:10147400800F34D123681A6912F0400F03D0DA6860
:1014840012F0400F32D123681A6912F0200F03D0F2
:10149400DA6812F0200F30D110BDFFF774FF204638
:1014A400FFF773FF8AE72046FFF76DFF2046FFF73B
:1014B4006CFF9BE72046FFF766FF2046FFF765FFBA
:1014C400ACE72046FFF75FFF2046FFF75EFFBDE76E
:1014D4006FF001021A61204602F022FAC1E76FF0B0
:1014E40080021A61204600F07FFBC3E76FF04002E0
:1014F4001A612046FFF74AFFC5E76FF020021A6120
:10150400204600F070FBC7E70368244A904212D0DB
:1015140002F5006290420ED0B0F1804F0BD0A2F5DC
:101524009832904207D002F58062904203D002F5CF
:101534008062904203D123F070034A681343174A30
:10154400904212D002F5006290420ED0B0F1804F6A
:101554000BD0A2F59832904207D002F580629042F7
:1015640003D002F58062904203D123F44073CA6829
:10157400134323F080034A69134303608B68C362F7
:101584000B688362054B984203D003F500639842CD
:1015940001D10B690363012343617047002C0140AF
:1015A40040B310B5044690F83D30F3B1022384F8FB
:1015B4003D30214651F8040BFFF7A6FF012384F8C0
:1015C400463084F83E3084F83F3084F8403084F864
:1015D400413084F8423084F8433084F8443084F84D
:1015E400453084F83D30002010BD80F83C3000F0D8
:1015F40015FFDBE70120704740B310B5044690F8AF
:101604003D30F3B1022384F83D30214651F8040BF8
:10161400FFF77AFF012384F8463084F83E3084F8DB
:101624003F3084F8403084F8413084F8423084F804
:10163400433084F8443084F8453084F83D30002049
:1016440010BD80F83C30FFF79DFEDBE701207047BA
:10165400002857D070B50D46044690F83D30002B55
:101664004BD0022384F83D302268936823F48043EE
:1016740023F007039360214651F8040BFFF744FF5E
:1016840021688A688B690E6A2868104323F4407CB9
:101694002CF0030CAA68AB6942EA032343EA0C0367
:1016A40023F47C4323F0FC03EA69D5F80CC04CEA2C
:1016B400022C4CEA030C2A6A13032A6943EA021334
:1016C40043EA0C0326F022066A686D6942EA0512B1
:1016D4003243886021688B6123681A62012384F88D
:1016E400463084F83E3084F83F3084F8423084F841
:1016F400433084F83D30002070BD80F83C3000F069
:10170400DDFEAEE70120704730B4036A23F0100316
:101714000362036A4468826922F4E6420D6842EA7D
:10172400052223F020038D6843EA0513114DA842D6
:1017340003D005F50065A84206D123F08003CD68E7
:1017440043EA051323F040030A4DA84203D005F5EC
:101754000065A84207D124F440644D6944EA850435
:101764008D6944EA8504446082614A688263036245
:1017740030BC7047002C014038B590F83C30012B48
:1017840060D004460D46012380F83C300C2A1AD858
:10179400DFE802F0071919191D1919193119191956
:1017A40044000068FFF7BAFC2268936943F0080319
:1017B40093612268936923F0040393612268936917
:1017C40029690B439361002084F83C0038BD00680C
:1017D400FFF79AFF2268936943F4006393612268D8
:1017E400936923F48063936122689369296943EAC6
:1017F40001239361E7E70068FFF7C4FC2268D3691B
:1018040043F00803D3612268D36923F00403D3614E
:101814002268D36929690B43D361D4E70068FFF7D1
:10182400E9FC2268D36943F40063D3612268D36975
:1018340023F48063D3612268D369296943EA0123CD
:10184400D361C0E70220C1E710B4846824F47F4C5C
:1018540042EA03220A4342EA0C02826010BC704747
:1018640090F83C30012B66D010B50446012380F873
:101874003C30022380F83D300268936823F47F43B0
:1018840023F0770393600B68602B40D022D8402B61
:1018940047D00BD9502B0ED1CA6849680068FFF7AE
:1018A400D1FC50212068FFF7F2FC04E0202B0CD07F
:1018B40008D9302B09D0012384F83D30002084F866
:1018C4003C0010BD0BB1102BF5D119462068FFF771
:1018D400DEFCF0E7702B0ED0B3F5005FEBD1CB68E4
:1018E4004A6889680068FFF7AFFF2268936843F489
:1018F40080439360DFE7CB684A6889680068FFF734
:10190400A3FF2268936843F077039360D3E7CA6820
:1019140049680068FFF7A8FC60212068FFF7B7FC5E
:10192400C9E7CA6849680068FFF78CFC4021206851
:10193400FFF7ADFCBFE70220704701F01F01012350
:1019440003FA01FC036A23EA0C030362036A02FA42
:1019540001F10B430362704710B5044608460029A1
:101964003AD194F83E30DBB2013B18BF0123002B7F
:1019740066D1002849D1022384F83E300122014671
:101984002068FFF7DAFF23682F4A934203D002F559
:101994000062934203D15A6C42F400425A642368B1
:1019A400294A934241D002F5006293423DD0B3F1FB
:1019B400804F3AD0A2F59832934236D002F5806235
:1019C400934232D002F5806293422ED01A6842F0DC
:1019D40001021A60002032E0042908D008290DD041
:1019E40094F84130DBB2013B18BF0123BFE794F800
:1019F4003F30DBB2013B18BF0123B8E794F8403015
:101A0400DBB2013B18BF0123B1E7042805D0082845
:101A140007D0022384F84130B0E7022384F83F3032
:101A2400ACE7022384F84030A8E79A6802F0070282
:101A3400062A07D01A6842F001021A60002010BD7D
:101A44000120FCE70020FAE7002C014038B50446E9
:101A540090F83E00C0B294F83F3094F84220D2B2DD
:101A640094F843C00D46B1B9012849D1012A48D19F
:101A7400022384F83E3084F842307DB3042D39D0FB
:101A8400012200212068FFF758FF01220421206869
:101A9400FFF753FF27E0DBB25FFA8CFC042912D076
:101AA400012833D1012B2CD1012A31D1BCF1010FF2
:101AB40030D1022384F83E3084F83F3084F8423039
:101AC40084F84330D9E7012B1CD1BCF1010F1BD1A1
:101AD400022384F83F3084F84330CEE7012200210A
:101AE4002068FFF72AFF2268136843F0010313609C
:101AF400002006E0012204212068FFF71EFFF2E720
:101B0400012038BD0120FCE71846FAE70120F8E778
:101B14001846F6E71046F4E790F83C30012B34D031
:101B240010B4012380F83C30022380F83D30036870
:101B34005A689C6822F0700C0A6842EA0C025A60E7
:101B44000368134A934212D002F5006293420ED006
:101B5400B3F1804F0BD0A2F59832934207D002F52F
:101B64008062934203D002F58062934204D124F050
:101B740080044A6814439C60012380F83D300023AC
:101B840080F83C30184610BC70470220704700BFF4
:101B9400002C014090F83C30012B22D0012380F826
:101BA4003C30CB6823F440738A68134323F4806386
:101BB4004A68134323F400630A68134323F48053ED
:101BC4000A69134323F400534A69134323F48043FB
:101BD400CA69134302685364002380F83C301846F2
:101BE40070470220704770477047000010B50446E4
:101BF4000268136923F44053C1680B43136183687B
:101C04000269134342691A430168CB6823F4B05351
:101C140023F00C031343CB600268536923F440732D
:101C240081690B4353610268134B9A4220D0FFF73A
:101C3400C9F9024602EB820202EB820263689B004E
:101C4400B2FBF3F20D48A0FB02314909642303FB04
:101C540011231B013233A0FB03235B0903F0F002C1
:101C640002EB011203F00F03216813448B6010BDD3
:101C7400FFF7B8F90246DDE7003801401F85EB5154
:101C84002DE9F84305460F4616469946DDF82080AF
:101C94002C68246837EA04030CBF4FF0010C4FF0A2
:101CA400000CB4451FD1B8F1FF3FF1D0B8F1000FDB
:101CB40005D0FEF7F9FAA0EB09004045E8D92A68F7
:101CC400D36823F4D073D3602A68536923F00103E3
:101CD4005361202385F8393085F83A30002385F89C
:101CE4003830032000E00020BDE8F88358B310B575
:101CF400044690F839300BB3242384F83930226831
:101D0400D36823F40053D3602046FFF76FFF2268A3
:101D1400136923F4904313612268536923F02A035F
:101D240053612268D36843F40053D3600020E06316
:101D3400202384F8393084F83A3010BD80F83830E4
:101D440000F00CFDD8E7012070472DE9F04182B086
:101D54001E4690F83930DBB2202B54D104460D4690
:101D64009046002953D0002A53D090F83830012BE4
:101D740051D0012380F838300023C363212380F835
:101D84003930FEF791FA0746A4F82480A4F8268097
:101D9400A368B3F5805F05D04FF00008002384F8F2
:101DA400383012E0236913B14FF00008F6E7A84673
:101DB4000025F3E738F8023B2268C3F308035360B5
:101DC400E28C92B2013A92B2E284E38C9BB273B198
:101DD40000963B46002280212046FFF751FFE0B9E0
:101DE400002DE7D015F8012B23685A60E8E7009628
:101DF4003B46002240212046FFF742FF78B92023CA
:101E040084F8393000E0022002B0BDE8F0810120FE
:101E1400FAE70120F8E70220F6E70320F4E70320BD
:101E2400F2E72DE9F04182B01E4690F83A30DBB279
:101E3400202B5BD104460D46904600295AD0002A37
:101E44005AD090F83830012B58D0012380F838301C
:101E54000023C363222380F83A30FEF725FA0746AD
:101E6400A4F82C80A4F82E80A368B3F5805F05D075
:101E74004FF00008002384F8383017E0236913B1C9
:101E84004FF00008F6E7A8460025F3E723685B68EF
:101E9400C3F3080328F8023B03E023685B682B7054
:101EA4000135E28D92B2013A92B2E285E38D9BB2A2
:101EB400BBB100963B46002220212046FFF7E0FEFE
:101EC400F0B9002DE2D0A368B3F5805FE5D013B973
:101ED4002369002BE1D023685B6803F07F032B7038
:101EE400DEE7202384F83A30002000E0022002B02C
:101EF400BDE8F0810120FAE70120F8E70220F6E7C7
:101F04000320F4E700B585B0002301930293039303
:101F14001148124A02608360037303754FF4602210
:101F2400C261436001230361FEF714FB68B9042313
:101F34000193012302930023039301A90648FEF7AA
:101F440041FA28B905B05DF804FB00F054F9EEE756
:101F540000F051F9F6E700BF14A00020002401406E
:101F640000B587B00023029303930493059302689A
:101F7400154B9A4202D007B05DF804FB03F56C439D
:101F84009A6942F400729A619A6902F400720092AA
:101F9400009A9A6942F004029A619B6903F004036F
:101FA4000193019B102302930323039302A907487F
:101FB400FEF7D2FB002211461220FEF773FB12201B
:101FC400FEF7A8FBD7E700BF00240140000801404A
:101FD4002DE9F04389B000240494059406940794F1
:101FE400354B9A6942F010029A619A6902F0100224
:101FF4000092009A9A6942F020029A619A6902F06A
:1020040020020192019A9A6942F004029A619A6943
:1020140002F004020292029A9A6942F008029A615A
:102024009B6903F008030393039BDFF89090224617
:102034004FF2C4314846FEF7AFFCDFF884802246F5
:102044004FF484614046FEF7A7FC1E4D2246FB2157
:102054002846FEF7A1FC01224FF418414046FEF742
:102064009BFC4FF2C4330493012705970694022680
:10207400079604A94846FEF76FFB49F620430493EC
:1020840005970694079604A94046FEF765FBFB23D3
:10209400049305970694079604A92846FEF75CFB6B
:1020A4004FF4704304930594069404A92846FEF75C
:1020B40053FB09B0BDE8F08300100240001001405A
:1020C40000080140000C014030B597B028220021DF
:1020D4000CA801F0C3FC00240794089409940A9402
:1020E4000B9401940294039404940594069401229D
:1020F4000C924FF480330D93109202251395149390
:102104004FF4E01315930CA8FEF762FC0F2307931A
:10211400089509944FF480630A930B94294607A801
:10212400FEF794FE01954FF40043039301A8FEF7D4
:1021340069FF17B030BD000008B500F0C5FB1B48AF
:1021440001F08AFB01221146104600F0BBFF00F0AB
:10215400F3FB01F003FC012001F0D8F8022001F0A8
:10216400D5F801F03BFB0021084600F0DBFF00201E
:1021740001F01EFC002000F0E3FF4FF6FF71012088
:1021840001F02EFA4FF6FF71022001F029FA4FF404
:10219400FA7000F0B3FB00221146012000F092FF18
:1021A4004FF47A7000F0AAFB08BD00BF68A10020BC
:1021B40008B5032001F092FA08BD08B5FEF756F8F9
:1021C400FFF782FFFFF704FF00F0FCF900F09AF834
:1021D40000F0CAF800F0FAF800F08CFA00F0A4FA63
:1021E400FFF790FE00F06CFAFFF7A6FFFFF7E0FFA1
:1021F40000F0A6FDFCE7704782B00E4B9A6942F0EE
:1022040001029A619A6902F001020092009ADA6965
:1022140042F08052DA61DB6903F080530193019B41
:10222400054A536823F0E06343F00073536002B03F
:10223400704700BF00100240000001407047FEE7F5
:10224400FEE7FEE7FEE770477047704708B5FEF704
:102254001FF808BD08B50248FEF72EF808BD00BFF8
:1022640014A0002008B50248FFF791F808BD00BF8C
:1022740048A0002008B50248FFF789F808BD00BF50
:1022840048A0002008B50248FFF781F808BD00BF48
:1022940048A0002008B50248FFF779F808BD00BF40
:1022A40048A0002008B50248FFF771F808BD00BF38
:1022B40090A0002008B50248FFF769F808BD00BFE8
:1022C400D8A0002008B503460B4A126842B10A4A56
:1022D400106803446A46934206D8074A136008BD4F
:1022E400054A06491160F2E701F08EFB0C230360F6
:1022F4004FF0FF30F3E700BF44A00020C8A6002041
:102304007047000000B58DB02422002103A801F01D
:10231400A5FB00230193029312484FF08042026010
:10232400436083604FF6FF72C260036183610323DD
:10233400039301230593099303A9FFF789F950B97E
:1023440000230193029301A90648FFF7E5FB28B98E
:102354000DB05DF804FBFFF74EFFF1E7FFF74BFF0D
:10236400F6E700BF90A0002000B58DB02422002124
:1023740003A801F073FB0023019302931148124A4E
:102384000260436083604FF6FF72C2600361836141
:102394000323039301230593099303A9FFF758F932
:1023A40050B900230193029301A90648FFF7B4FB37
:1023B40028B90DB05DF804FBFFF71DFFF1E7FFF747
:1023C4001AFFF6E7D8A000200004004000B583B04F
:1023D4000023009301930F480F4A026009224260D0
:1023E400836041F61F42C2608361FFF7D9F850B998
:1023F40000230093019369460648FFF78DFB28B933
:1024040003B05DF804FBFFF7F6FEF1E7FFF7F3FE18
:10241400F6E700BF20A100200010004000B583B003
:102424000368234A934205D0224A93422DD003B035
:102434005DF804FB204B9A6942F400629A619B693F
:1024440003F400630093009B002211461820FEF75A
:1024540029F91820FEF75EF9002211461920FEF72B
:1024640021F91920FEF756F9002211461A20FEF729
:1024740019F91A20FEF74EF9002211461B20FEF727
:1024840011F91B20FEF746F9D1E70B4BDA6942F04C
:102494001002DA61DB6903F010030193019B00224F
:1024A40011463620FEF7FEF83620FEF733F9BEE774
:1024B400002C0140001000400010024000B589B01B
:1024C400002304930593069307930368B3F1804FA5
:1024D40005D0254A934225D009B05DF804FB03F5E5
:1024E4000433DA6942F00102DA61DA6902F00102C6
:1024F4000092009A9A6942F004029A619B6903F07F
:1025040004030193019B0323049304A91748FEF7D2
:1025140023F9002211461C20FEF7C4F81C20FEF704
:10252400F9F8D9E7124BDA6942F00202DA61DA69A2
:1025340002F002020292029A9A6942F004029A613B
:102544009B6903F004030393039BC023049304A92E
:102554000648FEF701F9002211461D20FEF7A2F8F5
:102564001D20FEF7D7F8B7E700040040000801403B
:102574000010024000B587B0002302930393049334
:10258400059302680D4B9A4202D007B05DF804FB34
:1025940003F564439A6942F004029A619B6903F06B
:1025A40004030193019B4FF44073029302230393AA
:1025B400059302A90248FEF7CFF8E6E7002C014094
:1025C4000008014010B596B000241294139414949A
:1025D40015941094119409940A940B940C940D94EA
:1025E4000E940F942022214601A801F037FA3248B4
:1025F400324B036001234360846041F61F43C36090
:10260400046144618461FEF7CBFF00283ED14FF49E
:102614008053129312A92848FFF722F9002838D1D1
:102624002548FEF7E9FF002836D1002310931193C3
:1026340010A92148FFF770FA002830D160230993CC
:1026440000220A920B920C920D920E920F9209A9FB
:102654001948FFF791F828BB042209A91648FFF787
:102664008BF810BB00230193029303930493059307
:102674004FF400520692089301A90F48FFF78AFA13
:10268400B0B90D48FFF776FF16B010BDFFF7B3FDE4
:10269400BDE7FFF7B0FDC3E7FFF7ADFDC5E7FFF703
:1026A400AAFDCBE7FFF7A7FDD6E7FFF7A4FDD9E71F
:1026B400FFF7A1FDE5E700BF48A00020002C014082
:1026C40008B50A480A4B03604FF4E1334360002322
:1026D4008360C36003610C2242618361C361FFF7BD
:1026E40005FB00B908BDFFF786FDFBE7E8A1002064
:1026F400004C004008B50A480A4B03604FF4E1332C
:10270400436000238360C36003610C2242618361E0
:10271400C361FFF7EBFA00B908BDFFF76CFDFBE7F7
:1027240068A100200044004008B50A480A4B036031
:102734004FF4E133436000238360C36003610C22E0
:1027440042618361C361FFF7D1FA00B908BDFFF7A5
:1027540052FDFBE7A8A100200048004030B58BB033
:102764000023069307930893099303684F4A9342FF
:1027740007D04F4A934236D04E4A934263D00BB0AF
:1027840030BD4D4BDA6942F40022DA61DA6902F4B1
:1027940000220092009A9A6942F010029A619B69A1
:1027A40003F010030193019B4FF48063069302230B
:1027B400079303230993414D06A92846FDF7CCFF4F
:1027C4004FF40063069300240794089406A928464E
:1027D400FDF7C2FF224621463420FDF763FF342073
:1027E400FDF798FFCBE7344BDA6942F40032DA6143
:1027F400DA6902F400320292029A9A6942F00402FF
:102804009A619B6903F004030393039B04230693D7
:102814000223079303230993294D06A92846FDF7AC
:102824009BFF0823069300240794089406A92846CE
:10283400FDF792FF224621462620FDF733FF26208E
:10284400FDF768FF9BE71C4BDA6942F48022DA61EA
:10285400DA6902F480220492049A9A6942F0080226
:102864009A619B6903F008030593059B4FF4806309
:1028740006930223079303230993124D06A92846BE
:10288400FDF76AFF4FF4006306930024079408944D
:1028940006A92846FDF760FF224621462720FDF7BA
:1028A40001FF2720FDF736FF69E700BF004C004019
:1028B4000044004000480040001002400010014065
:1028C40000080140000C0140074B1B68074AA2FBAB
:1028D4000312D20C06490A70064AA2FB03239B0981
:1028E400054A1360704700BF0800002083DE1B43C5
:1028F4002CA20020D34D621028A2002010B44FF067
:10290400E0235C690B4A126802FB00FC9B6900210E
:1029140004E0E01A02441144614509D21A464FF01A
:10292400E0239B699A42FAD0F3D9D21A1144F3E70F
:1029340010BC704728A200200B4B1B68DA6842F4D5
:102944000052DA60094A1168CA6842F02002CA607B
:10295400074A1168CA6842F02002CA60DA6842F085
:102964002002DA60704700BFE8A1002068A10020BF
:10297400A8A100201E4B1B6813F0200F37D010B500
:102984001B4B5C68E4B21B4B1B6803B110BD0022F7
:102994000121084600F096FB174B1B685BB1432CE2
:1029A40016D0164A1368591C1160154AD454134B97
:1029B4001B68C72B13D0532CE8D10F4B1B68002B7B
:1029C400E4D10D4B01221A600C4B00221A60DDE7A2
:1029D400084B01221A60084B00221A60E7E7002125
:1029E400054B1960C722074801F038F8E3E7704740
:1029F4000044004018A300203CA2002014A300209F
:102A0400ECA300204CA200202B4B1B6813F0200FDA
:102A140051D010B5284B5C68E4B2284B1B6883B9CD
:102A2400274B1B685BB1432C0CD0264A1368591CF6
:102A34001160254AD454234B1B68C72B27D0532C31
:102A44002ED010BD1D4B01221A6000231F4A1360B3
:102A54001F4A13601C4B1B78012B05D0022B11D08D
:102A6400174B00221A60E6E7174A93781B021749AE
:102A74000B60D07803440B605278022AF0D15B4299
:102A84000B60EDE7104B5A78114B1A60E8E7C72248
:102A940000210D4800F0E2FF094B00221A60CEE746
:102AA400074B1B68002BCCD1054B01221A60054B48
:102AB40000221A60C5E7704700480040E8A30020E0
:102AC40040A20020E4A300201CA3002038A2002080
:102AD40030A200201C4B1B6813F0200F32D010B51D
:102AE400194B5C68E4B2194B1B6883B9184B1B681B
:102AF4005BB1432C0CD0174A1368591C1160164A59
:102B0400D454144B1B68C72B09D0532C0FD010BDC1
:102B14000E4B01221A600E4B00221A60F1E70021CD
:102B24000B4B1960C7220C4800F098FFEDE7084BE7
:102B34001B68002BEBD1064B01221A60054B0022C7
:102B44001A60E4E7704700BF004C0040B8A40020BE
:102B540044A20020B4A40020ECA300201C4B1B685A
:102B640013F0200F32D010B5194B5C68E4B2194B46
:102B74001B6883B9184B1B685BB1432C0CD0174AF4
:102B84001368591C1160164AD454144B1B68C72B84
:102B940009D0532C0FD010BD0E4B01221A600E4BDE
:102BA40000221A60F1E700210B4B1960C7220C4880
:102BB40000F054FFEDE7084B1B68002BEBD1064BEC
:102BC40001221A60054B00221A60E4E7704700BF37
:102BD4000050004088A5002048A2002084A50020C1
:102BE400BCA4002070B586B04E4B1B68ADF8143001
:102BF4001B0C8DF8163000244B4B1C600AE0FF239D
:102C0400032205A94948FFF7A0F86420FFF776FEE0
:102C14000134E4B2022CF2D9434B1B68002BFBD0E5
:102C24004FF6FF71012000F0DBFC4FF6FF7102202C
:102C340000F0D6FC3C4B1B68013B032B67D8DFE854
:102C440003F0021E364E002503954024029401949D
:102C5400374E00962D2320222946012000F0DCFC6B
:102C640003950294019400962D2320220121022031
:102C740000F0D2FC2C4B00221A6006B070BD002577
:102C840003954024029401942A4E00962D23202279
:102C94002946012000F0C0FC03950294019400969B
:102CA4002D2320220121022000F0B6FCE2E70025BA
:102CB40003954024029401941F4E00962D23202254
:102CC4002946012000F0A8FC039502940194009683
:102CD4002D2320220121022000F09EFCCAE70025BA
:102CE4000395402402940194144E00962D2320222F
:102CF4002946012000F090FC03950294019400966B
:102D04002D2320220121022000F086FCB2E74FF699
:102D1400FF71012000F064FC4FF6FF71022000F007
:102D24005FFCA7E7A44B000830A20020A8A1002064
:102D3400B44F0008B44B0008B4530008B45700085B
:102D4400A84B1B6813B1A74B00221A60A64B1B6843
:102D540063B9A64B1B68012B08D0A54B1B68002B3D
:102D640000F0A981A24B00221A60704770B586B0AA
:102D7400A04B1C7884B1012C00F09280052C00F04B
:102D84000681994B00221A60994B1B6813B1984B2A
:102D940000221A6006B070BD01220021084600F02E
:102DA40091F9944B5B781BB9934A1268012A1ED19E
:102DB400012B42D0022B50D0032BE2D1002201215F
:102DC400104600F07FF900F0B3F94FF6FF710120CF
:102DD40000F006FC4FF6FF71022000F001FC874B67
:102DE4001B68ADF814301B0C8DF8163052E001242A
:102DF400814B1C600021322000F094F9204600F041
:102E0400D7FD4FF4FA70FFF779FD0021084600F072
:102E140089F96420FFF772FD00216FF0310000F0A2
:102E240081F940F22620FFF769FD0021084600F0F1
:102E340079F9002000F0BCFDA3E73221002000F066
:102E440071F94FF47A60FFF759FD0021084600F04C
:102E540069F96420FFF752FD93E700216FF0310018
:102E640000F060F94FF4FA50FFF748FD00210846DE
:102E740000F058F9012000F031FC4FF47A70FFF7AC
:102E84003DFD7EE7FF23032205A95D48FEF75DFFB4
:102E94000134E4B2022CF5D96420FFF72FFD70E76A
:102EA400022000F01BFC534B5B78012B0DD0022B4E
:102EB40039D0032B7FF465AF504B1B68ADF810304D
:102EC4001B0C8DF8123000244BE00021084600F062
:102ED40029F94A4B1B68ADF810301B0C8DF81230E1
:102EE400002407E0FF23032204A94548FEF72DFF31
:102EF4000134E4B2022CF5D9424B1B68ADF814300E
:102F04001B0C8DF81630002407E0FF23032205A9CB
:102F14003B48FEF71AFF0134E4B2022CF5D96420D1
:102F2400FFF7ECFC2DE7354B1B68ADF814301B0C98
:102F34008DF81630002407E0FF23032205A930484A
:102F4400FEF703FF0134E4B2022CF5D9FFF74AFE81
:102F540017E7FF23032204A92948FEF7F6FE0134EC
:102F6400E4B2022CF5D9284B1B68ADF814301B0CC5
:102F74008DF81630002407E0FF23032205A920481A
:102F8400FEF7E3FE0134E4B2022CF5D9F9E6194B5D
:102F94005C784FF6FF71012000F022FB4FF6FF71C1
:102FA400022000F01DFB631E032B79D8DFE803F039
:102FB4000230486000250395402402940194134E86
:102FC40000962D2320222946012000F025FB03959D
:102FD4000294019400962D2320220121022000F066
:102FE4001BFBCEE6E8A30020B8A4002018A3002011
:102FF40088A50020ECA3002034A20020A84B0008E0
:10300400A8A10020AC4B0008B04B0008B44F000846
:1030140000250395402402940194274E00962D2305
:1030240020222946012000F0F7FA03950294019426
:1030340000962D2320220121022000F0EDFAA0E6C3
:10304400002503954024029401941C4E00962D23E0
:1030540020222946012000F0DFFA0395029401940E
:1030640000962D2320220121022000F0D5FA88E6C3
:1030740000250395402402940194114E00962D23BB
:1030840020222946012000F0C7FA039502940194F6
:1030940000962D2320220121022000F0BDFA70E6C3
:1030A4004FF6FF71012000F09BFA4FF6FF710220EA
:1030B40000F096FA65E67047B44B0008B453000874
:1030C400B457000838B50D461446A0B100224FF499
:1030D40000411348FDF760FCA5B100224FF40061E4
:1030E4000F48FDF759FCA4B100224FF480510C485D
:1030F400FDF752FC38BD01224FF400410848FDF7AA
:103104004BFCE9E701224FF400610548FDF744FC5C
:10311400E9E701224FF480510148FDF73DFCE9E75E
:1031240000080140014B18605960704790A50020C9
:10313400024B00225A601A60704700BF90A500201D
:10314400014B1870704700BF8CA5002038B50C46A1
:10315400012802D002282DD038BD002220212D487C
:10316400FDF71AFC00250EE0002240212A48FDF755
:1031740013FC01224FF480712748FDF70DFC640015
:10318400E4B20135EDB2072D0ED800224FF4807160
:103194002148FDF701FC14F0800FE5D00122402105
:1031A4001D48FDF7F9FBE4E7012220211948FDF74A
:1031B400F3FBD1E700224FF400511748FDF7ECFB75
:1031C40000250EE0012280211348FDF7E5FB0122D2
:1031D4004FF400711048FDF7DFFB6400E4B20135E1
:1031E400EDB2072D0ED800224FF400710A48FDF706
:1031F400D3FB14F0800FE5D1002280210648FDF7AF
:10320400CBFBE4E701224FF400510348FDF7C4FB74
:10321400A2E700BF000C01400010014038B504468D
:103224000D4601280AD001224FF480410648FDF7DB
:10323400B3FB29462046FFF789FF38BD0122402110
:103244000248FDF7A9FBF4E700100140000C01401F
:1032540038B504460D46012802D0022806D038BDF0
:10326400012240210948FDF797FB05E001224FF4B4
:1032740080410748FDF790FBC5F307212046FFF77F
:1032840065FFE9B22046FFF761FFE8E7000C014063
:103294000010014038B504460D4601280AD000222A
:1032A4004FF480410648FDF777FB29462046FFF797
:1032B4004DFF38BD002240210248FDF76DFBF4E7C5
:1032C40000100140000C0140F8B504460F461546B5
:1032D4001E462A21FFF7DEFFB91C2046FFF7B8FF80
:1032E400B11C2046FFF7B4FF2B212046FFF7D2FF85
:1032F400691C2046FFF7ACFF069901312046FFF711
:10330400A7FF2C212046FFF7C5FFF8BD38B50446BA
:10331400012800F02F81022800F04381112120466A
:10332400FFF7B8FF7820FFF7E9FAB1212046FFF74D
:10333400B1FF05212046FFF771FF3C212046FFF72E
:103344006DFF3C212046FFF769FFB2212046FFF7BD
:10335400A1FF05212046FFF761FF3C212046FFF72E
:103364005DFF3C212046FFF759FFB3212046FFF7BC
:1033740091FF05212046FFF751FF3C212046FFF72E
:103384004DFF3C212046FFF749FF05212046FFF76A
:1033940045FF3C212046FFF741FF3C212046FFF733
:1033A4003DFFB4212046FFF775FF03212046FFF7B8
:1033B40035FFC0212046FFF76DFF28212046FFF787
:1033C4002DFF08212046FFF729FF04212046FFF79F
:1033D40025FFC1212046FFF75DFFC0212046FFF7EE
:1033E4001DFFC2212046FFF755FF0D212046FFF7A0
:1033F40015FF00212046FFF711FFC3212046FFF7E8
:1034040049FF8D212046FFF709FF2A212046FFF7B7
:1034140005FFC4212046FFF73DFF8D212046FFF71D
:10342400FDFEEE212046FFF7F9FEC5212046FFF7F9
:1034340031FF1A212046FFF7F1FE36212046FFF71F
:1034440029FF00212046FFF7E9FEE0212046FFF78F
:1034540021FF04212046FFF7E1FE22212046FFF749
:10346400DDFE07212046FFF7D9FE0A212046FFF79B
:10347400D5FE2E212046FFF7D1FE30212046FFF74E
:10348400CDFE25212046FFF7C9FE2A212046FFF75D
:10349400C5FE28212046FFF7C1FE26212046FFF75E
:1034A400BDFE2E212046FFF7B9FE3A212046FFF744
:1034B400B5FE00212046FFF7B1FE01212046FFF7AB
:1034C400ADFE03212046FFF7A9FE13212046FFF796
:1034D400A5FEE1212046FFF7DDFE04212046FFF78B
:1034E4009DFE16212046FFF799FE06212046FFF790
:1034F40095FE0D212046FFF791FE2D212046FFF772
:103504008DFE26212046FFF789FE23212046FFF762
:1035140085FE27212046FFF781FE27212046FFF75D
:103524007DFE25212046FFF779FE2D212046FFF759
:1035340075FE3B212046FFF771FE00212046FFF770
:103544006DFE01212046FFF769FE04212046FFF7A6
:1035540065FE13212046FFF761FE3A212046FFF75E
:1035640099FE05212046FFF759FE29212046FFF741
:1035740091FE38BD184D002280212846FDF70CFA33
:103584001420FFF7BBF9012280212846FDF704FA35
:103594001420FFF7B3F9012210212846FDF7FCF9A6
:1035A400BCE60E4D00224FF400412846FDF7F4F925
:1035B4001420FFF7A3F901224FF400412846FDF738
:1035C400EBF91420FFF79AF901224FF480512846B1
:1035D400FDF7E2F9A2E600BF000C01400010014033
:1035E400F0B583B006460D469F2300937F23002247
:1035F4001146FFF769FE002707E029463046FFF72A
:1036040027FE01349F2CF8D901377F2F01D80024DD
:10361400F8E703B0F0BD00002DE9F04383B0DDF816
:1036240028800B9CDDF830900D9FB8F1000F2ED050
:1036340006460D4611461A460B1902EB09000138DD
:103644000090013B3046FFF73FFE09FB04F44FEACC
:10365400D40909FB05854FF0000814E00D4B1968E7
:103664003046FFF7F5FD0134072C09D82B782341A8
:1036740013F0010FF2D039463046FFF7E9FDF2E7C7
:10368400013508F10108C84501D20024ECE703B074
:10369400BDE8F0830C000020F0B583B006461D465B
:1036A400089F099CCB19101901380090013B012097
:1036B400FFF70AFE04FB07F700240BE06200013267
:1036C400A95C3046FFF7AAFD15F814103046FFF741
:1036D400A5FD0134BC42F1D303B0F0BD30B583B0D5
:1036E40004464FF6FF710120FFF77AFF4FF6FF7192
:1036F4000220FFF775FF012C05D0022C16D0032CF5
:1037040027D003B030BD4F250195402400941B4BB6
:10371400202211460120FFF7BFFF01950094184BAA
:10372400202211460220FFF7B7FFEAE74F25019553
:1037340040240094114B202211460120FFF7ACFFD6
:10374400019500940E4B202211460220FFF7A4FF9E
:10375400D7E74A230193402400940A4B20221146C0
:103764000120FFF799FF472301930094064B202281
:1037740011460220FFF790FFC3E700BF10000020AE
:1037840098270020204F0020A8720020A8B1A2B1E1
:10379400017011684160516881609268C2600022C2
:1037A40042628262C2620361009B4361002303633D
:1037B40043638363C36303644364704768B1002253
:1037C400C263026442640263426382630022C2628F
:1037D4008262426202628261C26170472DE9F041F5
:1037E40082B0154C2046FFF7E9FF04F14806304645
:1037F400FFF7E4FF114D2846FFF7E0FF104F4FF0AD
:103804000008CDF800803B460E4A01212046FFF710
:10381400BDFFCDF800803B460B4A01213046FFF73F
:10382400B5FF0A4B00930A4B0A4A00212846FFF7CA
:10383400ADFF02B0BDE8F0819CA500202CA60020BD
:1038440000C0DA45C05B0008B45B000800002041FA
:1038540000002042CC5B000808B5054B1860054BFE
:103864001868002302221946806800F049F908BD4F
:1038740074A60020B097002010B5013801280AD89A
:1038840014464FF0FF3392B207480068FEF75DFA22
:1038940040B9204610BD00F0B7F8092303604FF08B
:1038A400FF30F7E70520F5E774A60020022801D8C9
:1038B4000020704708B500F0A7F8092303604FF013
:1038C400FF3008BD08B500F09FF8092303604FF0EE
:1038D400FF3008BD08B548B94FF0FF33012208484E
:1038E4000068FEF79EFA40B9012008BD00F08CF88C
:1038F400092303604FF0FF30F7E70520F5E700BF29
:1039040074A6002008B5022804D84FF400534B6075
:10391400002008BD00F078F809230360F8E70000F0
:103924000B4B834200D070470A4B1A6801321A606D
:103934001B68322B08D0074B1A68074B9A42F2DDFA
:10394400044B00221A60EEE7024B00221A60F2E7F1
:1039540020A1002078A60020F8FFFF7F70B5104C4E
:103964002046FDF79DFC0F4E3046FDF799FC0E4DA9
:103974002846FDF795FC0D48FDF7C8FC00212046BC
:10398400FDF7EAFF04212046FDF7E6FF3C2130461F
:10399400FEF75CF83C212846FEF758F870BD00BFDE
:1039A40048A0002090A00020D8A0002020A1002042
:1039B400014B1870704700BF7CA60020002103E073
:1039C4000B4B5B58435004310A480B4B42189A4244
:1039D400F6D30A4A02E0002342F8043B084B9A4219
:1039E400F9D3FEF78DFC00F015F8FEF7E6FB7047FF
:1039F400E85B000800000020F49F0020F49F0020F2
:103A0400C8A60020FEE70000014B1868704700BFFD
:103A1400B097002070B50D4E0D4D761BB61006D034
:103A2400002455F8043B01349847A642F9D1094EC5
:103A3400094D01F093F8761BB61006D0002455F812
:103A4400043B01349847A642F9D170BDDC5B000801
:103A5400DC5B0008E45B0008DC5B0008830730B52E
:103A640048D0541E002A3FD00346CAB201E0013CAC
:103A74003AD303F8012B9D07F9D1032C2DD9CDB2EC
:103A840045EA05250F2C45EA054536D9A4F110026F
:103A940022F00F0C03F1200EE6444FEA121C03F14E
:103AA400100242E9045542E9025510327245F8D138
:103AB4000CF1010214F00C0F03EB021204F00F0CD2
:103AC40013D0ACF1040323F003030433134442F88A
:103AD400045B9342FBD10CF003042CB1CAB21C4426
:103AE40003F8012B9C42FBD130BD64461346002CE5
:103AF400F4D1F9E703461446BFE71A46A446E0E7C3
:103B04002DE9F043694C0E46D4F80080174604466C
:103B14001D4683B0B8F1000F03D0D8F83830002B1D
:103B240077D0022F05D0012F00F2AC80002DC0F217
:103B3400A980636EDA0752D52146404600F05AF94F
:103B4400216B41B104F14003994202D0404600F098
:103B54007DFA002323630023B4F90CC0A3611CF095
:103B6400800F636064D12CF44A6C2CF0030C022F98
:103B7400A4F80CC06AD001AB214640466A4600F066
:103B840091FBA3891843A081002D2FD0002E2ED0A5
:103B9400D8F83830002B38D0009BC4E90465AB4218
:103BA400B4F90C3026601CBF43F40063A381012FD9
:103BB40004BF43F00103A3819AB213F008032CD08D
:103BC400D1075DD500216D42A561656EA16015F038
:103BD400010527D00025284603B0BDE8F083A3895A
:103BE4009B05A9D4A06D00F059FBA5E7009D2846CC
:103BF40000F088FB0646002847D0A38943F08003E1
:103C0400A381D8F83830002BC6D1404600F026F9FD
:103C1400C2E7404600F022F983E7A360656E15F021
:103C24000105D7D1930524D5284603B0BDE8F08318
:103C34004046216900F00AFAB4F90CC0022F2CF4B2
:103C44004A6C2CF0030CA4F80CC094D1002500217C
:103C5400012204F1430323602361636E4CF0020CE0
:103C6400D807A4F80CC0A1606261DDD41CF4007F05
:103C7400DAD1A06D00F014FB284603B0BDE8F08350
:103C8400A560CBE74FF0FF35CEE7DDF80090A945FE
:103C940004D0484600F036FB064620B94FF0FF3505
:103CA400B4F90CC0D3E74D46A7E700BFB097002096
:103CB400024B13B1024800F005B870470000000041
:103CC400853F0008002301461A46184600F048BE06
:103CD400B1F90C20F8B50C461107074643D46368C4
:103CE40042F40062002BA2815BDDA56A002D56D050
:103CF40000233E683B6093B212F4805255D10123F5
:103D04003846E169A847421C65D0A389A56A5B07C8
:103D140005D56368C01A236B0BB1E36BC01A024666
:103D2400E16900233846A847411C40D13B68002B79
:103D34003DD01D2B01D0162B54D10022A38923F48E
:103D44000063A3812369C4E90032216B3E6031B36F
:103D540004F14003994202D0384600F077F9002379
:103D640018462363F8BD2669CEB193B29A0718BFEB
:103D74000023256808BF63692660AD1BA3600CE0BF
:103D84002B463246D4F824C03846E169E047B0F106
:103D9400000CA5EB0C05664416DD002DF0DC0020BC
:103DA400F8BDE36B002BA0DCF9E7206DAFE7002240
:103DB400B4F90C30626023F400632269A381DB044C
:103DC4002260C2D52065C0E7A3894FF0FF3043F0DD
:103DD4004003A381F8BD3B68002B96D01D2B06D071
:103DE400162B04D0A38943F04003A381F8BD00201F
:103DF4003E60F8BD38B505460C4608B1836BA3B1E7
:103E0400B4F90C00B8B1636EDB0701D4810515D594
:103E140028462146FFF75CFF636E0546DA0702D4A5
:103E2400A3899B050ED5284638BD00F017F8B4F9D0
:103E34000C000028E7D10546284638BDA06D00F0E7
:103E44002DFAE5E7A06D00F02BFA284638BD00BF37
:103E5400014900F0FBB900BF154A00082DE9F047FD
:103E64008246394800F01AFADAF83840002C66D154
:103E7400042303223549DAF80450CAF83C10DFF869
:103E8400D090DFF8D080344F344E0AF53B71CAE944
:103E9400B921CAF8E0422146EB600822C5E9004492
:103EA400C5E904446C66AC60AC6105F15C00FFF7E5
:103EB400D5FDC5E90759C5E90987EE6205F1580042
:103EC40000F0E8F9DAF80850254B2146EB600822A7
:103ED400C5E90044C5E904446C66AC60AC6105F115
:103EE4005C00FFF7BBFDC5E90759C5E90987EE6228
:103EF40005F1580000F0CEF9DAF80C50194B2146C0
:103F0400EB600822C5E90044C5E904446C66AC6072
:103F1400AC6105F15C00FFF7A1FD05F15800C5E9AE
:103F24000759C5E90A76C5F8248000F0B3F90123DE
:103F34000548CAF83830BDE8F04700F0B1B9024886
:103F4400BDE8F04700F0ACB98CA60020553E00084F
:103F5400AD480008D148000811490008314900085B
:103F64000900010012000200014800F097B900BFE7
:103F740088A60020014800F093B900BF88A600205D
:103F840038B5084B084D5B1B9C1007D0043B1D44FF
:103F9400013C55F804399847002CF9D1BDE8384064
:103FA40000F0E2BDE85B0008E45B0008F8B50C46ED
:103FB400234F064600F05AFCBB685D68C4F57E6377
:103FC40025F003050F332B4423F47F6323F00F0301
:103FD400A3F58054B4F5805F07DB0021304600F080
:103FE40051FCBB682B44984204D0304600F044FC9A
:103FF4000020F8BD3046614200F044FC01300DD091
:10400400104ABB682D1B45F001055D6013683046FE
:104014001B1B136000F030FC0120F8BD002130466A
:1040240000F030FCBA68831A0F2BDEDD43F0010385
:104034005360054B03491B68C01A0860D5E700BFED
:10404400E49B002090A60020EC9F002000295ED075
:10405400F8B50C46064600F009FC54F8042C784FD9
:10406400A4F1080522F001016818D7F808C04368D4
:10407400844523F0030300F08780D207436034D4DF
:1040840054F8082C07F10804AD1A1144AA68A24296
:1040940068D000EB030CDCF804E0D5F80CC01EF08B
:1040A400010FC2F80CC0CCF8082000F0918041F058
:1040B40001036B600160B1F5007F31D24A09CB087E
:1040C400012191407A6801331143796007EBC302FF
:1040D40057F83310083AC5E9021247F83350CD6057
:1040E4003046BDE8F84000F0C7BBC2185268D2079A
:1040F4000ED4194407F108048368A34270D0C2683F
:10410400DA60936041F001036B606950D3E7704754
:1041140041F00103B1F5007F44F8043C0160CDD3C4
:10412400B1F5206F4FEA512347D28B0903F13900CF
:1041340003F13802C300F818FB580838984258D0E5
:104144005A6822F003028A4202D99B689842F7D146
:10415400D868C5E9023085603046DD60BDE8F840C6
:1041640000F08ABBC2185268D20763D40B44D0E96A
:104174000212CA60916043F001026A603046EB505B
:10418400BDE8F84000F078BB0B44D10707D454F8DD
:10419400082CAD1A1344D5E90212CA60916043F0A9
:1041A40001026A60274ABD6012689A4298D8264B79
:1041B40030461968FFF7FAFE92E7142B0AD9542BFC
:1041C4001FD80B0B03F16F0003F16E02C300B2E7BB
:1041D400194491E703F15C0003F15B02C300AAE711
:1041E40041F00103C7E90455C5E902446B60695015
:1041F40076E70121921001FA02F279680A437A60A3
:10420400A7E7B3F5AA7F06D8CB0B03F1780003F137
:104214007702C3008FE740F25452934206D88B0CC6
:1042240003F17D0003F17C02C30084E74FF47E7345
:104234007E2280E741F001036B60016050E700BF1C
:10424400E49B0020F09F0020C0A600202DE9F84345
:104254004FF000090746884600F53876D6E9015440
:10426400013D10D4A389013D012B08D9B4F90E30C6
:10427400013304D021463846C04749EA00096B1C83
:1042840004F16804EED13668002EE7D14846BDE853
:10429400F88300BF704700BF704700BF704700BF7E
:1042A400704700BF70B50C46B1F90E1015460029D1
:1042B4001E4696B014DB6A4600F010FC00280FDBA3
:1042C400019A4FF4806302F47042A2F50052B2FAEC
:1042D40082F24FF40060520932602B6016B070BD58
:1042E4000023B4F90C10336011F0800004D0402294
:1042F40018462A6016B070BD4FF480632B6016B068
:1043040070BD00BF024B0146186800F003B800BF3F
:10431400B09700202DE9F04F01F10B05162D06464C
:1043240083B025D8102900F2B88000F09FFA102538
:1043340018224FF0020CB54F3A445368A2F1080119
:104344008B4200F0B7805A68D96822F003021A44FD
:104354009C683046E1608C60516803F1080441F0C8
:104364000101516000F088FA204603B0BDE8F08FE7
:1043740035F0070500F19180A94200F28E8000F02B
:1043840075FAB5F5FC7FC0F094816B0A00F08C805F
:10439400042B00F26A81AB0903F1390C03F13804F0
:1043A4004FEACC00994F384443680838984206D104
:1043B4000CE0002980F22681DB68984206D05A6816
:1043C40022F00302511B0F29F3DDA4463C69DFF8F8
:1043D40040E274457AD0626822F00302531B0F2B2B
:1043E40000F37681002BC7E904EE80F26781B2F511
:1043F400007F80F019810121D30852090B449140B8
:104404007A6857F833000A4307EBC3010839A06000
:10441400E1607A6047F83340C46001214FEAAC039D
:104424009940914259D8114206D12CF0030C49000D
:1044340011420CF1040CFAD007EBCC09484664464F
:10444400D0F80C80404508D11CE1002B80F221817A
:10445400D8F80C80404500F01581D8F8042022F0EB
:104464000302531B0F2BF0DD08EB050145F001059A
:10447400C8F804503046D8E90264F460A66043F0FA
:104484000104C7E904114C60C1E902EE48F80230A6
:1044940000F0F2F908F1080402E00C230024336070
:1044A400204603B0BDE8F08F4FF400704FF0400C8D
:1044B4003F2477E7D3689A4208BF0CF1020C7FF4DB
:1044C40042AF3C69DFF848E1744584D101217A6840
:1044D4004FEAAC0399409142A5D9BC68636823F0C4
:1044E40003094D4503D8A9EB05030F2B7ADCDFF84C
:1044F40024B1494BDBF800201B6801322B4404EB48
:10450400090A00F02F8103F580530F3323F47F68E9
:1045140028F00F084146304600F0B4F9411C024629
:1045240000F0EF80824500F2EA803C4B1968414478
:104534000846196000F04981DBF80010019301314D
:104544001BBFA2EB0A0A5044CBF80020186012F0FB
:10455400070B00F01181CBF108010A44CBF580511F
:1045640090440831A1EB0801C1F30B0A51463046CF
:10457400009200F087F9421CDDE9002300F04B8132
:10458400801A00EB0A08196848F001005144BC4243
:10459400BA601960506000F02481B9F10F0F40F245
:1045A40022814FF0050E6068A9F10C0C2CF0070C69
:1045B40000F0010040EA0C006060BCF10F0F04EB56
:1045C4000C00C0E901EE00F22E8114465068144B31
:1045D4001A688A4238BF1960124B1A688A4238BF77
:1045E400196090E0621943F0010345F0010565602C
:1045F4003046BA600834536000F03EF9204603B0F8
:10460400BDE8F08FD9681A44A2E600BFE49B0020FD
:10461400EC9B0020EC9F0020C0A6002090A6002068
:10462400B8A60020BCA60020B2F5206F4FEA5223A2
:104634005FD3142B00F2B18003F15C01C9005B333A
:10464400781879580838884200F08F804B6823F036
:104654000303934202D989688842F7D1C8687A680B
:10466400C4E902108460CC60D7E6142B59D9542BCA
:1046740000F29B802B0B03F16F0C03F16E044FEAE5
:10468400CC008FE60134A30700F108007FF4D8AE14
:1046940053E0444642445368D8F80C1043F00103F5
:1046A400536054F8083F3046D9608B6000F0E4F85A
:1046B400F6E64FEAD50C05F108023CE622445368BD
:1046C400304643F00103536000F0D6F80834E7E6BF
:1046D400611945F00105656043F00105C7E904115E
:1046E4003046C1E902EE4D60A35000F0C5F808342D
:1046F400D6E6930903F13901C9003833A0E7BC4277
:104704005ED0BC68606820F003084545A8EB05034B
:1047140002D80F2B3FF766AF304600F0ADF8002407
:10472400BEE603F15C0C03F15B044FEACC0039E60E
:1047340059F808394B4540F095801CF0030F0CF1F3
:10474400FF3CF5D17B6823EA01037B604900994271
:104754003FF6C3AE11B9C0E6490004341942FBD098
:10476400A44669E603F11008D4E601229B109A409E
:104774007B681A437A6073E702EB08014942C1F38C
:104784000B0A51463046009200F07CF8431CDDE9E8
:1047940000237FF4F5AEDA46F5E6542B26D8130B46
:1047A40003F16F01C9006E334AE7B3F5AA7F26D837
:1047B400EB0B03F1780C03F177044FEACC00F1E53D
:1047C400294B186840441860B6E6CAF30B0CBCF1D8
:1047D400000F7FF4B1AEBC68C84448F001006060CB
:1047E400F5E61446F3E60123536095E7B3F5AA7F93
:1047F40024D8D30B03F17801C900773320E740F2C2
:104804005452934224D8AB0C03F17D0C03F17C0485
:104814004FEACC00C6E5ABF1080BD8444FF0000AD0
:10482400A8EB0208AFE604F1080130460093FFF755
:104834000DFCBC68009B60681968C8E640F25451DE
:104844008B420BD8930C03F17D01C9007C33F7E64E
:104854004FF47E704FF07F0C7E24A3E54FF47E71FD
:104864007E23EDE67B6871E790A600200148FFF700
:1048740015BD00BF84A600200148FFF711BD00BF8D
:1048840084A60020002238B5064D044608462A6056
:10489400FDF718FD431C00D038BD2B68002BFBD05E
:1048A400236038BDC4A6002010B50C46B1F90E1023
:1048B40000F03EF9002803DB236D0344236510BD9B
:1048C400A38923F48053A38110BD00BF2DE9F041D7
:1048D4000C46B1F90C101F46CB05054616460BD401
:1048E40021F48051A1813B4632462846B4F90E108A
:1048F400BDE8F04100F01EB8B4F90E100223002206
:1049040000F000F9B4F90C10EAE700BF10B50C464A
:10491400B1F90E1000F0F6F8A389421C0EBF23F47F
:10492400805343F480532065A38110BDB1F90E1068
:1049340000F05CB838B50C46114600228446074D99
:1049440020462A601A466446FEF796FF431C00D0B0
:1049540038BD2B68002BFBD0236038BDC4A60020D3
:104964002DE9F047DFF87CA00646DAF80000984607
:104974000F469146FFF792FC1B4B1B68D3F8484146
:1049840024B365681F2D26DC5EB96B1C0235DAF88A
:104994000000636044F82570FFF782FC0020BDE846
:1049A400F087012304EB8501C1F88890D4F88821AD
:1049B400AB401A43022EC4F88821C1F80881E4D11F
:1049C400D4F88C211343C4F88C31DEE703F5A674C4
:1049D400C3F84841D5E7DAF80000FFF761FC4FF06F
:1049E400FF30DCE7E09B0020D85B0008002238B5EC
:1049F400064D044608462A60FEF758FF431C00D0C3
:104A040038BD2B68002BFBD0236038BDC4A6002022
:104A140070B500294BD006460C4610B1836B002BB1
:104A240048D0636ED80734D5B4F90C30002B3ED08F
:104A340021463046FFF74CF9E36A054633B1304668
:104A4400E16998470028B8BF4FF0FF35A3891A06DB
:104A54003BD4216B41B104F14003994202D030466A
:104A6400FFF7F4FA00232363616C21B13046FFF7AA
:104A7400EDFA00236364FFF777FA0022636EA281E4
:104A8400DB0727D5A06DFFF707FCFFF773FA28466D
:104A940070BDA3899905CBD4A06DFFF7FFFBB4F9D2
:104AA4000C30002BC4D1656E15F0010508D000252B
:104AB400284670BDFFF7D2F9636ED807B4D4E8E78F
:104AC400A06DFFF7EDFB284670BD30462169FFF766
:104AD400BDFABEE7A06DFFF7E3FBD3E770B5002690
:104AE400074D0446084611462E60FEF70BFF431C93
:104AF40000D070BD2B68002BFBD0236070BD00BFBD
:104B0400C4A6002038B50C46114600228446074D41
:104B140020462A601A466446FEF7D4FE431C00D0A1
:104B240038BD2B68002BFBD0236038BDC4A6002001
:104B340038B50C46114600228446074D20462A60AB
:104B44001A466446FEF7C6FE431C00D038BD2B68E7
:104B5400002BFBD0236038BDC4A60020F8B500BFED
:104B6400F8BC08BC9E467047F8B500BFF8BC08BC4A
:044B74009E467047A2
:104B780002030405060708090A0B0C0D0E0F101096
:104B88000000000000000000000000000102030413
:104B980006070809000000000102030450505000F5
:104BA800515151004242420043434300000000007B
:104BB80000000000000000000000000000000000ED
:104BC8000000000000004000024000000000C0009B
:104BD8001EC003000000C0017EC00F006000E0039B
:104BE8003EC003008001F0031EC001000007F00171
:104BF8001EC00100000EF8001EC00100001C780055
:104C08001EC0010000783C001EC0010000F01E001C
:104C18001EC0010000E00F001EC0010300C0070015
:104C28001EC0810700C0E3FFFFFFFF0F00E0C7FFC2
:104C3800FFFFFF1F00F087011EC0010000780E0073
:104C48001EC00100003C0E001EC00100000E0E0038
:104C58001EC0010000071E001EC0010080031C00CA
:104C68001EC00100C0001C001EC0010060001C0026
:104C78001EC0010018003E000600000000003E00B3
:104C88000000400000003E180000E00000003FF86F
:104C9800FFFFFF0100803FF8FFFFFF0100803B7826
:104CA8000007E00000C07B780007E00000C07978CA
:104CB8000007E00000E078780007E00000F078786E
:104CC8000007E000007078780007E0000038787886
:104CD8000007E000001C78780007E000001C7878E6
:104CE8000007E000000E78780007E000000778F879
:104CF800FFFFFF00800378F8FFFFFF00C00178780E
:104D08000007E000600078780007E000300038789D
:104D18000007E000180038780007E0000C00387839
:104D28000007E000000038780007E00000003C7849
:104D38000007E00000003C780007E00000003C7835
:104D48000007E00000001C780007E00000001E7863
:104D58000007E00000001FF8FFFFFF0000FF0FF84A
:104D6800FFFFFF0000FC0F780000E00000F007786C
:104D78000000E00000E003780000E00000C0013817
:104D880000000000004000080000000000000000D3
:104D9800000000000000000000000000000000000B
:104DA80000000000000000000000000000000000FB
:104DB80000000000000000000000000000000000EB
:104DC800000000000000000040000000000000009B
:104DD800C003000000000000C00F00000000000039
:104DE800C007000000000000C00310000000000021
:104DF800C003300000000006C00378002000100C3B
:104E0800C003F800C000381CC003F800C0FF7F785A
:104E1800C0033C00C0FF7FF0C0033C00C0033CF06F
:104E2800C1031E00C0033CE0C1030E00C0033CE008
:104E3800C3030700C0033CC0C3030300C0033CC056
:104E4800C3830100C0033CC0C3C30000C0033CC00F
:104E5800C1430000C0033C80C0230000C0033C00E5
:104E6800C0038000C0033C00C003C001C0033C0075
:104E7800C003E003C003BCFFFFFFFF07C0033CFF04
:104E8800FFFFFF0FC0033C02F00B0000C0033C0013
:104E9800F81B0000C0033C00F81B0000C0033C00E6
:104EA800FC130000C0033C00FC330000C0033C00BE
:104EB800FC330000C0033C00DE330000C0033C00AC
:104EC800DE630000C0033C00CF630000C0033C0069
:104ED800CFE30000C0033C80C7E30000C0033C8070
:104EE800C7C30100C0FF3FC0C3C30300C0FF3FE00A
:104EF800C1830300C0033CE0C1830700C0033CF04A
:104F0800C0030F00C0033C70C0030F00C0031C782F
:104F1800C0031E00C003043CC0033E00C003001CC5
:104F2800C0037C00C003000EC003F801C0000007E6
:104F3800C003F80320008003C003F00F0000C00383
:104F4800C003E03F0000E000C003E007000060008D
:104F5800C003C00100003000C0038000000018003A
:104F6800C003000000000C00C003000000000200A5
:104F7800C003000000000000C003000000000000A3
:104F8800C003000000000000C00100000000000095
:104F980040000000000000000000000000000000C9
:104FA80000000000000000000000000000000000F9
:104FB80000000000000000000000000000000000E9
:104FC8000000000000000000020000000000400097
:104FD8000E0000000000C0003F0000000000C001FB
:104FE8001F000000C000E0030F0000008003F00174
:104FF8000F0000000006F08007000000000C788019
:1050080007000000003878800300800100703CC071
:105018000300C00300E01EC0FFFFFF0700E00FC051
:10502800FFFFFF0F00C007E00000C003008003E09F
:105038000000C00100C007700000C00100E0077058
:105048000000C001007007380000C00100380E18C9
:105058000000C001001C0E0C0000C001000E0E0E66
:105068000000C00180031E060010C001C0011C63BF
:105078000038C00160001CE1FF7FC00110009EE005
:10508800FF7FC00100003EE0013CC00100003FE09E
:10509800013CC00100003FE0013CC00100803BE052
:1050A800013CC00100C03BE0013CC00100C039E048
:1050B800013CC00100E038E0013CC00100F038E0EC
:1050C800013CC001007838E0013CE001003838E0DC
:1050D800013CE001001C78E0013CE001000E78E0B2
:1050E800013CE001000778E0013CE001800378E042
:1050F800013CE001C00178E0013CE001E00078E01B
:10510800FF3FE001600038E0FF3FE001100038E0B9
:10511800013CE001080038E0010CE001000038E043
:105128000104E001000038600000E00100003800E0
:105138000000E00100003C000000E00100003C002D
:105148000000E00000003C000000E00000001C003F
:105158000000F00000001C008001F00000021E00AA
:1051680000FFFF0000FE0F0000F87F0000F80F00AE
:1051780000E07F0000E0070000C03F0000C003001F
:1051880000801F0000C00000000007000040000071
:105198000000030000000000000000000000000004
:1051A80000000000000000000000000000000000F7
:1051B80000000000000000000000000000000000E7
:1051C8000000000000000000020000000000400095
:1051D8000E0000000000C0003F0000000000C001F9
:1051E8001F000000C000E0030F0000008003F00172
:1051F8000F0000000006F08007000000000C788017
:1052080007000000003878800300800100703CC06F
:105218000300C00300E01EC0FFFFFF0700E00FC04F
:10522800FFFFFF0F00C007E00000C003008003E09D
:105238000000C00100C007700000C00100E0077056
:105248000000C001007007380000C00100380E18C7
:105258000000C001001C0E0C0000C001000E0E0E64
:105268000000C00180031E060010C001C0011C63BD
:105278000038C00160001CE1FF7FC00110009EE003
:10528800FF7FC00100003EE0013CC00100003FE09C
:10529800013CC00100003FE0013CC00100803BE050
:1052A800013CC00100C03BE0013CC00100C039E046
:1052B800013CC00100E038E0013CC00100F038E0EA
:1052C800013CC001007838E0013CE001003838E0DA
:1052D800013CE001001C78E0013CE001000E78E0B0
:1052E800013CE001000778E0013CE001800378E040
:1052F800013CE001C00178E0013CE001E00078E019
:10530800FF3FE001600038E0FF3FE001100038E0B7
:10531800013CE001080038E0010CE001000038E041
:105328000104E001000038600000E00100003800DE
:105338000000E00100003C000000E00100003C002B
:105348000000E00000003C000000E00000001C003D
:105358000000F00000001C008001F00000021E00A8
:1053680000FFFF0000FE0F0000F87F0000F80F00AC
:1053780000E07F0000E0070000C03F0000C003001D
:1053880000801F0000C0000000000700004000006F
:105398000000030000000000000000000000000002
:1053A80000000000000000000000000000000000F5
:1053B80000000000000000000000000000000000E5
:1053C8000000000000000000000000000080000055
:1053D8000000020000800300000007000080FFFFBB
:1053E800FFFF0F000080FFFFFFFF1F000080070086
:1053F80000800F0000800700008007000080070C75
:1054080000800700008007380080070000800770D0
:1054180000800700008003F001800700008003E09F
:105428000380070000C003C00380070000C003C05A
:105438000780070000C003800780070000C00380C2
:105448000780070000C003800780030000C0030036
:105458000780030000C003000380030000C00300AE
:1054680000C0830100C0010000C0C30300C00100E8
:1054780000C0E307FCFFFFFFFFFFFF0FF8FFFFFF80
:10548800FFFFFF1F10E0010000C0030000E001045F
:1054980000C0030000E0010C00C0030000E0013878
:1054A80000C0030000E0017800C0030000E000F045
:1054B80000C0030000E000E001C0030000F000E0CD
:1054C80003C0010000F000C007C0010000F000C0E8
:1054D80007E0010000F000C007E0010000F00080D4
:1054E80007E0010000F0008007E0010000F0008004
:1054F80003E001000070000001E0010000780000F6
:1055080000E081000078000000E0C10100780000A0
:1055180000E0E10300FCFFFFFFFFFF0700FCFFFFC7
:10552800FFFFFF0F0078000000E0000000300000DF
:1055380000E000000000000000F000000000000093
:1055480000F000000000000000F000000000000073
:1055580000F000000000000002F800000000000059
:105568003E7C000000000000F87F00000000000002
:10557800E07F000000000000C03F000000000000C5
:10558800801F000000000000000F00000000000065
:105598000003000000000000000000000000000000
:1055A80000000000000000000000000000000000F3
:1055B80000000000000000000000000000000000E3
:1055C8004000000000000000C001000000000000D2
:1055D800C007000000000000E0010000000000001B
:1055E800E000000000000000E000000000000000F3
:1055F800600000000000002030000800000040604B
:1056080010001C000000E0E0FFFF3F00F0FFFFE19A
:10561800FFFF7F00E0FFFFE301003C004000F0E3F4
:1056280001001C000000F0E021001C000000F0E078
:1056380061001C000000F0E0C1011C00000070E0E7
:1056480081071C00000078E0010F1C00000078E0D2
:10565800011F1C00800078E0011E1C00800138E05A
:10566800011E1E0000033CE0011C1E0000023CE07D
:10567800010C1E0000061CE001001E00000C1CE0CE
:1056880001000E00001C1EE081030F0000180EE050
:1056980001FF0F0000380EE001FC070000700FE06A
:1056A80001F00300006007E001E0010000E007E00E
:1056B8000140000000C003E00100000100C003E059
:1056C8000100800300C003F0FFFFFF0700C007F0E0
:1056D800FFFFFF0F00E007E00000800700E00F4039
:1056E8000000800300701E000000800300701E0090
:1056F8000000800300383C000080800300383C0034
:1057080000C08103001C780000E0C303000C78FE91
:10571800FFFFC703000E78FCFFFFCF0300067818D1
:105728000000C0030003F0000000C0038003F00085
:105738000000C0038001F0000000C003C000F000BA
:105748000000C001E00070000000C00160002000FF
:105758000000E001300000000000E0011800000037
:105768000006F0010800000000FEFB000400000035
:1057780000F0FF000000000000C07F0000000000F3
:1057880000003F000000000000001E0000000000B4
:1057980000000600000000000000000000000000FB
:1057A80000000000000000000000000000000000F1
:1057B80000000000000000000000000000000000E1
:1057C80000000000000000000000000000000000D1
:1057D80000100000000000000030000000FEFFFF85
:1057E800FFFF000000FCFFFFFFFF000000180000A3
:1057F8000038000000000000003800000000080029
:105808000038000000007800003C00000000F801AB
:10581800003C00000000F800001C000000007800B8
:10582800001C000000007800001C00000000380088
:10583800001C000000003C00001C000000003C00B0
:10584800001E000000003C00001E000000003C009C
:10585800000E000000003C00000E000000003C00AC
:10586800000E000000001C00000E000000001E00DA
:10587800000F000000001E00000F000000001E00C6
:10588800000F000000001E000007000000001E00BE
:105898000007600000000F000007E0000080FFFF25
:1058A800FFFFFF010000FFFFFFFFFF0100000E00E8
:1058B8000000F000000004000000F00000000000FC
:1058C8000000F00000000000000070000000000070
:1058D80000007000000000000000700000000000E0
:1058E80000007000000000000010780000000000B8
:1058F8000038780000000000007E7800F0FFFFFF0D
:10590800FF7F7800E0FFFFFFFFFF3800C0000000C6
:10591800000038000000000000003800000000000F
:1059280000003C000000000000003C0000000000F7
:1059380000003C000000000000003C0000000000E7
:1059480000001C000000000000001E000000000015
:1059580000001E000000000018001F0000000000EA
:10596800F0010F0000000000C0FF0F000000000061
:1059780000FF07000000000000FE07000000000014
:1059880000FC03000000000000F800000000000018
:1059980000180000000000000000000000000000E7
:1059A80000000000000000000000000000000000EF
:1059B80000000000000000000000000000000000DF
:1059C80000000000000000000000000000000000CF
:1059D800000000000000000000000000000020009F
:1059E800400000000000E000C00100000000E003EB
:1059F800C00700000000E007C00700000000E00347
:105A0800C00300000000E001C00300000000E00146
:105A1800C00300000000E001C00300000000E00136
:105A2800C00300000000E001C00300000000E00126
:105A3800C00300000000E001C00300000000E00116
:105A4800C00300000000E001C00300000000E00106
:105A5800C00300000000E001C00300000000E001F6
:105A6800C00300000000E001C00300000000E001E6
:105A7800C00300000000E001C00300000000E001D6
:105A8800C00300000000E001C00300000000E001C6
:105A9800C00300000000E001C00300000000E001B6
:105AA800C00300000000E001C00300000000E000A7
:105AB800C00300000000E000C00300000000E00098
:105AC800C00300000000E000C00300000000F00078
